{
	"compilerInput": "{\"language\":\"Solidity\",\"sources\":{\"contracts/HelloWorld1.sol\":{\"content\":\"// SPDX-License-Identifier: MIT\\npragma solidity ^0.8.0;\\n\\ncontract Marketplace {\\n    struct Item {\\n        uint id;\\n        address payable seller;\\n        address payable owner;\\n        string title;\\n        string description;\\n        string imageHash; // IPFS hash of the image\\n        uint price;\\n        bool sold;\\n        bytes32 transactionHash; // Added transaction hash\\n    }\\n\\n    Item[] public items;\\n    uint public itemCount = 0;\\n\\n    event ItemListed(uint indexed itemId, address indexed seller, address indexed owner, string title, string imageHash, uint price, bytes32 transactionHash); // Updated event definition\\n    event ItemSold(uint itemId, address indexed oldOwner, address indexed newOwner, uint price);\\n    event PaymentSent(address indexed from, address indexed to, uint256 amount);\\n\\n    function listItem(string memory _title, string memory _description, string memory _imageHash, uint _price) public {\\n        require(_price > 0, \\\"Price must be greater than zero\\\");\\n        \\n        items.push(Item({\\n            id: itemCount,\\n            seller: payable(msg.sender),\\n            owner: payable(msg.sender), // Owner set as the seller initially\\n            title: _title,\\n            description: _description,\\n            imageHash: _imageHash,\\n            price: _price,\\n            sold: false,\\n            transactionHash: 0 // Initialize transaction hash to zero\\n        }));\\n        \\n        bytes32 transactionHash = keccak256(abi.encodePacked(block.timestamp, msg.sender, _title, _price)); // Generate transaction hash\\n        items[itemCount].transactionHash = transactionHash; // Set transaction hash for the listed item\\n        \\n        emit ItemListed(itemCount, msg.sender, msg.sender, _title, _imageHash, _price, transactionHash); // Emit event with transaction hash\\n        itemCount++;\\n    }\\n\\n    function buyItem(uint _id) public payable {\\n        require(_id < itemCount, \\\"Item ID does not exist\\\");\\n        Item storage item = items[_id];\\n        require(msg.value == item.price, \\\"Please submit the asking price in order to complete the purchase\\\");\\n        require(!item.sold, \\\"This item has already been sold\\\");\\n        require(msg.sender != item.owner, \\\"Owner cannot buy their own item\\\");\\n\\n        // Safer method to transfer funds using call\\n        (bool success, ) = item.owner.call{value: msg.value}(\\\"\\\");\\n        require(success, \\\"Failed to send Ether\\\");\\n\\n        address prevOwner = item.owner; // Track previous owner for event\\n        item.owner = payable(msg.sender); // Update owner to the new buyer\\n        item.sold = true;\\n\\n        emit PaymentSent(msg.sender, prevOwner, msg.value);\\n        emit ItemSold(_id, prevOwner, msg.sender, item.price);\\n    }\\n\\n    function getAllItems() public view returns (Item[] memory) {\\n        return items;\\n    }\\n\\n    function getItemById(uint _id) public view returns (Item memory) {\\n        require(_id < itemCount, \\\"Item ID does not exist\\\");\\n        return items[_id];\\n    }\\n}\\n\"}},\"settings\":{\"optimizer\":{\"enabled\":false,\"runs\":200},\"outputSelection\":{\"*\":{\"\":[\"ast\"],\"*\":[\"abi\",\"metadata\",\"devdoc\",\"userdoc\",\"storageLayout\",\"evm.legacyAssembly\",\"evm.bytecode\",\"evm.deployedBytecode\",\"evm.methodIdentifiers\",\"evm.gasEstimates\",\"evm.assembly\"]}},\"remappings\":[]}}",
	"name": "Marketplace",
	"bytecode": {
		"linkReferences": {},
		"object": "60806040525f6001553480156012575f80fd5b50611fa0806100205f395ff3fe608060405260043610610054575f3560e01c80634ba1d6aa146100585780636bfb0d0114610082578063bfb231d2146100ac578063cd2f0710146100f0578063d65274c91461012c578063e7fb74c714610154575b5f80fd5b348015610063575f80fd5b5061006c610170565b6040516100799190611321565b60405180910390f35b34801561008d575f80fd5b5061009661045d565b6040516100a39190611350565b60405180910390f35b3480156100b7575f80fd5b506100d260048036038101906100cd91906113a4565b610463565b6040516100e799989796959493929190611444565b60405180910390f35b3480156100fb575f80fd5b50610116600480360381019061011191906113a4565b610697565b60405161012391906115b4565b60405180910390f35b348015610137575f80fd5b50610152600480360381019061014d9190611700565b6109a6565b005b61016e600480360381019061016991906113a4565b610c72565b005b60605f805480602002602001604051908101604052809291908181526020015f905b82821015610454578382905f5260205f209060090201604051806101200160405290815f8201548152602001600182015f9054906101000a900473ffffffffffffffffffffffffffffffffffffffff1673ffffffffffffffffffffffffffffffffffffffff1673ffffffffffffffffffffffffffffffffffffffff168152602001600282015f9054906101000a900473ffffffffffffffffffffffffffffffffffffffff1673ffffffffffffffffffffffffffffffffffffffff1673ffffffffffffffffffffffffffffffffffffffff168152602001600382018054610277906117e5565b80601f01602080910402602001604051908101604052809291908181526020018280546102a3906117e5565b80156102ee5780601f106102c5576101008083540402835291602001916102ee565b820191905f5260205f20905b8154815290600101906020018083116102d157829003601f168201915b50505050508152602001600482018054610307906117e5565b80601f0160208091040260200160405190810160405280929190818152602001828054610333906117e5565b801561037e5780601f106103555761010080835404028352916020019161037e565b820191905f5260205f20905b81548152906001019060200180831161036157829003601f168201915b50505050508152602001600582018054610397906117e5565b80601f01602080910402602001604051908101604052809291908181526020018280546103c3906117e5565b801561040e5780601f106103e55761010080835404028352916020019161040e565b820191905f5260205f20905b8154815290600101906020018083116103f157829003601f168201915b5050505050815260200160068201548152602001600782015f9054906101000a900460ff1615151515815260200160088201548152505081526020019060010190610192565b50505050905090565b60015481565b5f8181548110610471575f80fd5b905f5260205f2090600902015f91509050805f015490806001015f9054906101000a900473ffffffffffffffffffffffffffffffffffffffff1690806002015f9054906101000a900473ffffffffffffffffffffffffffffffffffffffff16908060030180546104e0906117e5565b80601f016020809104026020016040519081016040528092919081815260200182805461050c906117e5565b80156105575780601f1061052e57610100808354040283529160200191610557565b820191905f5260205f20905b81548152906001019060200180831161053a57829003601f168201915b50505050509080600401805461056c906117e5565b80601f0160208091040260200160405190810160405280929190818152602001828054610598906117e5565b80156105e35780601f106105ba576101008083540402835291602001916105e3565b820191905f5260205f20905b8154815290600101906020018083116105c657829003601f168201915b5050505050908060050180546105f8906117e5565b80601f0160208091040260200160405190810160405280929190818152602001828054610624906117e5565b801561066f5780601f106106465761010080835404028352916020019161066f565b820191905f5260205f20905b81548152906001019060200180831161065257829003601f168201915b505050505090806006015490806007015f9054906101000a900460ff16908060080154905089565b61069f611026565b60015482106106e3576040517f08c379a00000000000000000000000000000000000000000000000000000000081526004016106da9061185f565b60405180910390fd5b5f82815481106106f6576106f561187d565b5b905f5260205f209060090201604051806101200160405290815f8201548152602001600182015f9054906101000a900473ffffffffffffffffffffffffffffffffffffffff1673ffffffffffffffffffffffffffffffffffffffff1673ffffffffffffffffffffffffffffffffffffffff168152602001600282015f9054906101000a900473ffffffffffffffffffffffffffffffffffffffff1673ffffffffffffffffffffffffffffffffffffffff1673ffffffffffffffffffffffffffffffffffffffff1681526020016003820180546107d1906117e5565b80601f01602080910402602001604051908101604052809291908181526020018280546107fd906117e5565b80156108485780601f1061081f57610100808354040283529160200191610848565b820191905f5260205f20905b81548152906001019060200180831161082b57829003601f168201915b50505050508152602001600482018054610861906117e5565b80601f016020809104026020016040519081016040528092919081815260200182805461088d906117e5565b80156108d85780601f106108af576101008083540402835291602001916108d8565b820191905f5260205f20905b8154815290600101906020018083116108bb57829003601f168201915b505050505081526020016005820180546108f1906117e5565b80601f016020809104026020016040519081016040528092919081815260200182805461091d906117e5565b80156109685780601f1061093f57610100808354040283529160200191610968565b820191905f5260205f20905b81548152906001019060200180831161094b57829003601f168201915b5050505050815260200160068201548152602001600782015f9054906101000a900460ff161515151581526020016008820154815250509050919050565b5f81116109e8576040517f08c379a00000000000000000000000000000000000000000000000000000000081526004016109df906118f4565b60405180910390fd5b5f60405180610120016040528060015481526020013373ffffffffffffffffffffffffffffffffffffffff1681526020013373ffffffffffffffffffffffffffffffffffffffff1681526020018681526020018581526020018481526020018381526020015f151581526020015f801b815250908060018154018082558091505060019003905f5260205f2090600902015f909190919091505f820151815f01556020820151816001015f6101000a81548173ffffffffffffffffffffffffffffffffffffffff021916908373ffffffffffffffffffffffffffffffffffffffff1602179055506040820151816002015f6101000a81548173ffffffffffffffffffffffffffffffffffffffff021916908373ffffffffffffffffffffffffffffffffffffffff1602179055506060820151816003019081610b2a9190611aaf565b506080820151816004019081610b409190611aaf565b5060a0820151816005019081610b569190611aaf565b5060c0820151816006015560e0820151816007015f6101000a81548160ff021916908315150217905550610100820151816008015550505f42338684604051602001610ba59493929190611c2e565b604051602081830303815290604052805190602001209050805f60015481548110610bd357610bd261187d565b5b905f5260205f209060090201600801819055503373ffffffffffffffffffffffffffffffffffffffff163373ffffffffffffffffffffffffffffffffffffffff166001547fa6131043c1cc8c5af6a89eedda134d3f914146d527b69fc4f68c0b7296ed4e6e88878787604051610c4c9493929190611c77565b60405180910390a460015f815480929190610c6690611cf5565b91905055505050505050565b6001548110610cb6576040517f08c379a0000000000000000000000000000000000000000000000000000000008152600401610cad9061185f565b60405180910390fd5b5f808281548110610cca57610cc961187d565b5b905f5260205f209060090201905080600601543414610d1e576040517f08c379a0000000000000000000000000000000000000000000000000000000008152600401610d1590611dac565b60405180910390fd5b806007015f9054906101000a900460ff1615610d6f576040517f08c379a0000000000000000000000000000000000000000000000000000000008152600401610d6690611e14565b60405180910390fd5b806002015f9054906101000a900473ffffffffffffffffffffffffffffffffffffffff1673ffffffffffffffffffffffffffffffffffffffff163373ffffffffffffffffffffffffffffffffffffffff1603610e00576040517f08c379a0000000000000000000000000000000000000000000000000000000008152600401610df790611e7c565b60405180910390fd5b5f816002015f9054906101000a900473ffffffffffffffffffffffffffffffffffffffff1673ffffffffffffffffffffffffffffffffffffffff1634604051610e4890611ec7565b5f6040518083038185875af1925050503d805f8114610e82576040519150601f19603f3d011682016040523d82523d5f602084013e610e87565b606091505b5050905080610ecb576040517f08c379a0000000000000000000000000000000000000000000000000000000008152600401610ec290611f25565b60405180910390fd5b5f826002015f9054906101000a900473ffffffffffffffffffffffffffffffffffffffff16905033836002015f6101000a81548173ffffffffffffffffffffffffffffffffffffffff021916908373ffffffffffffffffffffffffffffffffffffffff1602179055506001836007015f6101000a81548160ff0219169083151502179055508073ffffffffffffffffffffffffffffffffffffffff163373ffffffffffffffffffffffffffffffffffffffff167fd52bd61f7c422d441e024604f4517878fd3305d6acf0fe37baef23ed21af6bc934604051610fad9190611350565b60405180910390a33373ffffffffffffffffffffffffffffffffffffffff168173ffffffffffffffffffffffffffffffffffffffff167f04ddd54c6b746e69ba87f862311f7670bd1d7276846778ac81cd38747b27a746868660060154604051611018929190611f43565b60405180910390a350505050565b6040518061012001604052805f81526020015f73ffffffffffffffffffffffffffffffffffffffff1681526020015f73ffffffffffffffffffffffffffffffffffffffff1681526020016060815260200160608152602001606081526020015f81526020015f151581526020015f80191681525090565b5f81519050919050565b5f82825260208201905092915050565b5f819050602082019050919050565b5f819050919050565b6110d8816110c6565b82525050565b5f73ffffffffffffffffffffffffffffffffffffffff82169050919050565b5f611107826110de565b9050919050565b611117816110fd565b82525050565b5f81519050919050565b5f82825260208201905092915050565b8281835e5f83830152505050565b5f601f19601f8301169050919050565b5f61115f8261111d565b6111698185611127565b9350611179818560208601611137565b61118281611145565b840191505092915050565b5f8115159050919050565b6111a18161118d565b82525050565b5f819050919050565b6111b9816111a7565b82525050565b5f61012083015f8301516111d55f8601826110cf565b5060208301516111e8602086018261110e565b5060408301516111fb604086018261110e565b50606083015184820360608601526112138282611155565b9150506080830151848203608086015261122d8282611155565b91505060a083015184820360a08601526112478282611155565b91505060c083015161125c60c08601826110cf565b5060e083015161126f60e0860182611198565b506101008301516112846101008601826111b0565b508091505092915050565b5f61129a83836111bf565b905092915050565b5f602082019050919050565b5f6112b88261109d565b6112c281856110a7565b9350836020820285016112d4856110b7565b805f5b8581101561130f57848403895281516112f0858261128f565b94506112fb836112a2565b925060208a019950506001810190506112d7565b50829750879550505050505092915050565b5f6020820190508181035f83015261133981846112ae565b905092915050565b61134a816110c6565b82525050565b5f6020820190506113635f830184611341565b92915050565b5f604051905090565b5f80fd5b5f80fd5b611383816110c6565b811461138d575f80fd5b50565b5f8135905061139e8161137a565b92915050565b5f602082840312156113b9576113b8611372565b5b5f6113c684828501611390565b91505092915050565b6113d8816110fd565b82525050565b5f82825260208201905092915050565b5f6113f88261111d565b61140281856113de565b9350611412818560208601611137565b61141b81611145565b840191505092915050565b61142f8161118d565b82525050565b61143e816111a7565b82525050565b5f610120820190506114585f83018c611341565b611465602083018b6113cf565b611472604083018a6113cf565b818103606083015261148481896113ee565b9050818103608083015261149881886113ee565b905081810360a08301526114ac81876113ee565b90506114bb60c0830186611341565b6114c860e0830185611426565b6114d6610100830184611435565b9a9950505050505050505050565b5f61012083015f8301516114fa5f8601826110cf565b50602083015161150d602086018261110e565b506040830151611520604086018261110e565b50606083015184820360608601526115388282611155565b915050608083015184820360808601526115528282611155565b91505060a083015184820360a086015261156c8282611155565b91505060c083015161158160c08601826110cf565b5060e083015161159460e0860182611198565b506101008301516115a96101008601826111b0565b508091505092915050565b5f6020820190508181035f8301526115cc81846114e4565b905092915050565b5f80fd5b5f80fd5b7f4e487b71000000000000000000000000000000000000000000000000000000005f52604160045260245ffd5b61161282611145565b810181811067ffffffffffffffff82111715611631576116306115dc565b5b80604052505050565b5f611643611369565b905061164f8282611609565b919050565b5f67ffffffffffffffff82111561166e5761166d6115dc565b5b61167782611145565b9050602081019050919050565b828183375f83830152505050565b5f6116a461169f84611654565b61163a565b9050828152602081018484840111156116c0576116bf6115d8565b5b6116cb848285611684565b509392505050565b5f82601f8301126116e7576116e66115d4565b5b81356116f7848260208601611692565b91505092915050565b5f805f806080858703121561171857611717611372565b5b5f85013567ffffffffffffffff81111561173557611734611376565b5b611741878288016116d3565b945050602085013567ffffffffffffffff81111561176257611761611376565b5b61176e878288016116d3565b935050604085013567ffffffffffffffff81111561178f5761178e611376565b5b61179b878288016116d3565b92505060606117ac87828801611390565b91505092959194509250565b7f4e487b71000000000000000000000000000000000000000000000000000000005f52602260045260245ffd5b5f60028204905060018216806117fc57607f821691505b60208210810361180f5761180e6117b8565b5b50919050565b7f4974656d20494420646f6573206e6f74206578697374000000000000000000005f82015250565b5f6118496016836113de565b915061185482611815565b602082019050919050565b5f6020820190508181035f8301526118768161183d565b9050919050565b7f4e487b71000000000000000000000000000000000000000000000000000000005f52603260045260245ffd5b7f5072696365206d7573742062652067726561746572207468616e207a65726f005f82015250565b5f6118de601f836113de565b91506118e9826118aa565b602082019050919050565b5f6020820190508181035f83015261190b816118d2565b9050919050565b5f819050815f5260205f209050919050565b5f6020601f8301049050919050565b5f82821b905092915050565b5f6008830261196e7fffffffffffffffffffffffffffffffffffffffffffffffffffffffffffffffff82611933565b6119788683611933565b95508019841693508086168417925050509392505050565b5f819050919050565b5f6119b36119ae6119a9846110c6565b611990565b6110c6565b9050919050565b5f819050919050565b6119cc83611999565b6119e06119d8826119ba565b84845461193f565b825550505050565b5f90565b6119f46119e8565b6119ff8184846119c3565b505050565b5b81811015611a2257611a175f826119ec565b600181019050611a05565b5050565b601f821115611a6757611a3881611912565b611a4184611924565b81016020851015611a50578190505b611a64611a5c85611924565b830182611a04565b50505b505050565b5f82821c905092915050565b5f611a875f1984600802611a6c565b1980831691505092915050565b5f611a9f8383611a78565b9150826002028217905092915050565b611ab88261111d565b67ffffffffffffffff811115611ad157611ad06115dc565b5b611adb82546117e5565b611ae6828285611a26565b5f60209050601f831160018114611b17575f8415611b05578287015190505b611b0f8582611a94565b865550611b76565b601f198416611b2586611912565b5f5b82811015611b4c57848901518255600182019150602085019450602081019050611b27565b86831015611b695784890151611b65601f891682611a78565b8355505b6001600288020188555050505b505050505050565b5f819050919050565b611b98611b93826110c6565b611b7e565b82525050565b5f611ba8826110de565b9050919050565b5f8160601b9050919050565b5f611bc582611baf565b9050919050565b5f611bd682611bbb565b9050919050565b611bee611be982611b9e565b611bcc565b82525050565b5f81905092915050565b5f611c088261111d565b611c128185611bf4565b9350611c22818560208601611137565b80840191505092915050565b5f611c398287611b87565b602082019150611c498286611bdd565b601482019150611c598285611bfe565b9150611c658284611b87565b60208201915081905095945050505050565b5f6080820190508181035f830152611c8f81876113ee565b90508181036020830152611ca381866113ee565b9050611cb26040830185611341565b611cbf6060830184611435565b95945050505050565b7f4e487b71000000000000000000000000000000000000000000000000000000005f52601160045260245ffd5b5f611cff826110c6565b91507fffffffffffffffffffffffffffffffffffffffffffffffffffffffffffffffff8203611d3157611d30611cc8565b5b600182019050919050565b7f506c65617365207375626d6974207468652061736b696e6720707269636520695f8201527f6e206f7264657220746f20636f6d706c65746520746865207075726368617365602082015250565b5f611d966040836113de565b9150611da182611d3c565b604082019050919050565b5f6020820190508181035f830152611dc381611d8a565b9050919050565b7f54686973206974656d2068617320616c7265616479206265656e20736f6c64005f82015250565b5f611dfe601f836113de565b9150611e0982611dca565b602082019050919050565b5f6020820190508181035f830152611e2b81611df2565b9050919050565b7f4f776e65722063616e6e6f7420627579207468656972206f776e206974656d005f82015250565b5f611e66601f836113de565b9150611e7182611e32565b602082019050919050565b5f6020820190508181035f830152611e9381611e5a565b9050919050565b5f81905092915050565b50565b5f611eb25f83611e9a565b9150611ebd82611ea4565b5f82019050919050565b5f611ed182611ea7565b9150819050919050565b7f4661696c656420746f2073656e642045746865720000000000000000000000005f82015250565b5f611f0f6014836113de565b9150611f1a82611edb565b602082019050919050565b5f6020820190508181035f830152611f3c81611f03565b9050919050565b5f604082019050611f565f830185611341565b611f636020830184611341565b939250505056fea2646970667358221220eb5b6202ca78a7773f4aa07b2ca8297d27940a410e209a58e408c1fc3234601d64736f6c63430008190033",
		"opcodes": "PUSH1 0x80 PUSH1 0x40 MSTORE PUSH0 PUSH1 0x1 SSTORE CALLVALUE DUP1 ISZERO PUSH1 0x12 JUMPI PUSH0 DUP1 REVERT JUMPDEST POP PUSH2 0x1FA0 DUP1 PUSH2 0x20 PUSH0 CODECOPY PUSH0 RETURN INVALID PUSH1 0x80 PUSH1 0x40 MSTORE PUSH1 0x4 CALLDATASIZE LT PUSH2 0x54 JUMPI PUSH0 CALLDATALOAD PUSH1 0xE0 SHR DUP1 PUSH4 0x4BA1D6AA EQ PUSH2 0x58 JUMPI DUP1 PUSH4 0x6BFB0D01 EQ PUSH2 0x82 JUMPI DUP1 PUSH4 0xBFB231D2 EQ PUSH2 0xAC JUMPI DUP1 PUSH4 0xCD2F0710 EQ PUSH2 0xF0 JUMPI DUP1 PUSH4 0xD65274C9 EQ PUSH2 0x12C JUMPI DUP1 PUSH4 0xE7FB74C7 EQ PUSH2 0x154 JUMPI JUMPDEST PUSH0 DUP1 REVERT JUMPDEST CALLVALUE DUP1 ISZERO PUSH2 0x63 JUMPI PUSH0 DUP1 REVERT JUMPDEST POP PUSH2 0x6C PUSH2 0x170 JUMP JUMPDEST PUSH1 0x40 MLOAD PUSH2 0x79 SWAP2 SWAP1 PUSH2 0x1321 JUMP JUMPDEST PUSH1 0x40 MLOAD DUP1 SWAP2 SUB SWAP1 RETURN JUMPDEST CALLVALUE DUP1 ISZERO PUSH2 0x8D JUMPI PUSH0 DUP1 REVERT JUMPDEST POP PUSH2 0x96 PUSH2 0x45D JUMP JUMPDEST PUSH1 0x40 MLOAD PUSH2 0xA3 SWAP2 SWAP1 PUSH2 0x1350 JUMP JUMPDEST PUSH1 0x40 MLOAD DUP1 SWAP2 SUB SWAP1 RETURN JUMPDEST CALLVALUE DUP1 ISZERO PUSH2 0xB7 JUMPI PUSH0 DUP1 REVERT JUMPDEST POP PUSH2 0xD2 PUSH1 0x4 DUP1 CALLDATASIZE SUB DUP2 ADD SWAP1 PUSH2 0xCD SWAP2 SWAP1 PUSH2 0x13A4 JUMP JUMPDEST PUSH2 0x463 JUMP JUMPDEST PUSH1 0x40 MLOAD PUSH2 0xE7 SWAP10 SWAP9 SWAP8 SWAP7 SWAP6 SWAP5 SWAP4 SWAP3 SWAP2 SWAP1 PUSH2 0x1444 JUMP JUMPDEST PUSH1 0x40 MLOAD DUP1 SWAP2 SUB SWAP1 RETURN JUMPDEST CALLVALUE DUP1 ISZERO PUSH2 0xFB JUMPI PUSH0 DUP1 REVERT JUMPDEST POP PUSH2 0x116 PUSH1 0x4 DUP1 CALLDATASIZE SUB DUP2 ADD SWAP1 PUSH2 0x111 SWAP2 SWAP1 PUSH2 0x13A4 JUMP JUMPDEST PUSH2 0x697 JUMP JUMPDEST PUSH1 0x40 MLOAD PUSH2 0x123 SWAP2 SWAP1 PUSH2 0x15B4 JUMP JUMPDEST PUSH1 0x40 MLOAD DUP1 SWAP2 SUB SWAP1 RETURN JUMPDEST CALLVALUE DUP1 ISZERO PUSH2 0x137 JUMPI PUSH0 DUP1 REVERT JUMPDEST POP PUSH2 0x152 PUSH1 0x4 DUP1 CALLDATASIZE SUB DUP2 ADD SWAP1 PUSH2 0x14D SWAP2 SWAP1 PUSH2 0x1700 JUMP JUMPDEST PUSH2 0x9A6 JUMP JUMPDEST STOP JUMPDEST PUSH2 0x16E PUSH1 0x4 DUP1 CALLDATASIZE SUB DUP2 ADD SWAP1 PUSH2 0x169 SWAP2 SWAP1 PUSH2 0x13A4 JUMP JUMPDEST PUSH2 0xC72 JUMP JUMPDEST STOP JUMPDEST PUSH1 0x60 PUSH0 DUP1 SLOAD DUP1 PUSH1 0x20 MUL PUSH1 0x20 ADD PUSH1 0x40 MLOAD SWAP1 DUP2 ADD PUSH1 0x40 MSTORE DUP1 SWAP3 SWAP2 SWAP1 DUP2 DUP2 MSTORE PUSH1 0x20 ADD PUSH0 SWAP1 JUMPDEST DUP3 DUP3 LT ISZERO PUSH2 0x454 JUMPI DUP4 DUP3 SWAP1 PUSH0 MSTORE PUSH1 0x20 PUSH0 KECCAK256 SWAP1 PUSH1 0x9 MUL ADD PUSH1 0x40 MLOAD DUP1 PUSH2 0x120 ADD PUSH1 0x40 MSTORE SWAP1 DUP2 PUSH0 DUP3 ADD SLOAD DUP2 MSTORE PUSH1 0x20 ADD PUSH1 0x1 DUP3 ADD PUSH0 SWAP1 SLOAD SWAP1 PUSH2 0x100 EXP SWAP1 DIV PUSH20 0xFFFFFFFFFFFFFFFFFFFFFFFFFFFFFFFFFFFFFFFF AND PUSH20 0xFFFFFFFFFFFFFFFFFFFFFFFFFFFFFFFFFFFFFFFF AND PUSH20 0xFFFFFFFFFFFFFFFFFFFFFFFFFFFFFFFFFFFFFFFF AND DUP2 MSTORE PUSH1 0x20 ADD PUSH1 0x2 DUP3 ADD PUSH0 SWAP1 SLOAD SWAP1 PUSH2 0x100 EXP SWAP1 DIV PUSH20 0xFFFFFFFFFFFFFFFFFFFFFFFFFFFFFFFFFFFFFFFF AND PUSH20 0xFFFFFFFFFFFFFFFFFFFFFFFFFFFFFFFFFFFFFFFF AND PUSH20 0xFFFFFFFFFFFFFFFFFFFFFFFFFFFFFFFFFFFFFFFF AND DUP2 MSTORE PUSH1 0x20 ADD PUSH1 0x3 DUP3 ADD DUP1 SLOAD PUSH2 0x277 SWAP1 PUSH2 0x17E5 JUMP JUMPDEST DUP1 PUSH1 0x1F ADD PUSH1 0x20 DUP1 SWAP2 DIV MUL PUSH1 0x20 ADD PUSH1 0x40 MLOAD SWAP1 DUP2 ADD PUSH1 0x40 MSTORE DUP1 SWAP3 SWAP2 SWAP1 DUP2 DUP2 MSTORE PUSH1 0x20 ADD DUP3 DUP1 SLOAD PUSH2 0x2A3 SWAP1 PUSH2 0x17E5 JUMP JUMPDEST DUP1 ISZERO PUSH2 0x2EE JUMPI DUP1 PUSH1 0x1F LT PUSH2 0x2C5 JUMPI PUSH2 0x100 DUP1 DUP4 SLOAD DIV MUL DUP4 MSTORE SWAP2 PUSH1 0x20 ADD SWAP2 PUSH2 0x2EE JUMP JUMPDEST DUP3 ADD SWAP2 SWAP1 PUSH0 MSTORE PUSH1 0x20 PUSH0 KECCAK256 SWAP1 JUMPDEST DUP2 SLOAD DUP2 MSTORE SWAP1 PUSH1 0x1 ADD SWAP1 PUSH1 0x20 ADD DUP1 DUP4 GT PUSH2 0x2D1 JUMPI DUP3 SWAP1 SUB PUSH1 0x1F AND DUP3 ADD SWAP2 JUMPDEST POP POP POP POP POP DUP2 MSTORE PUSH1 0x20 ADD PUSH1 0x4 DUP3 ADD DUP1 SLOAD PUSH2 0x307 SWAP1 PUSH2 0x17E5 JUMP JUMPDEST DUP1 PUSH1 0x1F ADD PUSH1 0x20 DUP1 SWAP2 DIV MUL PUSH1 0x20 ADD PUSH1 0x40 MLOAD SWAP1 DUP2 ADD PUSH1 0x40 MSTORE DUP1 SWAP3 SWAP2 SWAP1 DUP2 DUP2 MSTORE PUSH1 0x20 ADD DUP3 DUP1 SLOAD PUSH2 0x333 SWAP1 PUSH2 0x17E5 JUMP JUMPDEST DUP1 ISZERO PUSH2 0x37E JUMPI DUP1 PUSH1 0x1F LT PUSH2 0x355 JUMPI PUSH2 0x100 DUP1 DUP4 SLOAD DIV MUL DUP4 MSTORE SWAP2 PUSH1 0x20 ADD SWAP2 PUSH2 0x37E JUMP JUMPDEST DUP3 ADD SWAP2 SWAP1 PUSH0 MSTORE PUSH1 0x20 PUSH0 KECCAK256 SWAP1 JUMPDEST DUP2 SLOAD DUP2 MSTORE SWAP1 PUSH1 0x1 ADD SWAP1 PUSH1 0x20 ADD DUP1 DUP4 GT PUSH2 0x361 JUMPI DUP3 SWAP1 SUB PUSH1 0x1F AND DUP3 ADD SWAP2 JUMPDEST POP POP POP POP POP DUP2 MSTORE PUSH1 0x20 ADD PUSH1 0x5 DUP3 ADD DUP1 SLOAD PUSH2 0x397 SWAP1 PUSH2 0x17E5 JUMP JUMPDEST DUP1 PUSH1 0x1F ADD PUSH1 0x20 DUP1 SWAP2 DIV MUL PUSH1 0x20 ADD PUSH1 0x40 MLOAD SWAP1 DUP2 ADD PUSH1 0x40 MSTORE DUP1 SWAP3 SWAP2 SWAP1 DUP2 DUP2 MSTORE PUSH1 0x20 ADD DUP3 DUP1 SLOAD PUSH2 0x3C3 SWAP1 PUSH2 0x17E5 JUMP JUMPDEST DUP1 ISZERO PUSH2 0x40E JUMPI DUP1 PUSH1 0x1F LT PUSH2 0x3E5 JUMPI PUSH2 0x100 DUP1 DUP4 SLOAD DIV MUL DUP4 MSTORE SWAP2 PUSH1 0x20 ADD SWAP2 PUSH2 0x40E JUMP JUMPDEST DUP3 ADD SWAP2 SWAP1 PUSH0 MSTORE PUSH1 0x20 PUSH0 KECCAK256 SWAP1 JUMPDEST DUP2 SLOAD DUP2 MSTORE SWAP1 PUSH1 0x1 ADD SWAP1 PUSH1 0x20 ADD DUP1 DUP4 GT PUSH2 0x3F1 JUMPI DUP3 SWAP1 SUB PUSH1 0x1F AND DUP3 ADD SWAP2 JUMPDEST POP POP POP POP POP DUP2 MSTORE PUSH1 0x20 ADD PUSH1 0x6 DUP3 ADD SLOAD DUP2 MSTORE PUSH1 0x20 ADD PUSH1 0x7 DUP3 ADD PUSH0 SWAP1 SLOAD SWAP1 PUSH2 0x100 EXP SWAP1 DIV PUSH1 0xFF AND ISZERO ISZERO ISZERO ISZERO DUP2 MSTORE PUSH1 0x20 ADD PUSH1 0x8 DUP3 ADD SLOAD DUP2 MSTORE POP POP DUP2 MSTORE PUSH1 0x20 ADD SWAP1 PUSH1 0x1 ADD SWAP1 PUSH2 0x192 JUMP JUMPDEST POP POP POP POP SWAP1 POP SWAP1 JUMP JUMPDEST PUSH1 0x1 SLOAD DUP2 JUMP JUMPDEST PUSH0 DUP2 DUP2 SLOAD DUP2 LT PUSH2 0x471 JUMPI PUSH0 DUP1 REVERT JUMPDEST SWAP1 PUSH0 MSTORE PUSH1 0x20 PUSH0 KECCAK256 SWAP1 PUSH1 0x9 MUL ADD PUSH0 SWAP2 POP SWAP1 POP DUP1 PUSH0 ADD SLOAD SWAP1 DUP1 PUSH1 0x1 ADD PUSH0 SWAP1 SLOAD SWAP1 PUSH2 0x100 EXP SWAP1 DIV PUSH20 0xFFFFFFFFFFFFFFFFFFFFFFFFFFFFFFFFFFFFFFFF AND SWAP1 DUP1 PUSH1 0x2 ADD PUSH0 SWAP1 SLOAD SWAP1 PUSH2 0x100 EXP SWAP1 DIV PUSH20 0xFFFFFFFFFFFFFFFFFFFFFFFFFFFFFFFFFFFFFFFF AND SWAP1 DUP1 PUSH1 0x3 ADD DUP1 SLOAD PUSH2 0x4E0 SWAP1 PUSH2 0x17E5 JUMP JUMPDEST DUP1 PUSH1 0x1F ADD PUSH1 0x20 DUP1 SWAP2 DIV MUL PUSH1 0x20 ADD PUSH1 0x40 MLOAD SWAP1 DUP2 ADD PUSH1 0x40 MSTORE DUP1 SWAP3 SWAP2 SWAP1 DUP2 DUP2 MSTORE PUSH1 0x20 ADD DUP3 DUP1 SLOAD PUSH2 0x50C SWAP1 PUSH2 0x17E5 JUMP JUMPDEST DUP1 ISZERO PUSH2 0x557 JUMPI DUP1 PUSH1 0x1F LT PUSH2 0x52E JUMPI PUSH2 0x100 DUP1 DUP4 SLOAD DIV MUL DUP4 MSTORE SWAP2 PUSH1 0x20 ADD SWAP2 PUSH2 0x557 JUMP JUMPDEST DUP3 ADD SWAP2 SWAP1 PUSH0 MSTORE PUSH1 0x20 PUSH0 KECCAK256 SWAP1 JUMPDEST DUP2 SLOAD DUP2 MSTORE SWAP1 PUSH1 0x1 ADD SWAP1 PUSH1 0x20 ADD DUP1 DUP4 GT PUSH2 0x53A JUMPI DUP3 SWAP1 SUB PUSH1 0x1F AND DUP3 ADD SWAP2 JUMPDEST POP POP POP POP POP SWAP1 DUP1 PUSH1 0x4 ADD DUP1 SLOAD PUSH2 0x56C SWAP1 PUSH2 0x17E5 JUMP JUMPDEST DUP1 PUSH1 0x1F ADD PUSH1 0x20 DUP1 SWAP2 DIV MUL PUSH1 0x20 ADD PUSH1 0x40 MLOAD SWAP1 DUP2 ADD PUSH1 0x40 MSTORE DUP1 SWAP3 SWAP2 SWAP1 DUP2 DUP2 MSTORE PUSH1 0x20 ADD DUP3 DUP1 SLOAD PUSH2 0x598 SWAP1 PUSH2 0x17E5 JUMP JUMPDEST DUP1 ISZERO PUSH2 0x5E3 JUMPI DUP1 PUSH1 0x1F LT PUSH2 0x5BA JUMPI PUSH2 0x100 DUP1 DUP4 SLOAD DIV MUL DUP4 MSTORE SWAP2 PUSH1 0x20 ADD SWAP2 PUSH2 0x5E3 JUMP JUMPDEST DUP3 ADD SWAP2 SWAP1 PUSH0 MSTORE PUSH1 0x20 PUSH0 KECCAK256 SWAP1 JUMPDEST DUP2 SLOAD DUP2 MSTORE SWAP1 PUSH1 0x1 ADD SWAP1 PUSH1 0x20 ADD DUP1 DUP4 GT PUSH2 0x5C6 JUMPI DUP3 SWAP1 SUB PUSH1 0x1F AND DUP3 ADD SWAP2 JUMPDEST POP POP POP POP POP SWAP1 DUP1 PUSH1 0x5 ADD DUP1 SLOAD PUSH2 0x5F8 SWAP1 PUSH2 0x17E5 JUMP JUMPDEST DUP1 PUSH1 0x1F ADD PUSH1 0x20 DUP1 SWAP2 DIV MUL PUSH1 0x20 ADD PUSH1 0x40 MLOAD SWAP1 DUP2 ADD PUSH1 0x40 MSTORE DUP1 SWAP3 SWAP2 SWAP1 DUP2 DUP2 MSTORE PUSH1 0x20 ADD DUP3 DUP1 SLOAD PUSH2 0x624 SWAP1 PUSH2 0x17E5 JUMP JUMPDEST DUP1 ISZERO PUSH2 0x66F JUMPI DUP1 PUSH1 0x1F LT PUSH2 0x646 JUMPI PUSH2 0x100 DUP1 DUP4 SLOAD DIV MUL DUP4 MSTORE SWAP2 PUSH1 0x20 ADD SWAP2 PUSH2 0x66F JUMP JUMPDEST DUP3 ADD SWAP2 SWAP1 PUSH0 MSTORE PUSH1 0x20 PUSH0 KECCAK256 SWAP1 JUMPDEST DUP2 SLOAD DUP2 MSTORE SWAP1 PUSH1 0x1 ADD SWAP1 PUSH1 0x20 ADD DUP1 DUP4 GT PUSH2 0x652 JUMPI DUP3 SWAP1 SUB PUSH1 0x1F AND DUP3 ADD SWAP2 JUMPDEST POP POP POP POP POP SWAP1 DUP1 PUSH1 0x6 ADD SLOAD SWAP1 DUP1 PUSH1 0x7 ADD PUSH0 SWAP1 SLOAD SWAP1 PUSH2 0x100 EXP SWAP1 DIV PUSH1 0xFF AND SWAP1 DUP1 PUSH1 0x8 ADD SLOAD SWAP1 POP DUP10 JUMP JUMPDEST PUSH2 0x69F PUSH2 0x1026 JUMP JUMPDEST PUSH1 0x1 SLOAD DUP3 LT PUSH2 0x6E3 JUMPI PUSH1 0x40 MLOAD PUSH32 0x8C379A000000000000000000000000000000000000000000000000000000000 DUP2 MSTORE PUSH1 0x4 ADD PUSH2 0x6DA SWAP1 PUSH2 0x185F JUMP JUMPDEST PUSH1 0x40 MLOAD DUP1 SWAP2 SUB SWAP1 REVERT JUMPDEST PUSH0 DUP3 DUP2 SLOAD DUP2 LT PUSH2 0x6F6 JUMPI PUSH2 0x6F5 PUSH2 0x187D JUMP JUMPDEST JUMPDEST SWAP1 PUSH0 MSTORE PUSH1 0x20 PUSH0 KECCAK256 SWAP1 PUSH1 0x9 MUL ADD PUSH1 0x40 MLOAD DUP1 PUSH2 0x120 ADD PUSH1 0x40 MSTORE SWAP1 DUP2 PUSH0 DUP3 ADD SLOAD DUP2 MSTORE PUSH1 0x20 ADD PUSH1 0x1 DUP3 ADD PUSH0 SWAP1 SLOAD SWAP1 PUSH2 0x100 EXP SWAP1 DIV PUSH20 0xFFFFFFFFFFFFFFFFFFFFFFFFFFFFFFFFFFFFFFFF AND PUSH20 0xFFFFFFFFFFFFFFFFFFFFFFFFFFFFFFFFFFFFFFFF AND PUSH20 0xFFFFFFFFFFFFFFFFFFFFFFFFFFFFFFFFFFFFFFFF AND DUP2 MSTORE PUSH1 0x20 ADD PUSH1 0x2 DUP3 ADD PUSH0 SWAP1 SLOAD SWAP1 PUSH2 0x100 EXP SWAP1 DIV PUSH20 0xFFFFFFFFFFFFFFFFFFFFFFFFFFFFFFFFFFFFFFFF AND PUSH20 0xFFFFFFFFFFFFFFFFFFFFFFFFFFFFFFFFFFFFFFFF AND PUSH20 0xFFFFFFFFFFFFFFFFFFFFFFFFFFFFFFFFFFFFFFFF AND DUP2 MSTORE PUSH1 0x20 ADD PUSH1 0x3 DUP3 ADD DUP1 SLOAD PUSH2 0x7D1 SWAP1 PUSH2 0x17E5 JUMP JUMPDEST DUP1 PUSH1 0x1F ADD PUSH1 0x20 DUP1 SWAP2 DIV MUL PUSH1 0x20 ADD PUSH1 0x40 MLOAD SWAP1 DUP2 ADD PUSH1 0x40 MSTORE DUP1 SWAP3 SWAP2 SWAP1 DUP2 DUP2 MSTORE PUSH1 0x20 ADD DUP3 DUP1 SLOAD PUSH2 0x7FD SWAP1 PUSH2 0x17E5 JUMP JUMPDEST DUP1 ISZERO PUSH2 0x848 JUMPI DUP1 PUSH1 0x1F LT PUSH2 0x81F JUMPI PUSH2 0x100 DUP1 DUP4 SLOAD DIV MUL DUP4 MSTORE SWAP2 PUSH1 0x20 ADD SWAP2 PUSH2 0x848 JUMP JUMPDEST DUP3 ADD SWAP2 SWAP1 PUSH0 MSTORE PUSH1 0x20 PUSH0 KECCAK256 SWAP1 JUMPDEST DUP2 SLOAD DUP2 MSTORE SWAP1 PUSH1 0x1 ADD SWAP1 PUSH1 0x20 ADD DUP1 DUP4 GT PUSH2 0x82B JUMPI DUP3 SWAP1 SUB PUSH1 0x1F AND DUP3 ADD SWAP2 JUMPDEST POP POP POP POP POP DUP2 MSTORE PUSH1 0x20 ADD PUSH1 0x4 DUP3 ADD DUP1 SLOAD PUSH2 0x861 SWAP1 PUSH2 0x17E5 JUMP JUMPDEST DUP1 PUSH1 0x1F ADD PUSH1 0x20 DUP1 SWAP2 DIV MUL PUSH1 0x20 ADD PUSH1 0x40 MLOAD SWAP1 DUP2 ADD PUSH1 0x40 MSTORE DUP1 SWAP3 SWAP2 SWAP1 DUP2 DUP2 MSTORE PUSH1 0x20 ADD DUP3 DUP1 SLOAD PUSH2 0x88D SWAP1 PUSH2 0x17E5 JUMP JUMPDEST DUP1 ISZERO PUSH2 0x8D8 JUMPI DUP1 PUSH1 0x1F LT PUSH2 0x8AF JUMPI PUSH2 0x100 DUP1 DUP4 SLOAD DIV MUL DUP4 MSTORE SWAP2 PUSH1 0x20 ADD SWAP2 PUSH2 0x8D8 JUMP JUMPDEST DUP3 ADD SWAP2 SWAP1 PUSH0 MSTORE PUSH1 0x20 PUSH0 KECCAK256 SWAP1 JUMPDEST DUP2 SLOAD DUP2 MSTORE SWAP1 PUSH1 0x1 ADD SWAP1 PUSH1 0x20 ADD DUP1 DUP4 GT PUSH2 0x8BB JUMPI DUP3 SWAP1 SUB PUSH1 0x1F AND DUP3 ADD SWAP2 JUMPDEST POP POP POP POP POP DUP2 MSTORE PUSH1 0x20 ADD PUSH1 0x5 DUP3 ADD DUP1 SLOAD PUSH2 0x8F1 SWAP1 PUSH2 0x17E5 JUMP JUMPDEST DUP1 PUSH1 0x1F ADD PUSH1 0x20 DUP1 SWAP2 DIV MUL PUSH1 0x20 ADD PUSH1 0x40 MLOAD SWAP1 DUP2 ADD PUSH1 0x40 MSTORE DUP1 SWAP3 SWAP2 SWAP1 DUP2 DUP2 MSTORE PUSH1 0x20 ADD DUP3 DUP1 SLOAD PUSH2 0x91D SWAP1 PUSH2 0x17E5 JUMP JUMPDEST DUP1 ISZERO PUSH2 0x968 JUMPI DUP1 PUSH1 0x1F LT PUSH2 0x93F JUMPI PUSH2 0x100 DUP1 DUP4 SLOAD DIV MUL DUP4 MSTORE SWAP2 PUSH1 0x20 ADD SWAP2 PUSH2 0x968 JUMP JUMPDEST DUP3 ADD SWAP2 SWAP1 PUSH0 MSTORE PUSH1 0x20 PUSH0 KECCAK256 SWAP1 JUMPDEST DUP2 SLOAD DUP2 MSTORE SWAP1 PUSH1 0x1 ADD SWAP1 PUSH1 0x20 ADD DUP1 DUP4 GT PUSH2 0x94B JUMPI DUP3 SWAP1 SUB PUSH1 0x1F AND DUP3 ADD SWAP2 JUMPDEST POP POP POP POP POP DUP2 MSTORE PUSH1 0x20 ADD PUSH1 0x6 DUP3 ADD SLOAD DUP2 MSTORE PUSH1 0x20 ADD PUSH1 0x7 DUP3 ADD PUSH0 SWAP1 SLOAD SWAP1 PUSH2 0x100 EXP SWAP1 DIV PUSH1 0xFF AND ISZERO ISZERO ISZERO ISZERO DUP2 MSTORE PUSH1 0x20 ADD PUSH1 0x8 DUP3 ADD SLOAD DUP2 MSTORE POP POP SWAP1 POP SWAP2 SWAP1 POP JUMP JUMPDEST PUSH0 DUP2 GT PUSH2 0x9E8 JUMPI PUSH1 0x40 MLOAD PUSH32 0x8C379A000000000000000000000000000000000000000000000000000000000 DUP2 MSTORE PUSH1 0x4 ADD PUSH2 0x9DF SWAP1 PUSH2 0x18F4 JUMP JUMPDEST PUSH1 0x40 MLOAD DUP1 SWAP2 SUB SWAP1 REVERT JUMPDEST PUSH0 PUSH1 0x40 MLOAD DUP1 PUSH2 0x120 ADD PUSH1 0x40 MSTORE DUP1 PUSH1 0x1 SLOAD DUP2 MSTORE PUSH1 0x20 ADD CALLER PUSH20 0xFFFFFFFFFFFFFFFFFFFFFFFFFFFFFFFFFFFFFFFF AND DUP2 MSTORE PUSH1 0x20 ADD CALLER PUSH20 0xFFFFFFFFFFFFFFFFFFFFFFFFFFFFFFFFFFFFFFFF AND DUP2 MSTORE PUSH1 0x20 ADD DUP7 DUP2 MSTORE PUSH1 0x20 ADD DUP6 DUP2 MSTORE PUSH1 0x20 ADD DUP5 DUP2 MSTORE PUSH1 0x20 ADD DUP4 DUP2 MSTORE PUSH1 0x20 ADD PUSH0 ISZERO ISZERO DUP2 MSTORE PUSH1 0x20 ADD PUSH0 DUP1 SHL DUP2 MSTORE POP SWAP1 DUP1 PUSH1 0x1 DUP2 SLOAD ADD DUP1 DUP3 SSTORE DUP1 SWAP2 POP POP PUSH1 0x1 SWAP1 SUB SWAP1 PUSH0 MSTORE PUSH1 0x20 PUSH0 KECCAK256 SWAP1 PUSH1 0x9 MUL ADD PUSH0 SWAP1 SWAP2 SWAP1 SWAP2 SWAP1 SWAP2 POP PUSH0 DUP3 ADD MLOAD DUP2 PUSH0 ADD SSTORE PUSH1 0x20 DUP3 ADD MLOAD DUP2 PUSH1 0x1 ADD PUSH0 PUSH2 0x100 EXP DUP2 SLOAD DUP2 PUSH20 0xFFFFFFFFFFFFFFFFFFFFFFFFFFFFFFFFFFFFFFFF MUL NOT AND SWAP1 DUP4 PUSH20 0xFFFFFFFFFFFFFFFFFFFFFFFFFFFFFFFFFFFFFFFF AND MUL OR SWAP1 SSTORE POP PUSH1 0x40 DUP3 ADD MLOAD DUP2 PUSH1 0x2 ADD PUSH0 PUSH2 0x100 EXP DUP2 SLOAD DUP2 PUSH20 0xFFFFFFFFFFFFFFFFFFFFFFFFFFFFFFFFFFFFFFFF MUL NOT AND SWAP1 DUP4 PUSH20 0xFFFFFFFFFFFFFFFFFFFFFFFFFFFFFFFFFFFFFFFF AND MUL OR SWAP1 SSTORE POP PUSH1 0x60 DUP3 ADD MLOAD DUP2 PUSH1 0x3 ADD SWAP1 DUP2 PUSH2 0xB2A SWAP2 SWAP1 PUSH2 0x1AAF JUMP JUMPDEST POP PUSH1 0x80 DUP3 ADD MLOAD DUP2 PUSH1 0x4 ADD SWAP1 DUP2 PUSH2 0xB40 SWAP2 SWAP1 PUSH2 0x1AAF JUMP JUMPDEST POP PUSH1 0xA0 DUP3 ADD MLOAD DUP2 PUSH1 0x5 ADD SWAP1 DUP2 PUSH2 0xB56 SWAP2 SWAP1 PUSH2 0x1AAF JUMP JUMPDEST POP PUSH1 0xC0 DUP3 ADD MLOAD DUP2 PUSH1 0x6 ADD SSTORE PUSH1 0xE0 DUP3 ADD MLOAD DUP2 PUSH1 0x7 ADD PUSH0 PUSH2 0x100 EXP DUP2 SLOAD DUP2 PUSH1 0xFF MUL NOT AND SWAP1 DUP4 ISZERO ISZERO MUL OR SWAP1 SSTORE POP PUSH2 0x100 DUP3 ADD MLOAD DUP2 PUSH1 0x8 ADD SSTORE POP POP PUSH0 TIMESTAMP CALLER DUP7 DUP5 PUSH1 0x40 MLOAD PUSH1 0x20 ADD PUSH2 0xBA5 SWAP5 SWAP4 SWAP3 SWAP2 SWAP1 PUSH2 0x1C2E JUMP JUMPDEST PUSH1 0x40 MLOAD PUSH1 0x20 DUP2 DUP4 SUB SUB DUP2 MSTORE SWAP1 PUSH1 0x40 MSTORE DUP1 MLOAD SWAP1 PUSH1 0x20 ADD KECCAK256 SWAP1 POP DUP1 PUSH0 PUSH1 0x1 SLOAD DUP2 SLOAD DUP2 LT PUSH2 0xBD3 JUMPI PUSH2 0xBD2 PUSH2 0x187D JUMP JUMPDEST JUMPDEST SWAP1 PUSH0 MSTORE PUSH1 0x20 PUSH0 KECCAK256 SWAP1 PUSH1 0x9 MUL ADD PUSH1 0x8 ADD DUP2 SWAP1 SSTORE POP CALLER PUSH20 0xFFFFFFFFFFFFFFFFFFFFFFFFFFFFFFFFFFFFFFFF AND CALLER PUSH20 0xFFFFFFFFFFFFFFFFFFFFFFFFFFFFFFFFFFFFFFFF AND PUSH1 0x1 SLOAD PUSH32 0xA6131043C1CC8C5AF6A89EEDDA134D3F914146D527B69FC4F68C0B7296ED4E6E DUP9 DUP8 DUP8 DUP8 PUSH1 0x40 MLOAD PUSH2 0xC4C SWAP5 SWAP4 SWAP3 SWAP2 SWAP1 PUSH2 0x1C77 JUMP JUMPDEST PUSH1 0x40 MLOAD DUP1 SWAP2 SUB SWAP1 LOG4 PUSH1 0x1 PUSH0 DUP2 SLOAD DUP1 SWAP3 SWAP2 SWAP1 PUSH2 0xC66 SWAP1 PUSH2 0x1CF5 JUMP JUMPDEST SWAP2 SWAP1 POP SSTORE POP POP POP POP POP POP JUMP JUMPDEST PUSH1 0x1 SLOAD DUP2 LT PUSH2 0xCB6 JUMPI PUSH1 0x40 MLOAD PUSH32 0x8C379A000000000000000000000000000000000000000000000000000000000 DUP2 MSTORE PUSH1 0x4 ADD PUSH2 0xCAD SWAP1 PUSH2 0x185F JUMP JUMPDEST PUSH1 0x40 MLOAD DUP1 SWAP2 SUB SWAP1 REVERT JUMPDEST PUSH0 DUP1 DUP3 DUP2 SLOAD DUP2 LT PUSH2 0xCCA JUMPI PUSH2 0xCC9 PUSH2 0x187D JUMP JUMPDEST JUMPDEST SWAP1 PUSH0 MSTORE PUSH1 0x20 PUSH0 KECCAK256 SWAP1 PUSH1 0x9 MUL ADD SWAP1 POP DUP1 PUSH1 0x6 ADD SLOAD CALLVALUE EQ PUSH2 0xD1E JUMPI PUSH1 0x40 MLOAD PUSH32 0x8C379A000000000000000000000000000000000000000000000000000000000 DUP2 MSTORE PUSH1 0x4 ADD PUSH2 0xD15 SWAP1 PUSH2 0x1DAC JUMP JUMPDEST PUSH1 0x40 MLOAD DUP1 SWAP2 SUB SWAP1 REVERT JUMPDEST DUP1 PUSH1 0x7 ADD PUSH0 SWAP1 SLOAD SWAP1 PUSH2 0x100 EXP SWAP1 DIV PUSH1 0xFF AND ISZERO PUSH2 0xD6F JUMPI PUSH1 0x40 MLOAD PUSH32 0x8C379A000000000000000000000000000000000000000000000000000000000 DUP2 MSTORE PUSH1 0x4 ADD PUSH2 0xD66 SWAP1 PUSH2 0x1E14 JUMP JUMPDEST PUSH1 0x40 MLOAD DUP1 SWAP2 SUB SWAP1 REVERT JUMPDEST DUP1 PUSH1 0x2 ADD PUSH0 SWAP1 SLOAD SWAP1 PUSH2 0x100 EXP SWAP1 DIV PUSH20 0xFFFFFFFFFFFFFFFFFFFFFFFFFFFFFFFFFFFFFFFF AND PUSH20 0xFFFFFFFFFFFFFFFFFFFFFFFFFFFFFFFFFFFFFFFF AND CALLER PUSH20 0xFFFFFFFFFFFFFFFFFFFFFFFFFFFFFFFFFFFFFFFF AND SUB PUSH2 0xE00 JUMPI PUSH1 0x40 MLOAD PUSH32 0x8C379A000000000000000000000000000000000000000000000000000000000 DUP2 MSTORE PUSH1 0x4 ADD PUSH2 0xDF7 SWAP1 PUSH2 0x1E7C JUMP JUMPDEST PUSH1 0x40 MLOAD DUP1 SWAP2 SUB SWAP1 REVERT JUMPDEST PUSH0 DUP2 PUSH1 0x2 ADD PUSH0 SWAP1 SLOAD SWAP1 PUSH2 0x100 EXP SWAP1 DIV PUSH20 0xFFFFFFFFFFFFFFFFFFFFFFFFFFFFFFFFFFFFFFFF AND PUSH20 0xFFFFFFFFFFFFFFFFFFFFFFFFFFFFFFFFFFFFFFFF AND CALLVALUE PUSH1 0x40 MLOAD PUSH2 0xE48 SWAP1 PUSH2 0x1EC7 JUMP JUMPDEST PUSH0 PUSH1 0x40 MLOAD DUP1 DUP4 SUB DUP2 DUP6 DUP8 GAS CALL SWAP3 POP POP POP RETURNDATASIZE DUP1 PUSH0 DUP2 EQ PUSH2 0xE82 JUMPI PUSH1 0x40 MLOAD SWAP2 POP PUSH1 0x1F NOT PUSH1 0x3F RETURNDATASIZE ADD AND DUP3 ADD PUSH1 0x40 MSTORE RETURNDATASIZE DUP3 MSTORE RETURNDATASIZE PUSH0 PUSH1 0x20 DUP5 ADD RETURNDATACOPY PUSH2 0xE87 JUMP JUMPDEST PUSH1 0x60 SWAP2 POP JUMPDEST POP POP SWAP1 POP DUP1 PUSH2 0xECB JUMPI PUSH1 0x40 MLOAD PUSH32 0x8C379A000000000000000000000000000000000000000000000000000000000 DUP2 MSTORE PUSH1 0x4 ADD PUSH2 0xEC2 SWAP1 PUSH2 0x1F25 JUMP JUMPDEST PUSH1 0x40 MLOAD DUP1 SWAP2 SUB SWAP1 REVERT JUMPDEST PUSH0 DUP3 PUSH1 0x2 ADD PUSH0 SWAP1 SLOAD SWAP1 PUSH2 0x100 EXP SWAP1 DIV PUSH20 0xFFFFFFFFFFFFFFFFFFFFFFFFFFFFFFFFFFFFFFFF AND SWAP1 POP CALLER DUP4 PUSH1 0x2 ADD PUSH0 PUSH2 0x100 EXP DUP2 SLOAD DUP2 PUSH20 0xFFFFFFFFFFFFFFFFFFFFFFFFFFFFFFFFFFFFFFFF MUL NOT AND SWAP1 DUP4 PUSH20 0xFFFFFFFFFFFFFFFFFFFFFFFFFFFFFFFFFFFFFFFF AND MUL OR SWAP1 SSTORE POP PUSH1 0x1 DUP4 PUSH1 0x7 ADD PUSH0 PUSH2 0x100 EXP DUP2 SLOAD DUP2 PUSH1 0xFF MUL NOT AND SWAP1 DUP4 ISZERO ISZERO MUL OR SWAP1 SSTORE POP DUP1 PUSH20 0xFFFFFFFFFFFFFFFFFFFFFFFFFFFFFFFFFFFFFFFF AND CALLER PUSH20 0xFFFFFFFFFFFFFFFFFFFFFFFFFFFFFFFFFFFFFFFF AND PUSH32 0xD52BD61F7C422D441E024604F4517878FD3305D6ACF0FE37BAEF23ED21AF6BC9 CALLVALUE PUSH1 0x40 MLOAD PUSH2 0xFAD SWAP2 SWAP1 PUSH2 0x1350 JUMP JUMPDEST PUSH1 0x40 MLOAD DUP1 SWAP2 SUB SWAP1 LOG3 CALLER PUSH20 0xFFFFFFFFFFFFFFFFFFFFFFFFFFFFFFFFFFFFFFFF AND DUP2 PUSH20 0xFFFFFFFFFFFFFFFFFFFFFFFFFFFFFFFFFFFFFFFF AND PUSH32 0x4DDD54C6B746E69BA87F862311F7670BD1D7276846778AC81CD38747B27A746 DUP7 DUP7 PUSH1 0x6 ADD SLOAD PUSH1 0x40 MLOAD PUSH2 0x1018 SWAP3 SWAP2 SWAP1 PUSH2 0x1F43 JUMP JUMPDEST PUSH1 0x40 MLOAD DUP1 SWAP2 SUB SWAP1 LOG3 POP POP POP POP JUMP JUMPDEST PUSH1 0x40 MLOAD DUP1 PUSH2 0x120 ADD PUSH1 0x40 MSTORE DUP1 PUSH0 DUP2 MSTORE PUSH1 0x20 ADD PUSH0 PUSH20 0xFFFFFFFFFFFFFFFFFFFFFFFFFFFFFFFFFFFFFFFF AND DUP2 MSTORE PUSH1 0x20 ADD PUSH0 PUSH20 0xFFFFFFFFFFFFFFFFFFFFFFFFFFFFFFFFFFFFFFFF AND DUP2 MSTORE PUSH1 0x20 ADD PUSH1 0x60 DUP2 MSTORE PUSH1 0x20 ADD PUSH1 0x60 DUP2 MSTORE PUSH1 0x20 ADD PUSH1 0x60 DUP2 MSTORE PUSH1 0x20 ADD PUSH0 DUP2 MSTORE PUSH1 0x20 ADD PUSH0 ISZERO ISZERO DUP2 MSTORE PUSH1 0x20 ADD PUSH0 DUP1 NOT AND DUP2 MSTORE POP SWAP1 JUMP JUMPDEST PUSH0 DUP2 MLOAD SWAP1 POP SWAP2 SWAP1 POP JUMP JUMPDEST PUSH0 DUP3 DUP3 MSTORE PUSH1 0x20 DUP3 ADD SWAP1 POP SWAP3 SWAP2 POP POP JUMP JUMPDEST PUSH0 DUP2 SWAP1 POP PUSH1 0x20 DUP3 ADD SWAP1 POP SWAP2 SWAP1 POP JUMP JUMPDEST PUSH0 DUP2 SWAP1 POP SWAP2 SWAP1 POP JUMP JUMPDEST PUSH2 0x10D8 DUP2 PUSH2 0x10C6 JUMP JUMPDEST DUP3 MSTORE POP POP JUMP JUMPDEST PUSH0 PUSH20 0xFFFFFFFFFFFFFFFFFFFFFFFFFFFFFFFFFFFFFFFF DUP3 AND SWAP1 POP SWAP2 SWAP1 POP JUMP JUMPDEST PUSH0 PUSH2 0x1107 DUP3 PUSH2 0x10DE JUMP JUMPDEST SWAP1 POP SWAP2 SWAP1 POP JUMP JUMPDEST PUSH2 0x1117 DUP2 PUSH2 0x10FD JUMP JUMPDEST DUP3 MSTORE POP POP JUMP JUMPDEST PUSH0 DUP2 MLOAD SWAP1 POP SWAP2 SWAP1 POP JUMP JUMPDEST PUSH0 DUP3 DUP3 MSTORE PUSH1 0x20 DUP3 ADD SWAP1 POP SWAP3 SWAP2 POP POP JUMP JUMPDEST DUP3 DUP2 DUP4 MCOPY PUSH0 DUP4 DUP4 ADD MSTORE POP POP POP JUMP JUMPDEST PUSH0 PUSH1 0x1F NOT PUSH1 0x1F DUP4 ADD AND SWAP1 POP SWAP2 SWAP1 POP JUMP JUMPDEST PUSH0 PUSH2 0x115F DUP3 PUSH2 0x111D JUMP JUMPDEST PUSH2 0x1169 DUP2 DUP6 PUSH2 0x1127 JUMP JUMPDEST SWAP4 POP PUSH2 0x1179 DUP2 DUP6 PUSH1 0x20 DUP7 ADD PUSH2 0x1137 JUMP JUMPDEST PUSH2 0x1182 DUP2 PUSH2 0x1145 JUMP JUMPDEST DUP5 ADD SWAP2 POP POP SWAP3 SWAP2 POP POP JUMP JUMPDEST PUSH0 DUP2 ISZERO ISZERO SWAP1 POP SWAP2 SWAP1 POP JUMP JUMPDEST PUSH2 0x11A1 DUP2 PUSH2 0x118D JUMP JUMPDEST DUP3 MSTORE POP POP JUMP JUMPDEST PUSH0 DUP2 SWAP1 POP SWAP2 SWAP1 POP JUMP JUMPDEST PUSH2 0x11B9 DUP2 PUSH2 0x11A7 JUMP JUMPDEST DUP3 MSTORE POP POP JUMP JUMPDEST PUSH0 PUSH2 0x120 DUP4 ADD PUSH0 DUP4 ADD MLOAD PUSH2 0x11D5 PUSH0 DUP7 ADD DUP3 PUSH2 0x10CF JUMP JUMPDEST POP PUSH1 0x20 DUP4 ADD MLOAD PUSH2 0x11E8 PUSH1 0x20 DUP7 ADD DUP3 PUSH2 0x110E JUMP JUMPDEST POP PUSH1 0x40 DUP4 ADD MLOAD PUSH2 0x11FB PUSH1 0x40 DUP7 ADD DUP3 PUSH2 0x110E JUMP JUMPDEST POP PUSH1 0x60 DUP4 ADD MLOAD DUP5 DUP3 SUB PUSH1 0x60 DUP7 ADD MSTORE PUSH2 0x1213 DUP3 DUP3 PUSH2 0x1155 JUMP JUMPDEST SWAP2 POP POP PUSH1 0x80 DUP4 ADD MLOAD DUP5 DUP3 SUB PUSH1 0x80 DUP7 ADD MSTORE PUSH2 0x122D DUP3 DUP3 PUSH2 0x1155 JUMP JUMPDEST SWAP2 POP POP PUSH1 0xA0 DUP4 ADD MLOAD DUP5 DUP3 SUB PUSH1 0xA0 DUP7 ADD MSTORE PUSH2 0x1247 DUP3 DUP3 PUSH2 0x1155 JUMP JUMPDEST SWAP2 POP POP PUSH1 0xC0 DUP4 ADD MLOAD PUSH2 0x125C PUSH1 0xC0 DUP7 ADD DUP3 PUSH2 0x10CF JUMP JUMPDEST POP PUSH1 0xE0 DUP4 ADD MLOAD PUSH2 0x126F PUSH1 0xE0 DUP7 ADD DUP3 PUSH2 0x1198 JUMP JUMPDEST POP PUSH2 0x100 DUP4 ADD MLOAD PUSH2 0x1284 PUSH2 0x100 DUP7 ADD DUP3 PUSH2 0x11B0 JUMP JUMPDEST POP DUP1 SWAP2 POP POP SWAP3 SWAP2 POP POP JUMP JUMPDEST PUSH0 PUSH2 0x129A DUP4 DUP4 PUSH2 0x11BF JUMP JUMPDEST SWAP1 POP SWAP3 SWAP2 POP POP JUMP JUMPDEST PUSH0 PUSH1 0x20 DUP3 ADD SWAP1 POP SWAP2 SWAP1 POP JUMP JUMPDEST PUSH0 PUSH2 0x12B8 DUP3 PUSH2 0x109D JUMP JUMPDEST PUSH2 0x12C2 DUP2 DUP6 PUSH2 0x10A7 JUMP JUMPDEST SWAP4 POP DUP4 PUSH1 0x20 DUP3 MUL DUP6 ADD PUSH2 0x12D4 DUP6 PUSH2 0x10B7 JUMP JUMPDEST DUP1 PUSH0 JUMPDEST DUP6 DUP2 LT ISZERO PUSH2 0x130F JUMPI DUP5 DUP5 SUB DUP10 MSTORE DUP2 MLOAD PUSH2 0x12F0 DUP6 DUP3 PUSH2 0x128F JUMP JUMPDEST SWAP5 POP PUSH2 0x12FB DUP4 PUSH2 0x12A2 JUMP JUMPDEST SWAP3 POP PUSH1 0x20 DUP11 ADD SWAP10 POP POP PUSH1 0x1 DUP2 ADD SWAP1 POP PUSH2 0x12D7 JUMP JUMPDEST POP DUP3 SWAP8 POP DUP8 SWAP6 POP POP POP POP POP POP SWAP3 SWAP2 POP POP JUMP JUMPDEST PUSH0 PUSH1 0x20 DUP3 ADD SWAP1 POP DUP2 DUP2 SUB PUSH0 DUP4 ADD MSTORE PUSH2 0x1339 DUP2 DUP5 PUSH2 0x12AE JUMP JUMPDEST SWAP1 POP SWAP3 SWAP2 POP POP JUMP JUMPDEST PUSH2 0x134A DUP2 PUSH2 0x10C6 JUMP JUMPDEST DUP3 MSTORE POP POP JUMP JUMPDEST PUSH0 PUSH1 0x20 DUP3 ADD SWAP1 POP PUSH2 0x1363 PUSH0 DUP4 ADD DUP5 PUSH2 0x1341 JUMP JUMPDEST SWAP3 SWAP2 POP POP JUMP JUMPDEST PUSH0 PUSH1 0x40 MLOAD SWAP1 POP SWAP1 JUMP JUMPDEST PUSH0 DUP1 REVERT JUMPDEST PUSH0 DUP1 REVERT JUMPDEST PUSH2 0x1383 DUP2 PUSH2 0x10C6 JUMP JUMPDEST DUP2 EQ PUSH2 0x138D JUMPI PUSH0 DUP1 REVERT JUMPDEST POP JUMP JUMPDEST PUSH0 DUP2 CALLDATALOAD SWAP1 POP PUSH2 0x139E DUP2 PUSH2 0x137A JUMP JUMPDEST SWAP3 SWAP2 POP POP JUMP JUMPDEST PUSH0 PUSH1 0x20 DUP3 DUP5 SUB SLT ISZERO PUSH2 0x13B9 JUMPI PUSH2 0x13B8 PUSH2 0x1372 JUMP JUMPDEST JUMPDEST PUSH0 PUSH2 0x13C6 DUP5 DUP3 DUP6 ADD PUSH2 0x1390 JUMP JUMPDEST SWAP2 POP POP SWAP3 SWAP2 POP POP JUMP JUMPDEST PUSH2 0x13D8 DUP2 PUSH2 0x10FD JUMP JUMPDEST DUP3 MSTORE POP POP JUMP JUMPDEST PUSH0 DUP3 DUP3 MSTORE PUSH1 0x20 DUP3 ADD SWAP1 POP SWAP3 SWAP2 POP POP JUMP JUMPDEST PUSH0 PUSH2 0x13F8 DUP3 PUSH2 0x111D JUMP JUMPDEST PUSH2 0x1402 DUP2 DUP6 PUSH2 0x13DE JUMP JUMPDEST SWAP4 POP PUSH2 0x1412 DUP2 DUP6 PUSH1 0x20 DUP7 ADD PUSH2 0x1137 JUMP JUMPDEST PUSH2 0x141B DUP2 PUSH2 0x1145 JUMP JUMPDEST DUP5 ADD SWAP2 POP POP SWAP3 SWAP2 POP POP JUMP JUMPDEST PUSH2 0x142F DUP2 PUSH2 0x118D JUMP JUMPDEST DUP3 MSTORE POP POP JUMP JUMPDEST PUSH2 0x143E DUP2 PUSH2 0x11A7 JUMP JUMPDEST DUP3 MSTORE POP POP JUMP JUMPDEST PUSH0 PUSH2 0x120 DUP3 ADD SWAP1 POP PUSH2 0x1458 PUSH0 DUP4 ADD DUP13 PUSH2 0x1341 JUMP JUMPDEST PUSH2 0x1465 PUSH1 0x20 DUP4 ADD DUP12 PUSH2 0x13CF JUMP JUMPDEST PUSH2 0x1472 PUSH1 0x40 DUP4 ADD DUP11 PUSH2 0x13CF JUMP JUMPDEST DUP2 DUP2 SUB PUSH1 0x60 DUP4 ADD MSTORE PUSH2 0x1484 DUP2 DUP10 PUSH2 0x13EE JUMP JUMPDEST SWAP1 POP DUP2 DUP2 SUB PUSH1 0x80 DUP4 ADD MSTORE PUSH2 0x1498 DUP2 DUP9 PUSH2 0x13EE JUMP JUMPDEST SWAP1 POP DUP2 DUP2 SUB PUSH1 0xA0 DUP4 ADD MSTORE PUSH2 0x14AC DUP2 DUP8 PUSH2 0x13EE JUMP JUMPDEST SWAP1 POP PUSH2 0x14BB PUSH1 0xC0 DUP4 ADD DUP7 PUSH2 0x1341 JUMP JUMPDEST PUSH2 0x14C8 PUSH1 0xE0 DUP4 ADD DUP6 PUSH2 0x1426 JUMP JUMPDEST PUSH2 0x14D6 PUSH2 0x100 DUP4 ADD DUP5 PUSH2 0x1435 JUMP JUMPDEST SWAP11 SWAP10 POP POP POP POP POP POP POP POP POP POP JUMP JUMPDEST PUSH0 PUSH2 0x120 DUP4 ADD PUSH0 DUP4 ADD MLOAD PUSH2 0x14FA PUSH0 DUP7 ADD DUP3 PUSH2 0x10CF JUMP JUMPDEST POP PUSH1 0x20 DUP4 ADD MLOAD PUSH2 0x150D PUSH1 0x20 DUP7 ADD DUP3 PUSH2 0x110E JUMP JUMPDEST POP PUSH1 0x40 DUP4 ADD MLOAD PUSH2 0x1520 PUSH1 0x40 DUP7 ADD DUP3 PUSH2 0x110E JUMP JUMPDEST POP PUSH1 0x60 DUP4 ADD MLOAD DUP5 DUP3 SUB PUSH1 0x60 DUP7 ADD MSTORE PUSH2 0x1538 DUP3 DUP3 PUSH2 0x1155 JUMP JUMPDEST SWAP2 POP POP PUSH1 0x80 DUP4 ADD MLOAD DUP5 DUP3 SUB PUSH1 0x80 DUP7 ADD MSTORE PUSH2 0x1552 DUP3 DUP3 PUSH2 0x1155 JUMP JUMPDEST SWAP2 POP POP PUSH1 0xA0 DUP4 ADD MLOAD DUP5 DUP3 SUB PUSH1 0xA0 DUP7 ADD MSTORE PUSH2 0x156C DUP3 DUP3 PUSH2 0x1155 JUMP JUMPDEST SWAP2 POP POP PUSH1 0xC0 DUP4 ADD MLOAD PUSH2 0x1581 PUSH1 0xC0 DUP7 ADD DUP3 PUSH2 0x10CF JUMP JUMPDEST POP PUSH1 0xE0 DUP4 ADD MLOAD PUSH2 0x1594 PUSH1 0xE0 DUP7 ADD DUP3 PUSH2 0x1198 JUMP JUMPDEST POP PUSH2 0x100 DUP4 ADD MLOAD PUSH2 0x15A9 PUSH2 0x100 DUP7 ADD DUP3 PUSH2 0x11B0 JUMP JUMPDEST POP DUP1 SWAP2 POP POP SWAP3 SWAP2 POP POP JUMP JUMPDEST PUSH0 PUSH1 0x20 DUP3 ADD SWAP1 POP DUP2 DUP2 SUB PUSH0 DUP4 ADD MSTORE PUSH2 0x15CC DUP2 DUP5 PUSH2 0x14E4 JUMP JUMPDEST SWAP1 POP SWAP3 SWAP2 POP POP JUMP JUMPDEST PUSH0 DUP1 REVERT JUMPDEST PUSH0 DUP1 REVERT JUMPDEST PUSH32 0x4E487B7100000000000000000000000000000000000000000000000000000000 PUSH0 MSTORE PUSH1 0x41 PUSH1 0x4 MSTORE PUSH1 0x24 PUSH0 REVERT JUMPDEST PUSH2 0x1612 DUP3 PUSH2 0x1145 JUMP JUMPDEST DUP2 ADD DUP2 DUP2 LT PUSH8 0xFFFFFFFFFFFFFFFF DUP3 GT OR ISZERO PUSH2 0x1631 JUMPI PUSH2 0x1630 PUSH2 0x15DC JUMP JUMPDEST JUMPDEST DUP1 PUSH1 0x40 MSTORE POP POP POP JUMP JUMPDEST PUSH0 PUSH2 0x1643 PUSH2 0x1369 JUMP JUMPDEST SWAP1 POP PUSH2 0x164F DUP3 DUP3 PUSH2 0x1609 JUMP JUMPDEST SWAP2 SWAP1 POP JUMP JUMPDEST PUSH0 PUSH8 0xFFFFFFFFFFFFFFFF DUP3 GT ISZERO PUSH2 0x166E JUMPI PUSH2 0x166D PUSH2 0x15DC JUMP JUMPDEST JUMPDEST PUSH2 0x1677 DUP3 PUSH2 0x1145 JUMP JUMPDEST SWAP1 POP PUSH1 0x20 DUP2 ADD SWAP1 POP SWAP2 SWAP1 POP JUMP JUMPDEST DUP3 DUP2 DUP4 CALLDATACOPY PUSH0 DUP4 DUP4 ADD MSTORE POP POP POP JUMP JUMPDEST PUSH0 PUSH2 0x16A4 PUSH2 0x169F DUP5 PUSH2 0x1654 JUMP JUMPDEST PUSH2 0x163A JUMP JUMPDEST SWAP1 POP DUP3 DUP2 MSTORE PUSH1 0x20 DUP2 ADD DUP5 DUP5 DUP5 ADD GT ISZERO PUSH2 0x16C0 JUMPI PUSH2 0x16BF PUSH2 0x15D8 JUMP JUMPDEST JUMPDEST PUSH2 0x16CB DUP5 DUP3 DUP6 PUSH2 0x1684 JUMP JUMPDEST POP SWAP4 SWAP3 POP POP POP JUMP JUMPDEST PUSH0 DUP3 PUSH1 0x1F DUP4 ADD SLT PUSH2 0x16E7 JUMPI PUSH2 0x16E6 PUSH2 0x15D4 JUMP JUMPDEST JUMPDEST DUP2 CALLDATALOAD PUSH2 0x16F7 DUP5 DUP3 PUSH1 0x20 DUP7 ADD PUSH2 0x1692 JUMP JUMPDEST SWAP2 POP POP SWAP3 SWAP2 POP POP JUMP JUMPDEST PUSH0 DUP1 PUSH0 DUP1 PUSH1 0x80 DUP6 DUP8 SUB SLT ISZERO PUSH2 0x1718 JUMPI PUSH2 0x1717 PUSH2 0x1372 JUMP JUMPDEST JUMPDEST PUSH0 DUP6 ADD CALLDATALOAD PUSH8 0xFFFFFFFFFFFFFFFF DUP2 GT ISZERO PUSH2 0x1735 JUMPI PUSH2 0x1734 PUSH2 0x1376 JUMP JUMPDEST JUMPDEST PUSH2 0x1741 DUP8 DUP3 DUP9 ADD PUSH2 0x16D3 JUMP JUMPDEST SWAP5 POP POP PUSH1 0x20 DUP6 ADD CALLDATALOAD PUSH8 0xFFFFFFFFFFFFFFFF DUP2 GT ISZERO PUSH2 0x1762 JUMPI PUSH2 0x1761 PUSH2 0x1376 JUMP JUMPDEST JUMPDEST PUSH2 0x176E DUP8 DUP3 DUP9 ADD PUSH2 0x16D3 JUMP JUMPDEST SWAP4 POP POP PUSH1 0x40 DUP6 ADD CALLDATALOAD PUSH8 0xFFFFFFFFFFFFFFFF DUP2 GT ISZERO PUSH2 0x178F JUMPI PUSH2 0x178E PUSH2 0x1376 JUMP JUMPDEST JUMPDEST PUSH2 0x179B DUP8 DUP3 DUP9 ADD PUSH2 0x16D3 JUMP JUMPDEST SWAP3 POP POP PUSH1 0x60 PUSH2 0x17AC DUP8 DUP3 DUP9 ADD PUSH2 0x1390 JUMP JUMPDEST SWAP2 POP POP SWAP3 SWAP6 SWAP2 SWAP5 POP SWAP3 POP JUMP JUMPDEST PUSH32 0x4E487B7100000000000000000000000000000000000000000000000000000000 PUSH0 MSTORE PUSH1 0x22 PUSH1 0x4 MSTORE PUSH1 0x24 PUSH0 REVERT JUMPDEST PUSH0 PUSH1 0x2 DUP3 DIV SWAP1 POP PUSH1 0x1 DUP3 AND DUP1 PUSH2 0x17FC JUMPI PUSH1 0x7F DUP3 AND SWAP2 POP JUMPDEST PUSH1 0x20 DUP3 LT DUP2 SUB PUSH2 0x180F JUMPI PUSH2 0x180E PUSH2 0x17B8 JUMP JUMPDEST JUMPDEST POP SWAP2 SWAP1 POP JUMP JUMPDEST PUSH32 0x4974656D20494420646F6573206E6F7420657869737400000000000000000000 PUSH0 DUP3 ADD MSTORE POP JUMP JUMPDEST PUSH0 PUSH2 0x1849 PUSH1 0x16 DUP4 PUSH2 0x13DE JUMP JUMPDEST SWAP2 POP PUSH2 0x1854 DUP3 PUSH2 0x1815 JUMP JUMPDEST PUSH1 0x20 DUP3 ADD SWAP1 POP SWAP2 SWAP1 POP JUMP JUMPDEST PUSH0 PUSH1 0x20 DUP3 ADD SWAP1 POP DUP2 DUP2 SUB PUSH0 DUP4 ADD MSTORE PUSH2 0x1876 DUP2 PUSH2 0x183D JUMP JUMPDEST SWAP1 POP SWAP2 SWAP1 POP JUMP JUMPDEST PUSH32 0x4E487B7100000000000000000000000000000000000000000000000000000000 PUSH0 MSTORE PUSH1 0x32 PUSH1 0x4 MSTORE PUSH1 0x24 PUSH0 REVERT JUMPDEST PUSH32 0x5072696365206D7573742062652067726561746572207468616E207A65726F00 PUSH0 DUP3 ADD MSTORE POP JUMP JUMPDEST PUSH0 PUSH2 0x18DE PUSH1 0x1F DUP4 PUSH2 0x13DE JUMP JUMPDEST SWAP2 POP PUSH2 0x18E9 DUP3 PUSH2 0x18AA JUMP JUMPDEST PUSH1 0x20 DUP3 ADD SWAP1 POP SWAP2 SWAP1 POP JUMP JUMPDEST PUSH0 PUSH1 0x20 DUP3 ADD SWAP1 POP DUP2 DUP2 SUB PUSH0 DUP4 ADD MSTORE PUSH2 0x190B DUP2 PUSH2 0x18D2 JUMP JUMPDEST SWAP1 POP SWAP2 SWAP1 POP JUMP JUMPDEST PUSH0 DUP2 SWAP1 POP DUP2 PUSH0 MSTORE PUSH1 0x20 PUSH0 KECCAK256 SWAP1 POP SWAP2 SWAP1 POP JUMP JUMPDEST PUSH0 PUSH1 0x20 PUSH1 0x1F DUP4 ADD DIV SWAP1 POP SWAP2 SWAP1 POP JUMP JUMPDEST PUSH0 DUP3 DUP3 SHL SWAP1 POP SWAP3 SWAP2 POP POP JUMP JUMPDEST PUSH0 PUSH1 0x8 DUP4 MUL PUSH2 0x196E PUSH32 0xFFFFFFFFFFFFFFFFFFFFFFFFFFFFFFFFFFFFFFFFFFFFFFFFFFFFFFFFFFFFFFFF DUP3 PUSH2 0x1933 JUMP JUMPDEST PUSH2 0x1978 DUP7 DUP4 PUSH2 0x1933 JUMP JUMPDEST SWAP6 POP DUP1 NOT DUP5 AND SWAP4 POP DUP1 DUP7 AND DUP5 OR SWAP3 POP POP POP SWAP4 SWAP3 POP POP POP JUMP JUMPDEST PUSH0 DUP2 SWAP1 POP SWAP2 SWAP1 POP JUMP JUMPDEST PUSH0 PUSH2 0x19B3 PUSH2 0x19AE PUSH2 0x19A9 DUP5 PUSH2 0x10C6 JUMP JUMPDEST PUSH2 0x1990 JUMP JUMPDEST PUSH2 0x10C6 JUMP JUMPDEST SWAP1 POP SWAP2 SWAP1 POP JUMP JUMPDEST PUSH0 DUP2 SWAP1 POP SWAP2 SWAP1 POP JUMP JUMPDEST PUSH2 0x19CC DUP4 PUSH2 0x1999 JUMP JUMPDEST PUSH2 0x19E0 PUSH2 0x19D8 DUP3 PUSH2 0x19BA JUMP JUMPDEST DUP5 DUP5 SLOAD PUSH2 0x193F JUMP JUMPDEST DUP3 SSTORE POP POP POP POP JUMP JUMPDEST PUSH0 SWAP1 JUMP JUMPDEST PUSH2 0x19F4 PUSH2 0x19E8 JUMP JUMPDEST PUSH2 0x19FF DUP2 DUP5 DUP5 PUSH2 0x19C3 JUMP JUMPDEST POP POP POP JUMP JUMPDEST JUMPDEST DUP2 DUP2 LT ISZERO PUSH2 0x1A22 JUMPI PUSH2 0x1A17 PUSH0 DUP3 PUSH2 0x19EC JUMP JUMPDEST PUSH1 0x1 DUP2 ADD SWAP1 POP PUSH2 0x1A05 JUMP JUMPDEST POP POP JUMP JUMPDEST PUSH1 0x1F DUP3 GT ISZERO PUSH2 0x1A67 JUMPI PUSH2 0x1A38 DUP2 PUSH2 0x1912 JUMP JUMPDEST PUSH2 0x1A41 DUP5 PUSH2 0x1924 JUMP JUMPDEST DUP2 ADD PUSH1 0x20 DUP6 LT ISZERO PUSH2 0x1A50 JUMPI DUP2 SWAP1 POP JUMPDEST PUSH2 0x1A64 PUSH2 0x1A5C DUP6 PUSH2 0x1924 JUMP JUMPDEST DUP4 ADD DUP3 PUSH2 0x1A04 JUMP JUMPDEST POP POP JUMPDEST POP POP POP JUMP JUMPDEST PUSH0 DUP3 DUP3 SHR SWAP1 POP SWAP3 SWAP2 POP POP JUMP JUMPDEST PUSH0 PUSH2 0x1A87 PUSH0 NOT DUP5 PUSH1 0x8 MUL PUSH2 0x1A6C JUMP JUMPDEST NOT DUP1 DUP4 AND SWAP2 POP POP SWAP3 SWAP2 POP POP JUMP JUMPDEST PUSH0 PUSH2 0x1A9F DUP4 DUP4 PUSH2 0x1A78 JUMP JUMPDEST SWAP2 POP DUP3 PUSH1 0x2 MUL DUP3 OR SWAP1 POP SWAP3 SWAP2 POP POP JUMP JUMPDEST PUSH2 0x1AB8 DUP3 PUSH2 0x111D JUMP JUMPDEST PUSH8 0xFFFFFFFFFFFFFFFF DUP2 GT ISZERO PUSH2 0x1AD1 JUMPI PUSH2 0x1AD0 PUSH2 0x15DC JUMP JUMPDEST JUMPDEST PUSH2 0x1ADB DUP3 SLOAD PUSH2 0x17E5 JUMP JUMPDEST PUSH2 0x1AE6 DUP3 DUP3 DUP6 PUSH2 0x1A26 JUMP JUMPDEST PUSH0 PUSH1 0x20 SWAP1 POP PUSH1 0x1F DUP4 GT PUSH1 0x1 DUP2 EQ PUSH2 0x1B17 JUMPI PUSH0 DUP5 ISZERO PUSH2 0x1B05 JUMPI DUP3 DUP8 ADD MLOAD SWAP1 POP JUMPDEST PUSH2 0x1B0F DUP6 DUP3 PUSH2 0x1A94 JUMP JUMPDEST DUP7 SSTORE POP PUSH2 0x1B76 JUMP JUMPDEST PUSH1 0x1F NOT DUP5 AND PUSH2 0x1B25 DUP7 PUSH2 0x1912 JUMP JUMPDEST PUSH0 JUMPDEST DUP3 DUP2 LT ISZERO PUSH2 0x1B4C JUMPI DUP5 DUP10 ADD MLOAD DUP3 SSTORE PUSH1 0x1 DUP3 ADD SWAP2 POP PUSH1 0x20 DUP6 ADD SWAP5 POP PUSH1 0x20 DUP2 ADD SWAP1 POP PUSH2 0x1B27 JUMP JUMPDEST DUP7 DUP4 LT ISZERO PUSH2 0x1B69 JUMPI DUP5 DUP10 ADD MLOAD PUSH2 0x1B65 PUSH1 0x1F DUP10 AND DUP3 PUSH2 0x1A78 JUMP JUMPDEST DUP4 SSTORE POP JUMPDEST PUSH1 0x1 PUSH1 0x2 DUP9 MUL ADD DUP9 SSTORE POP POP POP JUMPDEST POP POP POP POP POP POP JUMP JUMPDEST PUSH0 DUP2 SWAP1 POP SWAP2 SWAP1 POP JUMP JUMPDEST PUSH2 0x1B98 PUSH2 0x1B93 DUP3 PUSH2 0x10C6 JUMP JUMPDEST PUSH2 0x1B7E JUMP JUMPDEST DUP3 MSTORE POP POP JUMP JUMPDEST PUSH0 PUSH2 0x1BA8 DUP3 PUSH2 0x10DE JUMP JUMPDEST SWAP1 POP SWAP2 SWAP1 POP JUMP JUMPDEST PUSH0 DUP2 PUSH1 0x60 SHL SWAP1 POP SWAP2 SWAP1 POP JUMP JUMPDEST PUSH0 PUSH2 0x1BC5 DUP3 PUSH2 0x1BAF JUMP JUMPDEST SWAP1 POP SWAP2 SWAP1 POP JUMP JUMPDEST PUSH0 PUSH2 0x1BD6 DUP3 PUSH2 0x1BBB JUMP JUMPDEST SWAP1 POP SWAP2 SWAP1 POP JUMP JUMPDEST PUSH2 0x1BEE PUSH2 0x1BE9 DUP3 PUSH2 0x1B9E JUMP JUMPDEST PUSH2 0x1BCC JUMP JUMPDEST DUP3 MSTORE POP POP JUMP JUMPDEST PUSH0 DUP2 SWAP1 POP SWAP3 SWAP2 POP POP JUMP JUMPDEST PUSH0 PUSH2 0x1C08 DUP3 PUSH2 0x111D JUMP JUMPDEST PUSH2 0x1C12 DUP2 DUP6 PUSH2 0x1BF4 JUMP JUMPDEST SWAP4 POP PUSH2 0x1C22 DUP2 DUP6 PUSH1 0x20 DUP7 ADD PUSH2 0x1137 JUMP JUMPDEST DUP1 DUP5 ADD SWAP2 POP POP SWAP3 SWAP2 POP POP JUMP JUMPDEST PUSH0 PUSH2 0x1C39 DUP3 DUP8 PUSH2 0x1B87 JUMP JUMPDEST PUSH1 0x20 DUP3 ADD SWAP2 POP PUSH2 0x1C49 DUP3 DUP7 PUSH2 0x1BDD JUMP JUMPDEST PUSH1 0x14 DUP3 ADD SWAP2 POP PUSH2 0x1C59 DUP3 DUP6 PUSH2 0x1BFE JUMP JUMPDEST SWAP2 POP PUSH2 0x1C65 DUP3 DUP5 PUSH2 0x1B87 JUMP JUMPDEST PUSH1 0x20 DUP3 ADD SWAP2 POP DUP2 SWAP1 POP SWAP6 SWAP5 POP POP POP POP POP JUMP JUMPDEST PUSH0 PUSH1 0x80 DUP3 ADD SWAP1 POP DUP2 DUP2 SUB PUSH0 DUP4 ADD MSTORE PUSH2 0x1C8F DUP2 DUP8 PUSH2 0x13EE JUMP JUMPDEST SWAP1 POP DUP2 DUP2 SUB PUSH1 0x20 DUP4 ADD MSTORE PUSH2 0x1CA3 DUP2 DUP7 PUSH2 0x13EE JUMP JUMPDEST SWAP1 POP PUSH2 0x1CB2 PUSH1 0x40 DUP4 ADD DUP6 PUSH2 0x1341 JUMP JUMPDEST PUSH2 0x1CBF PUSH1 0x60 DUP4 ADD DUP5 PUSH2 0x1435 JUMP JUMPDEST SWAP6 SWAP5 POP POP POP POP POP JUMP JUMPDEST PUSH32 0x4E487B7100000000000000000000000000000000000000000000000000000000 PUSH0 MSTORE PUSH1 0x11 PUSH1 0x4 MSTORE PUSH1 0x24 PUSH0 REVERT JUMPDEST PUSH0 PUSH2 0x1CFF DUP3 PUSH2 0x10C6 JUMP JUMPDEST SWAP2 POP PUSH32 0xFFFFFFFFFFFFFFFFFFFFFFFFFFFFFFFFFFFFFFFFFFFFFFFFFFFFFFFFFFFFFFFF DUP3 SUB PUSH2 0x1D31 JUMPI PUSH2 0x1D30 PUSH2 0x1CC8 JUMP JUMPDEST JUMPDEST PUSH1 0x1 DUP3 ADD SWAP1 POP SWAP2 SWAP1 POP JUMP JUMPDEST PUSH32 0x506C65617365207375626D6974207468652061736B696E672070726963652069 PUSH0 DUP3 ADD MSTORE PUSH32 0x6E206F7264657220746F20636F6D706C65746520746865207075726368617365 PUSH1 0x20 DUP3 ADD MSTORE POP JUMP JUMPDEST PUSH0 PUSH2 0x1D96 PUSH1 0x40 DUP4 PUSH2 0x13DE JUMP JUMPDEST SWAP2 POP PUSH2 0x1DA1 DUP3 PUSH2 0x1D3C JUMP JUMPDEST PUSH1 0x40 DUP3 ADD SWAP1 POP SWAP2 SWAP1 POP JUMP JUMPDEST PUSH0 PUSH1 0x20 DUP3 ADD SWAP1 POP DUP2 DUP2 SUB PUSH0 DUP4 ADD MSTORE PUSH2 0x1DC3 DUP2 PUSH2 0x1D8A JUMP JUMPDEST SWAP1 POP SWAP2 SWAP1 POP JUMP JUMPDEST PUSH32 0x54686973206974656D2068617320616C7265616479206265656E20736F6C6400 PUSH0 DUP3 ADD MSTORE POP JUMP JUMPDEST PUSH0 PUSH2 0x1DFE PUSH1 0x1F DUP4 PUSH2 0x13DE JUMP JUMPDEST SWAP2 POP PUSH2 0x1E09 DUP3 PUSH2 0x1DCA JUMP JUMPDEST PUSH1 0x20 DUP3 ADD SWAP1 POP SWAP2 SWAP1 POP JUMP JUMPDEST PUSH0 PUSH1 0x20 DUP3 ADD SWAP1 POP DUP2 DUP2 SUB PUSH0 DUP4 ADD MSTORE PUSH2 0x1E2B DUP2 PUSH2 0x1DF2 JUMP JUMPDEST SWAP1 POP SWAP2 SWAP1 POP JUMP JUMPDEST PUSH32 0x4F776E65722063616E6E6F7420627579207468656972206F776E206974656D00 PUSH0 DUP3 ADD MSTORE POP JUMP JUMPDEST PUSH0 PUSH2 0x1E66 PUSH1 0x1F DUP4 PUSH2 0x13DE JUMP JUMPDEST SWAP2 POP PUSH2 0x1E71 DUP3 PUSH2 0x1E32 JUMP JUMPDEST PUSH1 0x20 DUP3 ADD SWAP1 POP SWAP2 SWAP1 POP JUMP JUMPDEST PUSH0 PUSH1 0x20 DUP3 ADD SWAP1 POP DUP2 DUP2 SUB PUSH0 DUP4 ADD MSTORE PUSH2 0x1E93 DUP2 PUSH2 0x1E5A JUMP JUMPDEST SWAP1 POP SWAP2 SWAP1 POP JUMP JUMPDEST PUSH0 DUP2 SWAP1 POP SWAP3 SWAP2 POP POP JUMP JUMPDEST POP JUMP JUMPDEST PUSH0 PUSH2 0x1EB2 PUSH0 DUP4 PUSH2 0x1E9A JUMP JUMPDEST SWAP2 POP PUSH2 0x1EBD DUP3 PUSH2 0x1EA4 JUMP JUMPDEST PUSH0 DUP3 ADD SWAP1 POP SWAP2 SWAP1 POP JUMP JUMPDEST PUSH0 PUSH2 0x1ED1 DUP3 PUSH2 0x1EA7 JUMP JUMPDEST SWAP2 POP DUP2 SWAP1 POP SWAP2 SWAP1 POP JUMP JUMPDEST PUSH32 0x4661696C656420746F2073656E64204574686572000000000000000000000000 PUSH0 DUP3 ADD MSTORE POP JUMP JUMPDEST PUSH0 PUSH2 0x1F0F PUSH1 0x14 DUP4 PUSH2 0x13DE JUMP JUMPDEST SWAP2 POP PUSH2 0x1F1A DUP3 PUSH2 0x1EDB JUMP JUMPDEST PUSH1 0x20 DUP3 ADD SWAP1 POP SWAP2 SWAP1 POP JUMP JUMPDEST PUSH0 PUSH1 0x20 DUP3 ADD SWAP1 POP DUP2 DUP2 SUB PUSH0 DUP4 ADD MSTORE PUSH2 0x1F3C DUP2 PUSH2 0x1F03 JUMP JUMPDEST SWAP1 POP SWAP2 SWAP1 POP JUMP JUMPDEST PUSH0 PUSH1 0x40 DUP3 ADD SWAP1 POP PUSH2 0x1F56 PUSH0 DUP4 ADD DUP6 PUSH2 0x1341 JUMP JUMPDEST PUSH2 0x1F63 PUSH1 0x20 DUP4 ADD DUP5 PUSH2 0x1341 JUMP JUMPDEST SWAP4 SWAP3 POP POP POP JUMP INVALID LOG2 PUSH5 0x6970667358 0x22 SLT KECCAK256 0xEB JUMPDEST PUSH3 0x2CA78 0xA7 PUSH24 0x3F4AA07B2CA8297D27940A410E209A58E408C1FC3234601D PUSH5 0x736F6C6343 STOP ADDMOD NOT STOP CALLER "
	},
	"abi": [
		{
			"inputs": [
				{
					"internalType": "uint256",
					"name": "_id",
					"type": "uint256"
				}
			],
			"name": "buyItem",
			"outputs": [],
			"stateMutability": "payable",
			"type": "function"
		},
		{
			"anonymous": false,
			"inputs": [
				{
					"indexed": true,
					"internalType": "uint256",
					"name": "itemId",
					"type": "uint256"
				},
				{
					"indexed": true,
					"internalType": "address",
					"name": "seller",
					"type": "address"
				},
				{
					"indexed": true,
					"internalType": "address",
					"name": "owner",
					"type": "address"
				},
				{
					"indexed": false,
					"internalType": "string",
					"name": "title",
					"type": "string"
				},
				{
					"indexed": false,
					"internalType": "string",
					"name": "imageHash",
					"type": "string"
				},
				{
					"indexed": false,
					"internalType": "uint256",
					"name": "price",
					"type": "uint256"
				},
				{
					"indexed": false,
					"internalType": "bytes32",
					"name": "transactionHash",
					"type": "bytes32"
				}
			],
			"name": "ItemListed",
			"type": "event"
		},
		{
			"anonymous": false,
			"inputs": [
				{
					"indexed": false,
					"internalType": "uint256",
					"name": "itemId",
					"type": "uint256"
				},
				{
					"indexed": true,
					"internalType": "address",
					"name": "oldOwner",
					"type": "address"
				},
				{
					"indexed": true,
					"internalType": "address",
					"name": "newOwner",
					"type": "address"
				},
				{
					"indexed": false,
					"internalType": "uint256",
					"name": "price",
					"type": "uint256"
				}
			],
			"name": "ItemSold",
			"type": "event"
		},
		{
			"inputs": [
				{
					"internalType": "string",
					"name": "_title",
					"type": "string"
				},
				{
					"internalType": "string",
					"name": "_description",
					"type": "string"
				},
				{
					"internalType": "string",
					"name": "_imageHash",
					"type": "string"
				},
				{
					"internalType": "uint256",
					"name": "_price",
					"type": "uint256"
				}
			],
			"name": "listItem",
			"outputs": [],
			"stateMutability": "nonpayable",
			"type": "function"
		},
		{
			"anonymous": false,
			"inputs": [
				{
					"indexed": true,
					"internalType": "address",
					"name": "from",
					"type": "address"
				},
				{
					"indexed": true,
					"internalType": "address",
					"name": "to",
					"type": "address"
				},
				{
					"indexed": false,
					"internalType": "uint256",
					"name": "amount",
					"type": "uint256"
				}
			],
			"name": "PaymentSent",
			"type": "event"
		},
		{
			"inputs": [],
			"name": "getAllItems",
			"outputs": [
				{
					"components": [
						{
							"internalType": "uint256",
							"name": "id",
							"type": "uint256"
						},
						{
							"internalType": "address payable",
							"name": "seller",
							"type": "address"
						},
						{
							"internalType": "address payable",
							"name": "owner",
							"type": "address"
						},
						{
							"internalType": "string",
							"name": "title",
							"type": "string"
						},
						{
							"internalType": "string",
							"name": "description",
							"type": "string"
						},
						{
							"internalType": "string",
							"name": "imageHash",
							"type": "string"
						},
						{
							"internalType": "uint256",
							"name": "price",
							"type": "uint256"
						},
						{
							"internalType": "bool",
							"name": "sold",
							"type": "bool"
						},
						{
							"internalType": "bytes32",
							"name": "transactionHash",
							"type": "bytes32"
						}
					],
					"internalType": "struct Marketplace.Item[]",
					"name": "",
					"type": "tuple[]"
				}
			],
			"stateMutability": "view",
			"type": "function"
		},
		{
			"inputs": [
				{
					"internalType": "uint256",
					"name": "_id",
					"type": "uint256"
				}
			],
			"name": "getItemById",
			"outputs": [
				{
					"components": [
						{
							"internalType": "uint256",
							"name": "id",
							"type": "uint256"
						},
						{
							"internalType": "address payable",
							"name": "seller",
							"type": "address"
						},
						{
							"internalType": "address payable",
							"name": "owner",
							"type": "address"
						},
						{
							"internalType": "string",
							"name": "title",
							"type": "string"
						},
						{
							"internalType": "string",
							"name": "description",
							"type": "string"
						},
						{
							"internalType": "string",
							"name": "imageHash",
							"type": "string"
						},
						{
							"internalType": "uint256",
							"name": "price",
							"type": "uint256"
						},
						{
							"internalType": "bool",
							"name": "sold",
							"type": "bool"
						},
						{
							"internalType": "bytes32",
							"name": "transactionHash",
							"type": "bytes32"
						}
					],
					"internalType": "struct Marketplace.Item",
					"name": "",
					"type": "tuple"
				}
			],
			"stateMutability": "view",
			"type": "function"
		},
		{
			"inputs": [],
			"name": "itemCount",
			"outputs": [
				{
					"internalType": "uint256",
					"name": "",
					"type": "uint256"
				}
			],
			"stateMutability": "view",
			"type": "function"
		},
		{
			"inputs": [
				{
					"internalType": "uint256",
					"name": "",
					"type": "uint256"
				}
			],
			"name": "items",
			"outputs": [
				{
					"internalType": "uint256",
					"name": "id",
					"type": "uint256"
				},
				{
					"internalType": "address payable",
					"name": "seller",
					"type": "address"
				},
				{
					"internalType": "address payable",
					"name": "owner",
					"type": "address"
				},
				{
					"internalType": "string",
					"name": "title",
					"type": "string"
				},
				{
					"internalType": "string",
					"name": "description",
					"type": "string"
				},
				{
					"internalType": "string",
					"name": "imageHash",
					"type": "string"
				},
				{
					"internalType": "uint256",
					"name": "price",
					"type": "uint256"
				},
				{
					"internalType": "bool",
					"name": "sold",
					"type": "bool"
				},
				{
					"internalType": "bytes32",
					"name": "transactionHash",
					"type": "bytes32"
				}
			],
			"stateMutability": "view",
			"type": "function"
		}
	],
	"storageLayout": {
		"storage": [
			{
				"astId": 24,
				"contract": "contracts/HelloWorld1.sol:Marketplace",
				"label": "items",
				"offset": 0,
				"slot": "0",
				"type": "t_array(t_struct(Item)20_storage)dyn_storage"
			},
			{
				"astId": 27,
				"contract": "contracts/HelloWorld1.sol:Marketplace",
				"label": "itemCount",
				"offset": 0,
				"slot": "1",
				"type": "t_uint256"
			}
		],
		"types": {
			"t_address_payable": {
				"encoding": "inplace",
				"label": "address payable",
				"numberOfBytes": "20"
			},
			"t_array(t_struct(Item)20_storage)dyn_storage": {
				"base": "t_struct(Item)20_storage",
				"encoding": "dynamic_array",
				"label": "struct Marketplace.Item[]",
				"numberOfBytes": "32"
			},
			"t_bool": {
				"encoding": "inplace",
				"label": "bool",
				"numberOfBytes": "1"
			},
			"t_bytes32": {
				"encoding": "inplace",
				"label": "bytes32",
				"numberOfBytes": "32"
			},
			"t_string_storage": {
				"encoding": "bytes",
				"label": "string",
				"numberOfBytes": "32"
			},
			"t_struct(Item)20_storage": {
				"encoding": "inplace",
				"label": "struct Marketplace.Item",
				"members": [
					{
						"astId": 3,
						"contract": "contracts/HelloWorld1.sol:Marketplace",
						"label": "id",
						"offset": 0,
						"slot": "0",
						"type": "t_uint256"
					},
					{
						"astId": 5,
						"contract": "contracts/HelloWorld1.sol:Marketplace",
						"label": "seller",
						"offset": 0,
						"slot": "1",
						"type": "t_address_payable"
					},
					{
						"astId": 7,
						"contract": "contracts/HelloWorld1.sol:Marketplace",
						"label": "owner",
						"offset": 0,
						"slot": "2",
						"type": "t_address_payable"
					},
					{
						"astId": 9,
						"contract": "contracts/HelloWorld1.sol:Marketplace",
						"label": "title",
						"offset": 0,
						"slot": "3",
						"type": "t_string_storage"
					},
					{
						"astId": 11,
						"contract": "contracts/HelloWorld1.sol:Marketplace",
						"label": "description",
						"offset": 0,
						"slot": "4",
						"type": "t_string_storage"
					},
					{
						"astId": 13,
						"contract": "contracts/HelloWorld1.sol:Marketplace",
						"label": "imageHash",
						"offset": 0,
						"slot": "5",
						"type": "t_string_storage"
					},
					{
						"astId": 15,
						"contract": "contracts/HelloWorld1.sol:Marketplace",
						"label": "price",
						"offset": 0,
						"slot": "6",
						"type": "t_uint256"
					},
					{
						"astId": 17,
						"contract": "contracts/HelloWorld1.sol:Marketplace",
						"label": "sold",
						"offset": 0,
						"slot": "7",
						"type": "t_bool"
					},
					{
						"astId": 19,
						"contract": "contracts/HelloWorld1.sol:Marketplace",
						"label": "transactionHash",
						"offset": 0,
						"slot": "8",
						"type": "t_bytes32"
					}
				],
				"numberOfBytes": "288"
			},
			"t_uint256": {
				"encoding": "inplace",
				"label": "uint256",
				"numberOfBytes": "32"
			}
		}
	},
	"web3Deploy": "var marketplaceContract = new web3.eth.Contract([{\"anonymous\":false,\"inputs\":[{\"indexed\":true,\"internalType\":\"uint256\",\"name\":\"itemId\",\"type\":\"uint256\"},{\"indexed\":true,\"internalType\":\"address\",\"name\":\"seller\",\"type\":\"address\"},{\"indexed\":true,\"internalType\":\"address\",\"name\":\"owner\",\"type\":\"address\"},{\"indexed\":false,\"internalType\":\"string\",\"name\":\"title\",\"type\":\"string\"},{\"indexed\":false,\"internalType\":\"string\",\"name\":\"imageHash\",\"type\":\"string\"},{\"indexed\":false,\"internalType\":\"uint256\",\"name\":\"price\",\"type\":\"uint256\"},{\"indexed\":false,\"internalType\":\"bytes32\",\"name\":\"transactionHash\",\"type\":\"bytes32\"}],\"name\":\"ItemListed\",\"type\":\"event\"},{\"anonymous\":false,\"inputs\":[{\"indexed\":false,\"internalType\":\"uint256\",\"name\":\"itemId\",\"type\":\"uint256\"},{\"indexed\":true,\"internalType\":\"address\",\"name\":\"oldOwner\",\"type\":\"address\"},{\"indexed\":true,\"internalType\":\"address\",\"name\":\"newOwner\",\"type\":\"address\"},{\"indexed\":false,\"internalType\":\"uint256\",\"name\":\"price\",\"type\":\"uint256\"}],\"name\":\"ItemSold\",\"type\":\"event\"},{\"anonymous\":false,\"inputs\":[{\"indexed\":true,\"internalType\":\"address\",\"name\":\"from\",\"type\":\"address\"},{\"indexed\":true,\"internalType\":\"address\",\"name\":\"to\",\"type\":\"address\"},{\"indexed\":false,\"internalType\":\"uint256\",\"name\":\"amount\",\"type\":\"uint256\"}],\"name\":\"PaymentSent\",\"type\":\"event\"},{\"inputs\":[{\"internalType\":\"uint256\",\"name\":\"_id\",\"type\":\"uint256\"}],\"name\":\"buyItem\",\"outputs\":[],\"stateMutability\":\"payable\",\"type\":\"function\"},{\"inputs\":[],\"name\":\"getAllItems\",\"outputs\":[{\"components\":[{\"internalType\":\"uint256\",\"name\":\"id\",\"type\":\"uint256\"},{\"internalType\":\"address payable\",\"name\":\"seller\",\"type\":\"address\"},{\"internalType\":\"address payable\",\"name\":\"owner\",\"type\":\"address\"},{\"internalType\":\"string\",\"name\":\"title\",\"type\":\"string\"},{\"internalType\":\"string\",\"name\":\"description\",\"type\":\"string\"},{\"internalType\":\"string\",\"name\":\"imageHash\",\"type\":\"string\"},{\"internalType\":\"uint256\",\"name\":\"price\",\"type\":\"uint256\"},{\"internalType\":\"bool\",\"name\":\"sold\",\"type\":\"bool\"},{\"internalType\":\"bytes32\",\"name\":\"transactionHash\",\"type\":\"bytes32\"}],\"internalType\":\"struct Marketplace.Item[]\",\"name\":\"\",\"type\":\"tuple[]\"}],\"stateMutability\":\"view\",\"type\":\"function\"},{\"inputs\":[{\"internalType\":\"uint256\",\"name\":\"_id\",\"type\":\"uint256\"}],\"name\":\"getItemById\",\"outputs\":[{\"components\":[{\"internalType\":\"uint256\",\"name\":\"id\",\"type\":\"uint256\"},{\"internalType\":\"address payable\",\"name\":\"seller\",\"type\":\"address\"},{\"internalType\":\"address payable\",\"name\":\"owner\",\"type\":\"address\"},{\"internalType\":\"string\",\"name\":\"title\",\"type\":\"string\"},{\"internalType\":\"string\",\"name\":\"description\",\"type\":\"string\"},{\"internalType\":\"string\",\"name\":\"imageHash\",\"type\":\"string\"},{\"internalType\":\"uint256\",\"name\":\"price\",\"type\":\"uint256\"},{\"internalType\":\"bool\",\"name\":\"sold\",\"type\":\"bool\"},{\"internalType\":\"bytes32\",\"name\":\"transactionHash\",\"type\":\"bytes32\"}],\"internalType\":\"struct Marketplace.Item\",\"name\":\"\",\"type\":\"tuple\"}],\"stateMutability\":\"view\",\"type\":\"function\"},{\"inputs\":[],\"name\":\"itemCount\",\"outputs\":[{\"internalType\":\"uint256\",\"name\":\"\",\"type\":\"uint256\"}],\"stateMutability\":\"view\",\"type\":\"function\"},{\"inputs\":[{\"internalType\":\"uint256\",\"name\":\"\",\"type\":\"uint256\"}],\"name\":\"items\",\"outputs\":[{\"internalType\":\"uint256\",\"name\":\"id\",\"type\":\"uint256\"},{\"internalType\":\"address payable\",\"name\":\"seller\",\"type\":\"address\"},{\"internalType\":\"address payable\",\"name\":\"owner\",\"type\":\"address\"},{\"internalType\":\"string\",\"name\":\"title\",\"type\":\"string\"},{\"internalType\":\"string\",\"name\":\"description\",\"type\":\"string\"},{\"internalType\":\"string\",\"name\":\"imageHash\",\"type\":\"string\"},{\"internalType\":\"uint256\",\"name\":\"price\",\"type\":\"uint256\"},{\"internalType\":\"bool\",\"name\":\"sold\",\"type\":\"bool\"},{\"internalType\":\"bytes32\",\"name\":\"transactionHash\",\"type\":\"bytes32\"}],\"stateMutability\":\"view\",\"type\":\"function\"},{\"inputs\":[{\"internalType\":\"string\",\"name\":\"_title\",\"type\":\"string\"},{\"internalType\":\"string\",\"name\":\"_description\",\"type\":\"string\"},{\"internalType\":\"string\",\"name\":\"_imageHash\",\"type\":\"string\"},{\"internalType\":\"uint256\",\"name\":\"_price\",\"type\":\"uint256\"}],\"name\":\"listItem\",\"outputs\":[],\"stateMutability\":\"nonpayable\",\"type\":\"function\"}]);\nvar marketplace = marketplaceContract.deploy({\n     data: '0x60806040525f6001553480156012575f80fd5b50611fa0806100205f395ff3fe608060405260043610610054575f3560e01c80634ba1d6aa146100585780636bfb0d0114610082578063bfb231d2146100ac578063cd2f0710146100f0578063d65274c91461012c578063e7fb74c714610154575b5f80fd5b348015610063575f80fd5b5061006c610170565b6040516100799190611321565b60405180910390f35b34801561008d575f80fd5b5061009661045d565b6040516100a39190611350565b60405180910390f35b3480156100b7575f80fd5b506100d260048036038101906100cd91906113a4565b610463565b6040516100e799989796959493929190611444565b60405180910390f35b3480156100fb575f80fd5b50610116600480360381019061011191906113a4565b610697565b60405161012391906115b4565b60405180910390f35b348015610137575f80fd5b50610152600480360381019061014d9190611700565b6109a6565b005b61016e600480360381019061016991906113a4565b610c72565b005b60605f805480602002602001604051908101604052809291908181526020015f905b82821015610454578382905f5260205f209060090201604051806101200160405290815f8201548152602001600182015f9054906101000a900473ffffffffffffffffffffffffffffffffffffffff1673ffffffffffffffffffffffffffffffffffffffff1673ffffffffffffffffffffffffffffffffffffffff168152602001600282015f9054906101000a900473ffffffffffffffffffffffffffffffffffffffff1673ffffffffffffffffffffffffffffffffffffffff1673ffffffffffffffffffffffffffffffffffffffff168152602001600382018054610277906117e5565b80601f01602080910402602001604051908101604052809291908181526020018280546102a3906117e5565b80156102ee5780601f106102c5576101008083540402835291602001916102ee565b820191905f5260205f20905b8154815290600101906020018083116102d157829003601f168201915b50505050508152602001600482018054610307906117e5565b80601f0160208091040260200160405190810160405280929190818152602001828054610333906117e5565b801561037e5780601f106103555761010080835404028352916020019161037e565b820191905f5260205f20905b81548152906001019060200180831161036157829003601f168201915b50505050508152602001600582018054610397906117e5565b80601f01602080910402602001604051908101604052809291908181526020018280546103c3906117e5565b801561040e5780601f106103e55761010080835404028352916020019161040e565b820191905f5260205f20905b8154815290600101906020018083116103f157829003601f168201915b5050505050815260200160068201548152602001600782015f9054906101000a900460ff1615151515815260200160088201548152505081526020019060010190610192565b50505050905090565b60015481565b5f8181548110610471575f80fd5b905f5260205f2090600902015f91509050805f015490806001015f9054906101000a900473ffffffffffffffffffffffffffffffffffffffff1690806002015f9054906101000a900473ffffffffffffffffffffffffffffffffffffffff16908060030180546104e0906117e5565b80601f016020809104026020016040519081016040528092919081815260200182805461050c906117e5565b80156105575780601f1061052e57610100808354040283529160200191610557565b820191905f5260205f20905b81548152906001019060200180831161053a57829003601f168201915b50505050509080600401805461056c906117e5565b80601f0160208091040260200160405190810160405280929190818152602001828054610598906117e5565b80156105e35780601f106105ba576101008083540402835291602001916105e3565b820191905f5260205f20905b8154815290600101906020018083116105c657829003601f168201915b5050505050908060050180546105f8906117e5565b80601f0160208091040260200160405190810160405280929190818152602001828054610624906117e5565b801561066f5780601f106106465761010080835404028352916020019161066f565b820191905f5260205f20905b81548152906001019060200180831161065257829003601f168201915b505050505090806006015490806007015f9054906101000a900460ff16908060080154905089565b61069f611026565b60015482106106e3576040517f08c379a00000000000000000000000000000000000000000000000000000000081526004016106da9061185f565b60405180910390fd5b5f82815481106106f6576106f561187d565b5b905f5260205f209060090201604051806101200160405290815f8201548152602001600182015f9054906101000a900473ffffffffffffffffffffffffffffffffffffffff1673ffffffffffffffffffffffffffffffffffffffff1673ffffffffffffffffffffffffffffffffffffffff168152602001600282015f9054906101000a900473ffffffffffffffffffffffffffffffffffffffff1673ffffffffffffffffffffffffffffffffffffffff1673ffffffffffffffffffffffffffffffffffffffff1681526020016003820180546107d1906117e5565b80601f01602080910402602001604051908101604052809291908181526020018280546107fd906117e5565b80156108485780601f1061081f57610100808354040283529160200191610848565b820191905f5260205f20905b81548152906001019060200180831161082b57829003601f168201915b50505050508152602001600482018054610861906117e5565b80601f016020809104026020016040519081016040528092919081815260200182805461088d906117e5565b80156108d85780601f106108af576101008083540402835291602001916108d8565b820191905f5260205f20905b8154815290600101906020018083116108bb57829003601f168201915b505050505081526020016005820180546108f1906117e5565b80601f016020809104026020016040519081016040528092919081815260200182805461091d906117e5565b80156109685780601f1061093f57610100808354040283529160200191610968565b820191905f5260205f20905b81548152906001019060200180831161094b57829003601f168201915b5050505050815260200160068201548152602001600782015f9054906101000a900460ff161515151581526020016008820154815250509050919050565b5f81116109e8576040517f08c379a00000000000000000000000000000000000000000000000000000000081526004016109df906118f4565b60405180910390fd5b5f60405180610120016040528060015481526020013373ffffffffffffffffffffffffffffffffffffffff1681526020013373ffffffffffffffffffffffffffffffffffffffff1681526020018681526020018581526020018481526020018381526020015f151581526020015f801b815250908060018154018082558091505060019003905f5260205f2090600902015f909190919091505f820151815f01556020820151816001015f6101000a81548173ffffffffffffffffffffffffffffffffffffffff021916908373ffffffffffffffffffffffffffffffffffffffff1602179055506040820151816002015f6101000a81548173ffffffffffffffffffffffffffffffffffffffff021916908373ffffffffffffffffffffffffffffffffffffffff1602179055506060820151816003019081610b2a9190611aaf565b506080820151816004019081610b409190611aaf565b5060a0820151816005019081610b569190611aaf565b5060c0820151816006015560e0820151816007015f6101000a81548160ff021916908315150217905550610100820151816008015550505f42338684604051602001610ba59493929190611c2e565b604051602081830303815290604052805190602001209050805f60015481548110610bd357610bd261187d565b5b905f5260205f209060090201600801819055503373ffffffffffffffffffffffffffffffffffffffff163373ffffffffffffffffffffffffffffffffffffffff166001547fa6131043c1cc8c5af6a89eedda134d3f914146d527b69fc4f68c0b7296ed4e6e88878787604051610c4c9493929190611c77565b60405180910390a460015f815480929190610c6690611cf5565b91905055505050505050565b6001548110610cb6576040517f08c379a0000000000000000000000000000000000000000000000000000000008152600401610cad9061185f565b60405180910390fd5b5f808281548110610cca57610cc961187d565b5b905f5260205f209060090201905080600601543414610d1e576040517f08c379a0000000000000000000000000000000000000000000000000000000008152600401610d1590611dac565b60405180910390fd5b806007015f9054906101000a900460ff1615610d6f576040517f08c379a0000000000000000000000000000000000000000000000000000000008152600401610d6690611e14565b60405180910390fd5b806002015f9054906101000a900473ffffffffffffffffffffffffffffffffffffffff1673ffffffffffffffffffffffffffffffffffffffff163373ffffffffffffffffffffffffffffffffffffffff1603610e00576040517f08c379a0000000000000000000000000000000000000000000000000000000008152600401610df790611e7c565b60405180910390fd5b5f816002015f9054906101000a900473ffffffffffffffffffffffffffffffffffffffff1673ffffffffffffffffffffffffffffffffffffffff1634604051610e4890611ec7565b5f6040518083038185875af1925050503d805f8114610e82576040519150601f19603f3d011682016040523d82523d5f602084013e610e87565b606091505b5050905080610ecb576040517f08c379a0000000000000000000000000000000000000000000000000000000008152600401610ec290611f25565b60405180910390fd5b5f826002015f9054906101000a900473ffffffffffffffffffffffffffffffffffffffff16905033836002015f6101000a81548173ffffffffffffffffffffffffffffffffffffffff021916908373ffffffffffffffffffffffffffffffffffffffff1602179055506001836007015f6101000a81548160ff0219169083151502179055508073ffffffffffffffffffffffffffffffffffffffff163373ffffffffffffffffffffffffffffffffffffffff167fd52bd61f7c422d441e024604f4517878fd3305d6acf0fe37baef23ed21af6bc934604051610fad9190611350565b60405180910390a33373ffffffffffffffffffffffffffffffffffffffff168173ffffffffffffffffffffffffffffffffffffffff167f04ddd54c6b746e69ba87f862311f7670bd1d7276846778ac81cd38747b27a746868660060154604051611018929190611f43565b60405180910390a350505050565b6040518061012001604052805f81526020015f73ffffffffffffffffffffffffffffffffffffffff1681526020015f73ffffffffffffffffffffffffffffffffffffffff1681526020016060815260200160608152602001606081526020015f81526020015f151581526020015f80191681525090565b5f81519050919050565b5f82825260208201905092915050565b5f819050602082019050919050565b5f819050919050565b6110d8816110c6565b82525050565b5f73ffffffffffffffffffffffffffffffffffffffff82169050919050565b5f611107826110de565b9050919050565b611117816110fd565b82525050565b5f81519050919050565b5f82825260208201905092915050565b8281835e5f83830152505050565b5f601f19601f8301169050919050565b5f61115f8261111d565b6111698185611127565b9350611179818560208601611137565b61118281611145565b840191505092915050565b5f8115159050919050565b6111a18161118d565b82525050565b5f819050919050565b6111b9816111a7565b82525050565b5f61012083015f8301516111d55f8601826110cf565b5060208301516111e8602086018261110e565b5060408301516111fb604086018261110e565b50606083015184820360608601526112138282611155565b9150506080830151848203608086015261122d8282611155565b91505060a083015184820360a08601526112478282611155565b91505060c083015161125c60c08601826110cf565b5060e083015161126f60e0860182611198565b506101008301516112846101008601826111b0565b508091505092915050565b5f61129a83836111bf565b905092915050565b5f602082019050919050565b5f6112b88261109d565b6112c281856110a7565b9350836020820285016112d4856110b7565b805f5b8581101561130f57848403895281516112f0858261128f565b94506112fb836112a2565b925060208a019950506001810190506112d7565b50829750879550505050505092915050565b5f6020820190508181035f83015261133981846112ae565b905092915050565b61134a816110c6565b82525050565b5f6020820190506113635f830184611341565b92915050565b5f604051905090565b5f80fd5b5f80fd5b611383816110c6565b811461138d575f80fd5b50565b5f8135905061139e8161137a565b92915050565b5f602082840312156113b9576113b8611372565b5b5f6113c684828501611390565b91505092915050565b6113d8816110fd565b82525050565b5f82825260208201905092915050565b5f6113f88261111d565b61140281856113de565b9350611412818560208601611137565b61141b81611145565b840191505092915050565b61142f8161118d565b82525050565b61143e816111a7565b82525050565b5f610120820190506114585f83018c611341565b611465602083018b6113cf565b611472604083018a6113cf565b818103606083015261148481896113ee565b9050818103608083015261149881886113ee565b905081810360a08301526114ac81876113ee565b90506114bb60c0830186611341565b6114c860e0830185611426565b6114d6610100830184611435565b9a9950505050505050505050565b5f61012083015f8301516114fa5f8601826110cf565b50602083015161150d602086018261110e565b506040830151611520604086018261110e565b50606083015184820360608601526115388282611155565b915050608083015184820360808601526115528282611155565b91505060a083015184820360a086015261156c8282611155565b91505060c083015161158160c08601826110cf565b5060e083015161159460e0860182611198565b506101008301516115a96101008601826111b0565b508091505092915050565b5f6020820190508181035f8301526115cc81846114e4565b905092915050565b5f80fd5b5f80fd5b7f4e487b71000000000000000000000000000000000000000000000000000000005f52604160045260245ffd5b61161282611145565b810181811067ffffffffffffffff82111715611631576116306115dc565b5b80604052505050565b5f611643611369565b905061164f8282611609565b919050565b5f67ffffffffffffffff82111561166e5761166d6115dc565b5b61167782611145565b9050602081019050919050565b828183375f83830152505050565b5f6116a461169f84611654565b61163a565b9050828152602081018484840111156116c0576116bf6115d8565b5b6116cb848285611684565b509392505050565b5f82601f8301126116e7576116e66115d4565b5b81356116f7848260208601611692565b91505092915050565b5f805f806080858703121561171857611717611372565b5b5f85013567ffffffffffffffff81111561173557611734611376565b5b611741878288016116d3565b945050602085013567ffffffffffffffff81111561176257611761611376565b5b61176e878288016116d3565b935050604085013567ffffffffffffffff81111561178f5761178e611376565b5b61179b878288016116d3565b92505060606117ac87828801611390565b91505092959194509250565b7f4e487b71000000000000000000000000000000000000000000000000000000005f52602260045260245ffd5b5f60028204905060018216806117fc57607f821691505b60208210810361180f5761180e6117b8565b5b50919050565b7f4974656d20494420646f6573206e6f74206578697374000000000000000000005f82015250565b5f6118496016836113de565b915061185482611815565b602082019050919050565b5f6020820190508181035f8301526118768161183d565b9050919050565b7f4e487b71000000000000000000000000000000000000000000000000000000005f52603260045260245ffd5b7f5072696365206d7573742062652067726561746572207468616e207a65726f005f82015250565b5f6118de601f836113de565b91506118e9826118aa565b602082019050919050565b5f6020820190508181035f83015261190b816118d2565b9050919050565b5f819050815f5260205f209050919050565b5f6020601f8301049050919050565b5f82821b905092915050565b5f6008830261196e7fffffffffffffffffffffffffffffffffffffffffffffffffffffffffffffffff82611933565b6119788683611933565b95508019841693508086168417925050509392505050565b5f819050919050565b5f6119b36119ae6119a9846110c6565b611990565b6110c6565b9050919050565b5f819050919050565b6119cc83611999565b6119e06119d8826119ba565b84845461193f565b825550505050565b5f90565b6119f46119e8565b6119ff8184846119c3565b505050565b5b81811015611a2257611a175f826119ec565b600181019050611a05565b5050565b601f821115611a6757611a3881611912565b611a4184611924565b81016020851015611a50578190505b611a64611a5c85611924565b830182611a04565b50505b505050565b5f82821c905092915050565b5f611a875f1984600802611a6c565b1980831691505092915050565b5f611a9f8383611a78565b9150826002028217905092915050565b611ab88261111d565b67ffffffffffffffff811115611ad157611ad06115dc565b5b611adb82546117e5565b611ae6828285611a26565b5f60209050601f831160018114611b17575f8415611b05578287015190505b611b0f8582611a94565b865550611b76565b601f198416611b2586611912565b5f5b82811015611b4c57848901518255600182019150602085019450602081019050611b27565b86831015611b695784890151611b65601f891682611a78565b8355505b6001600288020188555050505b505050505050565b5f819050919050565b611b98611b93826110c6565b611b7e565b82525050565b5f611ba8826110de565b9050919050565b5f8160601b9050919050565b5f611bc582611baf565b9050919050565b5f611bd682611bbb565b9050919050565b611bee611be982611b9e565b611bcc565b82525050565b5f81905092915050565b5f611c088261111d565b611c128185611bf4565b9350611c22818560208601611137565b80840191505092915050565b5f611c398287611b87565b602082019150611c498286611bdd565b601482019150611c598285611bfe565b9150611c658284611b87565b60208201915081905095945050505050565b5f6080820190508181035f830152611c8f81876113ee565b90508181036020830152611ca381866113ee565b9050611cb26040830185611341565b611cbf6060830184611435565b95945050505050565b7f4e487b71000000000000000000000000000000000000000000000000000000005f52601160045260245ffd5b5f611cff826110c6565b91507fffffffffffffffffffffffffffffffffffffffffffffffffffffffffffffffff8203611d3157611d30611cc8565b5b600182019050919050565b7f506c65617365207375626d6974207468652061736b696e6720707269636520695f8201527f6e206f7264657220746f20636f6d706c65746520746865207075726368617365602082015250565b5f611d966040836113de565b9150611da182611d3c565b604082019050919050565b5f6020820190508181035f830152611dc381611d8a565b9050919050565b7f54686973206974656d2068617320616c7265616479206265656e20736f6c64005f82015250565b5f611dfe601f836113de565b9150611e0982611dca565b602082019050919050565b5f6020820190508181035f830152611e2b81611df2565b9050919050565b7f4f776e65722063616e6e6f7420627579207468656972206f776e206974656d005f82015250565b5f611e66601f836113de565b9150611e7182611e32565b602082019050919050565b5f6020820190508181035f830152611e9381611e5a565b9050919050565b5f81905092915050565b50565b5f611eb25f83611e9a565b9150611ebd82611ea4565b5f82019050919050565b5f611ed182611ea7565b9150819050919050565b7f4661696c656420746f2073656e642045746865720000000000000000000000005f82015250565b5f611f0f6014836113de565b9150611f1a82611edb565b602082019050919050565b5f6020820190508181035f830152611f3c81611f03565b9050919050565b5f604082019050611f565f830185611341565b611f636020830184611341565b939250505056fea2646970667358221220eb5b6202ca78a7773f4aa07b2ca8297d27940a410e209a58e408c1fc3234601d64736f6c63430008190033', \n     arguments: [\n     ]\n}).send({\n     from: web3.eth.accounts[0], \n     gas: '4700000'\n   }, function (e, contract){\n    console.log(e, contract);\n    if (typeof contract.address !== 'undefined') {\n         console.log('Contract mined! address: ' + contract.address + ' transactionHash: ' + contract.transactionHash);\n    }\n })",
	"functionHashes": {
		"e7fb74c7": "buyItem(uint256)",
		"4ba1d6aa": "getAllItems()",
		"cd2f0710": "getItemById(uint256)",
		"6bfb0d01": "itemCount()",
		"bfb231d2": "items(uint256)",
		"d65274c9": "listItem(string,string,string,uint256)"
	},
	"gasEstimates": {
		"Creation": {
			"codeDepositCost": "1619200",
			"executionCost": "6697",
			"totalCost": "1625897"
		},
		"External": {
			"buyItem(uint256)": "infinite",
			"getAllItems()": "infinite",
			"getItemById(uint256)": "infinite",
			"itemCount()": "2425",
			"items(uint256)": "infinite",
			"listItem(string,string,string,uint256)": "infinite"
		}
	},
	"devdoc": {
		"kind": "dev",
		"methods": {},
		"version": 1
	},
	"userdoc": {
		"kind": "user",
		"methods": {},
		"version": 1
	},
	"Runtime Bytecode": {
		"immutableReferences": {},
		"linkReferences": {},
		"object": "608060405260043610610054575f3560e01c80634ba1d6aa146100585780636bfb0d0114610082578063bfb231d2146100ac578063cd2f0710146100f0578063d65274c91461012c578063e7fb74c714610154575b5f80fd5b348015610063575f80fd5b5061006c610170565b6040516100799190611321565b60405180910390f35b34801561008d575f80fd5b5061009661045d565b6040516100a39190611350565b60405180910390f35b3480156100b7575f80fd5b506100d260048036038101906100cd91906113a4565b610463565b6040516100e799989796959493929190611444565b60405180910390f35b3480156100fb575f80fd5b50610116600480360381019061011191906113a4565b610697565b60405161012391906115b4565b60405180910390f35b348015610137575f80fd5b50610152600480360381019061014d9190611700565b6109a6565b005b61016e600480360381019061016991906113a4565b610c72565b005b60605f805480602002602001604051908101604052809291908181526020015f905b82821015610454578382905f5260205f209060090201604051806101200160405290815f8201548152602001600182015f9054906101000a900473ffffffffffffffffffffffffffffffffffffffff1673ffffffffffffffffffffffffffffffffffffffff1673ffffffffffffffffffffffffffffffffffffffff168152602001600282015f9054906101000a900473ffffffffffffffffffffffffffffffffffffffff1673ffffffffffffffffffffffffffffffffffffffff1673ffffffffffffffffffffffffffffffffffffffff168152602001600382018054610277906117e5565b80601f01602080910402602001604051908101604052809291908181526020018280546102a3906117e5565b80156102ee5780601f106102c5576101008083540402835291602001916102ee565b820191905f5260205f20905b8154815290600101906020018083116102d157829003601f168201915b50505050508152602001600482018054610307906117e5565b80601f0160208091040260200160405190810160405280929190818152602001828054610333906117e5565b801561037e5780601f106103555761010080835404028352916020019161037e565b820191905f5260205f20905b81548152906001019060200180831161036157829003601f168201915b50505050508152602001600582018054610397906117e5565b80601f01602080910402602001604051908101604052809291908181526020018280546103c3906117e5565b801561040e5780601f106103e55761010080835404028352916020019161040e565b820191905f5260205f20905b8154815290600101906020018083116103f157829003601f168201915b5050505050815260200160068201548152602001600782015f9054906101000a900460ff1615151515815260200160088201548152505081526020019060010190610192565b50505050905090565b60015481565b5f8181548110610471575f80fd5b905f5260205f2090600902015f91509050805f015490806001015f9054906101000a900473ffffffffffffffffffffffffffffffffffffffff1690806002015f9054906101000a900473ffffffffffffffffffffffffffffffffffffffff16908060030180546104e0906117e5565b80601f016020809104026020016040519081016040528092919081815260200182805461050c906117e5565b80156105575780601f1061052e57610100808354040283529160200191610557565b820191905f5260205f20905b81548152906001019060200180831161053a57829003601f168201915b50505050509080600401805461056c906117e5565b80601f0160208091040260200160405190810160405280929190818152602001828054610598906117e5565b80156105e35780601f106105ba576101008083540402835291602001916105e3565b820191905f5260205f20905b8154815290600101906020018083116105c657829003601f168201915b5050505050908060050180546105f8906117e5565b80601f0160208091040260200160405190810160405280929190818152602001828054610624906117e5565b801561066f5780601f106106465761010080835404028352916020019161066f565b820191905f5260205f20905b81548152906001019060200180831161065257829003601f168201915b505050505090806006015490806007015f9054906101000a900460ff16908060080154905089565b61069f611026565b60015482106106e3576040517f08c379a00000000000000000000000000000000000000000000000000000000081526004016106da9061185f565b60405180910390fd5b5f82815481106106f6576106f561187d565b5b905f5260205f209060090201604051806101200160405290815f8201548152602001600182015f9054906101000a900473ffffffffffffffffffffffffffffffffffffffff1673ffffffffffffffffffffffffffffffffffffffff1673ffffffffffffffffffffffffffffffffffffffff168152602001600282015f9054906101000a900473ffffffffffffffffffffffffffffffffffffffff1673ffffffffffffffffffffffffffffffffffffffff1673ffffffffffffffffffffffffffffffffffffffff1681526020016003820180546107d1906117e5565b80601f01602080910402602001604051908101604052809291908181526020018280546107fd906117e5565b80156108485780601f1061081f57610100808354040283529160200191610848565b820191905f5260205f20905b81548152906001019060200180831161082b57829003601f168201915b50505050508152602001600482018054610861906117e5565b80601f016020809104026020016040519081016040528092919081815260200182805461088d906117e5565b80156108d85780601f106108af576101008083540402835291602001916108d8565b820191905f5260205f20905b8154815290600101906020018083116108bb57829003601f168201915b505050505081526020016005820180546108f1906117e5565b80601f016020809104026020016040519081016040528092919081815260200182805461091d906117e5565b80156109685780601f1061093f57610100808354040283529160200191610968565b820191905f5260205f20905b81548152906001019060200180831161094b57829003601f168201915b5050505050815260200160068201548152602001600782015f9054906101000a900460ff161515151581526020016008820154815250509050919050565b5f81116109e8576040517f08c379a00000000000000000000000000000000000000000000000000000000081526004016109df906118f4565b60405180910390fd5b5f60405180610120016040528060015481526020013373ffffffffffffffffffffffffffffffffffffffff1681526020013373ffffffffffffffffffffffffffffffffffffffff1681526020018681526020018581526020018481526020018381526020015f151581526020015f801b815250908060018154018082558091505060019003905f5260205f2090600902015f909190919091505f820151815f01556020820151816001015f6101000a81548173ffffffffffffffffffffffffffffffffffffffff021916908373ffffffffffffffffffffffffffffffffffffffff1602179055506040820151816002015f6101000a81548173ffffffffffffffffffffffffffffffffffffffff021916908373ffffffffffffffffffffffffffffffffffffffff1602179055506060820151816003019081610b2a9190611aaf565b506080820151816004019081610b409190611aaf565b5060a0820151816005019081610b569190611aaf565b5060c0820151816006015560e0820151816007015f6101000a81548160ff021916908315150217905550610100820151816008015550505f42338684604051602001610ba59493929190611c2e565b604051602081830303815290604052805190602001209050805f60015481548110610bd357610bd261187d565b5b905f5260205f209060090201600801819055503373ffffffffffffffffffffffffffffffffffffffff163373ffffffffffffffffffffffffffffffffffffffff166001547fa6131043c1cc8c5af6a89eedda134d3f914146d527b69fc4f68c0b7296ed4e6e88878787604051610c4c9493929190611c77565b60405180910390a460015f815480929190610c6690611cf5565b91905055505050505050565b6001548110610cb6576040517f08c379a0000000000000000000000000000000000000000000000000000000008152600401610cad9061185f565b60405180910390fd5b5f808281548110610cca57610cc961187d565b5b905f5260205f209060090201905080600601543414610d1e576040517f08c379a0000000000000000000000000000000000000000000000000000000008152600401610d1590611dac565b60405180910390fd5b806007015f9054906101000a900460ff1615610d6f576040517f08c379a0000000000000000000000000000000000000000000000000000000008152600401610d6690611e14565b60405180910390fd5b806002015f9054906101000a900473ffffffffffffffffffffffffffffffffffffffff1673ffffffffffffffffffffffffffffffffffffffff163373ffffffffffffffffffffffffffffffffffffffff1603610e00576040517f08c379a0000000000000000000000000000000000000000000000000000000008152600401610df790611e7c565b60405180910390fd5b5f816002015f9054906101000a900473ffffffffffffffffffffffffffffffffffffffff1673ffffffffffffffffffffffffffffffffffffffff1634604051610e4890611ec7565b5f6040518083038185875af1925050503d805f8114610e82576040519150601f19603f3d011682016040523d82523d5f602084013e610e87565b606091505b5050905080610ecb576040517f08c379a0000000000000000000000000000000000000000000000000000000008152600401610ec290611f25565b60405180910390fd5b5f826002015f9054906101000a900473ffffffffffffffffffffffffffffffffffffffff16905033836002015f6101000a81548173ffffffffffffffffffffffffffffffffffffffff021916908373ffffffffffffffffffffffffffffffffffffffff1602179055506001836007015f6101000a81548160ff0219169083151502179055508073ffffffffffffffffffffffffffffffffffffffff163373ffffffffffffffffffffffffffffffffffffffff167fd52bd61f7c422d441e024604f4517878fd3305d6acf0fe37baef23ed21af6bc934604051610fad9190611350565b60405180910390a33373ffffffffffffffffffffffffffffffffffffffff168173ffffffffffffffffffffffffffffffffffffffff167f04ddd54c6b746e69ba87f862311f7670bd1d7276846778ac81cd38747b27a746868660060154604051611018929190611f43565b60405180910390a350505050565b6040518061012001604052805f81526020015f73ffffffffffffffffffffffffffffffffffffffff1681526020015f73ffffffffffffffffffffffffffffffffffffffff1681526020016060815260200160608152602001606081526020015f81526020015f151581526020015f80191681525090565b5f81519050919050565b5f82825260208201905092915050565b5f819050602082019050919050565b5f819050919050565b6110d8816110c6565b82525050565b5f73ffffffffffffffffffffffffffffffffffffffff82169050919050565b5f611107826110de565b9050919050565b611117816110fd565b82525050565b5f81519050919050565b5f82825260208201905092915050565b8281835e5f83830152505050565b5f601f19601f8301169050919050565b5f61115f8261111d565b6111698185611127565b9350611179818560208601611137565b61118281611145565b840191505092915050565b5f8115159050919050565b6111a18161118d565b82525050565b5f819050919050565b6111b9816111a7565b82525050565b5f61012083015f8301516111d55f8601826110cf565b5060208301516111e8602086018261110e565b5060408301516111fb604086018261110e565b50606083015184820360608601526112138282611155565b9150506080830151848203608086015261122d8282611155565b91505060a083015184820360a08601526112478282611155565b91505060c083015161125c60c08601826110cf565b5060e083015161126f60e0860182611198565b506101008301516112846101008601826111b0565b508091505092915050565b5f61129a83836111bf565b905092915050565b5f602082019050919050565b5f6112b88261109d565b6112c281856110a7565b9350836020820285016112d4856110b7565b805f5b8581101561130f57848403895281516112f0858261128f565b94506112fb836112a2565b925060208a019950506001810190506112d7565b50829750879550505050505092915050565b5f6020820190508181035f83015261133981846112ae565b905092915050565b61134a816110c6565b82525050565b5f6020820190506113635f830184611341565b92915050565b5f604051905090565b5f80fd5b5f80fd5b611383816110c6565b811461138d575f80fd5b50565b5f8135905061139e8161137a565b92915050565b5f602082840312156113b9576113b8611372565b5b5f6113c684828501611390565b91505092915050565b6113d8816110fd565b82525050565b5f82825260208201905092915050565b5f6113f88261111d565b61140281856113de565b9350611412818560208601611137565b61141b81611145565b840191505092915050565b61142f8161118d565b82525050565b61143e816111a7565b82525050565b5f610120820190506114585f83018c611341565b611465602083018b6113cf565b611472604083018a6113cf565b818103606083015261148481896113ee565b9050818103608083015261149881886113ee565b905081810360a08301526114ac81876113ee565b90506114bb60c0830186611341565b6114c860e0830185611426565b6114d6610100830184611435565b9a9950505050505050505050565b5f61012083015f8301516114fa5f8601826110cf565b50602083015161150d602086018261110e565b506040830151611520604086018261110e565b50606083015184820360608601526115388282611155565b915050608083015184820360808601526115528282611155565b91505060a083015184820360a086015261156c8282611155565b91505060c083015161158160c08601826110cf565b5060e083015161159460e0860182611198565b506101008301516115a96101008601826111b0565b508091505092915050565b5f6020820190508181035f8301526115cc81846114e4565b905092915050565b5f80fd5b5f80fd5b7f4e487b71000000000000000000000000000000000000000000000000000000005f52604160045260245ffd5b61161282611145565b810181811067ffffffffffffffff82111715611631576116306115dc565b5b80604052505050565b5f611643611369565b905061164f8282611609565b919050565b5f67ffffffffffffffff82111561166e5761166d6115dc565b5b61167782611145565b9050602081019050919050565b828183375f83830152505050565b5f6116a461169f84611654565b61163a565b9050828152602081018484840111156116c0576116bf6115d8565b5b6116cb848285611684565b509392505050565b5f82601f8301126116e7576116e66115d4565b5b81356116f7848260208601611692565b91505092915050565b5f805f806080858703121561171857611717611372565b5b5f85013567ffffffffffffffff81111561173557611734611376565b5b611741878288016116d3565b945050602085013567ffffffffffffffff81111561176257611761611376565b5b61176e878288016116d3565b935050604085013567ffffffffffffffff81111561178f5761178e611376565b5b61179b878288016116d3565b92505060606117ac87828801611390565b91505092959194509250565b7f4e487b71000000000000000000000000000000000000000000000000000000005f52602260045260245ffd5b5f60028204905060018216806117fc57607f821691505b60208210810361180f5761180e6117b8565b5b50919050565b7f4974656d20494420646f6573206e6f74206578697374000000000000000000005f82015250565b5f6118496016836113de565b915061185482611815565b602082019050919050565b5f6020820190508181035f8301526118768161183d565b9050919050565b7f4e487b71000000000000000000000000000000000000000000000000000000005f52603260045260245ffd5b7f5072696365206d7573742062652067726561746572207468616e207a65726f005f82015250565b5f6118de601f836113de565b91506118e9826118aa565b602082019050919050565b5f6020820190508181035f83015261190b816118d2565b9050919050565b5f819050815f5260205f209050919050565b5f6020601f8301049050919050565b5f82821b905092915050565b5f6008830261196e7fffffffffffffffffffffffffffffffffffffffffffffffffffffffffffffffff82611933565b6119788683611933565b95508019841693508086168417925050509392505050565b5f819050919050565b5f6119b36119ae6119a9846110c6565b611990565b6110c6565b9050919050565b5f819050919050565b6119cc83611999565b6119e06119d8826119ba565b84845461193f565b825550505050565b5f90565b6119f46119e8565b6119ff8184846119c3565b505050565b5b81811015611a2257611a175f826119ec565b600181019050611a05565b5050565b601f821115611a6757611a3881611912565b611a4184611924565b81016020851015611a50578190505b611a64611a5c85611924565b830182611a04565b50505b505050565b5f82821c905092915050565b5f611a875f1984600802611a6c565b1980831691505092915050565b5f611a9f8383611a78565b9150826002028217905092915050565b611ab88261111d565b67ffffffffffffffff811115611ad157611ad06115dc565b5b611adb82546117e5565b611ae6828285611a26565b5f60209050601f831160018114611b17575f8415611b05578287015190505b611b0f8582611a94565b865550611b76565b601f198416611b2586611912565b5f5b82811015611b4c57848901518255600182019150602085019450602081019050611b27565b86831015611b695784890151611b65601f891682611a78565b8355505b6001600288020188555050505b505050505050565b5f819050919050565b611b98611b93826110c6565b611b7e565b82525050565b5f611ba8826110de565b9050919050565b5f8160601b9050919050565b5f611bc582611baf565b9050919050565b5f611bd682611bbb565b9050919050565b611bee611be982611b9e565b611bcc565b82525050565b5f81905092915050565b5f611c088261111d565b611c128185611bf4565b9350611c22818560208601611137565b80840191505092915050565b5f611c398287611b87565b602082019150611c498286611bdd565b601482019150611c598285611bfe565b9150611c658284611b87565b60208201915081905095945050505050565b5f6080820190508181035f830152611c8f81876113ee565b90508181036020830152611ca381866113ee565b9050611cb26040830185611341565b611cbf6060830184611435565b95945050505050565b7f4e487b71000000000000000000000000000000000000000000000000000000005f52601160045260245ffd5b5f611cff826110c6565b91507fffffffffffffffffffffffffffffffffffffffffffffffffffffffffffffffff8203611d3157611d30611cc8565b5b600182019050919050565b7f506c65617365207375626d6974207468652061736b696e6720707269636520695f8201527f6e206f7264657220746f20636f6d706c65746520746865207075726368617365602082015250565b5f611d966040836113de565b9150611da182611d3c565b604082019050919050565b5f6020820190508181035f830152611dc381611d8a565b9050919050565b7f54686973206974656d2068617320616c7265616479206265656e20736f6c64005f82015250565b5f611dfe601f836113de565b9150611e0982611dca565b602082019050919050565b5f6020820190508181035f830152611e2b81611df2565b9050919050565b7f4f776e65722063616e6e6f7420627579207468656972206f776e206974656d005f82015250565b5f611e66601f836113de565b9150611e7182611e32565b602082019050919050565b5f6020820190508181035f830152611e9381611e5a565b9050919050565b5f81905092915050565b50565b5f611eb25f83611e9a565b9150611ebd82611ea4565b5f82019050919050565b5f611ed182611ea7565b9150819050919050565b7f4661696c656420746f2073656e642045746865720000000000000000000000005f82015250565b5f611f0f6014836113de565b9150611f1a82611edb565b602082019050919050565b5f6020820190508181035f830152611f3c81611f03565b9050919050565b5f604082019050611f565f830185611341565b611f636020830184611341565b939250505056fea2646970667358221220eb5b6202ca78a7773f4aa07b2ca8297d27940a410e209a58e408c1fc3234601d64736f6c63430008190033",
		"opcodes": "PUSH1 0x80 PUSH1 0x40 MSTORE PUSH1 0x4 CALLDATASIZE LT PUSH2 0x54 JUMPI PUSH0 CALLDATALOAD PUSH1 0xE0 SHR DUP1 PUSH4 0x4BA1D6AA EQ PUSH2 0x58 JUMPI DUP1 PUSH4 0x6BFB0D01 EQ PUSH2 0x82 JUMPI DUP1 PUSH4 0xBFB231D2 EQ PUSH2 0xAC JUMPI DUP1 PUSH4 0xCD2F0710 EQ PUSH2 0xF0 JUMPI DUP1 PUSH4 0xD65274C9 EQ PUSH2 0x12C JUMPI DUP1 PUSH4 0xE7FB74C7 EQ PUSH2 0x154 JUMPI JUMPDEST PUSH0 DUP1 REVERT JUMPDEST CALLVALUE DUP1 ISZERO PUSH2 0x63 JUMPI PUSH0 DUP1 REVERT JUMPDEST POP PUSH2 0x6C PUSH2 0x170 JUMP JUMPDEST PUSH1 0x40 MLOAD PUSH2 0x79 SWAP2 SWAP1 PUSH2 0x1321 JUMP JUMPDEST PUSH1 0x40 MLOAD DUP1 SWAP2 SUB SWAP1 RETURN JUMPDEST CALLVALUE DUP1 ISZERO PUSH2 0x8D JUMPI PUSH0 DUP1 REVERT JUMPDEST POP PUSH2 0x96 PUSH2 0x45D JUMP JUMPDEST PUSH1 0x40 MLOAD PUSH2 0xA3 SWAP2 SWAP1 PUSH2 0x1350 JUMP JUMPDEST PUSH1 0x40 MLOAD DUP1 SWAP2 SUB SWAP1 RETURN JUMPDEST CALLVALUE DUP1 ISZERO PUSH2 0xB7 JUMPI PUSH0 DUP1 REVERT JUMPDEST POP PUSH2 0xD2 PUSH1 0x4 DUP1 CALLDATASIZE SUB DUP2 ADD SWAP1 PUSH2 0xCD SWAP2 SWAP1 PUSH2 0x13A4 JUMP JUMPDEST PUSH2 0x463 JUMP JUMPDEST PUSH1 0x40 MLOAD PUSH2 0xE7 SWAP10 SWAP9 SWAP8 SWAP7 SWAP6 SWAP5 SWAP4 SWAP3 SWAP2 SWAP1 PUSH2 0x1444 JUMP JUMPDEST PUSH1 0x40 MLOAD DUP1 SWAP2 SUB SWAP1 RETURN JUMPDEST CALLVALUE DUP1 ISZERO PUSH2 0xFB JUMPI PUSH0 DUP1 REVERT JUMPDEST POP PUSH2 0x116 PUSH1 0x4 DUP1 CALLDATASIZE SUB DUP2 ADD SWAP1 PUSH2 0x111 SWAP2 SWAP1 PUSH2 0x13A4 JUMP JUMPDEST PUSH2 0x697 JUMP JUMPDEST PUSH1 0x40 MLOAD PUSH2 0x123 SWAP2 SWAP1 PUSH2 0x15B4 JUMP JUMPDEST PUSH1 0x40 MLOAD DUP1 SWAP2 SUB SWAP1 RETURN JUMPDEST CALLVALUE DUP1 ISZERO PUSH2 0x137 JUMPI PUSH0 DUP1 REVERT JUMPDEST POP PUSH2 0x152 PUSH1 0x4 DUP1 CALLDATASIZE SUB DUP2 ADD SWAP1 PUSH2 0x14D SWAP2 SWAP1 PUSH2 0x1700 JUMP JUMPDEST PUSH2 0x9A6 JUMP JUMPDEST STOP JUMPDEST PUSH2 0x16E PUSH1 0x4 DUP1 CALLDATASIZE SUB DUP2 ADD SWAP1 PUSH2 0x169 SWAP2 SWAP1 PUSH2 0x13A4 JUMP JUMPDEST PUSH2 0xC72 JUMP JUMPDEST STOP JUMPDEST PUSH1 0x60 PUSH0 DUP1 SLOAD DUP1 PUSH1 0x20 MUL PUSH1 0x20 ADD PUSH1 0x40 MLOAD SWAP1 DUP2 ADD PUSH1 0x40 MSTORE DUP1 SWAP3 SWAP2 SWAP1 DUP2 DUP2 MSTORE PUSH1 0x20 ADD PUSH0 SWAP1 JUMPDEST DUP3 DUP3 LT ISZERO PUSH2 0x454 JUMPI DUP4 DUP3 SWAP1 PUSH0 MSTORE PUSH1 0x20 PUSH0 KECCAK256 SWAP1 PUSH1 0x9 MUL ADD PUSH1 0x40 MLOAD DUP1 PUSH2 0x120 ADD PUSH1 0x40 MSTORE SWAP1 DUP2 PUSH0 DUP3 ADD SLOAD DUP2 MSTORE PUSH1 0x20 ADD PUSH1 0x1 DUP3 ADD PUSH0 SWAP1 SLOAD SWAP1 PUSH2 0x100 EXP SWAP1 DIV PUSH20 0xFFFFFFFFFFFFFFFFFFFFFFFFFFFFFFFFFFFFFFFF AND PUSH20 0xFFFFFFFFFFFFFFFFFFFFFFFFFFFFFFFFFFFFFFFF AND PUSH20 0xFFFFFFFFFFFFFFFFFFFFFFFFFFFFFFFFFFFFFFFF AND DUP2 MSTORE PUSH1 0x20 ADD PUSH1 0x2 DUP3 ADD PUSH0 SWAP1 SLOAD SWAP1 PUSH2 0x100 EXP SWAP1 DIV PUSH20 0xFFFFFFFFFFFFFFFFFFFFFFFFFFFFFFFFFFFFFFFF AND PUSH20 0xFFFFFFFFFFFFFFFFFFFFFFFFFFFFFFFFFFFFFFFF AND PUSH20 0xFFFFFFFFFFFFFFFFFFFFFFFFFFFFFFFFFFFFFFFF AND DUP2 MSTORE PUSH1 0x20 ADD PUSH1 0x3 DUP3 ADD DUP1 SLOAD PUSH2 0x277 SWAP1 PUSH2 0x17E5 JUMP JUMPDEST DUP1 PUSH1 0x1F ADD PUSH1 0x20 DUP1 SWAP2 DIV MUL PUSH1 0x20 ADD PUSH1 0x40 MLOAD SWAP1 DUP2 ADD PUSH1 0x40 MSTORE DUP1 SWAP3 SWAP2 SWAP1 DUP2 DUP2 MSTORE PUSH1 0x20 ADD DUP3 DUP1 SLOAD PUSH2 0x2A3 SWAP1 PUSH2 0x17E5 JUMP JUMPDEST DUP1 ISZERO PUSH2 0x2EE JUMPI DUP1 PUSH1 0x1F LT PUSH2 0x2C5 JUMPI PUSH2 0x100 DUP1 DUP4 SLOAD DIV MUL DUP4 MSTORE SWAP2 PUSH1 0x20 ADD SWAP2 PUSH2 0x2EE JUMP JUMPDEST DUP3 ADD SWAP2 SWAP1 PUSH0 MSTORE PUSH1 0x20 PUSH0 KECCAK256 SWAP1 JUMPDEST DUP2 SLOAD DUP2 MSTORE SWAP1 PUSH1 0x1 ADD SWAP1 PUSH1 0x20 ADD DUP1 DUP4 GT PUSH2 0x2D1 JUMPI DUP3 SWAP1 SUB PUSH1 0x1F AND DUP3 ADD SWAP2 JUMPDEST POP POP POP POP POP DUP2 MSTORE PUSH1 0x20 ADD PUSH1 0x4 DUP3 ADD DUP1 SLOAD PUSH2 0x307 SWAP1 PUSH2 0x17E5 JUMP JUMPDEST DUP1 PUSH1 0x1F ADD PUSH1 0x20 DUP1 SWAP2 DIV MUL PUSH1 0x20 ADD PUSH1 0x40 MLOAD SWAP1 DUP2 ADD PUSH1 0x40 MSTORE DUP1 SWAP3 SWAP2 SWAP1 DUP2 DUP2 MSTORE PUSH1 0x20 ADD DUP3 DUP1 SLOAD PUSH2 0x333 SWAP1 PUSH2 0x17E5 JUMP JUMPDEST DUP1 ISZERO PUSH2 0x37E JUMPI DUP1 PUSH1 0x1F LT PUSH2 0x355 JUMPI PUSH2 0x100 DUP1 DUP4 SLOAD DIV MUL DUP4 MSTORE SWAP2 PUSH1 0x20 ADD SWAP2 PUSH2 0x37E JUMP JUMPDEST DUP3 ADD SWAP2 SWAP1 PUSH0 MSTORE PUSH1 0x20 PUSH0 KECCAK256 SWAP1 JUMPDEST DUP2 SLOAD DUP2 MSTORE SWAP1 PUSH1 0x1 ADD SWAP1 PUSH1 0x20 ADD DUP1 DUP4 GT PUSH2 0x361 JUMPI DUP3 SWAP1 SUB PUSH1 0x1F AND DUP3 ADD SWAP2 JUMPDEST POP POP POP POP POP DUP2 MSTORE PUSH1 0x20 ADD PUSH1 0x5 DUP3 ADD DUP1 SLOAD PUSH2 0x397 SWAP1 PUSH2 0x17E5 JUMP JUMPDEST DUP1 PUSH1 0x1F ADD PUSH1 0x20 DUP1 SWAP2 DIV MUL PUSH1 0x20 ADD PUSH1 0x40 MLOAD SWAP1 DUP2 ADD PUSH1 0x40 MSTORE DUP1 SWAP3 SWAP2 SWAP1 DUP2 DUP2 MSTORE PUSH1 0x20 ADD DUP3 DUP1 SLOAD PUSH2 0x3C3 SWAP1 PUSH2 0x17E5 JUMP JUMPDEST DUP1 ISZERO PUSH2 0x40E JUMPI DUP1 PUSH1 0x1F LT PUSH2 0x3E5 JUMPI PUSH2 0x100 DUP1 DUP4 SLOAD DIV MUL DUP4 MSTORE SWAP2 PUSH1 0x20 ADD SWAP2 PUSH2 0x40E JUMP JUMPDEST DUP3 ADD SWAP2 SWAP1 PUSH0 MSTORE PUSH1 0x20 PUSH0 KECCAK256 SWAP1 JUMPDEST DUP2 SLOAD DUP2 MSTORE SWAP1 PUSH1 0x1 ADD SWAP1 PUSH1 0x20 ADD DUP1 DUP4 GT PUSH2 0x3F1 JUMPI DUP3 SWAP1 SUB PUSH1 0x1F AND DUP3 ADD SWAP2 JUMPDEST POP POP POP POP POP DUP2 MSTORE PUSH1 0x20 ADD PUSH1 0x6 DUP3 ADD SLOAD DUP2 MSTORE PUSH1 0x20 ADD PUSH1 0x7 DUP3 ADD PUSH0 SWAP1 SLOAD SWAP1 PUSH2 0x100 EXP SWAP1 DIV PUSH1 0xFF AND ISZERO ISZERO ISZERO ISZERO DUP2 MSTORE PUSH1 0x20 ADD PUSH1 0x8 DUP3 ADD SLOAD DUP2 MSTORE POP POP DUP2 MSTORE PUSH1 0x20 ADD SWAP1 PUSH1 0x1 ADD SWAP1 PUSH2 0x192 JUMP JUMPDEST POP POP POP POP SWAP1 POP SWAP1 JUMP JUMPDEST PUSH1 0x1 SLOAD DUP2 JUMP JUMPDEST PUSH0 DUP2 DUP2 SLOAD DUP2 LT PUSH2 0x471 JUMPI PUSH0 DUP1 REVERT JUMPDEST SWAP1 PUSH0 MSTORE PUSH1 0x20 PUSH0 KECCAK256 SWAP1 PUSH1 0x9 MUL ADD PUSH0 SWAP2 POP SWAP1 POP DUP1 PUSH0 ADD SLOAD SWAP1 DUP1 PUSH1 0x1 ADD PUSH0 SWAP1 SLOAD SWAP1 PUSH2 0x100 EXP SWAP1 DIV PUSH20 0xFFFFFFFFFFFFFFFFFFFFFFFFFFFFFFFFFFFFFFFF AND SWAP1 DUP1 PUSH1 0x2 ADD PUSH0 SWAP1 SLOAD SWAP1 PUSH2 0x100 EXP SWAP1 DIV PUSH20 0xFFFFFFFFFFFFFFFFFFFFFFFFFFFFFFFFFFFFFFFF AND SWAP1 DUP1 PUSH1 0x3 ADD DUP1 SLOAD PUSH2 0x4E0 SWAP1 PUSH2 0x17E5 JUMP JUMPDEST DUP1 PUSH1 0x1F ADD PUSH1 0x20 DUP1 SWAP2 DIV MUL PUSH1 0x20 ADD PUSH1 0x40 MLOAD SWAP1 DUP2 ADD PUSH1 0x40 MSTORE DUP1 SWAP3 SWAP2 SWAP1 DUP2 DUP2 MSTORE PUSH1 0x20 ADD DUP3 DUP1 SLOAD PUSH2 0x50C SWAP1 PUSH2 0x17E5 JUMP JUMPDEST DUP1 ISZERO PUSH2 0x557 JUMPI DUP1 PUSH1 0x1F LT PUSH2 0x52E JUMPI PUSH2 0x100 DUP1 DUP4 SLOAD DIV MUL DUP4 MSTORE SWAP2 PUSH1 0x20 ADD SWAP2 PUSH2 0x557 JUMP JUMPDEST DUP3 ADD SWAP2 SWAP1 PUSH0 MSTORE PUSH1 0x20 PUSH0 KECCAK256 SWAP1 JUMPDEST DUP2 SLOAD DUP2 MSTORE SWAP1 PUSH1 0x1 ADD SWAP1 PUSH1 0x20 ADD DUP1 DUP4 GT PUSH2 0x53A JUMPI DUP3 SWAP1 SUB PUSH1 0x1F AND DUP3 ADD SWAP2 JUMPDEST POP POP POP POP POP SWAP1 DUP1 PUSH1 0x4 ADD DUP1 SLOAD PUSH2 0x56C SWAP1 PUSH2 0x17E5 JUMP JUMPDEST DUP1 PUSH1 0x1F ADD PUSH1 0x20 DUP1 SWAP2 DIV MUL PUSH1 0x20 ADD PUSH1 0x40 MLOAD SWAP1 DUP2 ADD PUSH1 0x40 MSTORE DUP1 SWAP3 SWAP2 SWAP1 DUP2 DUP2 MSTORE PUSH1 0x20 ADD DUP3 DUP1 SLOAD PUSH2 0x598 SWAP1 PUSH2 0x17E5 JUMP JUMPDEST DUP1 ISZERO PUSH2 0x5E3 JUMPI DUP1 PUSH1 0x1F LT PUSH2 0x5BA JUMPI PUSH2 0x100 DUP1 DUP4 SLOAD DIV MUL DUP4 MSTORE SWAP2 PUSH1 0x20 ADD SWAP2 PUSH2 0x5E3 JUMP JUMPDEST DUP3 ADD SWAP2 SWAP1 PUSH0 MSTORE PUSH1 0x20 PUSH0 KECCAK256 SWAP1 JUMPDEST DUP2 SLOAD DUP2 MSTORE SWAP1 PUSH1 0x1 ADD SWAP1 PUSH1 0x20 ADD DUP1 DUP4 GT PUSH2 0x5C6 JUMPI DUP3 SWAP1 SUB PUSH1 0x1F AND DUP3 ADD SWAP2 JUMPDEST POP POP POP POP POP SWAP1 DUP1 PUSH1 0x5 ADD DUP1 SLOAD PUSH2 0x5F8 SWAP1 PUSH2 0x17E5 JUMP JUMPDEST DUP1 PUSH1 0x1F ADD PUSH1 0x20 DUP1 SWAP2 DIV MUL PUSH1 0x20 ADD PUSH1 0x40 MLOAD SWAP1 DUP2 ADD PUSH1 0x40 MSTORE DUP1 SWAP3 SWAP2 SWAP1 DUP2 DUP2 MSTORE PUSH1 0x20 ADD DUP3 DUP1 SLOAD PUSH2 0x624 SWAP1 PUSH2 0x17E5 JUMP JUMPDEST DUP1 ISZERO PUSH2 0x66F JUMPI DUP1 PUSH1 0x1F LT PUSH2 0x646 JUMPI PUSH2 0x100 DUP1 DUP4 SLOAD DIV MUL DUP4 MSTORE SWAP2 PUSH1 0x20 ADD SWAP2 PUSH2 0x66F JUMP JUMPDEST DUP3 ADD SWAP2 SWAP1 PUSH0 MSTORE PUSH1 0x20 PUSH0 KECCAK256 SWAP1 JUMPDEST DUP2 SLOAD DUP2 MSTORE SWAP1 PUSH1 0x1 ADD SWAP1 PUSH1 0x20 ADD DUP1 DUP4 GT PUSH2 0x652 JUMPI DUP3 SWAP1 SUB PUSH1 0x1F AND DUP3 ADD SWAP2 JUMPDEST POP POP POP POP POP SWAP1 DUP1 PUSH1 0x6 ADD SLOAD SWAP1 DUP1 PUSH1 0x7 ADD PUSH0 SWAP1 SLOAD SWAP1 PUSH2 0x100 EXP SWAP1 DIV PUSH1 0xFF AND SWAP1 DUP1 PUSH1 0x8 ADD SLOAD SWAP1 POP DUP10 JUMP JUMPDEST PUSH2 0x69F PUSH2 0x1026 JUMP JUMPDEST PUSH1 0x1 SLOAD DUP3 LT PUSH2 0x6E3 JUMPI PUSH1 0x40 MLOAD PUSH32 0x8C379A000000000000000000000000000000000000000000000000000000000 DUP2 MSTORE PUSH1 0x4 ADD PUSH2 0x6DA SWAP1 PUSH2 0x185F JUMP JUMPDEST PUSH1 0x40 MLOAD DUP1 SWAP2 SUB SWAP1 REVERT JUMPDEST PUSH0 DUP3 DUP2 SLOAD DUP2 LT PUSH2 0x6F6 JUMPI PUSH2 0x6F5 PUSH2 0x187D JUMP JUMPDEST JUMPDEST SWAP1 PUSH0 MSTORE PUSH1 0x20 PUSH0 KECCAK256 SWAP1 PUSH1 0x9 MUL ADD PUSH1 0x40 MLOAD DUP1 PUSH2 0x120 ADD PUSH1 0x40 MSTORE SWAP1 DUP2 PUSH0 DUP3 ADD SLOAD DUP2 MSTORE PUSH1 0x20 ADD PUSH1 0x1 DUP3 ADD PUSH0 SWAP1 SLOAD SWAP1 PUSH2 0x100 EXP SWAP1 DIV PUSH20 0xFFFFFFFFFFFFFFFFFFFFFFFFFFFFFFFFFFFFFFFF AND PUSH20 0xFFFFFFFFFFFFFFFFFFFFFFFFFFFFFFFFFFFFFFFF AND PUSH20 0xFFFFFFFFFFFFFFFFFFFFFFFFFFFFFFFFFFFFFFFF AND DUP2 MSTORE PUSH1 0x20 ADD PUSH1 0x2 DUP3 ADD PUSH0 SWAP1 SLOAD SWAP1 PUSH2 0x100 EXP SWAP1 DIV PUSH20 0xFFFFFFFFFFFFFFFFFFFFFFFFFFFFFFFFFFFFFFFF AND PUSH20 0xFFFFFFFFFFFFFFFFFFFFFFFFFFFFFFFFFFFFFFFF AND PUSH20 0xFFFFFFFFFFFFFFFFFFFFFFFFFFFFFFFFFFFFFFFF AND DUP2 MSTORE PUSH1 0x20 ADD PUSH1 0x3 DUP3 ADD DUP1 SLOAD PUSH2 0x7D1 SWAP1 PUSH2 0x17E5 JUMP JUMPDEST DUP1 PUSH1 0x1F ADD PUSH1 0x20 DUP1 SWAP2 DIV MUL PUSH1 0x20 ADD PUSH1 0x40 MLOAD SWAP1 DUP2 ADD PUSH1 0x40 MSTORE DUP1 SWAP3 SWAP2 SWAP1 DUP2 DUP2 MSTORE PUSH1 0x20 ADD DUP3 DUP1 SLOAD PUSH2 0x7FD SWAP1 PUSH2 0x17E5 JUMP JUMPDEST DUP1 ISZERO PUSH2 0x848 JUMPI DUP1 PUSH1 0x1F LT PUSH2 0x81F JUMPI PUSH2 0x100 DUP1 DUP4 SLOAD DIV MUL DUP4 MSTORE SWAP2 PUSH1 0x20 ADD SWAP2 PUSH2 0x848 JUMP JUMPDEST DUP3 ADD SWAP2 SWAP1 PUSH0 MSTORE PUSH1 0x20 PUSH0 KECCAK256 SWAP1 JUMPDEST DUP2 SLOAD DUP2 MSTORE SWAP1 PUSH1 0x1 ADD SWAP1 PUSH1 0x20 ADD DUP1 DUP4 GT PUSH2 0x82B JUMPI DUP3 SWAP1 SUB PUSH1 0x1F AND DUP3 ADD SWAP2 JUMPDEST POP POP POP POP POP DUP2 MSTORE PUSH1 0x20 ADD PUSH1 0x4 DUP3 ADD DUP1 SLOAD PUSH2 0x861 SWAP1 PUSH2 0x17E5 JUMP JUMPDEST DUP1 PUSH1 0x1F ADD PUSH1 0x20 DUP1 SWAP2 DIV MUL PUSH1 0x20 ADD PUSH1 0x40 MLOAD SWAP1 DUP2 ADD PUSH1 0x40 MSTORE DUP1 SWAP3 SWAP2 SWAP1 DUP2 DUP2 MSTORE PUSH1 0x20 ADD DUP3 DUP1 SLOAD PUSH2 0x88D SWAP1 PUSH2 0x17E5 JUMP JUMPDEST DUP1 ISZERO PUSH2 0x8D8 JUMPI DUP1 PUSH1 0x1F LT PUSH2 0x8AF JUMPI PUSH2 0x100 DUP1 DUP4 SLOAD DIV MUL DUP4 MSTORE SWAP2 PUSH1 0x20 ADD SWAP2 PUSH2 0x8D8 JUMP JUMPDEST DUP3 ADD SWAP2 SWAP1 PUSH0 MSTORE PUSH1 0x20 PUSH0 KECCAK256 SWAP1 JUMPDEST DUP2 SLOAD DUP2 MSTORE SWAP1 PUSH1 0x1 ADD SWAP1 PUSH1 0x20 ADD DUP1 DUP4 GT PUSH2 0x8BB JUMPI DUP3 SWAP1 SUB PUSH1 0x1F AND DUP3 ADD SWAP2 JUMPDEST POP POP POP POP POP DUP2 MSTORE PUSH1 0x20 ADD PUSH1 0x5 DUP3 ADD DUP1 SLOAD PUSH2 0x8F1 SWAP1 PUSH2 0x17E5 JUMP JUMPDEST DUP1 PUSH1 0x1F ADD PUSH1 0x20 DUP1 SWAP2 DIV MUL PUSH1 0x20 ADD PUSH1 0x40 MLOAD SWAP1 DUP2 ADD PUSH1 0x40 MSTORE DUP1 SWAP3 SWAP2 SWAP1 DUP2 DUP2 MSTORE PUSH1 0x20 ADD DUP3 DUP1 SLOAD PUSH2 0x91D SWAP1 PUSH2 0x17E5 JUMP JUMPDEST DUP1 ISZERO PUSH2 0x968 JUMPI DUP1 PUSH1 0x1F LT PUSH2 0x93F JUMPI PUSH2 0x100 DUP1 DUP4 SLOAD DIV MUL DUP4 MSTORE SWAP2 PUSH1 0x20 ADD SWAP2 PUSH2 0x968 JUMP JUMPDEST DUP3 ADD SWAP2 SWAP1 PUSH0 MSTORE PUSH1 0x20 PUSH0 KECCAK256 SWAP1 JUMPDEST DUP2 SLOAD DUP2 MSTORE SWAP1 PUSH1 0x1 ADD SWAP1 PUSH1 0x20 ADD DUP1 DUP4 GT PUSH2 0x94B JUMPI DUP3 SWAP1 SUB PUSH1 0x1F AND DUP3 ADD SWAP2 JUMPDEST POP POP POP POP POP DUP2 MSTORE PUSH1 0x20 ADD PUSH1 0x6 DUP3 ADD SLOAD DUP2 MSTORE PUSH1 0x20 ADD PUSH1 0x7 DUP3 ADD PUSH0 SWAP1 SLOAD SWAP1 PUSH2 0x100 EXP SWAP1 DIV PUSH1 0xFF AND ISZERO ISZERO ISZERO ISZERO DUP2 MSTORE PUSH1 0x20 ADD PUSH1 0x8 DUP3 ADD SLOAD DUP2 MSTORE POP POP SWAP1 POP SWAP2 SWAP1 POP JUMP JUMPDEST PUSH0 DUP2 GT PUSH2 0x9E8 JUMPI PUSH1 0x40 MLOAD PUSH32 0x8C379A000000000000000000000000000000000000000000000000000000000 DUP2 MSTORE PUSH1 0x4 ADD PUSH2 0x9DF SWAP1 PUSH2 0x18F4 JUMP JUMPDEST PUSH1 0x40 MLOAD DUP1 SWAP2 SUB SWAP1 REVERT JUMPDEST PUSH0 PUSH1 0x40 MLOAD DUP1 PUSH2 0x120 ADD PUSH1 0x40 MSTORE DUP1 PUSH1 0x1 SLOAD DUP2 MSTORE PUSH1 0x20 ADD CALLER PUSH20 0xFFFFFFFFFFFFFFFFFFFFFFFFFFFFFFFFFFFFFFFF AND DUP2 MSTORE PUSH1 0x20 ADD CALLER PUSH20 0xFFFFFFFFFFFFFFFFFFFFFFFFFFFFFFFFFFFFFFFF AND DUP2 MSTORE PUSH1 0x20 ADD DUP7 DUP2 MSTORE PUSH1 0x20 ADD DUP6 DUP2 MSTORE PUSH1 0x20 ADD DUP5 DUP2 MSTORE PUSH1 0x20 ADD DUP4 DUP2 MSTORE PUSH1 0x20 ADD PUSH0 ISZERO ISZERO DUP2 MSTORE PUSH1 0x20 ADD PUSH0 DUP1 SHL DUP2 MSTORE POP SWAP1 DUP1 PUSH1 0x1 DUP2 SLOAD ADD DUP1 DUP3 SSTORE DUP1 SWAP2 POP POP PUSH1 0x1 SWAP1 SUB SWAP1 PUSH0 MSTORE PUSH1 0x20 PUSH0 KECCAK256 SWAP1 PUSH1 0x9 MUL ADD PUSH0 SWAP1 SWAP2 SWAP1 SWAP2 SWAP1 SWAP2 POP PUSH0 DUP3 ADD MLOAD DUP2 PUSH0 ADD SSTORE PUSH1 0x20 DUP3 ADD MLOAD DUP2 PUSH1 0x1 ADD PUSH0 PUSH2 0x100 EXP DUP2 SLOAD DUP2 PUSH20 0xFFFFFFFFFFFFFFFFFFFFFFFFFFFFFFFFFFFFFFFF MUL NOT AND SWAP1 DUP4 PUSH20 0xFFFFFFFFFFFFFFFFFFFFFFFFFFFFFFFFFFFFFFFF AND MUL OR SWAP1 SSTORE POP PUSH1 0x40 DUP3 ADD MLOAD DUP2 PUSH1 0x2 ADD PUSH0 PUSH2 0x100 EXP DUP2 SLOAD DUP2 PUSH20 0xFFFFFFFFFFFFFFFFFFFFFFFFFFFFFFFFFFFFFFFF MUL NOT AND SWAP1 DUP4 PUSH20 0xFFFFFFFFFFFFFFFFFFFFFFFFFFFFFFFFFFFFFFFF AND MUL OR SWAP1 SSTORE POP PUSH1 0x60 DUP3 ADD MLOAD DUP2 PUSH1 0x3 ADD SWAP1 DUP2 PUSH2 0xB2A SWAP2 SWAP1 PUSH2 0x1AAF JUMP JUMPDEST POP PUSH1 0x80 DUP3 ADD MLOAD DUP2 PUSH1 0x4 ADD SWAP1 DUP2 PUSH2 0xB40 SWAP2 SWAP1 PUSH2 0x1AAF JUMP JUMPDEST POP PUSH1 0xA0 DUP3 ADD MLOAD DUP2 PUSH1 0x5 ADD SWAP1 DUP2 PUSH2 0xB56 SWAP2 SWAP1 PUSH2 0x1AAF JUMP JUMPDEST POP PUSH1 0xC0 DUP3 ADD MLOAD DUP2 PUSH1 0x6 ADD SSTORE PUSH1 0xE0 DUP3 ADD MLOAD DUP2 PUSH1 0x7 ADD PUSH0 PUSH2 0x100 EXP DUP2 SLOAD DUP2 PUSH1 0xFF MUL NOT AND SWAP1 DUP4 ISZERO ISZERO MUL OR SWAP1 SSTORE POP PUSH2 0x100 DUP3 ADD MLOAD DUP2 PUSH1 0x8 ADD SSTORE POP POP PUSH0 TIMESTAMP CALLER DUP7 DUP5 PUSH1 0x40 MLOAD PUSH1 0x20 ADD PUSH2 0xBA5 SWAP5 SWAP4 SWAP3 SWAP2 SWAP1 PUSH2 0x1C2E JUMP JUMPDEST PUSH1 0x40 MLOAD PUSH1 0x20 DUP2 DUP4 SUB SUB DUP2 MSTORE SWAP1 PUSH1 0x40 MSTORE DUP1 MLOAD SWAP1 PUSH1 0x20 ADD KECCAK256 SWAP1 POP DUP1 PUSH0 PUSH1 0x1 SLOAD DUP2 SLOAD DUP2 LT PUSH2 0xBD3 JUMPI PUSH2 0xBD2 PUSH2 0x187D JUMP JUMPDEST JUMPDEST SWAP1 PUSH0 MSTORE PUSH1 0x20 PUSH0 KECCAK256 SWAP1 PUSH1 0x9 MUL ADD PUSH1 0x8 ADD DUP2 SWAP1 SSTORE POP CALLER PUSH20 0xFFFFFFFFFFFFFFFFFFFFFFFFFFFFFFFFFFFFFFFF AND CALLER PUSH20 0xFFFFFFFFFFFFFFFFFFFFFFFFFFFFFFFFFFFFFFFF AND PUSH1 0x1 SLOAD PUSH32 0xA6131043C1CC8C5AF6A89EEDDA134D3F914146D527B69FC4F68C0B7296ED4E6E DUP9 DUP8 DUP8 DUP8 PUSH1 0x40 MLOAD PUSH2 0xC4C SWAP5 SWAP4 SWAP3 SWAP2 SWAP1 PUSH2 0x1C77 JUMP JUMPDEST PUSH1 0x40 MLOAD DUP1 SWAP2 SUB SWAP1 LOG4 PUSH1 0x1 PUSH0 DUP2 SLOAD DUP1 SWAP3 SWAP2 SWAP1 PUSH2 0xC66 SWAP1 PUSH2 0x1CF5 JUMP JUMPDEST SWAP2 SWAP1 POP SSTORE POP POP POP POP POP POP JUMP JUMPDEST PUSH1 0x1 SLOAD DUP2 LT PUSH2 0xCB6 JUMPI PUSH1 0x40 MLOAD PUSH32 0x8C379A000000000000000000000000000000000000000000000000000000000 DUP2 MSTORE PUSH1 0x4 ADD PUSH2 0xCAD SWAP1 PUSH2 0x185F JUMP JUMPDEST PUSH1 0x40 MLOAD DUP1 SWAP2 SUB SWAP1 REVERT JUMPDEST PUSH0 DUP1 DUP3 DUP2 SLOAD DUP2 LT PUSH2 0xCCA JUMPI PUSH2 0xCC9 PUSH2 0x187D JUMP JUMPDEST JUMPDEST SWAP1 PUSH0 MSTORE PUSH1 0x20 PUSH0 KECCAK256 SWAP1 PUSH1 0x9 MUL ADD SWAP1 POP DUP1 PUSH1 0x6 ADD SLOAD CALLVALUE EQ PUSH2 0xD1E JUMPI PUSH1 0x40 MLOAD PUSH32 0x8C379A000000000000000000000000000000000000000000000000000000000 DUP2 MSTORE PUSH1 0x4 ADD PUSH2 0xD15 SWAP1 PUSH2 0x1DAC JUMP JUMPDEST PUSH1 0x40 MLOAD DUP1 SWAP2 SUB SWAP1 REVERT JUMPDEST DUP1 PUSH1 0x7 ADD PUSH0 SWAP1 SLOAD SWAP1 PUSH2 0x100 EXP SWAP1 DIV PUSH1 0xFF AND ISZERO PUSH2 0xD6F JUMPI PUSH1 0x40 MLOAD PUSH32 0x8C379A000000000000000000000000000000000000000000000000000000000 DUP2 MSTORE PUSH1 0x4 ADD PUSH2 0xD66 SWAP1 PUSH2 0x1E14 JUMP JUMPDEST PUSH1 0x40 MLOAD DUP1 SWAP2 SUB SWAP1 REVERT JUMPDEST DUP1 PUSH1 0x2 ADD PUSH0 SWAP1 SLOAD SWAP1 PUSH2 0x100 EXP SWAP1 DIV PUSH20 0xFFFFFFFFFFFFFFFFFFFFFFFFFFFFFFFFFFFFFFFF AND PUSH20 0xFFFFFFFFFFFFFFFFFFFFFFFFFFFFFFFFFFFFFFFF AND CALLER PUSH20 0xFFFFFFFFFFFFFFFFFFFFFFFFFFFFFFFFFFFFFFFF AND SUB PUSH2 0xE00 JUMPI PUSH1 0x40 MLOAD PUSH32 0x8C379A000000000000000000000000000000000000000000000000000000000 DUP2 MSTORE PUSH1 0x4 ADD PUSH2 0xDF7 SWAP1 PUSH2 0x1E7C JUMP JUMPDEST PUSH1 0x40 MLOAD DUP1 SWAP2 SUB SWAP1 REVERT JUMPDEST PUSH0 DUP2 PUSH1 0x2 ADD PUSH0 SWAP1 SLOAD SWAP1 PUSH2 0x100 EXP SWAP1 DIV PUSH20 0xFFFFFFFFFFFFFFFFFFFFFFFFFFFFFFFFFFFFFFFF AND PUSH20 0xFFFFFFFFFFFFFFFFFFFFFFFFFFFFFFFFFFFFFFFF AND CALLVALUE PUSH1 0x40 MLOAD PUSH2 0xE48 SWAP1 PUSH2 0x1EC7 JUMP JUMPDEST PUSH0 PUSH1 0x40 MLOAD DUP1 DUP4 SUB DUP2 DUP6 DUP8 GAS CALL SWAP3 POP POP POP RETURNDATASIZE DUP1 PUSH0 DUP2 EQ PUSH2 0xE82 JUMPI PUSH1 0x40 MLOAD SWAP2 POP PUSH1 0x1F NOT PUSH1 0x3F RETURNDATASIZE ADD AND DUP3 ADD PUSH1 0x40 MSTORE RETURNDATASIZE DUP3 MSTORE RETURNDATASIZE PUSH0 PUSH1 0x20 DUP5 ADD RETURNDATACOPY PUSH2 0xE87 JUMP JUMPDEST PUSH1 0x60 SWAP2 POP JUMPDEST POP POP SWAP1 POP DUP1 PUSH2 0xECB JUMPI PUSH1 0x40 MLOAD PUSH32 0x8C379A000000000000000000000000000000000000000000000000000000000 DUP2 MSTORE PUSH1 0x4 ADD PUSH2 0xEC2 SWAP1 PUSH2 0x1F25 JUMP JUMPDEST PUSH1 0x40 MLOAD DUP1 SWAP2 SUB SWAP1 REVERT JUMPDEST PUSH0 DUP3 PUSH1 0x2 ADD PUSH0 SWAP1 SLOAD SWAP1 PUSH2 0x100 EXP SWAP1 DIV PUSH20 0xFFFFFFFFFFFFFFFFFFFFFFFFFFFFFFFFFFFFFFFF AND SWAP1 POP CALLER DUP4 PUSH1 0x2 ADD PUSH0 PUSH2 0x100 EXP DUP2 SLOAD DUP2 PUSH20 0xFFFFFFFFFFFFFFFFFFFFFFFFFFFFFFFFFFFFFFFF MUL NOT AND SWAP1 DUP4 PUSH20 0xFFFFFFFFFFFFFFFFFFFFFFFFFFFFFFFFFFFFFFFF AND MUL OR SWAP1 SSTORE POP PUSH1 0x1 DUP4 PUSH1 0x7 ADD PUSH0 PUSH2 0x100 EXP DUP2 SLOAD DUP2 PUSH1 0xFF MUL NOT AND SWAP1 DUP4 ISZERO ISZERO MUL OR SWAP1 SSTORE POP DUP1 PUSH20 0xFFFFFFFFFFFFFFFFFFFFFFFFFFFFFFFFFFFFFFFF AND CALLER PUSH20 0xFFFFFFFFFFFFFFFFFFFFFFFFFFFFFFFFFFFFFFFF AND PUSH32 0xD52BD61F7C422D441E024604F4517878FD3305D6ACF0FE37BAEF23ED21AF6BC9 CALLVALUE PUSH1 0x40 MLOAD PUSH2 0xFAD SWAP2 SWAP1 PUSH2 0x1350 JUMP JUMPDEST PUSH1 0x40 MLOAD DUP1 SWAP2 SUB SWAP1 LOG3 CALLER PUSH20 0xFFFFFFFFFFFFFFFFFFFFFFFFFFFFFFFFFFFFFFFF AND DUP2 PUSH20 0xFFFFFFFFFFFFFFFFFFFFFFFFFFFFFFFFFFFFFFFF AND PUSH32 0x4DDD54C6B746E69BA87F862311F7670BD1D7276846778AC81CD38747B27A746 DUP7 DUP7 PUSH1 0x6 ADD SLOAD PUSH1 0x40 MLOAD PUSH2 0x1018 SWAP3 SWAP2 SWAP1 PUSH2 0x1F43 JUMP JUMPDEST PUSH1 0x40 MLOAD DUP1 SWAP2 SUB SWAP1 LOG3 POP POP POP POP JUMP JUMPDEST PUSH1 0x40 MLOAD DUP1 PUSH2 0x120 ADD PUSH1 0x40 MSTORE DUP1 PUSH0 DUP2 MSTORE PUSH1 0x20 ADD PUSH0 PUSH20 0xFFFFFFFFFFFFFFFFFFFFFFFFFFFFFFFFFFFFFFFF AND DUP2 MSTORE PUSH1 0x20 ADD PUSH0 PUSH20 0xFFFFFFFFFFFFFFFFFFFFFFFFFFFFFFFFFFFFFFFF AND DUP2 MSTORE PUSH1 0x20 ADD PUSH1 0x60 DUP2 MSTORE PUSH1 0x20 ADD PUSH1 0x60 DUP2 MSTORE PUSH1 0x20 ADD PUSH1 0x60 DUP2 MSTORE PUSH1 0x20 ADD PUSH0 DUP2 MSTORE PUSH1 0x20 ADD PUSH0 ISZERO ISZERO DUP2 MSTORE PUSH1 0x20 ADD PUSH0 DUP1 NOT AND DUP2 MSTORE POP SWAP1 JUMP JUMPDEST PUSH0 DUP2 MLOAD SWAP1 POP SWAP2 SWAP1 POP JUMP JUMPDEST PUSH0 DUP3 DUP3 MSTORE PUSH1 0x20 DUP3 ADD SWAP1 POP SWAP3 SWAP2 POP POP JUMP JUMPDEST PUSH0 DUP2 SWAP1 POP PUSH1 0x20 DUP3 ADD SWAP1 POP SWAP2 SWAP1 POP JUMP JUMPDEST PUSH0 DUP2 SWAP1 POP SWAP2 SWAP1 POP JUMP JUMPDEST PUSH2 0x10D8 DUP2 PUSH2 0x10C6 JUMP JUMPDEST DUP3 MSTORE POP POP JUMP JUMPDEST PUSH0 PUSH20 0xFFFFFFFFFFFFFFFFFFFFFFFFFFFFFFFFFFFFFFFF DUP3 AND SWAP1 POP SWAP2 SWAP1 POP JUMP JUMPDEST PUSH0 PUSH2 0x1107 DUP3 PUSH2 0x10DE JUMP JUMPDEST SWAP1 POP SWAP2 SWAP1 POP JUMP JUMPDEST PUSH2 0x1117 DUP2 PUSH2 0x10FD JUMP JUMPDEST DUP3 MSTORE POP POP JUMP JUMPDEST PUSH0 DUP2 MLOAD SWAP1 POP SWAP2 SWAP1 POP JUMP JUMPDEST PUSH0 DUP3 DUP3 MSTORE PUSH1 0x20 DUP3 ADD SWAP1 POP SWAP3 SWAP2 POP POP JUMP JUMPDEST DUP3 DUP2 DUP4 MCOPY PUSH0 DUP4 DUP4 ADD MSTORE POP POP POP JUMP JUMPDEST PUSH0 PUSH1 0x1F NOT PUSH1 0x1F DUP4 ADD AND SWAP1 POP SWAP2 SWAP1 POP JUMP JUMPDEST PUSH0 PUSH2 0x115F DUP3 PUSH2 0x111D JUMP JUMPDEST PUSH2 0x1169 DUP2 DUP6 PUSH2 0x1127 JUMP JUMPDEST SWAP4 POP PUSH2 0x1179 DUP2 DUP6 PUSH1 0x20 DUP7 ADD PUSH2 0x1137 JUMP JUMPDEST PUSH2 0x1182 DUP2 PUSH2 0x1145 JUMP JUMPDEST DUP5 ADD SWAP2 POP POP SWAP3 SWAP2 POP POP JUMP JUMPDEST PUSH0 DUP2 ISZERO ISZERO SWAP1 POP SWAP2 SWAP1 POP JUMP JUMPDEST PUSH2 0x11A1 DUP2 PUSH2 0x118D JUMP JUMPDEST DUP3 MSTORE POP POP JUMP JUMPDEST PUSH0 DUP2 SWAP1 POP SWAP2 SWAP1 POP JUMP JUMPDEST PUSH2 0x11B9 DUP2 PUSH2 0x11A7 JUMP JUMPDEST DUP3 MSTORE POP POP JUMP JUMPDEST PUSH0 PUSH2 0x120 DUP4 ADD PUSH0 DUP4 ADD MLOAD PUSH2 0x11D5 PUSH0 DUP7 ADD DUP3 PUSH2 0x10CF JUMP JUMPDEST POP PUSH1 0x20 DUP4 ADD MLOAD PUSH2 0x11E8 PUSH1 0x20 DUP7 ADD DUP3 PUSH2 0x110E JUMP JUMPDEST POP PUSH1 0x40 DUP4 ADD MLOAD PUSH2 0x11FB PUSH1 0x40 DUP7 ADD DUP3 PUSH2 0x110E JUMP JUMPDEST POP PUSH1 0x60 DUP4 ADD MLOAD DUP5 DUP3 SUB PUSH1 0x60 DUP7 ADD MSTORE PUSH2 0x1213 DUP3 DUP3 PUSH2 0x1155 JUMP JUMPDEST SWAP2 POP POP PUSH1 0x80 DUP4 ADD MLOAD DUP5 DUP3 SUB PUSH1 0x80 DUP7 ADD MSTORE PUSH2 0x122D DUP3 DUP3 PUSH2 0x1155 JUMP JUMPDEST SWAP2 POP POP PUSH1 0xA0 DUP4 ADD MLOAD DUP5 DUP3 SUB PUSH1 0xA0 DUP7 ADD MSTORE PUSH2 0x1247 DUP3 DUP3 PUSH2 0x1155 JUMP JUMPDEST SWAP2 POP POP PUSH1 0xC0 DUP4 ADD MLOAD PUSH2 0x125C PUSH1 0xC0 DUP7 ADD DUP3 PUSH2 0x10CF JUMP JUMPDEST POP PUSH1 0xE0 DUP4 ADD MLOAD PUSH2 0x126F PUSH1 0xE0 DUP7 ADD DUP3 PUSH2 0x1198 JUMP JUMPDEST POP PUSH2 0x100 DUP4 ADD MLOAD PUSH2 0x1284 PUSH2 0x100 DUP7 ADD DUP3 PUSH2 0x11B0 JUMP JUMPDEST POP DUP1 SWAP2 POP POP SWAP3 SWAP2 POP POP JUMP JUMPDEST PUSH0 PUSH2 0x129A DUP4 DUP4 PUSH2 0x11BF JUMP JUMPDEST SWAP1 POP SWAP3 SWAP2 POP POP JUMP JUMPDEST PUSH0 PUSH1 0x20 DUP3 ADD SWAP1 POP SWAP2 SWAP1 POP JUMP JUMPDEST PUSH0 PUSH2 0x12B8 DUP3 PUSH2 0x109D JUMP JUMPDEST PUSH2 0x12C2 DUP2 DUP6 PUSH2 0x10A7 JUMP JUMPDEST SWAP4 POP DUP4 PUSH1 0x20 DUP3 MUL DUP6 ADD PUSH2 0x12D4 DUP6 PUSH2 0x10B7 JUMP JUMPDEST DUP1 PUSH0 JUMPDEST DUP6 DUP2 LT ISZERO PUSH2 0x130F JUMPI DUP5 DUP5 SUB DUP10 MSTORE DUP2 MLOAD PUSH2 0x12F0 DUP6 DUP3 PUSH2 0x128F JUMP JUMPDEST SWAP5 POP PUSH2 0x12FB DUP4 PUSH2 0x12A2 JUMP JUMPDEST SWAP3 POP PUSH1 0x20 DUP11 ADD SWAP10 POP POP PUSH1 0x1 DUP2 ADD SWAP1 POP PUSH2 0x12D7 JUMP JUMPDEST POP DUP3 SWAP8 POP DUP8 SWAP6 POP POP POP POP POP POP SWAP3 SWAP2 POP POP JUMP JUMPDEST PUSH0 PUSH1 0x20 DUP3 ADD SWAP1 POP DUP2 DUP2 SUB PUSH0 DUP4 ADD MSTORE PUSH2 0x1339 DUP2 DUP5 PUSH2 0x12AE JUMP JUMPDEST SWAP1 POP SWAP3 SWAP2 POP POP JUMP JUMPDEST PUSH2 0x134A DUP2 PUSH2 0x10C6 JUMP JUMPDEST DUP3 MSTORE POP POP JUMP JUMPDEST PUSH0 PUSH1 0x20 DUP3 ADD SWAP1 POP PUSH2 0x1363 PUSH0 DUP4 ADD DUP5 PUSH2 0x1341 JUMP JUMPDEST SWAP3 SWAP2 POP POP JUMP JUMPDEST PUSH0 PUSH1 0x40 MLOAD SWAP1 POP SWAP1 JUMP JUMPDEST PUSH0 DUP1 REVERT JUMPDEST PUSH0 DUP1 REVERT JUMPDEST PUSH2 0x1383 DUP2 PUSH2 0x10C6 JUMP JUMPDEST DUP2 EQ PUSH2 0x138D JUMPI PUSH0 DUP1 REVERT JUMPDEST POP JUMP JUMPDEST PUSH0 DUP2 CALLDATALOAD SWAP1 POP PUSH2 0x139E DUP2 PUSH2 0x137A JUMP JUMPDEST SWAP3 SWAP2 POP POP JUMP JUMPDEST PUSH0 PUSH1 0x20 DUP3 DUP5 SUB SLT ISZERO PUSH2 0x13B9 JUMPI PUSH2 0x13B8 PUSH2 0x1372 JUMP JUMPDEST JUMPDEST PUSH0 PUSH2 0x13C6 DUP5 DUP3 DUP6 ADD PUSH2 0x1390 JUMP JUMPDEST SWAP2 POP POP SWAP3 SWAP2 POP POP JUMP JUMPDEST PUSH2 0x13D8 DUP2 PUSH2 0x10FD JUMP JUMPDEST DUP3 MSTORE POP POP JUMP JUMPDEST PUSH0 DUP3 DUP3 MSTORE PUSH1 0x20 DUP3 ADD SWAP1 POP SWAP3 SWAP2 POP POP JUMP JUMPDEST PUSH0 PUSH2 0x13F8 DUP3 PUSH2 0x111D JUMP JUMPDEST PUSH2 0x1402 DUP2 DUP6 PUSH2 0x13DE JUMP JUMPDEST SWAP4 POP PUSH2 0x1412 DUP2 DUP6 PUSH1 0x20 DUP7 ADD PUSH2 0x1137 JUMP JUMPDEST PUSH2 0x141B DUP2 PUSH2 0x1145 JUMP JUMPDEST DUP5 ADD SWAP2 POP POP SWAP3 SWAP2 POP POP JUMP JUMPDEST PUSH2 0x142F DUP2 PUSH2 0x118D JUMP JUMPDEST DUP3 MSTORE POP POP JUMP JUMPDEST PUSH2 0x143E DUP2 PUSH2 0x11A7 JUMP JUMPDEST DUP3 MSTORE POP POP JUMP JUMPDEST PUSH0 PUSH2 0x120 DUP3 ADD SWAP1 POP PUSH2 0x1458 PUSH0 DUP4 ADD DUP13 PUSH2 0x1341 JUMP JUMPDEST PUSH2 0x1465 PUSH1 0x20 DUP4 ADD DUP12 PUSH2 0x13CF JUMP JUMPDEST PUSH2 0x1472 PUSH1 0x40 DUP4 ADD DUP11 PUSH2 0x13CF JUMP JUMPDEST DUP2 DUP2 SUB PUSH1 0x60 DUP4 ADD MSTORE PUSH2 0x1484 DUP2 DUP10 PUSH2 0x13EE JUMP JUMPDEST SWAP1 POP DUP2 DUP2 SUB PUSH1 0x80 DUP4 ADD MSTORE PUSH2 0x1498 DUP2 DUP9 PUSH2 0x13EE JUMP JUMPDEST SWAP1 POP DUP2 DUP2 SUB PUSH1 0xA0 DUP4 ADD MSTORE PUSH2 0x14AC DUP2 DUP8 PUSH2 0x13EE JUMP JUMPDEST SWAP1 POP PUSH2 0x14BB PUSH1 0xC0 DUP4 ADD DUP7 PUSH2 0x1341 JUMP JUMPDEST PUSH2 0x14C8 PUSH1 0xE0 DUP4 ADD DUP6 PUSH2 0x1426 JUMP JUMPDEST PUSH2 0x14D6 PUSH2 0x100 DUP4 ADD DUP5 PUSH2 0x1435 JUMP JUMPDEST SWAP11 SWAP10 POP POP POP POP POP POP POP POP POP POP JUMP JUMPDEST PUSH0 PUSH2 0x120 DUP4 ADD PUSH0 DUP4 ADD MLOAD PUSH2 0x14FA PUSH0 DUP7 ADD DUP3 PUSH2 0x10CF JUMP JUMPDEST POP PUSH1 0x20 DUP4 ADD MLOAD PUSH2 0x150D PUSH1 0x20 DUP7 ADD DUP3 PUSH2 0x110E JUMP JUMPDEST POP PUSH1 0x40 DUP4 ADD MLOAD PUSH2 0x1520 PUSH1 0x40 DUP7 ADD DUP3 PUSH2 0x110E JUMP JUMPDEST POP PUSH1 0x60 DUP4 ADD MLOAD DUP5 DUP3 SUB PUSH1 0x60 DUP7 ADD MSTORE PUSH2 0x1538 DUP3 DUP3 PUSH2 0x1155 JUMP JUMPDEST SWAP2 POP POP PUSH1 0x80 DUP4 ADD MLOAD DUP5 DUP3 SUB PUSH1 0x80 DUP7 ADD MSTORE PUSH2 0x1552 DUP3 DUP3 PUSH2 0x1155 JUMP JUMPDEST SWAP2 POP POP PUSH1 0xA0 DUP4 ADD MLOAD DUP5 DUP3 SUB PUSH1 0xA0 DUP7 ADD MSTORE PUSH2 0x156C DUP3 DUP3 PUSH2 0x1155 JUMP JUMPDEST SWAP2 POP POP PUSH1 0xC0 DUP4 ADD MLOAD PUSH2 0x1581 PUSH1 0xC0 DUP7 ADD DUP3 PUSH2 0x10CF JUMP JUMPDEST POP PUSH1 0xE0 DUP4 ADD MLOAD PUSH2 0x1594 PUSH1 0xE0 DUP7 ADD DUP3 PUSH2 0x1198 JUMP JUMPDEST POP PUSH2 0x100 DUP4 ADD MLOAD PUSH2 0x15A9 PUSH2 0x100 DUP7 ADD DUP3 PUSH2 0x11B0 JUMP JUMPDEST POP DUP1 SWAP2 POP POP SWAP3 SWAP2 POP POP JUMP JUMPDEST PUSH0 PUSH1 0x20 DUP3 ADD SWAP1 POP DUP2 DUP2 SUB PUSH0 DUP4 ADD MSTORE PUSH2 0x15CC DUP2 DUP5 PUSH2 0x14E4 JUMP JUMPDEST SWAP1 POP SWAP3 SWAP2 POP POP JUMP JUMPDEST PUSH0 DUP1 REVERT JUMPDEST PUSH0 DUP1 REVERT JUMPDEST PUSH32 0x4E487B7100000000000000000000000000000000000000000000000000000000 PUSH0 MSTORE PUSH1 0x41 PUSH1 0x4 MSTORE PUSH1 0x24 PUSH0 REVERT JUMPDEST PUSH2 0x1612 DUP3 PUSH2 0x1145 JUMP JUMPDEST DUP2 ADD DUP2 DUP2 LT PUSH8 0xFFFFFFFFFFFFFFFF DUP3 GT OR ISZERO PUSH2 0x1631 JUMPI PUSH2 0x1630 PUSH2 0x15DC JUMP JUMPDEST JUMPDEST DUP1 PUSH1 0x40 MSTORE POP POP POP JUMP JUMPDEST PUSH0 PUSH2 0x1643 PUSH2 0x1369 JUMP JUMPDEST SWAP1 POP PUSH2 0x164F DUP3 DUP3 PUSH2 0x1609 JUMP JUMPDEST SWAP2 SWAP1 POP JUMP JUMPDEST PUSH0 PUSH8 0xFFFFFFFFFFFFFFFF DUP3 GT ISZERO PUSH2 0x166E JUMPI PUSH2 0x166D PUSH2 0x15DC JUMP JUMPDEST JUMPDEST PUSH2 0x1677 DUP3 PUSH2 0x1145 JUMP JUMPDEST SWAP1 POP PUSH1 0x20 DUP2 ADD SWAP1 POP SWAP2 SWAP1 POP JUMP JUMPDEST DUP3 DUP2 DUP4 CALLDATACOPY PUSH0 DUP4 DUP4 ADD MSTORE POP POP POP JUMP JUMPDEST PUSH0 PUSH2 0x16A4 PUSH2 0x169F DUP5 PUSH2 0x1654 JUMP JUMPDEST PUSH2 0x163A JUMP JUMPDEST SWAP1 POP DUP3 DUP2 MSTORE PUSH1 0x20 DUP2 ADD DUP5 DUP5 DUP5 ADD GT ISZERO PUSH2 0x16C0 JUMPI PUSH2 0x16BF PUSH2 0x15D8 JUMP JUMPDEST JUMPDEST PUSH2 0x16CB DUP5 DUP3 DUP6 PUSH2 0x1684 JUMP JUMPDEST POP SWAP4 SWAP3 POP POP POP JUMP JUMPDEST PUSH0 DUP3 PUSH1 0x1F DUP4 ADD SLT PUSH2 0x16E7 JUMPI PUSH2 0x16E6 PUSH2 0x15D4 JUMP JUMPDEST JUMPDEST DUP2 CALLDATALOAD PUSH2 0x16F7 DUP5 DUP3 PUSH1 0x20 DUP7 ADD PUSH2 0x1692 JUMP JUMPDEST SWAP2 POP POP SWAP3 SWAP2 POP POP JUMP JUMPDEST PUSH0 DUP1 PUSH0 DUP1 PUSH1 0x80 DUP6 DUP8 SUB SLT ISZERO PUSH2 0x1718 JUMPI PUSH2 0x1717 PUSH2 0x1372 JUMP JUMPDEST JUMPDEST PUSH0 DUP6 ADD CALLDATALOAD PUSH8 0xFFFFFFFFFFFFFFFF DUP2 GT ISZERO PUSH2 0x1735 JUMPI PUSH2 0x1734 PUSH2 0x1376 JUMP JUMPDEST JUMPDEST PUSH2 0x1741 DUP8 DUP3 DUP9 ADD PUSH2 0x16D3 JUMP JUMPDEST SWAP5 POP POP PUSH1 0x20 DUP6 ADD CALLDATALOAD PUSH8 0xFFFFFFFFFFFFFFFF DUP2 GT ISZERO PUSH2 0x1762 JUMPI PUSH2 0x1761 PUSH2 0x1376 JUMP JUMPDEST JUMPDEST PUSH2 0x176E DUP8 DUP3 DUP9 ADD PUSH2 0x16D3 JUMP JUMPDEST SWAP4 POP POP PUSH1 0x40 DUP6 ADD CALLDATALOAD PUSH8 0xFFFFFFFFFFFFFFFF DUP2 GT ISZERO PUSH2 0x178F JUMPI PUSH2 0x178E PUSH2 0x1376 JUMP JUMPDEST JUMPDEST PUSH2 0x179B DUP8 DUP3 DUP9 ADD PUSH2 0x16D3 JUMP JUMPDEST SWAP3 POP POP PUSH1 0x60 PUSH2 0x17AC DUP8 DUP3 DUP9 ADD PUSH2 0x1390 JUMP JUMPDEST SWAP2 POP POP SWAP3 SWAP6 SWAP2 SWAP5 POP SWAP3 POP JUMP JUMPDEST PUSH32 0x4E487B7100000000000000000000000000000000000000000000000000000000 PUSH0 MSTORE PUSH1 0x22 PUSH1 0x4 MSTORE PUSH1 0x24 PUSH0 REVERT JUMPDEST PUSH0 PUSH1 0x2 DUP3 DIV SWAP1 POP PUSH1 0x1 DUP3 AND DUP1 PUSH2 0x17FC JUMPI PUSH1 0x7F DUP3 AND SWAP2 POP JUMPDEST PUSH1 0x20 DUP3 LT DUP2 SUB PUSH2 0x180F JUMPI PUSH2 0x180E PUSH2 0x17B8 JUMP JUMPDEST JUMPDEST POP SWAP2 SWAP1 POP JUMP JUMPDEST PUSH32 0x4974656D20494420646F6573206E6F7420657869737400000000000000000000 PUSH0 DUP3 ADD MSTORE POP JUMP JUMPDEST PUSH0 PUSH2 0x1849 PUSH1 0x16 DUP4 PUSH2 0x13DE JUMP JUMPDEST SWAP2 POP PUSH2 0x1854 DUP3 PUSH2 0x1815 JUMP JUMPDEST PUSH1 0x20 DUP3 ADD SWAP1 POP SWAP2 SWAP1 POP JUMP JUMPDEST PUSH0 PUSH1 0x20 DUP3 ADD SWAP1 POP DUP2 DUP2 SUB PUSH0 DUP4 ADD MSTORE PUSH2 0x1876 DUP2 PUSH2 0x183D JUMP JUMPDEST SWAP1 POP SWAP2 SWAP1 POP JUMP JUMPDEST PUSH32 0x4E487B7100000000000000000000000000000000000000000000000000000000 PUSH0 MSTORE PUSH1 0x32 PUSH1 0x4 MSTORE PUSH1 0x24 PUSH0 REVERT JUMPDEST PUSH32 0x5072696365206D7573742062652067726561746572207468616E207A65726F00 PUSH0 DUP3 ADD MSTORE POP JUMP JUMPDEST PUSH0 PUSH2 0x18DE PUSH1 0x1F DUP4 PUSH2 0x13DE JUMP JUMPDEST SWAP2 POP PUSH2 0x18E9 DUP3 PUSH2 0x18AA JUMP JUMPDEST PUSH1 0x20 DUP3 ADD SWAP1 POP SWAP2 SWAP1 POP JUMP JUMPDEST PUSH0 PUSH1 0x20 DUP3 ADD SWAP1 POP DUP2 DUP2 SUB PUSH0 DUP4 ADD MSTORE PUSH2 0x190B DUP2 PUSH2 0x18D2 JUMP JUMPDEST SWAP1 POP SWAP2 SWAP1 POP JUMP JUMPDEST PUSH0 DUP2 SWAP1 POP DUP2 PUSH0 MSTORE PUSH1 0x20 PUSH0 KECCAK256 SWAP1 POP SWAP2 SWAP1 POP JUMP JUMPDEST PUSH0 PUSH1 0x20 PUSH1 0x1F DUP4 ADD DIV SWAP1 POP SWAP2 SWAP1 POP JUMP JUMPDEST PUSH0 DUP3 DUP3 SHL SWAP1 POP SWAP3 SWAP2 POP POP JUMP JUMPDEST PUSH0 PUSH1 0x8 DUP4 MUL PUSH2 0x196E PUSH32 0xFFFFFFFFFFFFFFFFFFFFFFFFFFFFFFFFFFFFFFFFFFFFFFFFFFFFFFFFFFFFFFFF DUP3 PUSH2 0x1933 JUMP JUMPDEST PUSH2 0x1978 DUP7 DUP4 PUSH2 0x1933 JUMP JUMPDEST SWAP6 POP DUP1 NOT DUP5 AND SWAP4 POP DUP1 DUP7 AND DUP5 OR SWAP3 POP POP POP SWAP4 SWAP3 POP POP POP JUMP JUMPDEST PUSH0 DUP2 SWAP1 POP SWAP2 SWAP1 POP JUMP JUMPDEST PUSH0 PUSH2 0x19B3 PUSH2 0x19AE PUSH2 0x19A9 DUP5 PUSH2 0x10C6 JUMP JUMPDEST PUSH2 0x1990 JUMP JUMPDEST PUSH2 0x10C6 JUMP JUMPDEST SWAP1 POP SWAP2 SWAP1 POP JUMP JUMPDEST PUSH0 DUP2 SWAP1 POP SWAP2 SWAP1 POP JUMP JUMPDEST PUSH2 0x19CC DUP4 PUSH2 0x1999 JUMP JUMPDEST PUSH2 0x19E0 PUSH2 0x19D8 DUP3 PUSH2 0x19BA JUMP JUMPDEST DUP5 DUP5 SLOAD PUSH2 0x193F JUMP JUMPDEST DUP3 SSTORE POP POP POP POP JUMP JUMPDEST PUSH0 SWAP1 JUMP JUMPDEST PUSH2 0x19F4 PUSH2 0x19E8 JUMP JUMPDEST PUSH2 0x19FF DUP2 DUP5 DUP5 PUSH2 0x19C3 JUMP JUMPDEST POP POP POP JUMP JUMPDEST JUMPDEST DUP2 DUP2 LT ISZERO PUSH2 0x1A22 JUMPI PUSH2 0x1A17 PUSH0 DUP3 PUSH2 0x19EC JUMP JUMPDEST PUSH1 0x1 DUP2 ADD SWAP1 POP PUSH2 0x1A05 JUMP JUMPDEST POP POP JUMP JUMPDEST PUSH1 0x1F DUP3 GT ISZERO PUSH2 0x1A67 JUMPI PUSH2 0x1A38 DUP2 PUSH2 0x1912 JUMP JUMPDEST PUSH2 0x1A41 DUP5 PUSH2 0x1924 JUMP JUMPDEST DUP2 ADD PUSH1 0x20 DUP6 LT ISZERO PUSH2 0x1A50 JUMPI DUP2 SWAP1 POP JUMPDEST PUSH2 0x1A64 PUSH2 0x1A5C DUP6 PUSH2 0x1924 JUMP JUMPDEST DUP4 ADD DUP3 PUSH2 0x1A04 JUMP JUMPDEST POP POP JUMPDEST POP POP POP JUMP JUMPDEST PUSH0 DUP3 DUP3 SHR SWAP1 POP SWAP3 SWAP2 POP POP JUMP JUMPDEST PUSH0 PUSH2 0x1A87 PUSH0 NOT DUP5 PUSH1 0x8 MUL PUSH2 0x1A6C JUMP JUMPDEST NOT DUP1 DUP4 AND SWAP2 POP POP SWAP3 SWAP2 POP POP JUMP JUMPDEST PUSH0 PUSH2 0x1A9F DUP4 DUP4 PUSH2 0x1A78 JUMP JUMPDEST SWAP2 POP DUP3 PUSH1 0x2 MUL DUP3 OR SWAP1 POP SWAP3 SWAP2 POP POP JUMP JUMPDEST PUSH2 0x1AB8 DUP3 PUSH2 0x111D JUMP JUMPDEST PUSH8 0xFFFFFFFFFFFFFFFF DUP2 GT ISZERO PUSH2 0x1AD1 JUMPI PUSH2 0x1AD0 PUSH2 0x15DC JUMP JUMPDEST JUMPDEST PUSH2 0x1ADB DUP3 SLOAD PUSH2 0x17E5 JUMP JUMPDEST PUSH2 0x1AE6 DUP3 DUP3 DUP6 PUSH2 0x1A26 JUMP JUMPDEST PUSH0 PUSH1 0x20 SWAP1 POP PUSH1 0x1F DUP4 GT PUSH1 0x1 DUP2 EQ PUSH2 0x1B17 JUMPI PUSH0 DUP5 ISZERO PUSH2 0x1B05 JUMPI DUP3 DUP8 ADD MLOAD SWAP1 POP JUMPDEST PUSH2 0x1B0F DUP6 DUP3 PUSH2 0x1A94 JUMP JUMPDEST DUP7 SSTORE POP PUSH2 0x1B76 JUMP JUMPDEST PUSH1 0x1F NOT DUP5 AND PUSH2 0x1B25 DUP7 PUSH2 0x1912 JUMP JUMPDEST PUSH0 JUMPDEST DUP3 DUP2 LT ISZERO PUSH2 0x1B4C JUMPI DUP5 DUP10 ADD MLOAD DUP3 SSTORE PUSH1 0x1 DUP3 ADD SWAP2 POP PUSH1 0x20 DUP6 ADD SWAP5 POP PUSH1 0x20 DUP2 ADD SWAP1 POP PUSH2 0x1B27 JUMP JUMPDEST DUP7 DUP4 LT ISZERO PUSH2 0x1B69 JUMPI DUP5 DUP10 ADD MLOAD PUSH2 0x1B65 PUSH1 0x1F DUP10 AND DUP3 PUSH2 0x1A78 JUMP JUMPDEST DUP4 SSTORE POP JUMPDEST PUSH1 0x1 PUSH1 0x2 DUP9 MUL ADD DUP9 SSTORE POP POP POP JUMPDEST POP POP POP POP POP POP JUMP JUMPDEST PUSH0 DUP2 SWAP1 POP SWAP2 SWAP1 POP JUMP JUMPDEST PUSH2 0x1B98 PUSH2 0x1B93 DUP3 PUSH2 0x10C6 JUMP JUMPDEST PUSH2 0x1B7E JUMP JUMPDEST DUP3 MSTORE POP POP JUMP JUMPDEST PUSH0 PUSH2 0x1BA8 DUP3 PUSH2 0x10DE JUMP JUMPDEST SWAP1 POP SWAP2 SWAP1 POP JUMP JUMPDEST PUSH0 DUP2 PUSH1 0x60 SHL SWAP1 POP SWAP2 SWAP1 POP JUMP JUMPDEST PUSH0 PUSH2 0x1BC5 DUP3 PUSH2 0x1BAF JUMP JUMPDEST SWAP1 POP SWAP2 SWAP1 POP JUMP JUMPDEST PUSH0 PUSH2 0x1BD6 DUP3 PUSH2 0x1BBB JUMP JUMPDEST SWAP1 POP SWAP2 SWAP1 POP JUMP JUMPDEST PUSH2 0x1BEE PUSH2 0x1BE9 DUP3 PUSH2 0x1B9E JUMP JUMPDEST PUSH2 0x1BCC JUMP JUMPDEST DUP3 MSTORE POP POP JUMP JUMPDEST PUSH0 DUP2 SWAP1 POP SWAP3 SWAP2 POP POP JUMP JUMPDEST PUSH0 PUSH2 0x1C08 DUP3 PUSH2 0x111D JUMP JUMPDEST PUSH2 0x1C12 DUP2 DUP6 PUSH2 0x1BF4 JUMP JUMPDEST SWAP4 POP PUSH2 0x1C22 DUP2 DUP6 PUSH1 0x20 DUP7 ADD PUSH2 0x1137 JUMP JUMPDEST DUP1 DUP5 ADD SWAP2 POP POP SWAP3 SWAP2 POP POP JUMP JUMPDEST PUSH0 PUSH2 0x1C39 DUP3 DUP8 PUSH2 0x1B87 JUMP JUMPDEST PUSH1 0x20 DUP3 ADD SWAP2 POP PUSH2 0x1C49 DUP3 DUP7 PUSH2 0x1BDD JUMP JUMPDEST PUSH1 0x14 DUP3 ADD SWAP2 POP PUSH2 0x1C59 DUP3 DUP6 PUSH2 0x1BFE JUMP JUMPDEST SWAP2 POP PUSH2 0x1C65 DUP3 DUP5 PUSH2 0x1B87 JUMP JUMPDEST PUSH1 0x20 DUP3 ADD SWAP2 POP DUP2 SWAP1 POP SWAP6 SWAP5 POP POP POP POP POP JUMP JUMPDEST PUSH0 PUSH1 0x80 DUP3 ADD SWAP1 POP DUP2 DUP2 SUB PUSH0 DUP4 ADD MSTORE PUSH2 0x1C8F DUP2 DUP8 PUSH2 0x13EE JUMP JUMPDEST SWAP1 POP DUP2 DUP2 SUB PUSH1 0x20 DUP4 ADD MSTORE PUSH2 0x1CA3 DUP2 DUP7 PUSH2 0x13EE JUMP JUMPDEST SWAP1 POP PUSH2 0x1CB2 PUSH1 0x40 DUP4 ADD DUP6 PUSH2 0x1341 JUMP JUMPDEST PUSH2 0x1CBF PUSH1 0x60 DUP4 ADD DUP5 PUSH2 0x1435 JUMP JUMPDEST SWAP6 SWAP5 POP POP POP POP POP JUMP JUMPDEST PUSH32 0x4E487B7100000000000000000000000000000000000000000000000000000000 PUSH0 MSTORE PUSH1 0x11 PUSH1 0x4 MSTORE PUSH1 0x24 PUSH0 REVERT JUMPDEST PUSH0 PUSH2 0x1CFF DUP3 PUSH2 0x10C6 JUMP JUMPDEST SWAP2 POP PUSH32 0xFFFFFFFFFFFFFFFFFFFFFFFFFFFFFFFFFFFFFFFFFFFFFFFFFFFFFFFFFFFFFFFF DUP3 SUB PUSH2 0x1D31 JUMPI PUSH2 0x1D30 PUSH2 0x1CC8 JUMP JUMPDEST JUMPDEST PUSH1 0x1 DUP3 ADD SWAP1 POP SWAP2 SWAP1 POP JUMP JUMPDEST PUSH32 0x506C65617365207375626D6974207468652061736B696E672070726963652069 PUSH0 DUP3 ADD MSTORE PUSH32 0x6E206F7264657220746F20636F6D706C65746520746865207075726368617365 PUSH1 0x20 DUP3 ADD MSTORE POP JUMP JUMPDEST PUSH0 PUSH2 0x1D96 PUSH1 0x40 DUP4 PUSH2 0x13DE JUMP JUMPDEST SWAP2 POP PUSH2 0x1DA1 DUP3 PUSH2 0x1D3C JUMP JUMPDEST PUSH1 0x40 DUP3 ADD SWAP1 POP SWAP2 SWAP1 POP JUMP JUMPDEST PUSH0 PUSH1 0x20 DUP3 ADD SWAP1 POP DUP2 DUP2 SUB PUSH0 DUP4 ADD MSTORE PUSH2 0x1DC3 DUP2 PUSH2 0x1D8A JUMP JUMPDEST SWAP1 POP SWAP2 SWAP1 POP JUMP JUMPDEST PUSH32 0x54686973206974656D2068617320616C7265616479206265656E20736F6C6400 PUSH0 DUP3 ADD MSTORE POP JUMP JUMPDEST PUSH0 PUSH2 0x1DFE PUSH1 0x1F DUP4 PUSH2 0x13DE JUMP JUMPDEST SWAP2 POP PUSH2 0x1E09 DUP3 PUSH2 0x1DCA JUMP JUMPDEST PUSH1 0x20 DUP3 ADD SWAP1 POP SWAP2 SWAP1 POP JUMP JUMPDEST PUSH0 PUSH1 0x20 DUP3 ADD SWAP1 POP DUP2 DUP2 SUB PUSH0 DUP4 ADD MSTORE PUSH2 0x1E2B DUP2 PUSH2 0x1DF2 JUMP JUMPDEST SWAP1 POP SWAP2 SWAP1 POP JUMP JUMPDEST PUSH32 0x4F776E65722063616E6E6F7420627579207468656972206F776E206974656D00 PUSH0 DUP3 ADD MSTORE POP JUMP JUMPDEST PUSH0 PUSH2 0x1E66 PUSH1 0x1F DUP4 PUSH2 0x13DE JUMP JUMPDEST SWAP2 POP PUSH2 0x1E71 DUP3 PUSH2 0x1E32 JUMP JUMPDEST PUSH1 0x20 DUP3 ADD SWAP1 POP SWAP2 SWAP1 POP JUMP JUMPDEST PUSH0 PUSH1 0x20 DUP3 ADD SWAP1 POP DUP2 DUP2 SUB PUSH0 DUP4 ADD MSTORE PUSH2 0x1E93 DUP2 PUSH2 0x1E5A JUMP JUMPDEST SWAP1 POP SWAP2 SWAP1 POP JUMP JUMPDEST PUSH0 DUP2 SWAP1 POP SWAP3 SWAP2 POP POP JUMP JUMPDEST POP JUMP JUMPDEST PUSH0 PUSH2 0x1EB2 PUSH0 DUP4 PUSH2 0x1E9A JUMP JUMPDEST SWAP2 POP PUSH2 0x1EBD DUP3 PUSH2 0x1EA4 JUMP JUMPDEST PUSH0 DUP3 ADD SWAP1 POP SWAP2 SWAP1 POP JUMP JUMPDEST PUSH0 PUSH2 0x1ED1 DUP3 PUSH2 0x1EA7 JUMP JUMPDEST SWAP2 POP DUP2 SWAP1 POP SWAP2 SWAP1 POP JUMP JUMPDEST PUSH32 0x4661696C656420746F2073656E64204574686572000000000000000000000000 PUSH0 DUP3 ADD MSTORE POP JUMP JUMPDEST PUSH0 PUSH2 0x1F0F PUSH1 0x14 DUP4 PUSH2 0x13DE JUMP JUMPDEST SWAP2 POP PUSH2 0x1F1A DUP3 PUSH2 0x1EDB JUMP JUMPDEST PUSH1 0x20 DUP3 ADD SWAP1 POP SWAP2 SWAP1 POP JUMP JUMPDEST PUSH0 PUSH1 0x20 DUP3 ADD SWAP1 POP DUP2 DUP2 SUB PUSH0 DUP4 ADD MSTORE PUSH2 0x1F3C DUP2 PUSH2 0x1F03 JUMP JUMPDEST SWAP1 POP SWAP2 SWAP1 POP JUMP JUMPDEST PUSH0 PUSH1 0x40 DUP3 ADD SWAP1 POP PUSH2 0x1F56 PUSH0 DUP4 ADD DUP6 PUSH2 0x1341 JUMP JUMPDEST PUSH2 0x1F63 PUSH1 0x20 DUP4 ADD DUP5 PUSH2 0x1341 JUMP JUMPDEST SWAP4 SWAP3 POP POP POP JUMP INVALID LOG2 PUSH5 0x6970667358 0x22 SLT KECCAK256 0xEB JUMPDEST PUSH3 0x2CA78 0xA7 PUSH24 0x3F4AA07B2CA8297D27940A410E209A58E408C1FC3234601D PUSH5 0x736F6C6343 STOP ADDMOD NOT STOP CALLER "
	},
	"Assembly": ".code\n  PUSH 80\t\t\tcontract Marketplace {\\n    st...\n  PUSH 40\t\t\tcontract Marketplace {\\n    st...\n  MSTORE \t\t\tcontract Marketplace {\\n    st...\n  PUSH 0\t\t\t0\n  PUSH 1\t\t\tuint public itemCount = 0\n  SSTORE \t\t\tuint public itemCount = 0\n  CALLVALUE \t\t\tcontract Marketplace {\\n    st...\n  DUP1 \t\t\tcontract Marketplace {\\n    st...\n  ISZERO \t\t\tcontract Marketplace {\\n    st...\n  PUSH [tag] 1\t\t\tcontract Marketplace {\\n    st...\n  JUMPI \t\t\tcontract Marketplace {\\n    st...\n  PUSH 0\t\t\tcontract Marketplace {\\n    st...\n  DUP1 \t\t\tcontract Marketplace {\\n    st...\n  REVERT \t\t\tcontract Marketplace {\\n    st...\ntag 1\t\t\tcontract Marketplace {\\n    st...\n  JUMPDEST \t\t\tcontract Marketplace {\\n    st...\n  POP \t\t\tcontract Marketplace {\\n    st...\n  PUSH #[$] 0000000000000000000000000000000000000000000000000000000000000000\t\t\tcontract Marketplace {\\n    st...\n  DUP1 \t\t\tcontract Marketplace {\\n    st...\n  PUSH [$] 0000000000000000000000000000000000000000000000000000000000000000\t\t\tcontract Marketplace {\\n    st...\n  PUSH 0\t\t\tcontract Marketplace {\\n    st...\n  CODECOPY \t\t\tcontract Marketplace {\\n    st...\n  PUSH 0\t\t\tcontract Marketplace {\\n    st...\n  RETURN \t\t\tcontract Marketplace {\\n    st...\n.data\n  0:\n    .code\n      PUSH 80\t\t\tcontract Marketplace {\\n    st...\n      PUSH 40\t\t\tcontract Marketplace {\\n    st...\n      MSTORE \t\t\tcontract Marketplace {\\n    st...\n      PUSH 4\t\t\tcontract Marketplace {\\n    st...\n      CALLDATASIZE \t\t\tcontract Marketplace {\\n    st...\n      LT \t\t\tcontract Marketplace {\\n    st...\n      PUSH [tag] 1\t\t\tcontract Marketplace {\\n    st...\n      JUMPI \t\t\tcontract Marketplace {\\n    st...\n      PUSH 0\t\t\tcontract Marketplace {\\n    st...\n      CALLDATALOAD \t\t\tcontract Marketplace {\\n    st...\n      PUSH E0\t\t\tcontract Marketplace {\\n    st...\n      SHR \t\t\tcontract Marketplace {\\n    st...\n      DUP1 \t\t\tcontract Marketplace {\\n    st...\n      PUSH 4BA1D6AA\t\t\tcontract Marketplace {\\n    st...\n      EQ \t\t\tcontract Marketplace {\\n    st...\n      PUSH [tag] 2\t\t\tcontract Marketplace {\\n    st...\n      JUMPI \t\t\tcontract Marketplace {\\n    st...\n      DUP1 \t\t\tcontract Marketplace {\\n    st...\n      PUSH 6BFB0D01\t\t\tcontract Marketplace {\\n    st...\n      EQ \t\t\tcontract Marketplace {\\n    st...\n      PUSH [tag] 3\t\t\tcontract Marketplace {\\n    st...\n      JUMPI \t\t\tcontract Marketplace {\\n    st...\n      DUP1 \t\t\tcontract Marketplace {\\n    st...\n      PUSH BFB231D2\t\t\tcontract Marketplace {\\n    st...\n      EQ \t\t\tcontract Marketplace {\\n    st...\n      PUSH [tag] 4\t\t\tcontract Marketplace {\\n    st...\n      JUMPI \t\t\tcontract Marketplace {\\n    st...\n      DUP1 \t\t\tcontract Marketplace {\\n    st...\n      PUSH CD2F0710\t\t\tcontract Marketplace {\\n    st...\n      EQ \t\t\tcontract Marketplace {\\n    st...\n      PUSH [tag] 5\t\t\tcontract Marketplace {\\n    st...\n      JUMPI \t\t\tcontract Marketplace {\\n    st...\n      DUP1 \t\t\tcontract Marketplace {\\n    st...\n      PUSH D65274C9\t\t\tcontract Marketplace {\\n    st...\n      EQ \t\t\tcontract Marketplace {\\n    st...\n      PUSH [tag] 6\t\t\tcontract Marketplace {\\n    st...\n      JUMPI \t\t\tcontract Marketplace {\\n    st...\n      DUP1 \t\t\tcontract Marketplace {\\n    st...\n      PUSH E7FB74C7\t\t\tcontract Marketplace {\\n    st...\n      EQ \t\t\tcontract Marketplace {\\n    st...\n      PUSH [tag] 7\t\t\tcontract Marketplace {\\n    st...\n      JUMPI \t\t\tcontract Marketplace {\\n    st...\n    tag 1\t\t\tcontract Marketplace {\\n    st...\n      JUMPDEST \t\t\tcontract Marketplace {\\n    st...\n      PUSH 0\t\t\tcontract Marketplace {\\n    st...\n      DUP1 \t\t\tcontract Marketplace {\\n    st...\n      REVERT \t\t\tcontract Marketplace {\\n    st...\n    tag 2\t\t\tfunction getAllItems() public ...\n      JUMPDEST \t\t\tfunction getAllItems() public ...\n      CALLVALUE \t\t\tfunction getAllItems() public ...\n      DUP1 \t\t\tfunction getAllItems() public ...\n      ISZERO \t\t\tfunction getAllItems() public ...\n      PUSH [tag] 8\t\t\tfunction getAllItems() public ...\n      JUMPI \t\t\tfunction getAllItems() public ...\n      PUSH 0\t\t\tfunction getAllItems() public ...\n      DUP1 \t\t\tfunction getAllItems() public ...\n      REVERT \t\t\tfunction getAllItems() public ...\n    tag 8\t\t\tfunction getAllItems() public ...\n      JUMPDEST \t\t\tfunction getAllItems() public ...\n      POP \t\t\tfunction getAllItems() public ...\n      PUSH [tag] 9\t\t\tfunction getAllItems() public ...\n      PUSH [tag] 10\t\t\tfunction getAllItems() public ...\n      JUMP \t\t\tfunction getAllItems() public ...\n    tag 9\t\t\tfunction getAllItems() public ...\n      JUMPDEST \t\t\tfunction getAllItems() public ...\n      PUSH 40\t\t\tfunction getAllItems() public ...\n      MLOAD \t\t\tfunction getAllItems() public ...\n      PUSH [tag] 11\t\t\tfunction getAllItems() public ...\n      SWAP2 \t\t\tfunction getAllItems() public ...\n      SWAP1 \t\t\tfunction getAllItems() public ...\n      PUSH [tag] 12\t\t\tfunction getAllItems() public ...\n      JUMP \t\t\tfunction getAllItems() public ...\n    tag 11\t\t\tfunction getAllItems() public ...\n      JUMPDEST \t\t\tfunction getAllItems() public ...\n      PUSH 40\t\t\tfunction getAllItems() public ...\n      MLOAD \t\t\tfunction getAllItems() public ...\n      DUP1 \t\t\tfunction getAllItems() public ...\n      SWAP2 \t\t\tfunction getAllItems() public ...\n      SUB \t\t\tfunction getAllItems() public ...\n      SWAP1 \t\t\tfunction getAllItems() public ...\n      RETURN \t\t\tfunction getAllItems() public ...\n    tag 3\t\t\tuint public itemCount = 0\n      JUMPDEST \t\t\tuint public itemCount = 0\n      CALLVALUE \t\t\tuint public itemCount = 0\n      DUP1 \t\t\tuint public itemCount = 0\n      ISZERO \t\t\tuint public itemCount = 0\n      PUSH [tag] 13\t\t\tuint public itemCount = 0\n      JUMPI \t\t\tuint public itemCount = 0\n      PUSH 0\t\t\tuint public itemCount = 0\n      DUP1 \t\t\tuint public itemCount = 0\n      REVERT \t\t\tuint public itemCount = 0\n    tag 13\t\t\tuint public itemCount = 0\n      JUMPDEST \t\t\tuint public itemCount = 0\n      POP \t\t\tuint public itemCount = 0\n      PUSH [tag] 14\t\t\tuint public itemCount = 0\n      PUSH [tag] 15\t\t\tuint public itemCount = 0\n      JUMP \t\t\tuint public itemCount = 0\n    tag 14\t\t\tuint public itemCount = 0\n      JUMPDEST \t\t\tuint public itemCount = 0\n      PUSH 40\t\t\tuint public itemCount = 0\n      MLOAD \t\t\tuint public itemCount = 0\n      PUSH [tag] 16\t\t\tuint public itemCount = 0\n      SWAP2 \t\t\tuint public itemCount = 0\n      SWAP1 \t\t\tuint public itemCount = 0\n      PUSH [tag] 17\t\t\tuint public itemCount = 0\n      JUMP \t\t\tuint public itemCount = 0\n    tag 16\t\t\tuint public itemCount = 0\n      JUMPDEST \t\t\tuint public itemCount = 0\n      PUSH 40\t\t\tuint public itemCount = 0\n      MLOAD \t\t\tuint public itemCount = 0\n      DUP1 \t\t\tuint public itemCount = 0\n      SWAP2 \t\t\tuint public itemCount = 0\n      SUB \t\t\tuint public itemCount = 0\n      SWAP1 \t\t\tuint public itemCount = 0\n      RETURN \t\t\tuint public itemCount = 0\n    tag 4\t\t\tItem[] public items\n      JUMPDEST \t\t\tItem[] public items\n      CALLVALUE \t\t\tItem[] public items\n      DUP1 \t\t\tItem[] public items\n      ISZERO \t\t\tItem[] public items\n      PUSH [tag] 18\t\t\tItem[] public items\n      JUMPI \t\t\tItem[] public items\n      PUSH 0\t\t\tItem[] public items\n      DUP1 \t\t\tItem[] public items\n      REVERT \t\t\tItem[] public items\n    tag 18\t\t\tItem[] public items\n      JUMPDEST \t\t\tItem[] public items\n      POP \t\t\tItem[] public items\n      PUSH [tag] 19\t\t\tItem[] public items\n      PUSH 4\t\t\tItem[] public items\n      DUP1 \t\t\tItem[] public items\n      CALLDATASIZE \t\t\tItem[] public items\n      SUB \t\t\tItem[] public items\n      DUP2 \t\t\tItem[] public items\n      ADD \t\t\tItem[] public items\n      SWAP1 \t\t\tItem[] public items\n      PUSH [tag] 20\t\t\tItem[] public items\n      SWAP2 \t\t\tItem[] public items\n      SWAP1 \t\t\tItem[] public items\n      PUSH [tag] 21\t\t\tItem[] public items\n      JUMP \t\t\tItem[] public items\n    tag 20\t\t\tItem[] public items\n      JUMPDEST \t\t\tItem[] public items\n      PUSH [tag] 22\t\t\tItem[] public items\n      JUMP \t\t\tItem[] public items\n    tag 19\t\t\tItem[] public items\n      JUMPDEST \t\t\tItem[] public items\n      PUSH 40\t\t\tItem[] public items\n      MLOAD \t\t\tItem[] public items\n      PUSH [tag] 23\t\t\tItem[] public items\n      SWAP10 \t\t\tItem[] public items\n      SWAP9 \t\t\tItem[] public items\n      SWAP8 \t\t\tItem[] public items\n      SWAP7 \t\t\tItem[] public items\n      SWAP6 \t\t\tItem[] public items\n      SWAP5 \t\t\tItem[] public items\n      SWAP4 \t\t\tItem[] public items\n      SWAP3 \t\t\tItem[] public items\n      SWAP2 \t\t\tItem[] public items\n      SWAP1 \t\t\tItem[] public items\n      PUSH [tag] 24\t\t\tItem[] public items\n      JUMP \t\t\tItem[] public items\n    tag 23\t\t\tItem[] public items\n      JUMPDEST \t\t\tItem[] public items\n      PUSH 40\t\t\tItem[] public items\n      MLOAD \t\t\tItem[] public items\n      DUP1 \t\t\tItem[] public items\n      SWAP2 \t\t\tItem[] public items\n      SUB \t\t\tItem[] public items\n      SWAP1 \t\t\tItem[] public items\n      RETURN \t\t\tItem[] public items\n    tag 5\t\t\tfunction getItemById(uint _id)...\n      JUMPDEST \t\t\tfunction getItemById(uint _id)...\n      CALLVALUE \t\t\tfunction getItemById(uint _id)...\n      DUP1 \t\t\tfunction getItemById(uint _id)...\n      ISZERO \t\t\tfunction getItemById(uint _id)...\n      PUSH [tag] 25\t\t\tfunction getItemById(uint _id)...\n      JUMPI \t\t\tfunction getItemById(uint _id)...\n      PUSH 0\t\t\tfunction getItemById(uint _id)...\n      DUP1 \t\t\tfunction getItemById(uint _id)...\n      REVERT \t\t\tfunction getItemById(uint _id)...\n    tag 25\t\t\tfunction getItemById(uint _id)...\n      JUMPDEST \t\t\tfunction getItemById(uint _id)...\n      POP \t\t\tfunction getItemById(uint _id)...\n      PUSH [tag] 26\t\t\tfunction getItemById(uint _id)...\n      PUSH 4\t\t\tfunction getItemById(uint _id)...\n      DUP1 \t\t\tfunction getItemById(uint _id)...\n      CALLDATASIZE \t\t\tfunction getItemById(uint _id)...\n      SUB \t\t\tfunction getItemById(uint _id)...\n      DUP2 \t\t\tfunction getItemById(uint _id)...\n      ADD \t\t\tfunction getItemById(uint _id)...\n      SWAP1 \t\t\tfunction getItemById(uint _id)...\n      PUSH [tag] 27\t\t\tfunction getItemById(uint _id)...\n      SWAP2 \t\t\tfunction getItemById(uint _id)...\n      SWAP1 \t\t\tfunction getItemById(uint _id)...\n      PUSH [tag] 21\t\t\tfunction getItemById(uint _id)...\n      JUMP \t\t\tfunction getItemById(uint _id)...\n    tag 27\t\t\tfunction getItemById(uint _id)...\n      JUMPDEST \t\t\tfunction getItemById(uint _id)...\n      PUSH [tag] 28\t\t\tfunction getItemById(uint _id)...\n      JUMP \t\t\tfunction getItemById(uint _id)...\n    tag 26\t\t\tfunction getItemById(uint _id)...\n      JUMPDEST \t\t\tfunction getItemById(uint _id)...\n      PUSH 40\t\t\tfunction getItemById(uint _id)...\n      MLOAD \t\t\tfunction getItemById(uint _id)...\n      PUSH [tag] 29\t\t\tfunction getItemById(uint _id)...\n      SWAP2 \t\t\tfunction getItemById(uint _id)...\n      SWAP1 \t\t\tfunction getItemById(uint _id)...\n      PUSH [tag] 30\t\t\tfunction getItemById(uint _id)...\n      JUMP \t\t\tfunction getItemById(uint _id)...\n    tag 29\t\t\tfunction getItemById(uint _id)...\n      JUMPDEST \t\t\tfunction getItemById(uint _id)...\n      PUSH 40\t\t\tfunction getItemById(uint _id)...\n      MLOAD \t\t\tfunction getItemById(uint _id)...\n      DUP1 \t\t\tfunction getItemById(uint _id)...\n      SWAP2 \t\t\tfunction getItemById(uint _id)...\n      SUB \t\t\tfunction getItemById(uint _id)...\n      SWAP1 \t\t\tfunction getItemById(uint _id)...\n      RETURN \t\t\tfunction getItemById(uint _id)...\n    tag 6\t\t\tfunction listItem(string memor...\n      JUMPDEST \t\t\tfunction listItem(string memor...\n      CALLVALUE \t\t\tfunction listItem(string memor...\n      DUP1 \t\t\tfunction listItem(string memor...\n      ISZERO \t\t\tfunction listItem(string memor...\n      PUSH [tag] 31\t\t\tfunction listItem(string memor...\n      JUMPI \t\t\tfunction listItem(string memor...\n      PUSH 0\t\t\tfunction listItem(string memor...\n      DUP1 \t\t\tfunction listItem(string memor...\n      REVERT \t\t\tfunction listItem(string memor...\n    tag 31\t\t\tfunction listItem(string memor...\n      JUMPDEST \t\t\tfunction listItem(string memor...\n      POP \t\t\tfunction listItem(string memor...\n      PUSH [tag] 32\t\t\tfunction listItem(string memor...\n      PUSH 4\t\t\tfunction listItem(string memor...\n      DUP1 \t\t\tfunction listItem(string memor...\n      CALLDATASIZE \t\t\tfunction listItem(string memor...\n      SUB \t\t\tfunction listItem(string memor...\n      DUP2 \t\t\tfunction listItem(string memor...\n      ADD \t\t\tfunction listItem(string memor...\n      SWAP1 \t\t\tfunction listItem(string memor...\n      PUSH [tag] 33\t\t\tfunction listItem(string memor...\n      SWAP2 \t\t\tfunction listItem(string memor...\n      SWAP1 \t\t\tfunction listItem(string memor...\n      PUSH [tag] 34\t\t\tfunction listItem(string memor...\n      JUMP \t\t\tfunction listItem(string memor...\n    tag 33\t\t\tfunction listItem(string memor...\n      JUMPDEST \t\t\tfunction listItem(string memor...\n      PUSH [tag] 35\t\t\tfunction listItem(string memor...\n      JUMP \t\t\tfunction listItem(string memor...\n    tag 32\t\t\tfunction listItem(string memor...\n      JUMPDEST \t\t\tfunction listItem(string memor...\n      STOP \t\t\tfunction listItem(string memor...\n    tag 7\t\t\tfunction buyItem(uint _id) pub...\n      JUMPDEST \t\t\tfunction buyItem(uint _id) pub...\n      PUSH [tag] 36\t\t\tfunction buyItem(uint _id) pub...\n      PUSH 4\t\t\tfunction buyItem(uint _id) pub...\n      DUP1 \t\t\tfunction buyItem(uint _id) pub...\n      CALLDATASIZE \t\t\tfunction buyItem(uint _id) pub...\n      SUB \t\t\tfunction buyItem(uint _id) pub...\n      DUP2 \t\t\tfunction buyItem(uint _id) pub...\n      ADD \t\t\tfunction buyItem(uint _id) pub...\n      SWAP1 \t\t\tfunction buyItem(uint _id) pub...\n      PUSH [tag] 37\t\t\tfunction buyItem(uint _id) pub...\n      SWAP2 \t\t\tfunction buyItem(uint _id) pub...\n      SWAP1 \t\t\tfunction buyItem(uint _id) pub...\n      PUSH [tag] 21\t\t\tfunction buyItem(uint _id) pub...\n      JUMP \t\t\tfunction buyItem(uint _id) pub...\n    tag 37\t\t\tfunction buyItem(uint _id) pub...\n      JUMPDEST \t\t\tfunction buyItem(uint _id) pub...\n      PUSH [tag] 38\t\t\tfunction buyItem(uint _id) pub...\n      JUMP \t\t\tfunction buyItem(uint _id) pub...\n    tag 36\t\t\tfunction buyItem(uint _id) pub...\n      JUMPDEST \t\t\tfunction buyItem(uint _id) pub...\n      STOP \t\t\tfunction buyItem(uint _id) pub...\n    tag 10\t\t\tfunction getAllItems() public ...\n      JUMPDEST \t\t\tfunction getAllItems() public ...\n      PUSH 60\t\t\tItem[] memory\n      PUSH 0\t\t\titems\n      DUP1 \t\t\treturn items\n      SLOAD \t\t\treturn items\n      DUP1 \t\t\treturn items\n      PUSH 20\t\t\treturn items\n      MUL \t\t\treturn items\n      PUSH 20\t\t\treturn items\n      ADD \t\t\treturn items\n      PUSH 40\t\t\treturn items\n      MLOAD \t\t\treturn items\n      SWAP1 \t\t\treturn items\n      DUP2 \t\t\treturn items\n      ADD \t\t\treturn items\n      PUSH 40\t\t\treturn items\n      MSTORE \t\t\treturn items\n      DUP1 \t\t\treturn items\n      SWAP3 \t\t\treturn items\n      SWAP2 \t\t\treturn items\n      SWAP1 \t\t\treturn items\n      DUP2 \t\t\treturn items\n      DUP2 \t\t\treturn items\n      MSTORE \t\t\treturn items\n      PUSH 20\t\t\treturn items\n      ADD \t\t\treturn items\n      PUSH 0\t\t\treturn items\n      SWAP1 \t\t\treturn items\n    tag 40\t\t\treturn items\n      JUMPDEST \t\t\treturn items\n      DUP3 \t\t\treturn items\n      DUP3 \t\t\treturn items\n      LT \t\t\treturn items\n      ISZERO \t\t\treturn items\n      PUSH [tag] 41\t\t\treturn items\n      JUMPI \t\t\treturn items\n      DUP4 \t\t\treturn items\n      DUP3 \t\t\treturn items\n      SWAP1 \t\t\treturn items\n      PUSH 0\t\t\treturn items\n      MSTORE \t\t\treturn items\n      PUSH 20\t\t\treturn items\n      PUSH 0\t\t\treturn items\n      KECCAK256 \t\t\treturn items\n      SWAP1 \t\t\treturn items\n      PUSH 9\t\t\treturn items\n      MUL \t\t\treturn items\n      ADD \t\t\treturn items\n      PUSH 40\t\t\treturn items\n      MLOAD \t\t\treturn items\n      DUP1 \t\t\treturn items\n      PUSH 120\t\t\treturn items\n      ADD \t\t\treturn items\n      PUSH 40\t\t\treturn items\n      MSTORE \t\t\treturn items\n      SWAP1 \t\t\treturn items\n      DUP2 \t\t\treturn items\n      PUSH 0\t\t\treturn items\n      DUP3 \t\t\treturn items\n      ADD \t\t\treturn items\n      SLOAD \t\t\treturn items\n      DUP2 \t\t\treturn items\n      MSTORE \t\t\treturn items\n      PUSH 20\t\t\treturn items\n      ADD \t\t\treturn items\n      PUSH 1\t\t\treturn items\n      DUP3 \t\t\treturn items\n      ADD \t\t\treturn items\n      PUSH 0\t\t\treturn items\n      SWAP1 \t\t\treturn items\n      SLOAD \t\t\treturn items\n      SWAP1 \t\t\treturn items\n      PUSH 100\t\t\treturn items\n      EXP \t\t\treturn items\n      SWAP1 \t\t\treturn items\n      DIV \t\t\treturn items\n      PUSH FFFFFFFFFFFFFFFFFFFFFFFFFFFFFFFFFFFFFFFF\t\t\treturn items\n      AND \t\t\treturn items\n      PUSH FFFFFFFFFFFFFFFFFFFFFFFFFFFFFFFFFFFFFFFF\t\t\treturn items\n      AND \t\t\treturn items\n      PUSH FFFFFFFFFFFFFFFFFFFFFFFFFFFFFFFFFFFFFFFF\t\t\treturn items\n      AND \t\t\treturn items\n      DUP2 \t\t\treturn items\n      MSTORE \t\t\treturn items\n      PUSH 20\t\t\treturn items\n      ADD \t\t\treturn items\n      PUSH 2\t\t\treturn items\n      DUP3 \t\t\treturn items\n      ADD \t\t\treturn items\n      PUSH 0\t\t\treturn items\n      SWAP1 \t\t\treturn items\n      SLOAD \t\t\treturn items\n      SWAP1 \t\t\treturn items\n      PUSH 100\t\t\treturn items\n      EXP \t\t\treturn items\n      SWAP1 \t\t\treturn items\n      DIV \t\t\treturn items\n      PUSH FFFFFFFFFFFFFFFFFFFFFFFFFFFFFFFFFFFFFFFF\t\t\treturn items\n      AND \t\t\treturn items\n      PUSH FFFFFFFFFFFFFFFFFFFFFFFFFFFFFFFFFFFFFFFF\t\t\treturn items\n      AND \t\t\treturn items\n      PUSH FFFFFFFFFFFFFFFFFFFFFFFFFFFFFFFFFFFFFFFF\t\t\treturn items\n      AND \t\t\treturn items\n      DUP2 \t\t\treturn items\n      MSTORE \t\t\treturn items\n      PUSH 20\t\t\treturn items\n      ADD \t\t\treturn items\n      PUSH 3\t\t\treturn items\n      DUP3 \t\t\treturn items\n      ADD \t\t\treturn items\n      DUP1 \t\t\treturn items\n      SLOAD \t\t\treturn items\n      PUSH [tag] 43\t\t\treturn items\n      SWAP1 \t\t\treturn items\n      PUSH [tag] 44\t\t\treturn items\n      JUMP \t\t\treturn items\n    tag 43\t\t\treturn items\n      JUMPDEST \t\t\treturn items\n      DUP1 \t\t\treturn items\n      PUSH 1F\t\t\treturn items\n      ADD \t\t\treturn items\n      PUSH 20\t\t\treturn items\n      DUP1 \t\t\treturn items\n      SWAP2 \t\t\treturn items\n      DIV \t\t\treturn items\n      MUL \t\t\treturn items\n      PUSH 20\t\t\treturn items\n      ADD \t\t\treturn items\n      PUSH 40\t\t\treturn items\n      MLOAD \t\t\treturn items\n      SWAP1 \t\t\treturn items\n      DUP2 \t\t\treturn items\n      ADD \t\t\treturn items\n      PUSH 40\t\t\treturn items\n      MSTORE \t\t\treturn items\n      DUP1 \t\t\treturn items\n      SWAP3 \t\t\treturn items\n      SWAP2 \t\t\treturn items\n      SWAP1 \t\t\treturn items\n      DUP2 \t\t\treturn items\n      DUP2 \t\t\treturn items\n      MSTORE \t\t\treturn items\n      PUSH 20\t\t\treturn items\n      ADD \t\t\treturn items\n      DUP3 \t\t\treturn items\n      DUP1 \t\t\treturn items\n      SLOAD \t\t\treturn items\n      PUSH [tag] 45\t\t\treturn items\n      SWAP1 \t\t\treturn items\n      PUSH [tag] 44\t\t\treturn items\n      JUMP \t\t\treturn items\n    tag 45\t\t\treturn items\n      JUMPDEST \t\t\treturn items\n      DUP1 \t\t\treturn items\n      ISZERO \t\t\treturn items\n      PUSH [tag] 46\t\t\treturn items\n      JUMPI \t\t\treturn items\n      DUP1 \t\t\treturn items\n      PUSH 1F\t\t\treturn items\n      LT \t\t\treturn items\n      PUSH [tag] 47\t\t\treturn items\n      JUMPI \t\t\treturn items\n      PUSH 100\t\t\treturn items\n      DUP1 \t\t\treturn items\n      DUP4 \t\t\treturn items\n      SLOAD \t\t\treturn items\n      DIV \t\t\treturn items\n      MUL \t\t\treturn items\n      DUP4 \t\t\treturn items\n      MSTORE \t\t\treturn items\n      SWAP2 \t\t\treturn items\n      PUSH 20\t\t\treturn items\n      ADD \t\t\treturn items\n      SWAP2 \t\t\treturn items\n      PUSH [tag] 46\t\t\treturn items\n      JUMP \t\t\treturn items\n    tag 47\t\t\treturn items\n      JUMPDEST \t\t\treturn items\n      DUP3 \t\t\treturn items\n      ADD \t\t\treturn items\n      SWAP2 \t\t\treturn items\n      SWAP1 \t\t\treturn items\n      PUSH 0\t\t\treturn items\n      MSTORE \t\t\treturn items\n      PUSH 20\t\t\treturn items\n      PUSH 0\t\t\treturn items\n      KECCAK256 \t\t\treturn items\n      SWAP1 \t\t\treturn items\n    tag 48\t\t\treturn items\n      JUMPDEST \t\t\treturn items\n      DUP2 \t\t\treturn items\n      SLOAD \t\t\treturn items\n      DUP2 \t\t\treturn items\n      MSTORE \t\t\treturn items\n      SWAP1 \t\t\treturn items\n      PUSH 1\t\t\treturn items\n      ADD \t\t\treturn items\n      SWAP1 \t\t\treturn items\n      PUSH 20\t\t\treturn items\n      ADD \t\t\treturn items\n      DUP1 \t\t\treturn items\n      DUP4 \t\t\treturn items\n      GT \t\t\treturn items\n      PUSH [tag] 48\t\t\treturn items\n      JUMPI \t\t\treturn items\n      DUP3 \t\t\treturn items\n      SWAP1 \t\t\treturn items\n      SUB \t\t\treturn items\n      PUSH 1F\t\t\treturn items\n      AND \t\t\treturn items\n      DUP3 \t\t\treturn items\n      ADD \t\t\treturn items\n      SWAP2 \t\t\treturn items\n    tag 46\t\t\treturn items\n      JUMPDEST \t\t\treturn items\n      POP \t\t\treturn items\n      POP \t\t\treturn items\n      POP \t\t\treturn items\n      POP \t\t\treturn items\n      POP \t\t\treturn items\n      DUP2 \t\t\treturn items\n      MSTORE \t\t\treturn items\n      PUSH 20\t\t\treturn items\n      ADD \t\t\treturn items\n      PUSH 4\t\t\treturn items\n      DUP3 \t\t\treturn items\n      ADD \t\t\treturn items\n      DUP1 \t\t\treturn items\n      SLOAD \t\t\treturn items\n      PUSH [tag] 49\t\t\treturn items\n      SWAP1 \t\t\treturn items\n      PUSH [tag] 44\t\t\treturn items\n      JUMP \t\t\treturn items\n    tag 49\t\t\treturn items\n      JUMPDEST \t\t\treturn items\n      DUP1 \t\t\treturn items\n      PUSH 1F\t\t\treturn items\n      ADD \t\t\treturn items\n      PUSH 20\t\t\treturn items\n      DUP1 \t\t\treturn items\n      SWAP2 \t\t\treturn items\n      DIV \t\t\treturn items\n      MUL \t\t\treturn items\n      PUSH 20\t\t\treturn items\n      ADD \t\t\treturn items\n      PUSH 40\t\t\treturn items\n      MLOAD \t\t\treturn items\n      SWAP1 \t\t\treturn items\n      DUP2 \t\t\treturn items\n      ADD \t\t\treturn items\n      PUSH 40\t\t\treturn items\n      MSTORE \t\t\treturn items\n      DUP1 \t\t\treturn items\n      SWAP3 \t\t\treturn items\n      SWAP2 \t\t\treturn items\n      SWAP1 \t\t\treturn items\n      DUP2 \t\t\treturn items\n      DUP2 \t\t\treturn items\n      MSTORE \t\t\treturn items\n      PUSH 20\t\t\treturn items\n      ADD \t\t\treturn items\n      DUP3 \t\t\treturn items\n      DUP1 \t\t\treturn items\n      SLOAD \t\t\treturn items\n      PUSH [tag] 50\t\t\treturn items\n      SWAP1 \t\t\treturn items\n      PUSH [tag] 44\t\t\treturn items\n      JUMP \t\t\treturn items\n    tag 50\t\t\treturn items\n      JUMPDEST \t\t\treturn items\n      DUP1 \t\t\treturn items\n      ISZERO \t\t\treturn items\n      PUSH [tag] 51\t\t\treturn items\n      JUMPI \t\t\treturn items\n      DUP1 \t\t\treturn items\n      PUSH 1F\t\t\treturn items\n      LT \t\t\treturn items\n      PUSH [tag] 52\t\t\treturn items\n      JUMPI \t\t\treturn items\n      PUSH 100\t\t\treturn items\n      DUP1 \t\t\treturn items\n      DUP4 \t\t\treturn items\n      SLOAD \t\t\treturn items\n      DIV \t\t\treturn items\n      MUL \t\t\treturn items\n      DUP4 \t\t\treturn items\n      MSTORE \t\t\treturn items\n      SWAP2 \t\t\treturn items\n      PUSH 20\t\t\treturn items\n      ADD \t\t\treturn items\n      SWAP2 \t\t\treturn items\n      PUSH [tag] 51\t\t\treturn items\n      JUMP \t\t\treturn items\n    tag 52\t\t\treturn items\n      JUMPDEST \t\t\treturn items\n      DUP3 \t\t\treturn items\n      ADD \t\t\treturn items\n      SWAP2 \t\t\treturn items\n      SWAP1 \t\t\treturn items\n      PUSH 0\t\t\treturn items\n      MSTORE \t\t\treturn items\n      PUSH 20\t\t\treturn items\n      PUSH 0\t\t\treturn items\n      KECCAK256 \t\t\treturn items\n      SWAP1 \t\t\treturn items\n    tag 53\t\t\treturn items\n      JUMPDEST \t\t\treturn items\n      DUP2 \t\t\treturn items\n      SLOAD \t\t\treturn items\n      DUP2 \t\t\treturn items\n      MSTORE \t\t\treturn items\n      SWAP1 \t\t\treturn items\n      PUSH 1\t\t\treturn items\n      ADD \t\t\treturn items\n      SWAP1 \t\t\treturn items\n      PUSH 20\t\t\treturn items\n      ADD \t\t\treturn items\n      DUP1 \t\t\treturn items\n      DUP4 \t\t\treturn items\n      GT \t\t\treturn items\n      PUSH [tag] 53\t\t\treturn items\n      JUMPI \t\t\treturn items\n      DUP3 \t\t\treturn items\n      SWAP1 \t\t\treturn items\n      SUB \t\t\treturn items\n      PUSH 1F\t\t\treturn items\n      AND \t\t\treturn items\n      DUP3 \t\t\treturn items\n      ADD \t\t\treturn items\n      SWAP2 \t\t\treturn items\n    tag 51\t\t\treturn items\n      JUMPDEST \t\t\treturn items\n      POP \t\t\treturn items\n      POP \t\t\treturn items\n      POP \t\t\treturn items\n      POP \t\t\treturn items\n      POP \t\t\treturn items\n      DUP2 \t\t\treturn items\n      MSTORE \t\t\treturn items\n      PUSH 20\t\t\treturn items\n      ADD \t\t\treturn items\n      PUSH 5\t\t\treturn items\n      DUP3 \t\t\treturn items\n      ADD \t\t\treturn items\n      DUP1 \t\t\treturn items\n      SLOAD \t\t\treturn items\n      PUSH [tag] 54\t\t\treturn items\n      SWAP1 \t\t\treturn items\n      PUSH [tag] 44\t\t\treturn items\n      JUMP \t\t\treturn items\n    tag 54\t\t\treturn items\n      JUMPDEST \t\t\treturn items\n      DUP1 \t\t\treturn items\n      PUSH 1F\t\t\treturn items\n      ADD \t\t\treturn items\n      PUSH 20\t\t\treturn items\n      DUP1 \t\t\treturn items\n      SWAP2 \t\t\treturn items\n      DIV \t\t\treturn items\n      MUL \t\t\treturn items\n      PUSH 20\t\t\treturn items\n      ADD \t\t\treturn items\n      PUSH 40\t\t\treturn items\n      MLOAD \t\t\treturn items\n      SWAP1 \t\t\treturn items\n      DUP2 \t\t\treturn items\n      ADD \t\t\treturn items\n      PUSH 40\t\t\treturn items\n      MSTORE \t\t\treturn items\n      DUP1 \t\t\treturn items\n      SWAP3 \t\t\treturn items\n      SWAP2 \t\t\treturn items\n      SWAP1 \t\t\treturn items\n      DUP2 \t\t\treturn items\n      DUP2 \t\t\treturn items\n      MSTORE \t\t\treturn items\n      PUSH 20\t\t\treturn items\n      ADD \t\t\treturn items\n      DUP3 \t\t\treturn items\n      DUP1 \t\t\treturn items\n      SLOAD \t\t\treturn items\n      PUSH [tag] 55\t\t\treturn items\n      SWAP1 \t\t\treturn items\n      PUSH [tag] 44\t\t\treturn items\n      JUMP \t\t\treturn items\n    tag 55\t\t\treturn items\n      JUMPDEST \t\t\treturn items\n      DUP1 \t\t\treturn items\n      ISZERO \t\t\treturn items\n      PUSH [tag] 56\t\t\treturn items\n      JUMPI \t\t\treturn items\n      DUP1 \t\t\treturn items\n      PUSH 1F\t\t\treturn items\n      LT \t\t\treturn items\n      PUSH [tag] 57\t\t\treturn items\n      JUMPI \t\t\treturn items\n      PUSH 100\t\t\treturn items\n      DUP1 \t\t\treturn items\n      DUP4 \t\t\treturn items\n      SLOAD \t\t\treturn items\n      DIV \t\t\treturn items\n      MUL \t\t\treturn items\n      DUP4 \t\t\treturn items\n      MSTORE \t\t\treturn items\n      SWAP2 \t\t\treturn items\n      PUSH 20\t\t\treturn items\n      ADD \t\t\treturn items\n      SWAP2 \t\t\treturn items\n      PUSH [tag] 56\t\t\treturn items\n      JUMP \t\t\treturn items\n    tag 57\t\t\treturn items\n      JUMPDEST \t\t\treturn items\n      DUP3 \t\t\treturn items\n      ADD \t\t\treturn items\n      SWAP2 \t\t\treturn items\n      SWAP1 \t\t\treturn items\n      PUSH 0\t\t\treturn items\n      MSTORE \t\t\treturn items\n      PUSH 20\t\t\treturn items\n      PUSH 0\t\t\treturn items\n      KECCAK256 \t\t\treturn items\n      SWAP1 \t\t\treturn items\n    tag 58\t\t\treturn items\n      JUMPDEST \t\t\treturn items\n      DUP2 \t\t\treturn items\n      SLOAD \t\t\treturn items\n      DUP2 \t\t\treturn items\n      MSTORE \t\t\treturn items\n      SWAP1 \t\t\treturn items\n      PUSH 1\t\t\treturn items\n      ADD \t\t\treturn items\n      SWAP1 \t\t\treturn items\n      PUSH 20\t\t\treturn items\n      ADD \t\t\treturn items\n      DUP1 \t\t\treturn items\n      DUP4 \t\t\treturn items\n      GT \t\t\treturn items\n      PUSH [tag] 58\t\t\treturn items\n      JUMPI \t\t\treturn items\n      DUP3 \t\t\treturn items\n      SWAP1 \t\t\treturn items\n      SUB \t\t\treturn items\n      PUSH 1F\t\t\treturn items\n      AND \t\t\treturn items\n      DUP3 \t\t\treturn items\n      ADD \t\t\treturn items\n      SWAP2 \t\t\treturn items\n    tag 56\t\t\treturn items\n      JUMPDEST \t\t\treturn items\n      POP \t\t\treturn items\n      POP \t\t\treturn items\n      POP \t\t\treturn items\n      POP \t\t\treturn items\n      POP \t\t\treturn items\n      DUP2 \t\t\treturn items\n      MSTORE \t\t\treturn items\n      PUSH 20\t\t\treturn items\n      ADD \t\t\treturn items\n      PUSH 6\t\t\treturn items\n      DUP3 \t\t\treturn items\n      ADD \t\t\treturn items\n      SLOAD \t\t\treturn items\n      DUP2 \t\t\treturn items\n      MSTORE \t\t\treturn items\n      PUSH 20\t\t\treturn items\n      ADD \t\t\treturn items\n      PUSH 7\t\t\treturn items\n      DUP3 \t\t\treturn items\n      ADD \t\t\treturn items\n      PUSH 0\t\t\treturn items\n      SWAP1 \t\t\treturn items\n      SLOAD \t\t\treturn items\n      SWAP1 \t\t\treturn items\n      PUSH 100\t\t\treturn items\n      EXP \t\t\treturn items\n      SWAP1 \t\t\treturn items\n      DIV \t\t\treturn items\n      PUSH FF\t\t\treturn items\n      AND \t\t\treturn items\n      ISZERO \t\t\treturn items\n      ISZERO \t\t\treturn items\n      ISZERO \t\t\treturn items\n      ISZERO \t\t\treturn items\n      DUP2 \t\t\treturn items\n      MSTORE \t\t\treturn items\n      PUSH 20\t\t\treturn items\n      ADD \t\t\treturn items\n      PUSH 8\t\t\treturn items\n      DUP3 \t\t\treturn items\n      ADD \t\t\treturn items\n      SLOAD \t\t\treturn items\n      DUP2 \t\t\treturn items\n      MSTORE \t\t\treturn items\n      POP \t\t\treturn items\n      POP \t\t\treturn items\n      DUP2 \t\t\treturn items\n      MSTORE \t\t\treturn items\n      PUSH 20\t\t\treturn items\n      ADD \t\t\treturn items\n      SWAP1 \t\t\treturn items\n      PUSH 1\t\t\treturn items\n      ADD \t\t\treturn items\n      SWAP1 \t\t\treturn items\n      PUSH [tag] 40\t\t\treturn items\n      JUMP \t\t\treturn items\n    tag 41\t\t\treturn items\n      JUMPDEST \t\t\treturn items\n      POP \t\t\treturn items\n      POP \t\t\treturn items\n      POP \t\t\treturn items\n      POP \t\t\treturn items\n      SWAP1 \t\t\treturn items\n      POP \t\t\treturn items\n      SWAP1 \t\t\tfunction getAllItems() public ...\n      JUMP \t\t\tfunction getAllItems() public ...\n    tag 15\t\t\tuint public itemCount = 0\n      JUMPDEST \t\t\tuint public itemCount = 0\n      PUSH 1\t\t\tuint public itemCount = 0\n      SLOAD \t\t\tuint public itemCount = 0\n      DUP2 \t\t\tuint public itemCount = 0\n      JUMP \t\t\tuint public itemCount = 0\n    tag 22\t\t\tItem[] public items\n      JUMPDEST \t\t\tItem[] public items\n      PUSH 0\t\t\tItem[] public items\n      DUP2 \t\t\tItem[] public items\n      DUP2 \t\t\tItem[] public items\n      SLOAD \t\t\tItem[] public items\n      DUP2 \t\t\tItem[] public items\n      LT \t\t\tItem[] public items\n      PUSH [tag] 59\t\t\tItem[] public items\n      JUMPI \t\t\tItem[] public items\n      PUSH 0\t\t\tItem[] public items\n      DUP1 \t\t\tItem[] public items\n      REVERT \t\t\tItem[] public items\n    tag 59\t\t\tItem[] public items\n      JUMPDEST \t\t\tItem[] public items\n      SWAP1 \t\t\tItem[] public items\n      PUSH 0\t\t\tItem[] public items\n      MSTORE \t\t\tItem[] public items\n      PUSH 20\t\t\tItem[] public items\n      PUSH 0\t\t\tItem[] public items\n      KECCAK256 \t\t\tItem[] public items\n      SWAP1 \t\t\tItem[] public items\n      PUSH 9\t\t\tItem[] public items\n      MUL \t\t\tItem[] public items\n      ADD \t\t\tItem[] public items\n      PUSH 0\t\t\tItem[] public items\n      SWAP2 \t\t\tItem[] public items\n      POP \t\t\tItem[] public items\n      SWAP1 \t\t\tItem[] public items\n      POP \t\t\tItem[] public items\n      DUP1 \t\t\tItem[] public items\n      PUSH 0\t\t\tItem[] public items\n      ADD \t\t\tItem[] public items\n      SLOAD \t\t\tItem[] public items\n      SWAP1 \t\t\tItem[] public items\n      DUP1 \t\t\tItem[] public items\n      PUSH 1\t\t\tItem[] public items\n      ADD \t\t\tItem[] public items\n      PUSH 0\t\t\tItem[] public items\n      SWAP1 \t\t\tItem[] public items\n      SLOAD \t\t\tItem[] public items\n      SWAP1 \t\t\tItem[] public items\n      PUSH 100\t\t\tItem[] public items\n      EXP \t\t\tItem[] public items\n      SWAP1 \t\t\tItem[] public items\n      DIV \t\t\tItem[] public items\n      PUSH FFFFFFFFFFFFFFFFFFFFFFFFFFFFFFFFFFFFFFFF\t\t\tItem[] public items\n      AND \t\t\tItem[] public items\n      SWAP1 \t\t\tItem[] public items\n      DUP1 \t\t\tItem[] public items\n      PUSH 2\t\t\tItem[] public items\n      ADD \t\t\tItem[] public items\n      PUSH 0\t\t\tItem[] public items\n      SWAP1 \t\t\tItem[] public items\n      SLOAD \t\t\tItem[] public items\n      SWAP1 \t\t\tItem[] public items\n      PUSH 100\t\t\tItem[] public items\n      EXP \t\t\tItem[] public items\n      SWAP1 \t\t\tItem[] public items\n      DIV \t\t\tItem[] public items\n      PUSH FFFFFFFFFFFFFFFFFFFFFFFFFFFFFFFFFFFFFFFF\t\t\tItem[] public items\n      AND \t\t\tItem[] public items\n      SWAP1 \t\t\tItem[] public items\n      DUP1 \t\t\tItem[] public items\n      PUSH 3\t\t\tItem[] public items\n      ADD \t\t\tItem[] public items\n      DUP1 \t\t\tItem[] public items\n      SLOAD \t\t\tItem[] public items\n      PUSH [tag] 61\t\t\tItem[] public items\n      SWAP1 \t\t\tItem[] public items\n      PUSH [tag] 44\t\t\tItem[] public items\n      JUMP \t\t\tItem[] public items\n    tag 61\t\t\tItem[] public items\n      JUMPDEST \t\t\tItem[] public items\n      DUP1 \t\t\tItem[] public items\n      PUSH 1F\t\t\tItem[] public items\n      ADD \t\t\tItem[] public items\n      PUSH 20\t\t\tItem[] public items\n      DUP1 \t\t\tItem[] public items\n      SWAP2 \t\t\tItem[] public items\n      DIV \t\t\tItem[] public items\n      MUL \t\t\tItem[] public items\n      PUSH 20\t\t\tItem[] public items\n      ADD \t\t\tItem[] public items\n      PUSH 40\t\t\tItem[] public items\n      MLOAD \t\t\tItem[] public items\n      SWAP1 \t\t\tItem[] public items\n      DUP2 \t\t\tItem[] public items\n      ADD \t\t\tItem[] public items\n      PUSH 40\t\t\tItem[] public items\n      MSTORE \t\t\tItem[] public items\n      DUP1 \t\t\tItem[] public items\n      SWAP3 \t\t\tItem[] public items\n      SWAP2 \t\t\tItem[] public items\n      SWAP1 \t\t\tItem[] public items\n      DUP2 \t\t\tItem[] public items\n      DUP2 \t\t\tItem[] public items\n      MSTORE \t\t\tItem[] public items\n      PUSH 20\t\t\tItem[] public items\n      ADD \t\t\tItem[] public items\n      DUP3 \t\t\tItem[] public items\n      DUP1 \t\t\tItem[] public items\n      SLOAD \t\t\tItem[] public items\n      PUSH [tag] 62\t\t\tItem[] public items\n      SWAP1 \t\t\tItem[] public items\n      PUSH [tag] 44\t\t\tItem[] public items\n      JUMP \t\t\tItem[] public items\n    tag 62\t\t\tItem[] public items\n      JUMPDEST \t\t\tItem[] public items\n      DUP1 \t\t\tItem[] public items\n      ISZERO \t\t\tItem[] public items\n      PUSH [tag] 63\t\t\tItem[] public items\n      JUMPI \t\t\tItem[] public items\n      DUP1 \t\t\tItem[] public items\n      PUSH 1F\t\t\tItem[] public items\n      LT \t\t\tItem[] public items\n      PUSH [tag] 64\t\t\tItem[] public items\n      JUMPI \t\t\tItem[] public items\n      PUSH 100\t\t\tItem[] public items\n      DUP1 \t\t\tItem[] public items\n      DUP4 \t\t\tItem[] public items\n      SLOAD \t\t\tItem[] public items\n      DIV \t\t\tItem[] public items\n      MUL \t\t\tItem[] public items\n      DUP4 \t\t\tItem[] public items\n      MSTORE \t\t\tItem[] public items\n      SWAP2 \t\t\tItem[] public items\n      PUSH 20\t\t\tItem[] public items\n      ADD \t\t\tItem[] public items\n      SWAP2 \t\t\tItem[] public items\n      PUSH [tag] 63\t\t\tItem[] public items\n      JUMP \t\t\tItem[] public items\n    tag 64\t\t\tItem[] public items\n      JUMPDEST \t\t\tItem[] public items\n      DUP3 \t\t\tItem[] public items\n      ADD \t\t\tItem[] public items\n      SWAP2 \t\t\tItem[] public items\n      SWAP1 \t\t\tItem[] public items\n      PUSH 0\t\t\tItem[] public items\n      MSTORE \t\t\tItem[] public items\n      PUSH 20\t\t\tItem[] public items\n      PUSH 0\t\t\tItem[] public items\n      KECCAK256 \t\t\tItem[] public items\n      SWAP1 \t\t\tItem[] public items\n    tag 65\t\t\tItem[] public items\n      JUMPDEST \t\t\tItem[] public items\n      DUP2 \t\t\tItem[] public items\n      SLOAD \t\t\tItem[] public items\n      DUP2 \t\t\tItem[] public items\n      MSTORE \t\t\tItem[] public items\n      SWAP1 \t\t\tItem[] public items\n      PUSH 1\t\t\tItem[] public items\n      ADD \t\t\tItem[] public items\n      SWAP1 \t\t\tItem[] public items\n      PUSH 20\t\t\tItem[] public items\n      ADD \t\t\tItem[] public items\n      DUP1 \t\t\tItem[] public items\n      DUP4 \t\t\tItem[] public items\n      GT \t\t\tItem[] public items\n      PUSH [tag] 65\t\t\tItem[] public items\n      JUMPI \t\t\tItem[] public items\n      DUP3 \t\t\tItem[] public items\n      SWAP1 \t\t\tItem[] public items\n      SUB \t\t\tItem[] public items\n      PUSH 1F\t\t\tItem[] public items\n      AND \t\t\tItem[] public items\n      DUP3 \t\t\tItem[] public items\n      ADD \t\t\tItem[] public items\n      SWAP2 \t\t\tItem[] public items\n    tag 63\t\t\tItem[] public items\n      JUMPDEST \t\t\tItem[] public items\n      POP \t\t\tItem[] public items\n      POP \t\t\tItem[] public items\n      POP \t\t\tItem[] public items\n      POP \t\t\tItem[] public items\n      POP \t\t\tItem[] public items\n      SWAP1 \t\t\tItem[] public items\n      DUP1 \t\t\tItem[] public items\n      PUSH 4\t\t\tItem[] public items\n      ADD \t\t\tItem[] public items\n      DUP1 \t\t\tItem[] public items\n      SLOAD \t\t\tItem[] public items\n      PUSH [tag] 66\t\t\tItem[] public items\n      SWAP1 \t\t\tItem[] public items\n      PUSH [tag] 44\t\t\tItem[] public items\n      JUMP \t\t\tItem[] public items\n    tag 66\t\t\tItem[] public items\n      JUMPDEST \t\t\tItem[] public items\n      DUP1 \t\t\tItem[] public items\n      PUSH 1F\t\t\tItem[] public items\n      ADD \t\t\tItem[] public items\n      PUSH 20\t\t\tItem[] public items\n      DUP1 \t\t\tItem[] public items\n      SWAP2 \t\t\tItem[] public items\n      DIV \t\t\tItem[] public items\n      MUL \t\t\tItem[] public items\n      PUSH 20\t\t\tItem[] public items\n      ADD \t\t\tItem[] public items\n      PUSH 40\t\t\tItem[] public items\n      MLOAD \t\t\tItem[] public items\n      SWAP1 \t\t\tItem[] public items\n      DUP2 \t\t\tItem[] public items\n      ADD \t\t\tItem[] public items\n      PUSH 40\t\t\tItem[] public items\n      MSTORE \t\t\tItem[] public items\n      DUP1 \t\t\tItem[] public items\n      SWAP3 \t\t\tItem[] public items\n      SWAP2 \t\t\tItem[] public items\n      SWAP1 \t\t\tItem[] public items\n      DUP2 \t\t\tItem[] public items\n      DUP2 \t\t\tItem[] public items\n      MSTORE \t\t\tItem[] public items\n      PUSH 20\t\t\tItem[] public items\n      ADD \t\t\tItem[] public items\n      DUP3 \t\t\tItem[] public items\n      DUP1 \t\t\tItem[] public items\n      SLOAD \t\t\tItem[] public items\n      PUSH [tag] 67\t\t\tItem[] public items\n      SWAP1 \t\t\tItem[] public items\n      PUSH [tag] 44\t\t\tItem[] public items\n      JUMP \t\t\tItem[] public items\n    tag 67\t\t\tItem[] public items\n      JUMPDEST \t\t\tItem[] public items\n      DUP1 \t\t\tItem[] public items\n      ISZERO \t\t\tItem[] public items\n      PUSH [tag] 68\t\t\tItem[] public items\n      JUMPI \t\t\tItem[] public items\n      DUP1 \t\t\tItem[] public items\n      PUSH 1F\t\t\tItem[] public items\n      LT \t\t\tItem[] public items\n      PUSH [tag] 69\t\t\tItem[] public items\n      JUMPI \t\t\tItem[] public items\n      PUSH 100\t\t\tItem[] public items\n      DUP1 \t\t\tItem[] public items\n      DUP4 \t\t\tItem[] public items\n      SLOAD \t\t\tItem[] public items\n      DIV \t\t\tItem[] public items\n      MUL \t\t\tItem[] public items\n      DUP4 \t\t\tItem[] public items\n      MSTORE \t\t\tItem[] public items\n      SWAP2 \t\t\tItem[] public items\n      PUSH 20\t\t\tItem[] public items\n      ADD \t\t\tItem[] public items\n      SWAP2 \t\t\tItem[] public items\n      PUSH [tag] 68\t\t\tItem[] public items\n      JUMP \t\t\tItem[] public items\n    tag 69\t\t\tItem[] public items\n      JUMPDEST \t\t\tItem[] public items\n      DUP3 \t\t\tItem[] public items\n      ADD \t\t\tItem[] public items\n      SWAP2 \t\t\tItem[] public items\n      SWAP1 \t\t\tItem[] public items\n      PUSH 0\t\t\tItem[] public items\n      MSTORE \t\t\tItem[] public items\n      PUSH 20\t\t\tItem[] public items\n      PUSH 0\t\t\tItem[] public items\n      KECCAK256 \t\t\tItem[] public items\n      SWAP1 \t\t\tItem[] public items\n    tag 70\t\t\tItem[] public items\n      JUMPDEST \t\t\tItem[] public items\n      DUP2 \t\t\tItem[] public items\n      SLOAD \t\t\tItem[] public items\n      DUP2 \t\t\tItem[] public items\n      MSTORE \t\t\tItem[] public items\n      SWAP1 \t\t\tItem[] public items\n      PUSH 1\t\t\tItem[] public items\n      ADD \t\t\tItem[] public items\n      SWAP1 \t\t\tItem[] public items\n      PUSH 20\t\t\tItem[] public items\n      ADD \t\t\tItem[] public items\n      DUP1 \t\t\tItem[] public items\n      DUP4 \t\t\tItem[] public items\n      GT \t\t\tItem[] public items\n      PUSH [tag] 70\t\t\tItem[] public items\n      JUMPI \t\t\tItem[] public items\n      DUP3 \t\t\tItem[] public items\n      SWAP1 \t\t\tItem[] public items\n      SUB \t\t\tItem[] public items\n      PUSH 1F\t\t\tItem[] public items\n      AND \t\t\tItem[] public items\n      DUP3 \t\t\tItem[] public items\n      ADD \t\t\tItem[] public items\n      SWAP2 \t\t\tItem[] public items\n    tag 68\t\t\tItem[] public items\n      JUMPDEST \t\t\tItem[] public items\n      POP \t\t\tItem[] public items\n      POP \t\t\tItem[] public items\n      POP \t\t\tItem[] public items\n      POP \t\t\tItem[] public items\n      POP \t\t\tItem[] public items\n      SWAP1 \t\t\tItem[] public items\n      DUP1 \t\t\tItem[] public items\n      PUSH 5\t\t\tItem[] public items\n      ADD \t\t\tItem[] public items\n      DUP1 \t\t\tItem[] public items\n      SLOAD \t\t\tItem[] public items\n      PUSH [tag] 71\t\t\tItem[] public items\n      SWAP1 \t\t\tItem[] public items\n      PUSH [tag] 44\t\t\tItem[] public items\n      JUMP \t\t\tItem[] public items\n    tag 71\t\t\tItem[] public items\n      JUMPDEST \t\t\tItem[] public items\n      DUP1 \t\t\tItem[] public items\n      PUSH 1F\t\t\tItem[] public items\n      ADD \t\t\tItem[] public items\n      PUSH 20\t\t\tItem[] public items\n      DUP1 \t\t\tItem[] public items\n      SWAP2 \t\t\tItem[] public items\n      DIV \t\t\tItem[] public items\n      MUL \t\t\tItem[] public items\n      PUSH 20\t\t\tItem[] public items\n      ADD \t\t\tItem[] public items\n      PUSH 40\t\t\tItem[] public items\n      MLOAD \t\t\tItem[] public items\n      SWAP1 \t\t\tItem[] public items\n      DUP2 \t\t\tItem[] public items\n      ADD \t\t\tItem[] public items\n      PUSH 40\t\t\tItem[] public items\n      MSTORE \t\t\tItem[] public items\n      DUP1 \t\t\tItem[] public items\n      SWAP3 \t\t\tItem[] public items\n      SWAP2 \t\t\tItem[] public items\n      SWAP1 \t\t\tItem[] public items\n      DUP2 \t\t\tItem[] public items\n      DUP2 \t\t\tItem[] public items\n      MSTORE \t\t\tItem[] public items\n      PUSH 20\t\t\tItem[] public items\n      ADD \t\t\tItem[] public items\n      DUP3 \t\t\tItem[] public items\n      DUP1 \t\t\tItem[] public items\n      SLOAD \t\t\tItem[] public items\n      PUSH [tag] 72\t\t\tItem[] public items\n      SWAP1 \t\t\tItem[] public items\n      PUSH [tag] 44\t\t\tItem[] public items\n      JUMP \t\t\tItem[] public items\n    tag 72\t\t\tItem[] public items\n      JUMPDEST \t\t\tItem[] public items\n      DUP1 \t\t\tItem[] public items\n      ISZERO \t\t\tItem[] public items\n      PUSH [tag] 73\t\t\tItem[] public items\n      JUMPI \t\t\tItem[] public items\n      DUP1 \t\t\tItem[] public items\n      PUSH 1F\t\t\tItem[] public items\n      LT \t\t\tItem[] public items\n      PUSH [tag] 74\t\t\tItem[] public items\n      JUMPI \t\t\tItem[] public items\n      PUSH 100\t\t\tItem[] public items\n      DUP1 \t\t\tItem[] public items\n      DUP4 \t\t\tItem[] public items\n      SLOAD \t\t\tItem[] public items\n      DIV \t\t\tItem[] public items\n      MUL \t\t\tItem[] public items\n      DUP4 \t\t\tItem[] public items\n      MSTORE \t\t\tItem[] public items\n      SWAP2 \t\t\tItem[] public items\n      PUSH 20\t\t\tItem[] public items\n      ADD \t\t\tItem[] public items\n      SWAP2 \t\t\tItem[] public items\n      PUSH [tag] 73\t\t\tItem[] public items\n      JUMP \t\t\tItem[] public items\n    tag 74\t\t\tItem[] public items\n      JUMPDEST \t\t\tItem[] public items\n      DUP3 \t\t\tItem[] public items\n      ADD \t\t\tItem[] public items\n      SWAP2 \t\t\tItem[] public items\n      SWAP1 \t\t\tItem[] public items\n      PUSH 0\t\t\tItem[] public items\n      MSTORE \t\t\tItem[] public items\n      PUSH 20\t\t\tItem[] public items\n      PUSH 0\t\t\tItem[] public items\n      KECCAK256 \t\t\tItem[] public items\n      SWAP1 \t\t\tItem[] public items\n    tag 75\t\t\tItem[] public items\n      JUMPDEST \t\t\tItem[] public items\n      DUP2 \t\t\tItem[] public items\n      SLOAD \t\t\tItem[] public items\n      DUP2 \t\t\tItem[] public items\n      MSTORE \t\t\tItem[] public items\n      SWAP1 \t\t\tItem[] public items\n      PUSH 1\t\t\tItem[] public items\n      ADD \t\t\tItem[] public items\n      SWAP1 \t\t\tItem[] public items\n      PUSH 20\t\t\tItem[] public items\n      ADD \t\t\tItem[] public items\n      DUP1 \t\t\tItem[] public items\n      DUP4 \t\t\tItem[] public items\n      GT \t\t\tItem[] public items\n      PUSH [tag] 75\t\t\tItem[] public items\n      JUMPI \t\t\tItem[] public items\n      DUP3 \t\t\tItem[] public items\n      SWAP1 \t\t\tItem[] public items\n      SUB \t\t\tItem[] public items\n      PUSH 1F\t\t\tItem[] public items\n      AND \t\t\tItem[] public items\n      DUP3 \t\t\tItem[] public items\n      ADD \t\t\tItem[] public items\n      SWAP2 \t\t\tItem[] public items\n    tag 73\t\t\tItem[] public items\n      JUMPDEST \t\t\tItem[] public items\n      POP \t\t\tItem[] public items\n      POP \t\t\tItem[] public items\n      POP \t\t\tItem[] public items\n      POP \t\t\tItem[] public items\n      POP \t\t\tItem[] public items\n      SWAP1 \t\t\tItem[] public items\n      DUP1 \t\t\tItem[] public items\n      PUSH 6\t\t\tItem[] public items\n      ADD \t\t\tItem[] public items\n      SLOAD \t\t\tItem[] public items\n      SWAP1 \t\t\tItem[] public items\n      DUP1 \t\t\tItem[] public items\n      PUSH 7\t\t\tItem[] public items\n      ADD \t\t\tItem[] public items\n      PUSH 0\t\t\tItem[] public items\n      SWAP1 \t\t\tItem[] public items\n      SLOAD \t\t\tItem[] public items\n      SWAP1 \t\t\tItem[] public items\n      PUSH 100\t\t\tItem[] public items\n      EXP \t\t\tItem[] public items\n      SWAP1 \t\t\tItem[] public items\n      DIV \t\t\tItem[] public items\n      PUSH FF\t\t\tItem[] public items\n      AND \t\t\tItem[] public items\n      SWAP1 \t\t\tItem[] public items\n      DUP1 \t\t\tItem[] public items\n      PUSH 8\t\t\tItem[] public items\n      ADD \t\t\tItem[] public items\n      SLOAD \t\t\tItem[] public items\n      SWAP1 \t\t\tItem[] public items\n      POP \t\t\tItem[] public items\n      DUP10 \t\t\tItem[] public items\n      JUMP \t\t\tItem[] public items\n    tag 28\t\t\tfunction getItemById(uint _id)...\n      JUMPDEST \t\t\tfunction getItemById(uint _id)...\n      PUSH [tag] 76\t\t\tItem memory\n      PUSH [tag] 77\t\t\tItem memory\n      JUMP \t\t\tItem memory\n    tag 76\t\t\tItem memory\n      JUMPDEST \t\t\tItem memory\n      PUSH 1\t\t\titemCount\n      SLOAD \t\t\titemCount\n      DUP3 \t\t\t_id\n      LT \t\t\t_id < itemCount\n      PUSH [tag] 79\t\t\trequire(_id < itemCount, \"Item...\n      JUMPI \t\t\trequire(_id < itemCount, \"Item...\n      PUSH 40\t\t\trequire(_id < itemCount, \"Item...\n      MLOAD \t\t\trequire(_id < itemCount, \"Item...\n      PUSH 8C379A000000000000000000000000000000000000000000000000000000000\t\t\trequire(_id < itemCount, \"Item...\n      DUP2 \t\t\trequire(_id < itemCount, \"Item...\n      MSTORE \t\t\trequire(_id < itemCount, \"Item...\n      PUSH 4\t\t\trequire(_id < itemCount, \"Item...\n      ADD \t\t\trequire(_id < itemCount, \"Item...\n      PUSH [tag] 80\t\t\trequire(_id < itemCount, \"Item...\n      SWAP1 \t\t\trequire(_id < itemCount, \"Item...\n      PUSH [tag] 81\t\t\trequire(_id < itemCount, \"Item...\n      JUMP \t\t\trequire(_id < itemCount, \"Item...\n    tag 80\t\t\trequire(_id < itemCount, \"Item...\n      JUMPDEST \t\t\trequire(_id < itemCount, \"Item...\n      PUSH 40\t\t\trequire(_id < itemCount, \"Item...\n      MLOAD \t\t\trequire(_id < itemCount, \"Item...\n      DUP1 \t\t\trequire(_id < itemCount, \"Item...\n      SWAP2 \t\t\trequire(_id < itemCount, \"Item...\n      SUB \t\t\trequire(_id < itemCount, \"Item...\n      SWAP1 \t\t\trequire(_id < itemCount, \"Item...\n      REVERT \t\t\trequire(_id < itemCount, \"Item...\n    tag 79\t\t\trequire(_id < itemCount, \"Item...\n      JUMPDEST \t\t\trequire(_id < itemCount, \"Item...\n      PUSH 0\t\t\titems\n      DUP3 \t\t\t_id\n      DUP2 \t\t\titems[_id]\n      SLOAD \t\t\titems[_id]\n      DUP2 \t\t\titems[_id]\n      LT \t\t\titems[_id]\n      PUSH [tag] 82\t\t\titems[_id]\n      JUMPI \t\t\titems[_id]\n      PUSH [tag] 83\t\t\titems[_id]\n      PUSH [tag] 84\t\t\titems[_id]\n      JUMP \t\t\titems[_id]\n    tag 83\t\t\titems[_id]\n      JUMPDEST \t\t\titems[_id]\n    tag 82\t\t\titems[_id]\n      JUMPDEST \t\t\titems[_id]\n      SWAP1 \t\t\titems[_id]\n      PUSH 0\t\t\titems[_id]\n      MSTORE \t\t\titems[_id]\n      PUSH 20\t\t\titems[_id]\n      PUSH 0\t\t\titems[_id]\n      KECCAK256 \t\t\titems[_id]\n      SWAP1 \t\t\titems[_id]\n      PUSH 9\t\t\titems[_id]\n      MUL \t\t\titems[_id]\n      ADD \t\t\titems[_id]\n      PUSH 40\t\t\treturn items[_id]\n      MLOAD \t\t\treturn items[_id]\n      DUP1 \t\t\treturn items[_id]\n      PUSH 120\t\t\treturn items[_id]\n      ADD \t\t\treturn items[_id]\n      PUSH 40\t\t\treturn items[_id]\n      MSTORE \t\t\treturn items[_id]\n      SWAP1 \t\t\treturn items[_id]\n      DUP2 \t\t\treturn items[_id]\n      PUSH 0\t\t\treturn items[_id]\n      DUP3 \t\t\treturn items[_id]\n      ADD \t\t\treturn items[_id]\n      SLOAD \t\t\treturn items[_id]\n      DUP2 \t\t\treturn items[_id]\n      MSTORE \t\t\treturn items[_id]\n      PUSH 20\t\t\treturn items[_id]\n      ADD \t\t\treturn items[_id]\n      PUSH 1\t\t\treturn items[_id]\n      DUP3 \t\t\treturn items[_id]\n      ADD \t\t\treturn items[_id]\n      PUSH 0\t\t\treturn items[_id]\n      SWAP1 \t\t\treturn items[_id]\n      SLOAD \t\t\treturn items[_id]\n      SWAP1 \t\t\treturn items[_id]\n      PUSH 100\t\t\treturn items[_id]\n      EXP \t\t\treturn items[_id]\n      SWAP1 \t\t\treturn items[_id]\n      DIV \t\t\treturn items[_id]\n      PUSH FFFFFFFFFFFFFFFFFFFFFFFFFFFFFFFFFFFFFFFF\t\t\treturn items[_id]\n      AND \t\t\treturn items[_id]\n      PUSH FFFFFFFFFFFFFFFFFFFFFFFFFFFFFFFFFFFFFFFF\t\t\treturn items[_id]\n      AND \t\t\treturn items[_id]\n      PUSH FFFFFFFFFFFFFFFFFFFFFFFFFFFFFFFFFFFFFFFF\t\t\treturn items[_id]\n      AND \t\t\treturn items[_id]\n      DUP2 \t\t\treturn items[_id]\n      MSTORE \t\t\treturn items[_id]\n      PUSH 20\t\t\treturn items[_id]\n      ADD \t\t\treturn items[_id]\n      PUSH 2\t\t\treturn items[_id]\n      DUP3 \t\t\treturn items[_id]\n      ADD \t\t\treturn items[_id]\n      PUSH 0\t\t\treturn items[_id]\n      SWAP1 \t\t\treturn items[_id]\n      SLOAD \t\t\treturn items[_id]\n      SWAP1 \t\t\treturn items[_id]\n      PUSH 100\t\t\treturn items[_id]\n      EXP \t\t\treturn items[_id]\n      SWAP1 \t\t\treturn items[_id]\n      DIV \t\t\treturn items[_id]\n      PUSH FFFFFFFFFFFFFFFFFFFFFFFFFFFFFFFFFFFFFFFF\t\t\treturn items[_id]\n      AND \t\t\treturn items[_id]\n      PUSH FFFFFFFFFFFFFFFFFFFFFFFFFFFFFFFFFFFFFFFF\t\t\treturn items[_id]\n      AND \t\t\treturn items[_id]\n      PUSH FFFFFFFFFFFFFFFFFFFFFFFFFFFFFFFFFFFFFFFF\t\t\treturn items[_id]\n      AND \t\t\treturn items[_id]\n      DUP2 \t\t\treturn items[_id]\n      MSTORE \t\t\treturn items[_id]\n      PUSH 20\t\t\treturn items[_id]\n      ADD \t\t\treturn items[_id]\n      PUSH 3\t\t\treturn items[_id]\n      DUP3 \t\t\treturn items[_id]\n      ADD \t\t\treturn items[_id]\n      DUP1 \t\t\treturn items[_id]\n      SLOAD \t\t\treturn items[_id]\n      PUSH [tag] 86\t\t\treturn items[_id]\n      SWAP1 \t\t\treturn items[_id]\n      PUSH [tag] 44\t\t\treturn items[_id]\n      JUMP \t\t\treturn items[_id]\n    tag 86\t\t\treturn items[_id]\n      JUMPDEST \t\t\treturn items[_id]\n      DUP1 \t\t\treturn items[_id]\n      PUSH 1F\t\t\treturn items[_id]\n      ADD \t\t\treturn items[_id]\n      PUSH 20\t\t\treturn items[_id]\n      DUP1 \t\t\treturn items[_id]\n      SWAP2 \t\t\treturn items[_id]\n      DIV \t\t\treturn items[_id]\n      MUL \t\t\treturn items[_id]\n      PUSH 20\t\t\treturn items[_id]\n      ADD \t\t\treturn items[_id]\n      PUSH 40\t\t\treturn items[_id]\n      MLOAD \t\t\treturn items[_id]\n      SWAP1 \t\t\treturn items[_id]\n      DUP2 \t\t\treturn items[_id]\n      ADD \t\t\treturn items[_id]\n      PUSH 40\t\t\treturn items[_id]\n      MSTORE \t\t\treturn items[_id]\n      DUP1 \t\t\treturn items[_id]\n      SWAP3 \t\t\treturn items[_id]\n      SWAP2 \t\t\treturn items[_id]\n      SWAP1 \t\t\treturn items[_id]\n      DUP2 \t\t\treturn items[_id]\n      DUP2 \t\t\treturn items[_id]\n      MSTORE \t\t\treturn items[_id]\n      PUSH 20\t\t\treturn items[_id]\n      ADD \t\t\treturn items[_id]\n      DUP3 \t\t\treturn items[_id]\n      DUP1 \t\t\treturn items[_id]\n      SLOAD \t\t\treturn items[_id]\n      PUSH [tag] 87\t\t\treturn items[_id]\n      SWAP1 \t\t\treturn items[_id]\n      PUSH [tag] 44\t\t\treturn items[_id]\n      JUMP \t\t\treturn items[_id]\n    tag 87\t\t\treturn items[_id]\n      JUMPDEST \t\t\treturn items[_id]\n      DUP1 \t\t\treturn items[_id]\n      ISZERO \t\t\treturn items[_id]\n      PUSH [tag] 88\t\t\treturn items[_id]\n      JUMPI \t\t\treturn items[_id]\n      DUP1 \t\t\treturn items[_id]\n      PUSH 1F\t\t\treturn items[_id]\n      LT \t\t\treturn items[_id]\n      PUSH [tag] 89\t\t\treturn items[_id]\n      JUMPI \t\t\treturn items[_id]\n      PUSH 100\t\t\treturn items[_id]\n      DUP1 \t\t\treturn items[_id]\n      DUP4 \t\t\treturn items[_id]\n      SLOAD \t\t\treturn items[_id]\n      DIV \t\t\treturn items[_id]\n      MUL \t\t\treturn items[_id]\n      DUP4 \t\t\treturn items[_id]\n      MSTORE \t\t\treturn items[_id]\n      SWAP2 \t\t\treturn items[_id]\n      PUSH 20\t\t\treturn items[_id]\n      ADD \t\t\treturn items[_id]\n      SWAP2 \t\t\treturn items[_id]\n      PUSH [tag] 88\t\t\treturn items[_id]\n      JUMP \t\t\treturn items[_id]\n    tag 89\t\t\treturn items[_id]\n      JUMPDEST \t\t\treturn items[_id]\n      DUP3 \t\t\treturn items[_id]\n      ADD \t\t\treturn items[_id]\n      SWAP2 \t\t\treturn items[_id]\n      SWAP1 \t\t\treturn items[_id]\n      PUSH 0\t\t\treturn items[_id]\n      MSTORE \t\t\treturn items[_id]\n      PUSH 20\t\t\treturn items[_id]\n      PUSH 0\t\t\treturn items[_id]\n      KECCAK256 \t\t\treturn items[_id]\n      SWAP1 \t\t\treturn items[_id]\n    tag 90\t\t\treturn items[_id]\n      JUMPDEST \t\t\treturn items[_id]\n      DUP2 \t\t\treturn items[_id]\n      SLOAD \t\t\treturn items[_id]\n      DUP2 \t\t\treturn items[_id]\n      MSTORE \t\t\treturn items[_id]\n      SWAP1 \t\t\treturn items[_id]\n      PUSH 1\t\t\treturn items[_id]\n      ADD \t\t\treturn items[_id]\n      SWAP1 \t\t\treturn items[_id]\n      PUSH 20\t\t\treturn items[_id]\n      ADD \t\t\treturn items[_id]\n      DUP1 \t\t\treturn items[_id]\n      DUP4 \t\t\treturn items[_id]\n      GT \t\t\treturn items[_id]\n      PUSH [tag] 90\t\t\treturn items[_id]\n      JUMPI \t\t\treturn items[_id]\n      DUP3 \t\t\treturn items[_id]\n      SWAP1 \t\t\treturn items[_id]\n      SUB \t\t\treturn items[_id]\n      PUSH 1F\t\t\treturn items[_id]\n      AND \t\t\treturn items[_id]\n      DUP3 \t\t\treturn items[_id]\n      ADD \t\t\treturn items[_id]\n      SWAP2 \t\t\treturn items[_id]\n    tag 88\t\t\treturn items[_id]\n      JUMPDEST \t\t\treturn items[_id]\n      POP \t\t\treturn items[_id]\n      POP \t\t\treturn items[_id]\n      POP \t\t\treturn items[_id]\n      POP \t\t\treturn items[_id]\n      POP \t\t\treturn items[_id]\n      DUP2 \t\t\treturn items[_id]\n      MSTORE \t\t\treturn items[_id]\n      PUSH 20\t\t\treturn items[_id]\n      ADD \t\t\treturn items[_id]\n      PUSH 4\t\t\treturn items[_id]\n      DUP3 \t\t\treturn items[_id]\n      ADD \t\t\treturn items[_id]\n      DUP1 \t\t\treturn items[_id]\n      SLOAD \t\t\treturn items[_id]\n      PUSH [tag] 91\t\t\treturn items[_id]\n      SWAP1 \t\t\treturn items[_id]\n      PUSH [tag] 44\t\t\treturn items[_id]\n      JUMP \t\t\treturn items[_id]\n    tag 91\t\t\treturn items[_id]\n      JUMPDEST \t\t\treturn items[_id]\n      DUP1 \t\t\treturn items[_id]\n      PUSH 1F\t\t\treturn items[_id]\n      ADD \t\t\treturn items[_id]\n      PUSH 20\t\t\treturn items[_id]\n      DUP1 \t\t\treturn items[_id]\n      SWAP2 \t\t\treturn items[_id]\n      DIV \t\t\treturn items[_id]\n      MUL \t\t\treturn items[_id]\n      PUSH 20\t\t\treturn items[_id]\n      ADD \t\t\treturn items[_id]\n      PUSH 40\t\t\treturn items[_id]\n      MLOAD \t\t\treturn items[_id]\n      SWAP1 \t\t\treturn items[_id]\n      DUP2 \t\t\treturn items[_id]\n      ADD \t\t\treturn items[_id]\n      PUSH 40\t\t\treturn items[_id]\n      MSTORE \t\t\treturn items[_id]\n      DUP1 \t\t\treturn items[_id]\n      SWAP3 \t\t\treturn items[_id]\n      SWAP2 \t\t\treturn items[_id]\n      SWAP1 \t\t\treturn items[_id]\n      DUP2 \t\t\treturn items[_id]\n      DUP2 \t\t\treturn items[_id]\n      MSTORE \t\t\treturn items[_id]\n      PUSH 20\t\t\treturn items[_id]\n      ADD \t\t\treturn items[_id]\n      DUP3 \t\t\treturn items[_id]\n      DUP1 \t\t\treturn items[_id]\n      SLOAD \t\t\treturn items[_id]\n      PUSH [tag] 92\t\t\treturn items[_id]\n      SWAP1 \t\t\treturn items[_id]\n      PUSH [tag] 44\t\t\treturn items[_id]\n      JUMP \t\t\treturn items[_id]\n    tag 92\t\t\treturn items[_id]\n      JUMPDEST \t\t\treturn items[_id]\n      DUP1 \t\t\treturn items[_id]\n      ISZERO \t\t\treturn items[_id]\n      PUSH [tag] 93\t\t\treturn items[_id]\n      JUMPI \t\t\treturn items[_id]\n      DUP1 \t\t\treturn items[_id]\n      PUSH 1F\t\t\treturn items[_id]\n      LT \t\t\treturn items[_id]\n      PUSH [tag] 94\t\t\treturn items[_id]\n      JUMPI \t\t\treturn items[_id]\n      PUSH 100\t\t\treturn items[_id]\n      DUP1 \t\t\treturn items[_id]\n      DUP4 \t\t\treturn items[_id]\n      SLOAD \t\t\treturn items[_id]\n      DIV \t\t\treturn items[_id]\n      MUL \t\t\treturn items[_id]\n      DUP4 \t\t\treturn items[_id]\n      MSTORE \t\t\treturn items[_id]\n      SWAP2 \t\t\treturn items[_id]\n      PUSH 20\t\t\treturn items[_id]\n      ADD \t\t\treturn items[_id]\n      SWAP2 \t\t\treturn items[_id]\n      PUSH [tag] 93\t\t\treturn items[_id]\n      JUMP \t\t\treturn items[_id]\n    tag 94\t\t\treturn items[_id]\n      JUMPDEST \t\t\treturn items[_id]\n      DUP3 \t\t\treturn items[_id]\n      ADD \t\t\treturn items[_id]\n      SWAP2 \t\t\treturn items[_id]\n      SWAP1 \t\t\treturn items[_id]\n      PUSH 0\t\t\treturn items[_id]\n      MSTORE \t\t\treturn items[_id]\n      PUSH 20\t\t\treturn items[_id]\n      PUSH 0\t\t\treturn items[_id]\n      KECCAK256 \t\t\treturn items[_id]\n      SWAP1 \t\t\treturn items[_id]\n    tag 95\t\t\treturn items[_id]\n      JUMPDEST \t\t\treturn items[_id]\n      DUP2 \t\t\treturn items[_id]\n      SLOAD \t\t\treturn items[_id]\n      DUP2 \t\t\treturn items[_id]\n      MSTORE \t\t\treturn items[_id]\n      SWAP1 \t\t\treturn items[_id]\n      PUSH 1\t\t\treturn items[_id]\n      ADD \t\t\treturn items[_id]\n      SWAP1 \t\t\treturn items[_id]\n      PUSH 20\t\t\treturn items[_id]\n      ADD \t\t\treturn items[_id]\n      DUP1 \t\t\treturn items[_id]\n      DUP4 \t\t\treturn items[_id]\n      GT \t\t\treturn items[_id]\n      PUSH [tag] 95\t\t\treturn items[_id]\n      JUMPI \t\t\treturn items[_id]\n      DUP3 \t\t\treturn items[_id]\n      SWAP1 \t\t\treturn items[_id]\n      SUB \t\t\treturn items[_id]\n      PUSH 1F\t\t\treturn items[_id]\n      AND \t\t\treturn items[_id]\n      DUP3 \t\t\treturn items[_id]\n      ADD \t\t\treturn items[_id]\n      SWAP2 \t\t\treturn items[_id]\n    tag 93\t\t\treturn items[_id]\n      JUMPDEST \t\t\treturn items[_id]\n      POP \t\t\treturn items[_id]\n      POP \t\t\treturn items[_id]\n      POP \t\t\treturn items[_id]\n      POP \t\t\treturn items[_id]\n      POP \t\t\treturn items[_id]\n      DUP2 \t\t\treturn items[_id]\n      MSTORE \t\t\treturn items[_id]\n      PUSH 20\t\t\treturn items[_id]\n      ADD \t\t\treturn items[_id]\n      PUSH 5\t\t\treturn items[_id]\n      DUP3 \t\t\treturn items[_id]\n      ADD \t\t\treturn items[_id]\n      DUP1 \t\t\treturn items[_id]\n      SLOAD \t\t\treturn items[_id]\n      PUSH [tag] 96\t\t\treturn items[_id]\n      SWAP1 \t\t\treturn items[_id]\n      PUSH [tag] 44\t\t\treturn items[_id]\n      JUMP \t\t\treturn items[_id]\n    tag 96\t\t\treturn items[_id]\n      JUMPDEST \t\t\treturn items[_id]\n      DUP1 \t\t\treturn items[_id]\n      PUSH 1F\t\t\treturn items[_id]\n      ADD \t\t\treturn items[_id]\n      PUSH 20\t\t\treturn items[_id]\n      DUP1 \t\t\treturn items[_id]\n      SWAP2 \t\t\treturn items[_id]\n      DIV \t\t\treturn items[_id]\n      MUL \t\t\treturn items[_id]\n      PUSH 20\t\t\treturn items[_id]\n      ADD \t\t\treturn items[_id]\n      PUSH 40\t\t\treturn items[_id]\n      MLOAD \t\t\treturn items[_id]\n      SWAP1 \t\t\treturn items[_id]\n      DUP2 \t\t\treturn items[_id]\n      ADD \t\t\treturn items[_id]\n      PUSH 40\t\t\treturn items[_id]\n      MSTORE \t\t\treturn items[_id]\n      DUP1 \t\t\treturn items[_id]\n      SWAP3 \t\t\treturn items[_id]\n      SWAP2 \t\t\treturn items[_id]\n      SWAP1 \t\t\treturn items[_id]\n      DUP2 \t\t\treturn items[_id]\n      DUP2 \t\t\treturn items[_id]\n      MSTORE \t\t\treturn items[_id]\n      PUSH 20\t\t\treturn items[_id]\n      ADD \t\t\treturn items[_id]\n      DUP3 \t\t\treturn items[_id]\n      DUP1 \t\t\treturn items[_id]\n      SLOAD \t\t\treturn items[_id]\n      PUSH [tag] 97\t\t\treturn items[_id]\n      SWAP1 \t\t\treturn items[_id]\n      PUSH [tag] 44\t\t\treturn items[_id]\n      JUMP \t\t\treturn items[_id]\n    tag 97\t\t\treturn items[_id]\n      JUMPDEST \t\t\treturn items[_id]\n      DUP1 \t\t\treturn items[_id]\n      ISZERO \t\t\treturn items[_id]\n      PUSH [tag] 98\t\t\treturn items[_id]\n      JUMPI \t\t\treturn items[_id]\n      DUP1 \t\t\treturn items[_id]\n      PUSH 1F\t\t\treturn items[_id]\n      LT \t\t\treturn items[_id]\n      PUSH [tag] 99\t\t\treturn items[_id]\n      JUMPI \t\t\treturn items[_id]\n      PUSH 100\t\t\treturn items[_id]\n      DUP1 \t\t\treturn items[_id]\n      DUP4 \t\t\treturn items[_id]\n      SLOAD \t\t\treturn items[_id]\n      DIV \t\t\treturn items[_id]\n      MUL \t\t\treturn items[_id]\n      DUP4 \t\t\treturn items[_id]\n      MSTORE \t\t\treturn items[_id]\n      SWAP2 \t\t\treturn items[_id]\n      PUSH 20\t\t\treturn items[_id]\n      ADD \t\t\treturn items[_id]\n      SWAP2 \t\t\treturn items[_id]\n      PUSH [tag] 98\t\t\treturn items[_id]\n      JUMP \t\t\treturn items[_id]\n    tag 99\t\t\treturn items[_id]\n      JUMPDEST \t\t\treturn items[_id]\n      DUP3 \t\t\treturn items[_id]\n      ADD \t\t\treturn items[_id]\n      SWAP2 \t\t\treturn items[_id]\n      SWAP1 \t\t\treturn items[_id]\n      PUSH 0\t\t\treturn items[_id]\n      MSTORE \t\t\treturn items[_id]\n      PUSH 20\t\t\treturn items[_id]\n      PUSH 0\t\t\treturn items[_id]\n      KECCAK256 \t\t\treturn items[_id]\n      SWAP1 \t\t\treturn items[_id]\n    tag 100\t\t\treturn items[_id]\n      JUMPDEST \t\t\treturn items[_id]\n      DUP2 \t\t\treturn items[_id]\n      SLOAD \t\t\treturn items[_id]\n      DUP2 \t\t\treturn items[_id]\n      MSTORE \t\t\treturn items[_id]\n      SWAP1 \t\t\treturn items[_id]\n      PUSH 1\t\t\treturn items[_id]\n      ADD \t\t\treturn items[_id]\n      SWAP1 \t\t\treturn items[_id]\n      PUSH 20\t\t\treturn items[_id]\n      ADD \t\t\treturn items[_id]\n      DUP1 \t\t\treturn items[_id]\n      DUP4 \t\t\treturn items[_id]\n      GT \t\t\treturn items[_id]\n      PUSH [tag] 100\t\t\treturn items[_id]\n      JUMPI \t\t\treturn items[_id]\n      DUP3 \t\t\treturn items[_id]\n      SWAP1 \t\t\treturn items[_id]\n      SUB \t\t\treturn items[_id]\n      PUSH 1F\t\t\treturn items[_id]\n      AND \t\t\treturn items[_id]\n      DUP3 \t\t\treturn items[_id]\n      ADD \t\t\treturn items[_id]\n      SWAP2 \t\t\treturn items[_id]\n    tag 98\t\t\treturn items[_id]\n      JUMPDEST \t\t\treturn items[_id]\n      POP \t\t\treturn items[_id]\n      POP \t\t\treturn items[_id]\n      POP \t\t\treturn items[_id]\n      POP \t\t\treturn items[_id]\n      POP \t\t\treturn items[_id]\n      DUP2 \t\t\treturn items[_id]\n      MSTORE \t\t\treturn items[_id]\n      PUSH 20\t\t\treturn items[_id]\n      ADD \t\t\treturn items[_id]\n      PUSH 6\t\t\treturn items[_id]\n      DUP3 \t\t\treturn items[_id]\n      ADD \t\t\treturn items[_id]\n      SLOAD \t\t\treturn items[_id]\n      DUP2 \t\t\treturn items[_id]\n      MSTORE \t\t\treturn items[_id]\n      PUSH 20\t\t\treturn items[_id]\n      ADD \t\t\treturn items[_id]\n      PUSH 7\t\t\treturn items[_id]\n      DUP3 \t\t\treturn items[_id]\n      ADD \t\t\treturn items[_id]\n      PUSH 0\t\t\treturn items[_id]\n      SWAP1 \t\t\treturn items[_id]\n      SLOAD \t\t\treturn items[_id]\n      SWAP1 \t\t\treturn items[_id]\n      PUSH 100\t\t\treturn items[_id]\n      EXP \t\t\treturn items[_id]\n      SWAP1 \t\t\treturn items[_id]\n      DIV \t\t\treturn items[_id]\n      PUSH FF\t\t\treturn items[_id]\n      AND \t\t\treturn items[_id]\n      ISZERO \t\t\treturn items[_id]\n      ISZERO \t\t\treturn items[_id]\n      ISZERO \t\t\treturn items[_id]\n      ISZERO \t\t\treturn items[_id]\n      DUP2 \t\t\treturn items[_id]\n      MSTORE \t\t\treturn items[_id]\n      PUSH 20\t\t\treturn items[_id]\n      ADD \t\t\treturn items[_id]\n      PUSH 8\t\t\treturn items[_id]\n      DUP3 \t\t\treturn items[_id]\n      ADD \t\t\treturn items[_id]\n      SLOAD \t\t\treturn items[_id]\n      DUP2 \t\t\treturn items[_id]\n      MSTORE \t\t\treturn items[_id]\n      POP \t\t\treturn items[_id]\n      POP \t\t\treturn items[_id]\n      SWAP1 \t\t\treturn items[_id]\n      POP \t\t\treturn items[_id]\n      SWAP2 \t\t\tfunction getItemById(uint _id)...\n      SWAP1 \t\t\tfunction getItemById(uint _id)...\n      POP \t\t\tfunction getItemById(uint _id)...\n      JUMP \t\t\tfunction getItemById(uint _id)...\n    tag 35\t\t\tfunction listItem(string memor...\n      JUMPDEST \t\t\tfunction listItem(string memor...\n      PUSH 0\t\t\t0\n      DUP2 \t\t\t_price\n      GT \t\t\t_price > 0\n      PUSH [tag] 102\t\t\trequire(_price > 0, \"Price mus...\n      JUMPI \t\t\trequire(_price > 0, \"Price mus...\n      PUSH 40\t\t\trequire(_price > 0, \"Price mus...\n      MLOAD \t\t\trequire(_price > 0, \"Price mus...\n      PUSH 8C379A000000000000000000000000000000000000000000000000000000000\t\t\trequire(_price > 0, \"Price mus...\n      DUP2 \t\t\trequire(_price > 0, \"Price mus...\n      MSTORE \t\t\trequire(_price > 0, \"Price mus...\n      PUSH 4\t\t\trequire(_price > 0, \"Price mus...\n      ADD \t\t\trequire(_price > 0, \"Price mus...\n      PUSH [tag] 103\t\t\trequire(_price > 0, \"Price mus...\n      SWAP1 \t\t\trequire(_price > 0, \"Price mus...\n      PUSH [tag] 104\t\t\trequire(_price > 0, \"Price mus...\n      JUMP \t\t\trequire(_price > 0, \"Price mus...\n    tag 103\t\t\trequire(_price > 0, \"Price mus...\n      JUMPDEST \t\t\trequire(_price > 0, \"Price mus...\n      PUSH 40\t\t\trequire(_price > 0, \"Price mus...\n      MLOAD \t\t\trequire(_price > 0, \"Price mus...\n      DUP1 \t\t\trequire(_price > 0, \"Price mus...\n      SWAP2 \t\t\trequire(_price > 0, \"Price mus...\n      SUB \t\t\trequire(_price > 0, \"Price mus...\n      SWAP1 \t\t\trequire(_price > 0, \"Price mus...\n      REVERT \t\t\trequire(_price > 0, \"Price mus...\n    tag 102\t\t\trequire(_price > 0, \"Price mus...\n      JUMPDEST \t\t\trequire(_price > 0, \"Price mus...\n      PUSH 0\t\t\titems\n      PUSH 40\t\t\tItem({\\n            id: itemCo...\n      MLOAD \t\t\tItem({\\n            id: itemCo...\n      DUP1 \t\t\tItem({\\n            id: itemCo...\n      PUSH 120\t\t\tItem({\\n            id: itemCo...\n      ADD \t\t\tItem({\\n            id: itemCo...\n      PUSH 40\t\t\tItem({\\n            id: itemCo...\n      MSTORE \t\t\tItem({\\n            id: itemCo...\n      DUP1 \t\t\tItem({\\n            id: itemCo...\n      PUSH 1\t\t\titemCount\n      SLOAD \t\t\titemCount\n      DUP2 \t\t\tItem({\\n            id: itemCo...\n      MSTORE \t\t\tItem({\\n            id: itemCo...\n      PUSH 20\t\t\tItem({\\n            id: itemCo...\n      ADD \t\t\tItem({\\n            id: itemCo...\n      CALLER \t\t\tmsg.sender\n      PUSH FFFFFFFFFFFFFFFFFFFFFFFFFFFFFFFFFFFFFFFF\t\t\tItem({\\n            id: itemCo...\n      AND \t\t\tItem({\\n            id: itemCo...\n      DUP2 \t\t\tItem({\\n            id: itemCo...\n      MSTORE \t\t\tItem({\\n            id: itemCo...\n      PUSH 20\t\t\tItem({\\n            id: itemCo...\n      ADD \t\t\tItem({\\n            id: itemCo...\n      CALLER \t\t\tmsg.sender\n      PUSH FFFFFFFFFFFFFFFFFFFFFFFFFFFFFFFFFFFFFFFF\t\t\tItem({\\n            id: itemCo...\n      AND \t\t\tItem({\\n            id: itemCo...\n      DUP2 \t\t\tItem({\\n            id: itemCo...\n      MSTORE \t\t\tItem({\\n            id: itemCo...\n      PUSH 20\t\t\tItem({\\n            id: itemCo...\n      ADD \t\t\tItem({\\n            id: itemCo...\n      DUP7 \t\t\t_title\n      DUP2 \t\t\tItem({\\n            id: itemCo...\n      MSTORE \t\t\tItem({\\n            id: itemCo...\n      PUSH 20\t\t\tItem({\\n            id: itemCo...\n      ADD \t\t\tItem({\\n            id: itemCo...\n      DUP6 \t\t\t_description\n      DUP2 \t\t\tItem({\\n            id: itemCo...\n      MSTORE \t\t\tItem({\\n            id: itemCo...\n      PUSH 20\t\t\tItem({\\n            id: itemCo...\n      ADD \t\t\tItem({\\n            id: itemCo...\n      DUP5 \t\t\t_imageHash\n      DUP2 \t\t\tItem({\\n            id: itemCo...\n      MSTORE \t\t\tItem({\\n            id: itemCo...\n      PUSH 20\t\t\tItem({\\n            id: itemCo...\n      ADD \t\t\tItem({\\n            id: itemCo...\n      DUP4 \t\t\t_price\n      DUP2 \t\t\tItem({\\n            id: itemCo...\n      MSTORE \t\t\tItem({\\n            id: itemCo...\n      PUSH 20\t\t\tItem({\\n            id: itemCo...\n      ADD \t\t\tItem({\\n            id: itemCo...\n      PUSH 0\t\t\tfalse\n      ISZERO \t\t\tItem({\\n            id: itemCo...\n      ISZERO \t\t\tItem({\\n            id: itemCo...\n      DUP2 \t\t\tItem({\\n            id: itemCo...\n      MSTORE \t\t\tItem({\\n            id: itemCo...\n      PUSH 20\t\t\tItem({\\n            id: itemCo...\n      ADD \t\t\tItem({\\n            id: itemCo...\n      PUSH 0\t\t\t0\n      DUP1 \t\t\tItem({\\n            id: itemCo...\n      SHL \t\t\tItem({\\n            id: itemCo...\n      DUP2 \t\t\tItem({\\n            id: itemCo...\n      MSTORE \t\t\tItem({\\n            id: itemCo...\n      POP \t\t\tItem({\\n            id: itemCo...\n      SWAP1 \t\t\titems.push(Item({\\n           ...\n      DUP1 \t\t\titems.push(Item({\\n           ...\n      PUSH 1\t\t\titems.push(Item({\\n           ...\n      DUP2 \t\t\titems.push(Item({\\n           ...\n      SLOAD \t\t\titems.push(Item({\\n           ...\n      ADD \t\t\titems.push(Item({\\n           ...\n      DUP1 \t\t\titems.push(Item({\\n           ...\n      DUP3 \t\t\titems.push(Item({\\n           ...\n      SSTORE \t\t\titems.push(Item({\\n           ...\n      DUP1 \t\t\titems.push(Item({\\n           ...\n      SWAP2 \t\t\titems.push(Item({\\n           ...\n      POP \t\t\titems.push(Item({\\n           ...\n      POP \t\t\titems.push(Item({\\n           ...\n      PUSH 1\t\t\titems.push(Item({\\n           ...\n      SWAP1 \t\t\titems.push(Item({\\n           ...\n      SUB \t\t\titems.push(Item({\\n           ...\n      SWAP1 \t\t\titems.push(Item({\\n           ...\n      PUSH 0\t\t\titems.push(Item({\\n           ...\n      MSTORE \t\t\titems.push(Item({\\n           ...\n      PUSH 20\t\t\titems.push(Item({\\n           ...\n      PUSH 0\t\t\titems.push(Item({\\n           ...\n      KECCAK256 \t\t\titems.push(Item({\\n           ...\n      SWAP1 \t\t\titems.push(Item({\\n           ...\n      PUSH 9\t\t\titems.push(Item({\\n           ...\n      MUL \t\t\titems.push(Item({\\n           ...\n      ADD \t\t\titems.push(Item({\\n           ...\n      PUSH 0\t\t\titems.push(Item({\\n           ...\n      SWAP1 \t\t\titems.push(Item({\\n           ...\n      SWAP2 \t\t\titems.push(Item({\\n           ...\n      SWAP1 \t\t\titems.push(Item({\\n           ...\n      SWAP2 \t\t\titems.push(Item({\\n           ...\n      SWAP1 \t\t\titems.push(Item({\\n           ...\n      SWAP2 \t\t\titems.push(Item({\\n           ...\n      POP \t\t\titems.push(Item({\\n           ...\n      PUSH 0\t\t\titems.push(Item({\\n           ...\n      DUP3 \t\t\titems.push(Item({\\n           ...\n      ADD \t\t\titems.push(Item({\\n           ...\n      MLOAD \t\t\titems.push(Item({\\n           ...\n      DUP2 \t\t\titems.push(Item({\\n           ...\n      PUSH 0\t\t\titems.push(Item({\\n           ...\n      ADD \t\t\titems.push(Item({\\n           ...\n      SSTORE \t\t\titems.push(Item({\\n           ...\n      PUSH 20\t\t\titems.push(Item({\\n           ...\n      DUP3 \t\t\titems.push(Item({\\n           ...\n      ADD \t\t\titems.push(Item({\\n           ...\n      MLOAD \t\t\titems.push(Item({\\n           ...\n      DUP2 \t\t\titems.push(Item({\\n           ...\n      PUSH 1\t\t\titems.push(Item({\\n           ...\n      ADD \t\t\titems.push(Item({\\n           ...\n      PUSH 0\t\t\titems.push(Item({\\n           ...\n      PUSH 100\t\t\titems.push(Item({\\n           ...\n      EXP \t\t\titems.push(Item({\\n           ...\n      DUP2 \t\t\titems.push(Item({\\n           ...\n      SLOAD \t\t\titems.push(Item({\\n           ...\n      DUP2 \t\t\titems.push(Item({\\n           ...\n      PUSH FFFFFFFFFFFFFFFFFFFFFFFFFFFFFFFFFFFFFFFF\t\t\titems.push(Item({\\n           ...\n      MUL \t\t\titems.push(Item({\\n           ...\n      NOT \t\t\titems.push(Item({\\n           ...\n      AND \t\t\titems.push(Item({\\n           ...\n      SWAP1 \t\t\titems.push(Item({\\n           ...\n      DUP4 \t\t\titems.push(Item({\\n           ...\n      PUSH FFFFFFFFFFFFFFFFFFFFFFFFFFFFFFFFFFFFFFFF\t\t\titems.push(Item({\\n           ...\n      AND \t\t\titems.push(Item({\\n           ...\n      MUL \t\t\titems.push(Item({\\n           ...\n      OR \t\t\titems.push(Item({\\n           ...\n      SWAP1 \t\t\titems.push(Item({\\n           ...\n      SSTORE \t\t\titems.push(Item({\\n           ...\n      POP \t\t\titems.push(Item({\\n           ...\n      PUSH 40\t\t\titems.push(Item({\\n           ...\n      DUP3 \t\t\titems.push(Item({\\n           ...\n      ADD \t\t\titems.push(Item({\\n           ...\n      MLOAD \t\t\titems.push(Item({\\n           ...\n      DUP2 \t\t\titems.push(Item({\\n           ...\n      PUSH 2\t\t\titems.push(Item({\\n           ...\n      ADD \t\t\titems.push(Item({\\n           ...\n      PUSH 0\t\t\titems.push(Item({\\n           ...\n      PUSH 100\t\t\titems.push(Item({\\n           ...\n      EXP \t\t\titems.push(Item({\\n           ...\n      DUP2 \t\t\titems.push(Item({\\n           ...\n      SLOAD \t\t\titems.push(Item({\\n           ...\n      DUP2 \t\t\titems.push(Item({\\n           ...\n      PUSH FFFFFFFFFFFFFFFFFFFFFFFFFFFFFFFFFFFFFFFF\t\t\titems.push(Item({\\n           ...\n      MUL \t\t\titems.push(Item({\\n           ...\n      NOT \t\t\titems.push(Item({\\n           ...\n      AND \t\t\titems.push(Item({\\n           ...\n      SWAP1 \t\t\titems.push(Item({\\n           ...\n      DUP4 \t\t\titems.push(Item({\\n           ...\n      PUSH FFFFFFFFFFFFFFFFFFFFFFFFFFFFFFFFFFFFFFFF\t\t\titems.push(Item({\\n           ...\n      AND \t\t\titems.push(Item({\\n           ...\n      MUL \t\t\titems.push(Item({\\n           ...\n      OR \t\t\titems.push(Item({\\n           ...\n      SWAP1 \t\t\titems.push(Item({\\n           ...\n      SSTORE \t\t\titems.push(Item({\\n           ...\n      POP \t\t\titems.push(Item({\\n           ...\n      PUSH 60\t\t\titems.push(Item({\\n           ...\n      DUP3 \t\t\titems.push(Item({\\n           ...\n      ADD \t\t\titems.push(Item({\\n           ...\n      MLOAD \t\t\titems.push(Item({\\n           ...\n      DUP2 \t\t\titems.push(Item({\\n           ...\n      PUSH 3\t\t\titems.push(Item({\\n           ...\n      ADD \t\t\titems.push(Item({\\n           ...\n      SWAP1 \t\t\titems.push(Item({\\n           ...\n      DUP2 \t\t\titems.push(Item({\\n           ...\n      PUSH [tag] 106\t\t\titems.push(Item({\\n           ...\n      SWAP2 \t\t\titems.push(Item({\\n           ...\n      SWAP1 \t\t\titems.push(Item({\\n           ...\n      PUSH [tag] 107\t\t\titems.push(Item({\\n           ...\n      JUMP \t\t\titems.push(Item({\\n           ...\n    tag 106\t\t\titems.push(Item({\\n           ...\n      JUMPDEST \t\t\titems.push(Item({\\n           ...\n      POP \t\t\titems.push(Item({\\n           ...\n      PUSH 80\t\t\titems.push(Item({\\n           ...\n      DUP3 \t\t\titems.push(Item({\\n           ...\n      ADD \t\t\titems.push(Item({\\n           ...\n      MLOAD \t\t\titems.push(Item({\\n           ...\n      DUP2 \t\t\titems.push(Item({\\n           ...\n      PUSH 4\t\t\titems.push(Item({\\n           ...\n      ADD \t\t\titems.push(Item({\\n           ...\n      SWAP1 \t\t\titems.push(Item({\\n           ...\n      DUP2 \t\t\titems.push(Item({\\n           ...\n      PUSH [tag] 108\t\t\titems.push(Item({\\n           ...\n      SWAP2 \t\t\titems.push(Item({\\n           ...\n      SWAP1 \t\t\titems.push(Item({\\n           ...\n      PUSH [tag] 107\t\t\titems.push(Item({\\n           ...\n      JUMP \t\t\titems.push(Item({\\n           ...\n    tag 108\t\t\titems.push(Item({\\n           ...\n      JUMPDEST \t\t\titems.push(Item({\\n           ...\n      POP \t\t\titems.push(Item({\\n           ...\n      PUSH A0\t\t\titems.push(Item({\\n           ...\n      DUP3 \t\t\titems.push(Item({\\n           ...\n      ADD \t\t\titems.push(Item({\\n           ...\n      MLOAD \t\t\titems.push(Item({\\n           ...\n      DUP2 \t\t\titems.push(Item({\\n           ...\n      PUSH 5\t\t\titems.push(Item({\\n           ...\n      ADD \t\t\titems.push(Item({\\n           ...\n      SWAP1 \t\t\titems.push(Item({\\n           ...\n      DUP2 \t\t\titems.push(Item({\\n           ...\n      PUSH [tag] 109\t\t\titems.push(Item({\\n           ...\n      SWAP2 \t\t\titems.push(Item({\\n           ...\n      SWAP1 \t\t\titems.push(Item({\\n           ...\n      PUSH [tag] 107\t\t\titems.push(Item({\\n           ...\n      JUMP \t\t\titems.push(Item({\\n           ...\n    tag 109\t\t\titems.push(Item({\\n           ...\n      JUMPDEST \t\t\titems.push(Item({\\n           ...\n      POP \t\t\titems.push(Item({\\n           ...\n      PUSH C0\t\t\titems.push(Item({\\n           ...\n      DUP3 \t\t\titems.push(Item({\\n           ...\n      ADD \t\t\titems.push(Item({\\n           ...\n      MLOAD \t\t\titems.push(Item({\\n           ...\n      DUP2 \t\t\titems.push(Item({\\n           ...\n      PUSH 6\t\t\titems.push(Item({\\n           ...\n      ADD \t\t\titems.push(Item({\\n           ...\n      SSTORE \t\t\titems.push(Item({\\n           ...\n      PUSH E0\t\t\titems.push(Item({\\n           ...\n      DUP3 \t\t\titems.push(Item({\\n           ...\n      ADD \t\t\titems.push(Item({\\n           ...\n      MLOAD \t\t\titems.push(Item({\\n           ...\n      DUP2 \t\t\titems.push(Item({\\n           ...\n      PUSH 7\t\t\titems.push(Item({\\n           ...\n      ADD \t\t\titems.push(Item({\\n           ...\n      PUSH 0\t\t\titems.push(Item({\\n           ...\n      PUSH 100\t\t\titems.push(Item({\\n           ...\n      EXP \t\t\titems.push(Item({\\n           ...\n      DUP2 \t\t\titems.push(Item({\\n           ...\n      SLOAD \t\t\titems.push(Item({\\n           ...\n      DUP2 \t\t\titems.push(Item({\\n           ...\n      PUSH FF\t\t\titems.push(Item({\\n           ...\n      MUL \t\t\titems.push(Item({\\n           ...\n      NOT \t\t\titems.push(Item({\\n           ...\n      AND \t\t\titems.push(Item({\\n           ...\n      SWAP1 \t\t\titems.push(Item({\\n           ...\n      DUP4 \t\t\titems.push(Item({\\n           ...\n      ISZERO \t\t\titems.push(Item({\\n           ...\n      ISZERO \t\t\titems.push(Item({\\n           ...\n      MUL \t\t\titems.push(Item({\\n           ...\n      OR \t\t\titems.push(Item({\\n           ...\n      SWAP1 \t\t\titems.push(Item({\\n           ...\n      SSTORE \t\t\titems.push(Item({\\n           ...\n      POP \t\t\titems.push(Item({\\n           ...\n      PUSH 100\t\t\titems.push(Item({\\n           ...\n      DUP3 \t\t\titems.push(Item({\\n           ...\n      ADD \t\t\titems.push(Item({\\n           ...\n      MLOAD \t\t\titems.push(Item({\\n           ...\n      DUP2 \t\t\titems.push(Item({\\n           ...\n      PUSH 8\t\t\titems.push(Item({\\n           ...\n      ADD \t\t\titems.push(Item({\\n           ...\n      SSTORE \t\t\titems.push(Item({\\n           ...\n      POP \t\t\titems.push(Item({\\n           ...\n      POP \t\t\titems.push(Item({\\n           ...\n      PUSH 0\t\t\tbytes32 transactionHash\n      TIMESTAMP \t\t\tblock.timestamp\n      CALLER \t\t\tmsg.sender\n      DUP7 \t\t\t_title\n      DUP5 \t\t\t_price\n      PUSH 40\t\t\tabi.encodePacked(block.timesta...\n      MLOAD \t\t\tabi.encodePacked(block.timesta...\n      PUSH 20\t\t\tabi.encodePacked(block.timesta...\n      ADD \t\t\tabi.encodePacked(block.timesta...\n      PUSH [tag] 110\t\t\tabi.encodePacked(block.timesta...\n      SWAP5 \t\t\tabi.encodePacked(block.timesta...\n      SWAP4 \t\t\tabi.encodePacked(block.timesta...\n      SWAP3 \t\t\tabi.encodePacked(block.timesta...\n      SWAP2 \t\t\tabi.encodePacked(block.timesta...\n      SWAP1 \t\t\tabi.encodePacked(block.timesta...\n      PUSH [tag] 111\t\t\tabi.encodePacked(block.timesta...\n      JUMP \t\t\tabi.encodePacked(block.timesta...\n    tag 110\t\t\tabi.encodePacked(block.timesta...\n      JUMPDEST \t\t\tabi.encodePacked(block.timesta...\n      PUSH 40\t\t\tabi.encodePacked(block.timesta...\n      MLOAD \t\t\tabi.encodePacked(block.timesta...\n      PUSH 20\t\t\tabi.encodePacked(block.timesta...\n      DUP2 \t\t\tabi.encodePacked(block.timesta...\n      DUP4 \t\t\tabi.encodePacked(block.timesta...\n      SUB \t\t\tabi.encodePacked(block.timesta...\n      SUB \t\t\tabi.encodePacked(block.timesta...\n      DUP2 \t\t\tabi.encodePacked(block.timesta...\n      MSTORE \t\t\tabi.encodePacked(block.timesta...\n      SWAP1 \t\t\tabi.encodePacked(block.timesta...\n      PUSH 40\t\t\tabi.encodePacked(block.timesta...\n      MSTORE \t\t\tabi.encodePacked(block.timesta...\n      DUP1 \t\t\tkeccak256(abi.encodePacked(blo...\n      MLOAD \t\t\tkeccak256(abi.encodePacked(blo...\n      SWAP1 \t\t\tkeccak256(abi.encodePacked(blo...\n      PUSH 20\t\t\tkeccak256(abi.encodePacked(blo...\n      ADD \t\t\tkeccak256(abi.encodePacked(blo...\n      KECCAK256 \t\t\tkeccak256(abi.encodePacked(blo...\n      SWAP1 \t\t\tbytes32 transactionHash = kecc...\n      POP \t\t\tbytes32 transactionHash = kecc...\n      DUP1 \t\t\ttransactionHash\n      PUSH 0\t\t\titems\n      PUSH 1\t\t\titemCount\n      SLOAD \t\t\titemCount\n      DUP2 \t\t\titems[itemCount]\n      SLOAD \t\t\titems[itemCount]\n      DUP2 \t\t\titems[itemCount]\n      LT \t\t\titems[itemCount]\n      PUSH [tag] 112\t\t\titems[itemCount]\n      JUMPI \t\t\titems[itemCount]\n      PUSH [tag] 113\t\t\titems[itemCount]\n      PUSH [tag] 84\t\t\titems[itemCount]\n      JUMP \t\t\titems[itemCount]\n    tag 113\t\t\titems[itemCount]\n      JUMPDEST \t\t\titems[itemCount]\n    tag 112\t\t\titems[itemCount]\n      JUMPDEST \t\t\titems[itemCount]\n      SWAP1 \t\t\titems[itemCount]\n      PUSH 0\t\t\titems[itemCount]\n      MSTORE \t\t\titems[itemCount]\n      PUSH 20\t\t\titems[itemCount]\n      PUSH 0\t\t\titems[itemCount]\n      KECCAK256 \t\t\titems[itemCount]\n      SWAP1 \t\t\titems[itemCount]\n      PUSH 9\t\t\titems[itemCount]\n      MUL \t\t\titems[itemCount]\n      ADD \t\t\titems[itemCount]\n      PUSH 8\t\t\titems[itemCount].transactionHa...\n      ADD \t\t\titems[itemCount].transactionHa...\n      DUP2 \t\t\titems[itemCount].transactionHa...\n      SWAP1 \t\t\titems[itemCount].transactionHa...\n      SSTORE \t\t\titems[itemCount].transactionHa...\n      POP \t\t\titems[itemCount].transactionHa...\n      CALLER \t\t\tmsg.sender\n      PUSH FFFFFFFFFFFFFFFFFFFFFFFFFFFFFFFFFFFFFFFF\t\t\tItemListed(itemCount, msg.send...\n      AND \t\t\tItemListed(itemCount, msg.send...\n      CALLER \t\t\tmsg.sender\n      PUSH FFFFFFFFFFFFFFFFFFFFFFFFFFFFFFFFFFFFFFFF\t\t\tItemListed(itemCount, msg.send...\n      AND \t\t\tItemListed(itemCount, msg.send...\n      PUSH 1\t\t\titemCount\n      SLOAD \t\t\titemCount\n      PUSH A6131043C1CC8C5AF6A89EEDDA134D3F914146D527B69FC4F68C0B7296ED4E6E\t\t\tItemListed(itemCount, msg.send...\n      DUP9 \t\t\t_title\n      DUP8 \t\t\t_imageHash\n      DUP8 \t\t\t_price\n      DUP8 \t\t\ttransactionHash\n      PUSH 40\t\t\tItemListed(itemCount, msg.send...\n      MLOAD \t\t\tItemListed(itemCount, msg.send...\n      PUSH [tag] 115\t\t\tItemListed(itemCount, msg.send...\n      SWAP5 \t\t\tItemListed(itemCount, msg.send...\n      SWAP4 \t\t\tItemListed(itemCount, msg.send...\n      SWAP3 \t\t\tItemListed(itemCount, msg.send...\n      SWAP2 \t\t\tItemListed(itemCount, msg.send...\n      SWAP1 \t\t\tItemListed(itemCount, msg.send...\n      PUSH [tag] 116\t\t\tItemListed(itemCount, msg.send...\n      JUMP \t\t\tItemListed(itemCount, msg.send...\n    tag 115\t\t\tItemListed(itemCount, msg.send...\n      JUMPDEST \t\t\tItemListed(itemCount, msg.send...\n      PUSH 40\t\t\tItemListed(itemCount, msg.send...\n      MLOAD \t\t\tItemListed(itemCount, msg.send...\n      DUP1 \t\t\tItemListed(itemCount, msg.send...\n      SWAP2 \t\t\tItemListed(itemCount, msg.send...\n      SUB \t\t\tItemListed(itemCount, msg.send...\n      SWAP1 \t\t\tItemListed(itemCount, msg.send...\n      LOG4 \t\t\tItemListed(itemCount, msg.send...\n      PUSH 1\t\t\titemCount\n      PUSH 0\t\t\titemCount\n      DUP2 \t\t\titemCount++\n      SLOAD \t\t\titemCount++\n      DUP1 \t\t\titemCount++\n      SWAP3 \t\t\titemCount++\n      SWAP2 \t\t\titemCount++\n      SWAP1 \t\t\titemCount++\n      PUSH [tag] 117\t\t\titemCount++\n      SWAP1 \t\t\titemCount++\n      PUSH [tag] 118\t\t\titemCount++\n      JUMP \t\t\titemCount++\n    tag 117\t\t\titemCount++\n      JUMPDEST \t\t\titemCount++\n      SWAP2 \t\t\titemCount++\n      SWAP1 \t\t\titemCount++\n      POP \t\t\titemCount++\n      SSTORE \t\t\titemCount++\n      POP \t\t\titemCount++\n      POP \t\t\t{\\n        require(_price > 0,...\n      POP \t\t\tfunction listItem(string memor...\n      POP \t\t\tfunction listItem(string memor...\n      POP \t\t\tfunction listItem(string memor...\n      POP \t\t\tfunction listItem(string memor...\n      JUMP \t\t\tfunction listItem(string memor...\n    tag 38\t\t\tfunction buyItem(uint _id) pub...\n      JUMPDEST \t\t\tfunction buyItem(uint _id) pub...\n      PUSH 1\t\t\titemCount\n      SLOAD \t\t\titemCount\n      DUP2 \t\t\t_id\n      LT \t\t\t_id < itemCount\n      PUSH [tag] 120\t\t\trequire(_id < itemCount, \"Item...\n      JUMPI \t\t\trequire(_id < itemCount, \"Item...\n      PUSH 40\t\t\trequire(_id < itemCount, \"Item...\n      MLOAD \t\t\trequire(_id < itemCount, \"Item...\n      PUSH 8C379A000000000000000000000000000000000000000000000000000000000\t\t\trequire(_id < itemCount, \"Item...\n      DUP2 \t\t\trequire(_id < itemCount, \"Item...\n      MSTORE \t\t\trequire(_id < itemCount, \"Item...\n      PUSH 4\t\t\trequire(_id < itemCount, \"Item...\n      ADD \t\t\trequire(_id < itemCount, \"Item...\n      PUSH [tag] 121\t\t\trequire(_id < itemCount, \"Item...\n      SWAP1 \t\t\trequire(_id < itemCount, \"Item...\n      PUSH [tag] 81\t\t\trequire(_id < itemCount, \"Item...\n      JUMP \t\t\trequire(_id < itemCount, \"Item...\n    tag 121\t\t\trequire(_id < itemCount, \"Item...\n      JUMPDEST \t\t\trequire(_id < itemCount, \"Item...\n      PUSH 40\t\t\trequire(_id < itemCount, \"Item...\n      MLOAD \t\t\trequire(_id < itemCount, \"Item...\n      DUP1 \t\t\trequire(_id < itemCount, \"Item...\n      SWAP2 \t\t\trequire(_id < itemCount, \"Item...\n      SUB \t\t\trequire(_id < itemCount, \"Item...\n      SWAP1 \t\t\trequire(_id < itemCount, \"Item...\n      REVERT \t\t\trequire(_id < itemCount, \"Item...\n    tag 120\t\t\trequire(_id < itemCount, \"Item...\n      JUMPDEST \t\t\trequire(_id < itemCount, \"Item...\n      PUSH 0\t\t\tItem storage item\n      DUP1 \t\t\titems\n      DUP3 \t\t\t_id\n      DUP2 \t\t\titems[_id]\n      SLOAD \t\t\titems[_id]\n      DUP2 \t\t\titems[_id]\n      LT \t\t\titems[_id]\n      PUSH [tag] 122\t\t\titems[_id]\n      JUMPI \t\t\titems[_id]\n      PUSH [tag] 123\t\t\titems[_id]\n      PUSH [tag] 84\t\t\titems[_id]\n      JUMP \t\t\titems[_id]\n    tag 123\t\t\titems[_id]\n      JUMPDEST \t\t\titems[_id]\n    tag 122\t\t\titems[_id]\n      JUMPDEST \t\t\titems[_id]\n      SWAP1 \t\t\titems[_id]\n      PUSH 0\t\t\titems[_id]\n      MSTORE \t\t\titems[_id]\n      PUSH 20\t\t\titems[_id]\n      PUSH 0\t\t\titems[_id]\n      KECCAK256 \t\t\titems[_id]\n      SWAP1 \t\t\titems[_id]\n      PUSH 9\t\t\titems[_id]\n      MUL \t\t\titems[_id]\n      ADD \t\t\titems[_id]\n      SWAP1 \t\t\tItem storage item = items[_id]\n      POP \t\t\tItem storage item = items[_id]\n      DUP1 \t\t\titem\n      PUSH 6\t\t\titem.price\n      ADD \t\t\titem.price\n      SLOAD \t\t\titem.price\n      CALLVALUE \t\t\tmsg.value\n      EQ \t\t\tmsg.value == item.price\n      PUSH [tag] 125\t\t\trequire(msg.value == item.pric...\n      JUMPI \t\t\trequire(msg.value == item.pric...\n      PUSH 40\t\t\trequire(msg.value == item.pric...\n      MLOAD \t\t\trequire(msg.value == item.pric...\n      PUSH 8C379A000000000000000000000000000000000000000000000000000000000\t\t\trequire(msg.value == item.pric...\n      DUP2 \t\t\trequire(msg.value == item.pric...\n      MSTORE \t\t\trequire(msg.value == item.pric...\n      PUSH 4\t\t\trequire(msg.value == item.pric...\n      ADD \t\t\trequire(msg.value == item.pric...\n      PUSH [tag] 126\t\t\trequire(msg.value == item.pric...\n      SWAP1 \t\t\trequire(msg.value == item.pric...\n      PUSH [tag] 127\t\t\trequire(msg.value == item.pric...\n      JUMP \t\t\trequire(msg.value == item.pric...\n    tag 126\t\t\trequire(msg.value == item.pric...\n      JUMPDEST \t\t\trequire(msg.value == item.pric...\n      PUSH 40\t\t\trequire(msg.value == item.pric...\n      MLOAD \t\t\trequire(msg.value == item.pric...\n      DUP1 \t\t\trequire(msg.value == item.pric...\n      SWAP2 \t\t\trequire(msg.value == item.pric...\n      SUB \t\t\trequire(msg.value == item.pric...\n      SWAP1 \t\t\trequire(msg.value == item.pric...\n      REVERT \t\t\trequire(msg.value == item.pric...\n    tag 125\t\t\trequire(msg.value == item.pric...\n      JUMPDEST \t\t\trequire(msg.value == item.pric...\n      DUP1 \t\t\titem\n      PUSH 7\t\t\titem.sold\n      ADD \t\t\titem.sold\n      PUSH 0\t\t\titem.sold\n      SWAP1 \t\t\titem.sold\n      SLOAD \t\t\titem.sold\n      SWAP1 \t\t\titem.sold\n      PUSH 100\t\t\titem.sold\n      EXP \t\t\titem.sold\n      SWAP1 \t\t\titem.sold\n      DIV \t\t\titem.sold\n      PUSH FF\t\t\titem.sold\n      AND \t\t\titem.sold\n      ISZERO \t\t\t!item.sold\n      PUSH [tag] 128\t\t\trequire(!item.sold, \"This item...\n      JUMPI \t\t\trequire(!item.sold, \"This item...\n      PUSH 40\t\t\trequire(!item.sold, \"This item...\n      MLOAD \t\t\trequire(!item.sold, \"This item...\n      PUSH 8C379A000000000000000000000000000000000000000000000000000000000\t\t\trequire(!item.sold, \"This item...\n      DUP2 \t\t\trequire(!item.sold, \"This item...\n      MSTORE \t\t\trequire(!item.sold, \"This item...\n      PUSH 4\t\t\trequire(!item.sold, \"This item...\n      ADD \t\t\trequire(!item.sold, \"This item...\n      PUSH [tag] 129\t\t\trequire(!item.sold, \"This item...\n      SWAP1 \t\t\trequire(!item.sold, \"This item...\n      PUSH [tag] 130\t\t\trequire(!item.sold, \"This item...\n      JUMP \t\t\trequire(!item.sold, \"This item...\n    tag 129\t\t\trequire(!item.sold, \"This item...\n      JUMPDEST \t\t\trequire(!item.sold, \"This item...\n      PUSH 40\t\t\trequire(!item.sold, \"This item...\n      MLOAD \t\t\trequire(!item.sold, \"This item...\n      DUP1 \t\t\trequire(!item.sold, \"This item...\n      SWAP2 \t\t\trequire(!item.sold, \"This item...\n      SUB \t\t\trequire(!item.sold, \"This item...\n      SWAP1 \t\t\trequire(!item.sold, \"This item...\n      REVERT \t\t\trequire(!item.sold, \"This item...\n    tag 128\t\t\trequire(!item.sold, \"This item...\n      JUMPDEST \t\t\trequire(!item.sold, \"This item...\n      DUP1 \t\t\titem\n      PUSH 2\t\t\titem.owner\n      ADD \t\t\titem.owner\n      PUSH 0\t\t\titem.owner\n      SWAP1 \t\t\titem.owner\n      SLOAD \t\t\titem.owner\n      SWAP1 \t\t\titem.owner\n      PUSH 100\t\t\titem.owner\n      EXP \t\t\titem.owner\n      SWAP1 \t\t\titem.owner\n      DIV \t\t\titem.owner\n      PUSH FFFFFFFFFFFFFFFFFFFFFFFFFFFFFFFFFFFFFFFF\t\t\titem.owner\n      AND \t\t\titem.owner\n      PUSH FFFFFFFFFFFFFFFFFFFFFFFFFFFFFFFFFFFFFFFF\t\t\tmsg.sender != item.owner\n      AND \t\t\tmsg.sender != item.owner\n      CALLER \t\t\tmsg.sender\n      PUSH FFFFFFFFFFFFFFFFFFFFFFFFFFFFFFFFFFFFFFFF\t\t\tmsg.sender != item.owner\n      AND \t\t\tmsg.sender != item.owner\n      SUB \t\t\tmsg.sender != item.owner\n      PUSH [tag] 131\t\t\trequire(msg.sender != item.own...\n      JUMPI \t\t\trequire(msg.sender != item.own...\n      PUSH 40\t\t\trequire(msg.sender != item.own...\n      MLOAD \t\t\trequire(msg.sender != item.own...\n      PUSH 8C379A000000000000000000000000000000000000000000000000000000000\t\t\trequire(msg.sender != item.own...\n      DUP2 \t\t\trequire(msg.sender != item.own...\n      MSTORE \t\t\trequire(msg.sender != item.own...\n      PUSH 4\t\t\trequire(msg.sender != item.own...\n      ADD \t\t\trequire(msg.sender != item.own...\n      PUSH [tag] 132\t\t\trequire(msg.sender != item.own...\n      SWAP1 \t\t\trequire(msg.sender != item.own...\n      PUSH [tag] 133\t\t\trequire(msg.sender != item.own...\n      JUMP \t\t\trequire(msg.sender != item.own...\n    tag 132\t\t\trequire(msg.sender != item.own...\n      JUMPDEST \t\t\trequire(msg.sender != item.own...\n      PUSH 40\t\t\trequire(msg.sender != item.own...\n      MLOAD \t\t\trequire(msg.sender != item.own...\n      DUP1 \t\t\trequire(msg.sender != item.own...\n      SWAP2 \t\t\trequire(msg.sender != item.own...\n      SUB \t\t\trequire(msg.sender != item.own...\n      SWAP1 \t\t\trequire(msg.sender != item.own...\n      REVERT \t\t\trequire(msg.sender != item.own...\n    tag 131\t\t\trequire(msg.sender != item.own...\n      JUMPDEST \t\t\trequire(msg.sender != item.own...\n      PUSH 0\t\t\tbool success\n      DUP2 \t\t\titem\n      PUSH 2\t\t\titem.owner\n      ADD \t\t\titem.owner\n      PUSH 0\t\t\titem.owner\n      SWAP1 \t\t\titem.owner\n      SLOAD \t\t\titem.owner\n      SWAP1 \t\t\titem.owner\n      PUSH 100\t\t\titem.owner\n      EXP \t\t\titem.owner\n      SWAP1 \t\t\titem.owner\n      DIV \t\t\titem.owner\n      PUSH FFFFFFFFFFFFFFFFFFFFFFFFFFFFFFFFFFFFFFFF\t\t\titem.owner\n      AND \t\t\titem.owner\n      PUSH FFFFFFFFFFFFFFFFFFFFFFFFFFFFFFFFFFFFFFFF\t\t\titem.owner.call\n      AND \t\t\titem.owner.call\n      CALLVALUE \t\t\tmsg.value\n      PUSH 40\t\t\titem.owner.call{value: msg.val...\n      MLOAD \t\t\titem.owner.call{value: msg.val...\n      PUSH [tag] 134\t\t\titem.owner.call{value: msg.val...\n      SWAP1 \t\t\titem.owner.call{value: msg.val...\n      PUSH [tag] 135\t\t\titem.owner.call{value: msg.val...\n      JUMP \t\t\titem.owner.call{value: msg.val...\n    tag 134\t\t\titem.owner.call{value: msg.val...\n      JUMPDEST \t\t\titem.owner.call{value: msg.val...\n      PUSH 0\t\t\titem.owner.call{value: msg.val...\n      PUSH 40\t\t\titem.owner.call{value: msg.val...\n      MLOAD \t\t\titem.owner.call{value: msg.val...\n      DUP1 \t\t\titem.owner.call{value: msg.val...\n      DUP4 \t\t\titem.owner.call{value: msg.val...\n      SUB \t\t\titem.owner.call{value: msg.val...\n      DUP2 \t\t\titem.owner.call{value: msg.val...\n      DUP6 \t\t\titem.owner.call{value: msg.val...\n      DUP8 \t\t\titem.owner.call{value: msg.val...\n      GAS \t\t\titem.owner.call{value: msg.val...\n      CALL \t\t\titem.owner.call{value: msg.val...\n      SWAP3 \t\t\titem.owner.call{value: msg.val...\n      POP \t\t\titem.owner.call{value: msg.val...\n      POP \t\t\titem.owner.call{value: msg.val...\n      POP \t\t\titem.owner.call{value: msg.val...\n      RETURNDATASIZE \t\t\titem.owner.call{value: msg.val...\n      DUP1 \t\t\titem.owner.call{value: msg.val...\n      PUSH 0\t\t\titem.owner.call{value: msg.val...\n      DUP2 \t\t\titem.owner.call{value: msg.val...\n      EQ \t\t\titem.owner.call{value: msg.val...\n      PUSH [tag] 138\t\t\titem.owner.call{value: msg.val...\n      JUMPI \t\t\titem.owner.call{value: msg.val...\n      PUSH 40\t\t\titem.owner.call{value: msg.val...\n      MLOAD \t\t\titem.owner.call{value: msg.val...\n      SWAP2 \t\t\titem.owner.call{value: msg.val...\n      POP \t\t\titem.owner.call{value: msg.val...\n      PUSH 1F\t\t\titem.owner.call{value: msg.val...\n      NOT \t\t\titem.owner.call{value: msg.val...\n      PUSH 3F\t\t\titem.owner.call{value: msg.val...\n      RETURNDATASIZE \t\t\titem.owner.call{value: msg.val...\n      ADD \t\t\titem.owner.call{value: msg.val...\n      AND \t\t\titem.owner.call{value: msg.val...\n      DUP3 \t\t\titem.owner.call{value: msg.val...\n      ADD \t\t\titem.owner.call{value: msg.val...\n      PUSH 40\t\t\titem.owner.call{value: msg.val...\n      MSTORE \t\t\titem.owner.call{value: msg.val...\n      RETURNDATASIZE \t\t\titem.owner.call{value: msg.val...\n      DUP3 \t\t\titem.owner.call{value: msg.val...\n      MSTORE \t\t\titem.owner.call{value: msg.val...\n      RETURNDATASIZE \t\t\titem.owner.call{value: msg.val...\n      PUSH 0\t\t\titem.owner.call{value: msg.val...\n      PUSH 20\t\t\titem.owner.call{value: msg.val...\n      DUP5 \t\t\titem.owner.call{value: msg.val...\n      ADD \t\t\titem.owner.call{value: msg.val...\n      RETURNDATACOPY \t\t\titem.owner.call{value: msg.val...\n      PUSH [tag] 137\t\t\titem.owner.call{value: msg.val...\n      JUMP \t\t\titem.owner.call{value: msg.val...\n    tag 138\t\t\titem.owner.call{value: msg.val...\n      JUMPDEST \t\t\titem.owner.call{value: msg.val...\n      PUSH 60\t\t\titem.owner.call{value: msg.val...\n      SWAP2 \t\t\titem.owner.call{value: msg.val...\n      POP \t\t\titem.owner.call{value: msg.val...\n    tag 137\t\t\titem.owner.call{value: msg.val...\n      JUMPDEST \t\t\titem.owner.call{value: msg.val...\n      POP \t\t\titem.owner.call{value: msg.val...\n      POP \t\t\t(bool success, ) = item.owner....\n      SWAP1 \t\t\t(bool success, ) = item.owner....\n      POP \t\t\t(bool success, ) = item.owner....\n      DUP1 \t\t\tsuccess\n      PUSH [tag] 139\t\t\trequire(success, \"Failed to se...\n      JUMPI \t\t\trequire(success, \"Failed to se...\n      PUSH 40\t\t\trequire(success, \"Failed to se...\n      MLOAD \t\t\trequire(success, \"Failed to se...\n      PUSH 8C379A000000000000000000000000000000000000000000000000000000000\t\t\trequire(success, \"Failed to se...\n      DUP2 \t\t\trequire(success, \"Failed to se...\n      MSTORE \t\t\trequire(success, \"Failed to se...\n      PUSH 4\t\t\trequire(success, \"Failed to se...\n      ADD \t\t\trequire(success, \"Failed to se...\n      PUSH [tag] 140\t\t\trequire(success, \"Failed to se...\n      SWAP1 \t\t\trequire(success, \"Failed to se...\n      PUSH [tag] 141\t\t\trequire(success, \"Failed to se...\n      JUMP \t\t\trequire(success, \"Failed to se...\n    tag 140\t\t\trequire(success, \"Failed to se...\n      JUMPDEST \t\t\trequire(success, \"Failed to se...\n      PUSH 40\t\t\trequire(success, \"Failed to se...\n      MLOAD \t\t\trequire(success, \"Failed to se...\n      DUP1 \t\t\trequire(success, \"Failed to se...\n      SWAP2 \t\t\trequire(success, \"Failed to se...\n      SUB \t\t\trequire(success, \"Failed to se...\n      SWAP1 \t\t\trequire(success, \"Failed to se...\n      REVERT \t\t\trequire(success, \"Failed to se...\n    tag 139\t\t\trequire(success, \"Failed to se...\n      JUMPDEST \t\t\trequire(success, \"Failed to se...\n      PUSH 0\t\t\taddress prevOwner\n      DUP3 \t\t\titem\n      PUSH 2\t\t\titem.owner\n      ADD \t\t\titem.owner\n      PUSH 0\t\t\titem.owner\n      SWAP1 \t\t\titem.owner\n      SLOAD \t\t\titem.owner\n      SWAP1 \t\t\titem.owner\n      PUSH 100\t\t\titem.owner\n      EXP \t\t\titem.owner\n      SWAP1 \t\t\titem.owner\n      DIV \t\t\titem.owner\n      PUSH FFFFFFFFFFFFFFFFFFFFFFFFFFFFFFFFFFFFFFFF\t\t\titem.owner\n      AND \t\t\titem.owner\n      SWAP1 \t\t\taddress prevOwner = item.owner\n      POP \t\t\taddress prevOwner = item.owner\n      CALLER \t\t\tmsg.sender\n      DUP4 \t\t\titem\n      PUSH 2\t\t\titem.owner\n      ADD \t\t\titem.owner\n      PUSH 0\t\t\titem.owner\n      PUSH 100\t\t\titem.owner = payable(msg.sende...\n      EXP \t\t\titem.owner = payable(msg.sende...\n      DUP2 \t\t\titem.owner = payable(msg.sende...\n      SLOAD \t\t\titem.owner = payable(msg.sende...\n      DUP2 \t\t\titem.owner = payable(msg.sende...\n      PUSH FFFFFFFFFFFFFFFFFFFFFFFFFFFFFFFFFFFFFFFF\t\t\titem.owner = payable(msg.sende...\n      MUL \t\t\titem.owner = payable(msg.sende...\n      NOT \t\t\titem.owner = payable(msg.sende...\n      AND \t\t\titem.owner = payable(msg.sende...\n      SWAP1 \t\t\titem.owner = payable(msg.sende...\n      DUP4 \t\t\titem.owner = payable(msg.sende...\n      PUSH FFFFFFFFFFFFFFFFFFFFFFFFFFFFFFFFFFFFFFFF\t\t\titem.owner = payable(msg.sende...\n      AND \t\t\titem.owner = payable(msg.sende...\n      MUL \t\t\titem.owner = payable(msg.sende...\n      OR \t\t\titem.owner = payable(msg.sende...\n      SWAP1 \t\t\titem.owner = payable(msg.sende...\n      SSTORE \t\t\titem.owner = payable(msg.sende...\n      POP \t\t\titem.owner = payable(msg.sende...\n      PUSH 1\t\t\ttrue\n      DUP4 \t\t\titem\n      PUSH 7\t\t\titem.sold\n      ADD \t\t\titem.sold\n      PUSH 0\t\t\titem.sold\n      PUSH 100\t\t\titem.sold = true\n      EXP \t\t\titem.sold = true\n      DUP2 \t\t\titem.sold = true\n      SLOAD \t\t\titem.sold = true\n      DUP2 \t\t\titem.sold = true\n      PUSH FF\t\t\titem.sold = true\n      MUL \t\t\titem.sold = true\n      NOT \t\t\titem.sold = true\n      AND \t\t\titem.sold = true\n      SWAP1 \t\t\titem.sold = true\n      DUP4 \t\t\titem.sold = true\n      ISZERO \t\t\titem.sold = true\n      ISZERO \t\t\titem.sold = true\n      MUL \t\t\titem.sold = true\n      OR \t\t\titem.sold = true\n      SWAP1 \t\t\titem.sold = true\n      SSTORE \t\t\titem.sold = true\n      POP \t\t\titem.sold = true\n      DUP1 \t\t\tprevOwner\n      PUSH FFFFFFFFFFFFFFFFFFFFFFFFFFFFFFFFFFFFFFFF\t\t\tPaymentSent(msg.sender, prevOw...\n      AND \t\t\tPaymentSent(msg.sender, prevOw...\n      CALLER \t\t\tmsg.sender\n      PUSH FFFFFFFFFFFFFFFFFFFFFFFFFFFFFFFFFFFFFFFF\t\t\tPaymentSent(msg.sender, prevOw...\n      AND \t\t\tPaymentSent(msg.sender, prevOw...\n      PUSH D52BD61F7C422D441E024604F4517878FD3305D6ACF0FE37BAEF23ED21AF6BC9\t\t\tPaymentSent(msg.sender, prevOw...\n      CALLVALUE \t\t\tmsg.value\n      PUSH 40\t\t\tPaymentSent(msg.sender, prevOw...\n      MLOAD \t\t\tPaymentSent(msg.sender, prevOw...\n      PUSH [tag] 142\t\t\tPaymentSent(msg.sender, prevOw...\n      SWAP2 \t\t\tPaymentSent(msg.sender, prevOw...\n      SWAP1 \t\t\tPaymentSent(msg.sender, prevOw...\n      PUSH [tag] 17\t\t\tPaymentSent(msg.sender, prevOw...\n      JUMP \t\t\tPaymentSent(msg.sender, prevOw...\n    tag 142\t\t\tPaymentSent(msg.sender, prevOw...\n      JUMPDEST \t\t\tPaymentSent(msg.sender, prevOw...\n      PUSH 40\t\t\tPaymentSent(msg.sender, prevOw...\n      MLOAD \t\t\tPaymentSent(msg.sender, prevOw...\n      DUP1 \t\t\tPaymentSent(msg.sender, prevOw...\n      SWAP2 \t\t\tPaymentSent(msg.sender, prevOw...\n      SUB \t\t\tPaymentSent(msg.sender, prevOw...\n      SWAP1 \t\t\tPaymentSent(msg.sender, prevOw...\n      LOG3 \t\t\tPaymentSent(msg.sender, prevOw...\n      CALLER \t\t\tmsg.sender\n      PUSH FFFFFFFFFFFFFFFFFFFFFFFFFFFFFFFFFFFFFFFF\t\t\tItemSold(_id, prevOwner, msg.s...\n      AND \t\t\tItemSold(_id, prevOwner, msg.s...\n      DUP2 \t\t\tprevOwner\n      PUSH FFFFFFFFFFFFFFFFFFFFFFFFFFFFFFFFFFFFFFFF\t\t\tItemSold(_id, prevOwner, msg.s...\n      AND \t\t\tItemSold(_id, prevOwner, msg.s...\n      PUSH 4DDD54C6B746E69BA87F862311F7670BD1D7276846778AC81CD38747B27A746\t\t\tItemSold(_id, prevOwner, msg.s...\n      DUP7 \t\t\t_id\n      DUP7 \t\t\titem\n      PUSH 6\t\t\titem.price\n      ADD \t\t\titem.price\n      SLOAD \t\t\titem.price\n      PUSH 40\t\t\tItemSold(_id, prevOwner, msg.s...\n      MLOAD \t\t\tItemSold(_id, prevOwner, msg.s...\n      PUSH [tag] 143\t\t\tItemSold(_id, prevOwner, msg.s...\n      SWAP3 \t\t\tItemSold(_id, prevOwner, msg.s...\n      SWAP2 \t\t\tItemSold(_id, prevOwner, msg.s...\n      SWAP1 \t\t\tItemSold(_id, prevOwner, msg.s...\n      PUSH [tag] 144\t\t\tItemSold(_id, prevOwner, msg.s...\n      JUMP \t\t\tItemSold(_id, prevOwner, msg.s...\n    tag 143\t\t\tItemSold(_id, prevOwner, msg.s...\n      JUMPDEST \t\t\tItemSold(_id, prevOwner, msg.s...\n      PUSH 40\t\t\tItemSold(_id, prevOwner, msg.s...\n      MLOAD \t\t\tItemSold(_id, prevOwner, msg.s...\n      DUP1 \t\t\tItemSold(_id, prevOwner, msg.s...\n      SWAP2 \t\t\tItemSold(_id, prevOwner, msg.s...\n      SUB \t\t\tItemSold(_id, prevOwner, msg.s...\n      SWAP1 \t\t\tItemSold(_id, prevOwner, msg.s...\n      LOG3 \t\t\tItemSold(_id, prevOwner, msg.s...\n      POP \t\t\t{\\n        require(_id < itemC...\n      POP \t\t\t{\\n        require(_id < itemC...\n      POP \t\t\t{\\n        require(_id < itemC...\n      POP \t\t\tfunction buyItem(uint _id) pub...\n      JUMP \t\t\tfunction buyItem(uint _id) pub...\n    tag 77\t\t\t\n      JUMPDEST \t\t\t\n      PUSH 40\t\t\t\n      MLOAD \t\t\t\n      DUP1 \t\t\t\n      PUSH 120\t\t\t\n      ADD \t\t\t\n      PUSH 40\t\t\t\n      MSTORE \t\t\t\n      DUP1 \t\t\t\n      PUSH 0\t\t\t\n      DUP2 \t\t\t\n      MSTORE \t\t\t\n      PUSH 20\t\t\t\n      ADD \t\t\t\n      PUSH 0\t\t\t\n      PUSH FFFFFFFFFFFFFFFFFFFFFFFFFFFFFFFFFFFFFFFF\t\t\t\n      AND \t\t\t\n      DUP2 \t\t\t\n      MSTORE \t\t\t\n      PUSH 20\t\t\t\n      ADD \t\t\t\n      PUSH 0\t\t\t\n      PUSH FFFFFFFFFFFFFFFFFFFFFFFFFFFFFFFFFFFFFFFF\t\t\t\n      AND \t\t\t\n      DUP2 \t\t\t\n      MSTORE \t\t\t\n      PUSH 20\t\t\t\n      ADD \t\t\t\n      PUSH 60\t\t\t\n      DUP2 \t\t\t\n      MSTORE \t\t\t\n      PUSH 20\t\t\t\n      ADD \t\t\t\n      PUSH 60\t\t\t\n      DUP2 \t\t\t\n      MSTORE \t\t\t\n      PUSH 20\t\t\t\n      ADD \t\t\t\n      PUSH 60\t\t\t\n      DUP2 \t\t\t\n      MSTORE \t\t\t\n      PUSH 20\t\t\t\n      ADD \t\t\t\n      PUSH 0\t\t\t\n      DUP2 \t\t\t\n      MSTORE \t\t\t\n      PUSH 20\t\t\t\n      ADD \t\t\t\n      PUSH 0\t\t\t\n      ISZERO \t\t\t\n      ISZERO \t\t\t\n      DUP2 \t\t\t\n      MSTORE \t\t\t\n      PUSH 20\t\t\t\n      ADD \t\t\t\n      PUSH 0\t\t\t\n      DUP1 \t\t\t\n      NOT \t\t\t\n      AND \t\t\t\n      DUP2 \t\t\t\n      MSTORE \t\t\t\n      POP \t\t\t\n      SWAP1 \t\t\t\n      JUMP \t\t\t\n    tag 145\t\t\t-License-Identifier: MIT\\nprag...\n      JUMPDEST \t\t\t-License-Identifier: MIT\\nprag...\n      PUSH 0\t\t\tm {\\n  \n      DUP2 \t\t\tss pa\n      MLOAD \t\t\t address pay\n      SWAP1 \t\t\td;\\n        address pay\n      POP \t\t\td;\\n        address pay\n      SWAP2 \t\t\t-License-Identifier: MIT\\nprag...\n      SWAP1 \t\t\t-License-Identifier: MIT\\nprag...\n      POP \t\t\t-License-Identifier: MIT\\nprag...\n      JUMP \t\t\t-License-Identifier: MIT\\nprag...\n    tag 146\t\t\t        address payable owner;...\n      JUMPDEST \t\t\t        address payable owner;...\n      PUSH 0\t\t\t of the ima\n      DUP3 \t\t\t      \n      DUP3 \t\t\tice\n      MSTORE \t\t\tuint price;\\n       \n      PUSH 20\t\t\tacti\n      DUP3 \t\t\ttra\n      ADD \t\t\ts32 transactio\n      SWAP1 \t\t\td;\\n        bytes32 transactio\n      POP \t\t\td;\\n        bytes32 transactio\n      SWAP3 \t\t\t        address payable owner;...\n      SWAP2 \t\t\t        address payable owner;...\n      POP \t\t\t        address payable owner;...\n      POP \t\t\t        address payable owner;...\n      JUMP \t\t\t        address payable owner;...\n    tag 147\t\t\tded transaction hash\\n    }\\n\\...\n      JUMPDEST \t\t\tded transaction hash\\n    }\\n\\...\n      PUSH 0\t\t\t  ev\n      DUP2 \t\t\t in\n      SWAP1 \t\t\tted(uint in\n      POP \t\t\tted(uint in\n      PUSH 20\t\t\ted s\n      DUP3 \t\t\tind\n      ADD \t\t\tess indexed se\n      SWAP1 \t\t\tId, address indexed se\n      POP \t\t\tId, address indexed se\n      SWAP2 \t\t\tded transaction hash\\n    }\\n\\...\n      SWAP1 \t\t\tded transaction hash\\n    }\\n\\...\n      POP \t\t\tded transaction hash\\n    }\\n\\...\n      JUMP \t\t\tded transaction hash\\n    }\\n\\...\n    tag 148\t\t\t indexed owner, string title, ...\n      JUMPDEST \t\t\t indexed owner, string title, ...\n      PUSH 0\t\t\timageHa\n      DUP2 \t\t\t2 tra\n      SWAP1 \t\t\tice, bytes32 tra\n      POP \t\t\tice, bytes32 tra\n      SWAP2 \t\t\t indexed owner, string title, ...\n      SWAP1 \t\t\t indexed owner, string title, ...\n      POP \t\t\t indexed owner, string title, ...\n      JUMP \t\t\t indexed owner, string title, ...\n    tag 149\t\t\t); // Updated event definition...\n      JUMPDEST \t\t\t); // Updated event definition...\n      PUSH [tag] 234\t\t\td oldOwner, address inde\n      DUP2 \t\t\ts ind\n      PUSH [tag] 148\t\t\td oldOwner, address inde\n      JUMP \t\t\td oldOwner, address inde\n    tag 234\t\t\td oldOwner, address inde\n      JUMPDEST \t\t\td oldOwner, address inde\n      DUP3 \t\t\tnde\n      MSTORE \t\t\tdress indexed oldOwner, addres...\n      POP \t\t\t); // Updated event definition...\n      POP \t\t\t); // Updated event definition...\n      JUMP \t\t\t); // Updated event definition...\n    tag 150\t\t\t uint price);\\n    event Payme...\n      JUMPDEST \t\t\t uint price);\\n    event Payme...\n      PUSH 0\t\t\tddress \n      PUSH FFFFFFFFFFFFFFFFFFFFFFFFFFFFFFFFFFFFFFFF\t\t\t uint256 amount);\\n\\n    funct...\n      DUP3 \t\t\txed t\n      AND \t\t\tindexed to, uint256 amount);\\n...\n      SWAP1 \t\t\tm, address indexed to, uint256...\n      POP \t\t\tm, address indexed to, uint256...\n      SWAP2 \t\t\t uint price);\\n    event Payme...\n      SWAP1 \t\t\t uint price);\\n    event Payme...\n      POP \t\t\t uint price);\\n    event Payme...\n      JUMP \t\t\t uint price);\\n    event Payme...\n    tag 151\t\t\t_title, string memory _descrip...\n      JUMPDEST \t\t\t_title, string memory _descrip...\n      PUSH 0\t\t\tmory _i\n      PUSH [tag] 237\t\t\t public {\\n        requir\n      DUP3 \t\t\trequi\n      PUSH [tag] 150\t\t\t public {\\n        requir\n      JUMP \t\t\t public {\\n        requir\n    tag 237\t\t\t public {\\n        requir\n      JUMPDEST \t\t\t public {\\n        requir\n      SWAP1 \t\t\tint _price) public {\\n        ...\n      POP \t\t\tint _price) public {\\n        ...\n      SWAP2 \t\t\t_title, string memory _descrip...\n      SWAP1 \t\t\t_title, string memory _descrip...\n      POP \t\t\t_title, string memory _descrip...\n      JUMP \t\t\t_title, string memory _descrip...\n    tag 152\t\t\t, \"Price must be greater than ...\n      JUMPDEST \t\t\t, \"Price must be greater than ...\n      PUSH [tag] 239\t\t\tCount,\\n            seller: pa...\n      DUP2 \t\t\t paya\n      PUSH [tag] 151\t\t\tCount,\\n            seller: pa...\n      JUMP \t\t\tCount,\\n            seller: pa...\n    tag 239\t\t\tCount,\\n            seller: pa...\n      JUMPDEST \t\t\tCount,\\n            seller: pa...\n      DUP3 \t\t\t it\n      MSTORE \t\t\t    id: itemCount,\\n          ...\n      POP \t\t\t, \"Price must be greater than ...\n      POP \t\t\t, \"Price must be greater than ...\n      JUMP \t\t\t, \"Price must be greater than ...\n    tag 153\t\t\t),\\n            owner: payable...\n      JUMPDEST \t\t\t),\\n            owner: payable...\n      PUSH 0\t\t\tset as\n      DUP2 \t\t\t     \n      MLOAD \t\t\t            \n      SWAP1 \t\t\tinitially\\n            \n      POP \t\t\tinitially\\n            \n      SWAP2 \t\t\t),\\n            owner: payable...\n      SWAP1 \t\t\t),\\n            owner: payable...\n      POP \t\t\t),\\n            owner: payable...\n      JUMP \t\t\t),\\n            owner: payable...\n    tag 154\t\t\t,\\n            description: _d...\n      JUMPDEST \t\t\t,\\n            description: _d...\n      PUSH 0\t\t\t,\\n         \n      DUP3 \t\t\t      \n      DUP3 \t\t\t   \n      MSTORE \t\t\tprice,\\n            \n      PUSH 20\t\t\tionH\n      DUP3 \t\t\tnsa\n      ADD \t\t\t transactionHa\n      SWAP1 \t\t\tse,\\n            transactionHa\n      POP \t\t\tse,\\n            transactionHa\n      SWAP3 \t\t\t,\\n            description: _d...\n      SWAP2 \t\t\t,\\n            description: _d...\n      POP \t\t\t,\\n            description: _d...\n      POP \t\t\t,\\n            description: _d...\n      JUMP \t\t\t,\\n            description: _d...\n    tag 155\t\t\ttialize transaction hash to ze...\n      JUMPDEST \t\t\ttialize transaction hash to ze...\n      DUP3 \t\t\tkeccak\n      DUP2 \t\t\tsh \n      DUP4 \t\t\tion\n      MCOPY \t\t\tansactionHash = keccak2\n      PUSH 0\t\t\tp\n      DUP4 \t\t\t.times\n      DUP4 \t\t\tblo\n      ADD \t\t\tked(block.timest\n      MSTORE \t\t\tcodePacked(block.timestamp,\n      POP \t\t\ttialize transaction hash to ze...\n      POP \t\t\ttialize transaction hash to ze...\n      POP \t\t\ttialize transaction hash to ze...\n      JUMP \t\t\ttialize transaction hash to ze...\n    tag 156\t\t\t_title, _price)); // Generate ...\n      JUMPDEST \t\t\t_title, _price)); // Generate ...\n      PUSH 0\t\t\t hash\\n\n      PUSH 1F\t\t\tan\n      NOT \t\t\t= trans\n      PUSH 1F\t\t\tHa\n      DUP4 \t\t\tsacti\n      ADD \t\t\ttransactionHas\n      AND \t\t\tnt].transactionHash = transa\n      SWAP1 \t\t\tms[itemCount].transactionHash ...\n      POP \t\t\tms[itemCount].transactionHash ...\n      SWAP2 \t\t\t_title, _price)); // Generate ...\n      SWAP1 \t\t\t_title, _price)); // Generate ...\n      POP \t\t\t_title, _price)); // Generate ...\n      JUMP \t\t\t_title, _price)); // Generate ...\n    tag 157\t\t\t/ Set transaction hash for the...\n      JUMPDEST \t\t\t/ Set transaction hash for the...\n      PUSH 0\t\t\temC\n      PUSH [tag] 245\t\t\tder, _title, _imageHash, _pric...\n      DUP3 \t\t\ttrans\n      PUSH [tag] 153\t\t\tder, _title, _imageHash, _pric...\n      JUMP \t\t\tder, _title, _imageHash, _pric...\n    tag 245\t\t\tder, _title, _imageHash, _pric...\n      JUMPDEST \t\t\tder, _title, _imageHash, _pric...\n      PUSH [tag] 246\t\t\tmit event with transaction has...\n      DUP2 \t\t\t   }\\n\\n\n      DUP6 \t\t\t++;\n      PUSH [tag] 154\t\t\tmit event with transaction has...\n      JUMP \t\t\tmit event with transaction has...\n    tag 246\t\t\tmit event with transaction has...\n      JUMPDEST \t\t\tmit event with transaction has...\n      SWAP4 \t\t\t); // Emit event with transact...\n      POP \t\t\t); // Emit event with transact...\n      PUSH [tag] 247\t\t\ton buyItem(uint _id) public pa...\n      DUP2 \t\t\t< item\n      DUP6 \t\t\t(_i\n      PUSH 20\t\t\trequ\n      DUP7 \t\t\t     \n      ADD \t\t\t {\\n        requi\n      PUSH [tag] 155\t\t\ton buyItem(uint _id) public pa...\n      JUMP \t\t\ton buyItem(uint _id) public pa...\n    tag 247\t\t\ton buyItem(uint _id) public pa...\n      JUMPDEST \t\t\ton buyItem(uint _id) public pa...\n      PUSH [tag] 248\t\t\txist\");\\n        Item storage \n      DUP2 \t\t\ttorage\n      PUSH [tag] 156\t\t\txist\");\\n        Item storage \n      JUMP \t\t\txist\");\\n        Item storage \n    tag 248\t\t\txist\");\\n        Item storage \n      JUMPDEST \t\t\txist\");\\n        Item storage \n      DUP5 \t\t\tnot\n      ADD \t\t\toes not exist\");\\n        Item...\n      SWAP2 \t\t\tem ID does not exist\");\\n     ...\n      POP \t\t\tem ID does not exist\");\\n     ...\n      POP \t\t\tunt, msg.sender, msg.sender, _...\n      SWAP3 \t\t\t/ Set transaction hash for the...\n      SWAP2 \t\t\t/ Set transaction hash for the...\n      POP \t\t\t/ Set transaction hash for the...\n      POP \t\t\t/ Set transaction hash for the...\n      JUMP \t\t\t/ Set transaction hash for the...\n    tag 158\t\t\t_id];\\n        require(msg.val...\n      JUMPDEST \t\t\t_id];\\n        require(msg.val...\n      PUSH 0\t\t\t item.p\n      DUP2 \t\t\te in \n      ISZERO \t\t\tng price in o\n      ISZERO \t\t\the asking price in or\n      SWAP1 \t\t\tse submit the asking price in ...\n      POP \t\t\tse submit the asking price in ...\n      SWAP2 \t\t\t_id];\\n        require(msg.val...\n      SWAP1 \t\t\t_id];\\n        require(msg.val...\n      POP \t\t\t_id];\\n        require(msg.val...\n      JUMP \t\t\t_id];\\n        require(msg.val...\n    tag 159\t\t\tete the purchase\");\\n        r...\n      JUMPDEST \t\t\tete the purchase\");\\n        r...\n      PUSH [tag] 251\t\t\tbeen sold\");\\n        \n      DUP2 \t\t\t     \n      PUSH [tag] 158\t\t\tbeen sold\");\\n        \n      JUMP \t\t\tbeen sold\");\\n        \n    tag 251\t\t\tbeen sold\");\\n        \n      JUMPDEST \t\t\tbeen sold\");\\n        \n      DUP3 \t\t\tead\n      MSTORE \t\t\thas already been sold\");\\n    ...\n      POP \t\t\tete the purchase\");\\n        r...\n      POP \t\t\tete the purchase\");\\n        r...\n      JUMP \t\t\tete the purchase\");\\n        r...\n    tag 160\t\t\tender != item.owner, \"Owner ca...\n      JUMPDEST \t\t\tender != item.owner, \"Owner ca...\n      PUSH 0\t\t\ty their\n      DUP2 \t\t\t// Sa\n      SWAP1 \t\t\t;\\n\\n        // Sa\n      POP \t\t\t;\\n\\n        // Sa\n      SWAP2 \t\t\tender != item.owner, \"Owner ca...\n      SWAP1 \t\t\tender != item.owner, \"Owner ca...\n      POP \t\t\tender != item.owner, \"Owner ca...\n      JUMP \t\t\tender != item.owner, \"Owner ca...\n    tag 161\t\t\to transfer funds using call\\n ...\n      JUMPDEST \t\t\to transfer funds using call\\n ...\n      PUSH [tag] 254\t\t\t msg.value}(\"\");\\n       \n      DUP2 \t\t\t     \n      PUSH [tag] 160\t\t\t msg.value}(\"\");\\n       \n      JUMP \t\t\t msg.value}(\"\");\\n       \n    tag 254\t\t\t msg.value}(\"\");\\n       \n      JUMPDEST \t\t\t msg.value}(\"\");\\n       \n      DUP3 \t\t\talu\n      MSTORE \t\t\t.call{value: msg.value}(\"\");\\n...\n      POP \t\t\to transfer funds using call\\n ...\n      POP \t\t\to transfer funds using call\\n ...\n      JUMP \t\t\to transfer funds using call\\n ...\n    tag 162\t\t\t item.owner; // Track previous...\n      JUMPDEST \t\t\t item.owner; // Track previous...\n      PUSH 0\t\t\town\n      PUSH 120\t\t\tsold =\n      DUP4 \t\t\tite\n      ADD \t\t\t    item.sold = \n      PUSH 0\t\t\tItem\n      DUP4 \t\t\t  emi\n      ADD \t\t\t      emit ItemS\n      MLOAD \t\t\te);\\n        emit ItemSo\n      PUSH [tag] 256\t\t\twner, msg.sender, item.price);...\n      PUSH 0\t\t\tItem\n      DUP7 \t\t\tetA\n      ADD \t\t\ton getAllItems\n      DUP3 \t\t\t }\\n\\n    func\n      PUSH [tag] 149\t\t\twner, msg.sender, item.price);...\n      JUMP \t\t\twner, msg.sender, item.price);...\n    tag 256\t\t\twner, msg.sender, item.price);...\n      JUMPDEST \t\t\twner, msg.sender, item.price);...\n      POP \t\t\t     emit PaymentSent(msg.send...\n      PUSH 20\t\t\tuint\n      DUP4 \t\t\temByI\n      ADD \t\t\tetItemById(uint \n      MLOAD \t\t\ttion getItemById(uint _\n      PUSH [tag] 257\t\t\tew returns (Item memory) {\\n  ...\n      PUSH 20\t\t\t not\n      DUP7 \t\t\t do\n      ADD \t\t\tm ID does not \n      DUP3 \t\t\ttemCount, \"I\n      PUSH [tag] 152\t\t\tew returns (Item memory) {\\n  ...\n      JUMP \t\t\tew returns (Item memory) {\\n  ...\n    tag 257\t\t\tew returns (Item memory) {\\n  ...\n      JUMPDEST \t\t\tew returns (Item memory) {\\n  ...\n      POP \t\t\ts (Item[] memory) {\\n        r...\n      PUSH 40\t\t\t\n      DUP4 \t\t\t\n      ADD \t\t\t\n      MLOAD \t\t\t\n      PUSH [tag] 258\t\t\t\n      PUSH 40\t\t\t\n      DUP7 \t\t\t\n      ADD \t\t\t\n      DUP3 \t\t\t\n      PUSH [tag] 152\t\t\t\n      JUMP \t\t\t\n    tag 258\t\t\t\n      JUMPDEST \t\t\t\n      POP \t\t\trn items[_id];\\n    }\\n}\\n\n      PUSH 60\t\t\t\n      DUP4 \t\t\t\n      ADD \t\t\t\n      MLOAD \t\t\t\n      DUP5 \t\t\t\n      DUP3 \t\t\t\n      SUB \t\t\t\n      PUSH 60\t\t\t\n      DUP7 \t\t\t\n      ADD \t\t\t\n      MSTORE \t\t\t\n      PUSH [tag] 259\t\t\t\n      DUP3 \t\t\t\n      DUP3 \t\t\t\n      PUSH [tag] 157\t\t\t\n      JUMP \t\t\t\n    tag 259\t\t\t\n      JUMPDEST \t\t\t\n      SWAP2 \t\t\t\n      POP \t\t\t\n      POP \t\t\t\n      PUSH 80\t\t\t\n      DUP4 \t\t\t\n      ADD \t\t\t\n      MLOAD \t\t\t\n      DUP5 \t\t\t\n      DUP3 \t\t\t\n      SUB \t\t\t\n      PUSH 80\t\t\t\n      DUP7 \t\t\t\n      ADD \t\t\t\n      MSTORE \t\t\t\n      PUSH [tag] 260\t\t\t\n      DUP3 \t\t\t\n      DUP3 \t\t\t\n      PUSH [tag] 157\t\t\t\n      JUMP \t\t\t\n    tag 260\t\t\t\n      JUMPDEST \t\t\t\n      SWAP2 \t\t\t\n      POP \t\t\t\n      POP \t\t\t\n      PUSH A0\t\t\t\n      DUP4 \t\t\t\n      ADD \t\t\t\n      MLOAD \t\t\t\n      DUP5 \t\t\t\n      DUP3 \t\t\t\n      SUB \t\t\t\n      PUSH A0\t\t\t\n      DUP7 \t\t\t\n      ADD \t\t\t\n      MSTORE \t\t\t\n      PUSH [tag] 261\t\t\t\n      DUP3 \t\t\t\n      DUP3 \t\t\t\n      PUSH [tag] 157\t\t\t\n      JUMP \t\t\t\n    tag 261\t\t\t\n      JUMPDEST \t\t\t\n      SWAP2 \t\t\t\n      POP \t\t\t\n      POP \t\t\t\n      PUSH C0\t\t\t\n      DUP4 \t\t\t\n      ADD \t\t\t\n      MLOAD \t\t\t\n      PUSH [tag] 262\t\t\t\n      PUSH C0\t\t\t\n      DUP7 \t\t\t\n      ADD \t\t\t\n      DUP3 \t\t\t\n      PUSH [tag] 149\t\t\t\n      JUMP \t\t\t\n    tag 262\t\t\t\n      JUMPDEST \t\t\t\n      POP \t\t\t\n      PUSH E0\t\t\t\n      DUP4 \t\t\t\n      ADD \t\t\t\n      MLOAD \t\t\t\n      PUSH [tag] 263\t\t\t\n      PUSH E0\t\t\t\n      DUP7 \t\t\t\n      ADD \t\t\t\n      DUP3 \t\t\t\n      PUSH [tag] 159\t\t\t\n      JUMP \t\t\t\n    tag 263\t\t\t\n      JUMPDEST \t\t\t\n      POP \t\t\t\n      PUSH 100\t\t\t\n      DUP4 \t\t\t\n      ADD \t\t\t\n      MLOAD \t\t\t\n      PUSH [tag] 264\t\t\t\n      PUSH 100\t\t\t\n      DUP7 \t\t\t\n      ADD \t\t\t\n      DUP3 \t\t\t\n      PUSH [tag] 161\t\t\t\n      JUMP \t\t\t\n    tag 264\t\t\t\n      JUMPDEST \t\t\t\n      POP \t\t\t\n      DUP1 \t\t\t\n      SWAP2 \t\t\t\n      POP \t\t\t\n      POP \t\t\t to the new buyer\\n        ite...\n      SWAP3 \t\t\t item.owner; // Track previous...\n      SWAP2 \t\t\t item.owner; // Track previous...\n      POP \t\t\t item.owner; // Track previous...\n      POP \t\t\t item.owner; // Track previous...\n      JUMP \t\t\t item.owner; // Track previous...\n    tag 163\t\t\t\n      JUMPDEST \t\t\t\n      PUSH 0\t\t\t\n      PUSH [tag] 266\t\t\t\n      DUP4 \t\t\t\n      DUP4 \t\t\t\n      PUSH [tag] 162\t\t\t\n      JUMP \t\t\t\n    tag 266\t\t\t\n      JUMPDEST \t\t\t\n      SWAP1 \t\t\t\n      POP \t\t\t\n      SWAP3 \t\t\t\n      SWAP2 \t\t\t\n      POP \t\t\t\n      POP \t\t\t\n      JUMP \t\t\t\n    tag 164\t\t\t\n      JUMPDEST \t\t\t\n      PUSH 0\t\t\t\n      PUSH 20\t\t\t\n      DUP3 \t\t\t\n      ADD \t\t\t\n      SWAP1 \t\t\t\n      POP \t\t\t\n      SWAP2 \t\t\t\n      SWAP1 \t\t\t\n      POP \t\t\t\n      JUMP \t\t\t\n    tag 165\t\t\t\n      JUMPDEST \t\t\t\n      PUSH 0\t\t\t\n      PUSH [tag] 269\t\t\t\n      DUP3 \t\t\t\n      PUSH [tag] 145\t\t\t\n      JUMP \t\t\t\n    tag 269\t\t\t\n      JUMPDEST \t\t\t\n      PUSH [tag] 270\t\t\t\n      DUP2 \t\t\t\n      DUP6 \t\t\t\n      PUSH [tag] 146\t\t\t\n      JUMP \t\t\t\n    tag 270\t\t\t\n      JUMPDEST \t\t\t\n      SWAP4 \t\t\t\n      POP \t\t\t\n      DUP4 \t\t\t\n      PUSH 20\t\t\t\n      DUP3 \t\t\t\n      MUL \t\t\t\n      DUP6 \t\t\t\n      ADD \t\t\t\n      PUSH [tag] 271\t\t\t\n      DUP6 \t\t\t\n      PUSH [tag] 147\t\t\t\n      JUMP \t\t\t\n    tag 271\t\t\t\n      JUMPDEST \t\t\t\n      DUP1 \t\t\t\n      PUSH 0\t\t\t\n    tag 272\t\t\t\n      JUMPDEST \t\t\t\n      DUP6 \t\t\t\n      DUP2 \t\t\t\n      LT \t\t\t\n      ISZERO \t\t\t\n      PUSH [tag] 274\t\t\t\n      JUMPI \t\t\t\n      DUP5 \t\t\t\n      DUP5 \t\t\t\n      SUB \t\t\t\n      DUP10 \t\t\t\n      MSTORE \t\t\t\n      DUP2 \t\t\t\n      MLOAD \t\t\t\n      PUSH [tag] 275\t\t\t\n      DUP6 \t\t\t\n      DUP3 \t\t\t\n      PUSH [tag] 163\t\t\t\n      JUMP \t\t\t\n    tag 275\t\t\t\n      JUMPDEST \t\t\t\n      SWAP5 \t\t\t\n      POP \t\t\t\n      PUSH [tag] 276\t\t\t\n      DUP4 \t\t\t\n      PUSH [tag] 164\t\t\t\n      JUMP \t\t\t\n    tag 276\t\t\t\n      JUMPDEST \t\t\t\n      SWAP3 \t\t\t\n      POP \t\t\t\n      PUSH 20\t\t\t\n      DUP11 \t\t\t\n      ADD \t\t\t\n      SWAP10 \t\t\t\n      POP \t\t\t\n      POP \t\t\t\n      PUSH 1\t\t\t\n      DUP2 \t\t\t\n      ADD \t\t\t\n      SWAP1 \t\t\t\n      POP \t\t\t\n      PUSH [tag] 272\t\t\t\n      JUMP \t\t\t\n    tag 274\t\t\t\n      JUMPDEST \t\t\t\n      POP \t\t\t\n      DUP3 \t\t\t\n      SWAP8 \t\t\t\n      POP \t\t\t\n      DUP8 \t\t\t\n      SWAP6 \t\t\t\n      POP \t\t\t\n      POP \t\t\t\n      POP \t\t\t\n      POP \t\t\t\n      POP \t\t\t\n      POP \t\t\t\n      SWAP3 \t\t\t\n      SWAP2 \t\t\t\n      POP \t\t\t\n      POP \t\t\t\n      JUMP \t\t\t\n    tag 12\t\t\t\n      JUMPDEST \t\t\t\n      PUSH 0\t\t\t\n      PUSH 20\t\t\t\n      DUP3 \t\t\t\n      ADD \t\t\t\n      SWAP1 \t\t\t\n      POP \t\t\t\n      DUP2 \t\t\t\n      DUP2 \t\t\t\n      SUB \t\t\t\n      PUSH 0\t\t\t\n      DUP4 \t\t\t\n      ADD \t\t\t\n      MSTORE \t\t\t\n      PUSH [tag] 278\t\t\t\n      DUP2 \t\t\t\n      DUP5 \t\t\t\n      PUSH [tag] 165\t\t\t\n      JUMP \t\t\t\n    tag 278\t\t\t\n      JUMPDEST \t\t\t\n      SWAP1 \t\t\t\n      POP \t\t\t\n      SWAP3 \t\t\t\n      SWAP2 \t\t\t\n      POP \t\t\t\n      POP \t\t\t\n      JUMP \t\t\t\n    tag 166\t\t\t\n      JUMPDEST \t\t\t\n      PUSH [tag] 280\t\t\t\n      DUP2 \t\t\t\n      PUSH [tag] 148\t\t\t\n      JUMP \t\t\t\n    tag 280\t\t\t\n      JUMPDEST \t\t\t\n      DUP3 \t\t\t\n      MSTORE \t\t\t\n      POP \t\t\t\n      POP \t\t\t\n      JUMP \t\t\t\n    tag 17\t\t\t\n      JUMPDEST \t\t\t\n      PUSH 0\t\t\t\n      PUSH 20\t\t\t\n      DUP3 \t\t\t\n      ADD \t\t\t\n      SWAP1 \t\t\t\n      POP \t\t\t\n      PUSH [tag] 282\t\t\t\n      PUSH 0\t\t\t\n      DUP4 \t\t\t\n      ADD \t\t\t\n      DUP5 \t\t\t\n      PUSH [tag] 166\t\t\t\n      JUMP \t\t\t\n    tag 282\t\t\t\n      JUMPDEST \t\t\t\n      SWAP3 \t\t\t\n      SWAP2 \t\t\t\n      POP \t\t\t\n      POP \t\t\t\n      JUMP \t\t\t\n    tag 167\t\t\t\n      JUMPDEST \t\t\t\n      PUSH 0\t\t\t\n      PUSH 40\t\t\t\n      MLOAD \t\t\t\n      SWAP1 \t\t\t\n      POP \t\t\t\n      SWAP1 \t\t\t\n      JUMP \t\t\t\n    tag 168\t\t\t\n      JUMPDEST \t\t\t\n      PUSH 0\t\t\t\n      DUP1 \t\t\t\n      REVERT \t\t\t\n    tag 169\t\t\t\n      JUMPDEST \t\t\t\n      PUSH 0\t\t\t\n      DUP1 \t\t\t\n      REVERT \t\t\t\n    tag 170\t\t\t\n      JUMPDEST \t\t\t\n      PUSH [tag] 287\t\t\t\n      DUP2 \t\t\t\n      PUSH [tag] 148\t\t\t\n      JUMP \t\t\t\n    tag 287\t\t\t\n      JUMPDEST \t\t\t\n      DUP2 \t\t\t\n      EQ \t\t\t\n      PUSH [tag] 288\t\t\t\n      JUMPI \t\t\t\n      PUSH 0\t\t\t\n      DUP1 \t\t\t\n      REVERT \t\t\t\n    tag 288\t\t\t\n      JUMPDEST \t\t\t\n      POP \t\t\t\n      JUMP \t\t\t\n    tag 171\t\t\t\n      JUMPDEST \t\t\t\n      PUSH 0\t\t\t\n      DUP2 \t\t\t\n      CALLDATALOAD \t\t\t\n      SWAP1 \t\t\t\n      POP \t\t\t\n      PUSH [tag] 290\t\t\t\n      DUP2 \t\t\t\n      PUSH [tag] 170\t\t\t\n      JUMP \t\t\t\n    tag 290\t\t\t\n      JUMPDEST \t\t\t\n      SWAP3 \t\t\t\n      SWAP2 \t\t\t\n      POP \t\t\t\n      POP \t\t\t\n      JUMP \t\t\t\n    tag 21\t\t\t\n      JUMPDEST \t\t\t\n      PUSH 0\t\t\t\n      PUSH 20\t\t\t\n      DUP3 \t\t\t\n      DUP5 \t\t\t\n      SUB \t\t\t\n      SLT \t\t\t\n      ISZERO \t\t\t\n      PUSH [tag] 292\t\t\t\n      JUMPI \t\t\t\n      PUSH [tag] 293\t\t\t\n      PUSH [tag] 168\t\t\t\n      JUMP \t\t\t\n    tag 293\t\t\t\n      JUMPDEST \t\t\t\n    tag 292\t\t\t\n      JUMPDEST \t\t\t\n      PUSH 0\t\t\t\n      PUSH [tag] 294\t\t\t\n      DUP5 \t\t\t\n      DUP3 \t\t\t\n      DUP6 \t\t\t\n      ADD \t\t\t\n      PUSH [tag] 171\t\t\t\n      JUMP \t\t\t\n    tag 294\t\t\t\n      JUMPDEST \t\t\t\n      SWAP2 \t\t\t\n      POP \t\t\t\n      POP \t\t\t\n      SWAP3 \t\t\t\n      SWAP2 \t\t\t\n      POP \t\t\t\n      POP \t\t\t\n      JUMP \t\t\t\n    tag 172\t\t\t\n      JUMPDEST \t\t\t\n      PUSH [tag] 296\t\t\t\n      DUP2 \t\t\t\n      PUSH [tag] 151\t\t\t\n      JUMP \t\t\t\n    tag 296\t\t\t\n      JUMPDEST \t\t\t\n      DUP3 \t\t\t\n      MSTORE \t\t\t\n      POP \t\t\t\n      POP \t\t\t\n      JUMP \t\t\t\n    tag 173\t\t\t\n      JUMPDEST \t\t\t\n      PUSH 0\t\t\t\n      DUP3 \t\t\t\n      DUP3 \t\t\t\n      MSTORE \t\t\t\n      PUSH 20\t\t\t\n      DUP3 \t\t\t\n      ADD \t\t\t\n      SWAP1 \t\t\t\n      POP \t\t\t\n      SWAP3 \t\t\t\n      SWAP2 \t\t\t\n      POP \t\t\t\n      POP \t\t\t\n      JUMP \t\t\t\n    tag 174\t\t\t\n      JUMPDEST \t\t\t\n      PUSH 0\t\t\t\n      PUSH [tag] 299\t\t\t\n      DUP3 \t\t\t\n      PUSH [tag] 153\t\t\t\n      JUMP \t\t\t\n    tag 299\t\t\t\n      JUMPDEST \t\t\t\n      PUSH [tag] 300\t\t\t\n      DUP2 \t\t\t\n      DUP6 \t\t\t\n      PUSH [tag] 173\t\t\t\n      JUMP \t\t\t\n    tag 300\t\t\t\n      JUMPDEST \t\t\t\n      SWAP4 \t\t\t\n      POP \t\t\t\n      PUSH [tag] 301\t\t\t\n      DUP2 \t\t\t\n      DUP6 \t\t\t\n      PUSH 20\t\t\t\n      DUP7 \t\t\t\n      ADD \t\t\t\n      PUSH [tag] 155\t\t\t\n      JUMP \t\t\t\n    tag 301\t\t\t\n      JUMPDEST \t\t\t\n      PUSH [tag] 302\t\t\t\n      DUP2 \t\t\t\n      PUSH [tag] 156\t\t\t\n      JUMP \t\t\t\n    tag 302\t\t\t\n      JUMPDEST \t\t\t\n      DUP5 \t\t\t\n      ADD \t\t\t\n      SWAP2 \t\t\t\n      POP \t\t\t\n      POP \t\t\t\n      SWAP3 \t\t\t\n      SWAP2 \t\t\t\n      POP \t\t\t\n      POP \t\t\t\n      JUMP \t\t\t\n    tag 175\t\t\t\n      JUMPDEST \t\t\t\n      PUSH [tag] 304\t\t\t\n      DUP2 \t\t\t\n      PUSH [tag] 158\t\t\t\n      JUMP \t\t\t\n    tag 304\t\t\t\n      JUMPDEST \t\t\t\n      DUP3 \t\t\t\n      MSTORE \t\t\t\n      POP \t\t\t\n      POP \t\t\t\n      JUMP \t\t\t\n    tag 176\t\t\t\n      JUMPDEST \t\t\t\n      PUSH [tag] 306\t\t\t\n      DUP2 \t\t\t\n      PUSH [tag] 160\t\t\t\n      JUMP \t\t\t\n    tag 306\t\t\t\n      JUMPDEST \t\t\t\n      DUP3 \t\t\t\n      MSTORE \t\t\t\n      POP \t\t\t\n      POP \t\t\t\n      JUMP \t\t\t\n    tag 24\t\t\t\n      JUMPDEST \t\t\t\n      PUSH 0\t\t\t\n      PUSH 120\t\t\t\n      DUP3 \t\t\t\n      ADD \t\t\t\n      SWAP1 \t\t\t\n      POP \t\t\t\n      PUSH [tag] 308\t\t\t\n      PUSH 0\t\t\t\n      DUP4 \t\t\t\n      ADD \t\t\t\n      DUP13 \t\t\t\n      PUSH [tag] 166\t\t\t\n      JUMP \t\t\t\n    tag 308\t\t\t\n      JUMPDEST \t\t\t\n      PUSH [tag] 309\t\t\t\n      PUSH 20\t\t\t\n      DUP4 \t\t\t\n      ADD \t\t\t\n      DUP12 \t\t\t\n      PUSH [tag] 172\t\t\t\n      JUMP \t\t\t\n    tag 309\t\t\t\n      JUMPDEST \t\t\t\n      PUSH [tag] 310\t\t\t\n      PUSH 40\t\t\t\n      DUP4 \t\t\t\n      ADD \t\t\t\n      DUP11 \t\t\t\n      PUSH [tag] 172\t\t\t\n      JUMP \t\t\t\n    tag 310\t\t\t\n      JUMPDEST \t\t\t\n      DUP2 \t\t\t\n      DUP2 \t\t\t\n      SUB \t\t\t\n      PUSH 60\t\t\t\n      DUP4 \t\t\t\n      ADD \t\t\t\n      MSTORE \t\t\t\n      PUSH [tag] 311\t\t\t\n      DUP2 \t\t\t\n      DUP10 \t\t\t\n      PUSH [tag] 174\t\t\t\n      JUMP \t\t\t\n    tag 311\t\t\t\n      JUMPDEST \t\t\t\n      SWAP1 \t\t\t\n      POP \t\t\t\n      DUP2 \t\t\t\n      DUP2 \t\t\t\n      SUB \t\t\t\n      PUSH 80\t\t\t\n      DUP4 \t\t\t\n      ADD \t\t\t\n      MSTORE \t\t\t\n      PUSH [tag] 312\t\t\t\n      DUP2 \t\t\t\n      DUP9 \t\t\t\n      PUSH [tag] 174\t\t\t\n      JUMP \t\t\t\n    tag 312\t\t\t\n      JUMPDEST \t\t\t\n      SWAP1 \t\t\t\n      POP \t\t\t\n      DUP2 \t\t\t\n      DUP2 \t\t\t\n      SUB \t\t\t\n      PUSH A0\t\t\t\n      DUP4 \t\t\t\n      ADD \t\t\t\n      MSTORE \t\t\t\n      PUSH [tag] 313\t\t\t\n      DUP2 \t\t\t\n      DUP8 \t\t\t\n      PUSH [tag] 174\t\t\t\n      JUMP \t\t\t\n    tag 313\t\t\t\n      JUMPDEST \t\t\t\n      SWAP1 \t\t\t\n      POP \t\t\t\n      PUSH [tag] 314\t\t\t\n      PUSH C0\t\t\t\n      DUP4 \t\t\t\n      ADD \t\t\t\n      DUP7 \t\t\t\n      PUSH [tag] 166\t\t\t\n      JUMP \t\t\t\n    tag 314\t\t\t\n      JUMPDEST \t\t\t\n      PUSH [tag] 315\t\t\t\n      PUSH E0\t\t\t\n      DUP4 \t\t\t\n      ADD \t\t\t\n      DUP6 \t\t\t\n      PUSH [tag] 175\t\t\t\n      JUMP \t\t\t\n    tag 315\t\t\t\n      JUMPDEST \t\t\t\n      PUSH [tag] 316\t\t\t\n      PUSH 100\t\t\t\n      DUP4 \t\t\t\n      ADD \t\t\t\n      DUP5 \t\t\t\n      PUSH [tag] 176\t\t\t\n      JUMP \t\t\t\n    tag 316\t\t\t\n      JUMPDEST \t\t\t\n      SWAP11 \t\t\t\n      SWAP10 \t\t\t\n      POP \t\t\t\n      POP \t\t\t\n      POP \t\t\t\n      POP \t\t\t\n      POP \t\t\t\n      POP \t\t\t\n      POP \t\t\t\n      POP \t\t\t\n      POP \t\t\t\n      POP \t\t\t\n      JUMP \t\t\t\n    tag 177\t\t\t\n      JUMPDEST \t\t\t\n      PUSH 0\t\t\t\n      PUSH 120\t\t\t\n      DUP4 \t\t\t\n      ADD \t\t\t\n      PUSH 0\t\t\t\n      DUP4 \t\t\t\n      ADD \t\t\t\n      MLOAD \t\t\t\n      PUSH [tag] 318\t\t\t\n      PUSH 0\t\t\t\n      DUP7 \t\t\t\n      ADD \t\t\t\n      DUP3 \t\t\t\n      PUSH [tag] 149\t\t\t\n      JUMP \t\t\t\n    tag 318\t\t\t\n      JUMPDEST \t\t\t\n      POP \t\t\t\n      PUSH 20\t\t\t\n      DUP4 \t\t\t\n      ADD \t\t\t\n      MLOAD \t\t\t\n      PUSH [tag] 319\t\t\t\n      PUSH 20\t\t\t\n      DUP7 \t\t\t\n      ADD \t\t\t\n      DUP3 \t\t\t\n      PUSH [tag] 152\t\t\t\n      JUMP \t\t\t\n    tag 319\t\t\t\n      JUMPDEST \t\t\t\n      POP \t\t\t\n      PUSH 40\t\t\t\n      DUP4 \t\t\t\n      ADD \t\t\t\n      MLOAD \t\t\t\n      PUSH [tag] 320\t\t\t\n      PUSH 40\t\t\t\n      DUP7 \t\t\t\n      ADD \t\t\t\n      DUP3 \t\t\t\n      PUSH [tag] 152\t\t\t\n      JUMP \t\t\t\n    tag 320\t\t\t\n      JUMPDEST \t\t\t\n      POP \t\t\t\n      PUSH 60\t\t\t\n      DUP4 \t\t\t\n      ADD \t\t\t\n      MLOAD \t\t\t\n      DUP5 \t\t\t\n      DUP3 \t\t\t\n      SUB \t\t\t\n      PUSH 60\t\t\t\n      DUP7 \t\t\t\n      ADD \t\t\t\n      MSTORE \t\t\t\n      PUSH [tag] 321\t\t\t\n      DUP3 \t\t\t\n      DUP3 \t\t\t\n      PUSH [tag] 157\t\t\t\n      JUMP \t\t\t\n    tag 321\t\t\t\n      JUMPDEST \t\t\t\n      SWAP2 \t\t\t\n      POP \t\t\t\n      POP \t\t\t\n      PUSH 80\t\t\t\n      DUP4 \t\t\t\n      ADD \t\t\t\n      MLOAD \t\t\t\n      DUP5 \t\t\t\n      DUP3 \t\t\t\n      SUB \t\t\t\n      PUSH 80\t\t\t\n      DUP7 \t\t\t\n      ADD \t\t\t\n      MSTORE \t\t\t\n      PUSH [tag] 322\t\t\t\n      DUP3 \t\t\t\n      DUP3 \t\t\t\n      PUSH [tag] 157\t\t\t\n      JUMP \t\t\t\n    tag 322\t\t\t\n      JUMPDEST \t\t\t\n      SWAP2 \t\t\t\n      POP \t\t\t\n      POP \t\t\t\n      PUSH A0\t\t\t\n      DUP4 \t\t\t\n      ADD \t\t\t\n      MLOAD \t\t\t\n      DUP5 \t\t\t\n      DUP3 \t\t\t\n      SUB \t\t\t\n      PUSH A0\t\t\t\n      DUP7 \t\t\t\n      ADD \t\t\t\n      MSTORE \t\t\t\n      PUSH [tag] 323\t\t\t\n      DUP3 \t\t\t\n      DUP3 \t\t\t\n      PUSH [tag] 157\t\t\t\n      JUMP \t\t\t\n    tag 323\t\t\t\n      JUMPDEST \t\t\t\n      SWAP2 \t\t\t\n      POP \t\t\t\n      POP \t\t\t\n      PUSH C0\t\t\t\n      DUP4 \t\t\t\n      ADD \t\t\t\n      MLOAD \t\t\t\n      PUSH [tag] 324\t\t\t\n      PUSH C0\t\t\t\n      DUP7 \t\t\t\n      ADD \t\t\t\n      DUP3 \t\t\t\n      PUSH [tag] 149\t\t\t\n      JUMP \t\t\t\n    tag 324\t\t\t\n      JUMPDEST \t\t\t\n      POP \t\t\t\n      PUSH E0\t\t\t\n      DUP4 \t\t\t\n      ADD \t\t\t\n      MLOAD \t\t\t\n      PUSH [tag] 325\t\t\t\n      PUSH E0\t\t\t\n      DUP7 \t\t\t\n      ADD \t\t\t\n      DUP3 \t\t\t\n      PUSH [tag] 159\t\t\t\n      JUMP \t\t\t\n    tag 325\t\t\t\n      JUMPDEST \t\t\t\n      POP \t\t\t\n      PUSH 100\t\t\t\n      DUP4 \t\t\t\n      ADD \t\t\t\n      MLOAD \t\t\t\n      PUSH [tag] 326\t\t\t\n      PUSH 100\t\t\t\n      DUP7 \t\t\t\n      ADD \t\t\t\n      DUP3 \t\t\t\n      PUSH [tag] 161\t\t\t\n      JUMP \t\t\t\n    tag 326\t\t\t\n      JUMPDEST \t\t\t\n      POP \t\t\t\n      DUP1 \t\t\t\n      SWAP2 \t\t\t\n      POP \t\t\t\n      POP \t\t\t\n      SWAP3 \t\t\t\n      SWAP2 \t\t\t\n      POP \t\t\t\n      POP \t\t\t\n      JUMP \t\t\t\n    tag 30\t\t\t\n      JUMPDEST \t\t\t\n      PUSH 0\t\t\t\n      PUSH 20\t\t\t\n      DUP3 \t\t\t\n      ADD \t\t\t\n      SWAP1 \t\t\t\n      POP \t\t\t\n      DUP2 \t\t\t\n      DUP2 \t\t\t\n      SUB \t\t\t\n      PUSH 0\t\t\t\n      DUP4 \t\t\t\n      ADD \t\t\t\n      MSTORE \t\t\t\n      PUSH [tag] 328\t\t\t\n      DUP2 \t\t\t\n      DUP5 \t\t\t\n      PUSH [tag] 177\t\t\t\n      JUMP \t\t\t\n    tag 328\t\t\t\n      JUMPDEST \t\t\t\n      SWAP1 \t\t\t\n      POP \t\t\t\n      SWAP3 \t\t\t\n      SWAP2 \t\t\t\n      POP \t\t\t\n      POP \t\t\t\n      JUMP \t\t\t\n    tag 178\t\t\t\n      JUMPDEST \t\t\t\n      PUSH 0\t\t\t\n      DUP1 \t\t\t\n      REVERT \t\t\t\n    tag 179\t\t\t\n      JUMPDEST \t\t\t\n      PUSH 0\t\t\t\n      DUP1 \t\t\t\n      REVERT \t\t\t\n    tag 180\t\t\t\n      JUMPDEST \t\t\t\n      PUSH 4E487B7100000000000000000000000000000000000000000000000000000000\t\t\t\n      PUSH 0\t\t\t\n      MSTORE \t\t\t\n      PUSH 41\t\t\t\n      PUSH 4\t\t\t\n      MSTORE \t\t\t\n      PUSH 24\t\t\t\n      PUSH 0\t\t\t\n      REVERT \t\t\t\n    tag 181\t\t\t\n      JUMPDEST \t\t\t\n      PUSH [tag] 333\t\t\t\n      DUP3 \t\t\t\n      PUSH [tag] 156\t\t\t\n      JUMP \t\t\t\n    tag 333\t\t\t\n      JUMPDEST \t\t\t\n      DUP2 \t\t\t\n      ADD \t\t\t\n      DUP2 \t\t\t\n      DUP2 \t\t\t\n      LT \t\t\t\n      PUSH FFFFFFFFFFFFFFFF\t\t\t\n      DUP3 \t\t\t\n      GT \t\t\t\n      OR \t\t\t\n      ISZERO \t\t\t\n      PUSH [tag] 334\t\t\t\n      JUMPI \t\t\t\n      PUSH [tag] 335\t\t\t\n      PUSH [tag] 180\t\t\t\n      JUMP \t\t\t\n    tag 335\t\t\t\n      JUMPDEST \t\t\t\n    tag 334\t\t\t\n      JUMPDEST \t\t\t\n      DUP1 \t\t\t\n      PUSH 40\t\t\t\n      MSTORE \t\t\t\n      POP \t\t\t\n      POP \t\t\t\n      POP \t\t\t\n      JUMP \t\t\t\n    tag 182\t\t\t\n      JUMPDEST \t\t\t\n      PUSH 0\t\t\t\n      PUSH [tag] 337\t\t\t\n      PUSH [tag] 167\t\t\t\n      JUMP \t\t\t\n    tag 337\t\t\t\n      JUMPDEST \t\t\t\n      SWAP1 \t\t\t\n      POP \t\t\t\n      PUSH [tag] 338\t\t\t\n      DUP3 \t\t\t\n      DUP3 \t\t\t\n      PUSH [tag] 181\t\t\t\n      JUMP \t\t\t\n    tag 338\t\t\t\n      JUMPDEST \t\t\t\n      SWAP2 \t\t\t\n      SWAP1 \t\t\t\n      POP \t\t\t\n      JUMP \t\t\t\n    tag 183\t\t\t\n      JUMPDEST \t\t\t\n      PUSH 0\t\t\t\n      PUSH FFFFFFFFFFFFFFFF\t\t\t\n      DUP3 \t\t\t\n      GT \t\t\t\n      ISZERO \t\t\t\n      PUSH [tag] 340\t\t\t\n      JUMPI \t\t\t\n      PUSH [tag] 341\t\t\t\n      PUSH [tag] 180\t\t\t\n      JUMP \t\t\t\n    tag 341\t\t\t\n      JUMPDEST \t\t\t\n    tag 340\t\t\t\n      JUMPDEST \t\t\t\n      PUSH [tag] 342\t\t\t\n      DUP3 \t\t\t\n      PUSH [tag] 156\t\t\t\n      JUMP \t\t\t\n    tag 342\t\t\t\n      JUMPDEST \t\t\t\n      SWAP1 \t\t\t\n      POP \t\t\t\n      PUSH 20\t\t\t\n      DUP2 \t\t\t\n      ADD \t\t\t\n      SWAP1 \t\t\t\n      POP \t\t\t\n      SWAP2 \t\t\t\n      SWAP1 \t\t\t\n      POP \t\t\t\n      JUMP \t\t\t\n    tag 184\t\t\t\n      JUMPDEST \t\t\t\n      DUP3 \t\t\t\n      DUP2 \t\t\t\n      DUP4 \t\t\t\n      CALLDATACOPY \t\t\t\n      PUSH 0\t\t\t\n      DUP4 \t\t\t\n      DUP4 \t\t\t\n      ADD \t\t\t\n      MSTORE \t\t\t\n      POP \t\t\t\n      POP \t\t\t\n      POP \t\t\t\n      JUMP \t\t\t\n    tag 185\t\t\t\n      JUMPDEST \t\t\t\n      PUSH 0\t\t\t\n      PUSH [tag] 345\t\t\t\n      PUSH [tag] 346\t\t\t\n      DUP5 \t\t\t\n      PUSH [tag] 183\t\t\t\n      JUMP \t\t\t\n    tag 346\t\t\t\n      JUMPDEST \t\t\t\n      PUSH [tag] 182\t\t\t\n      JUMP \t\t\t\n    tag 345\t\t\t\n      JUMPDEST \t\t\t\n      SWAP1 \t\t\t\n      POP \t\t\t\n      DUP3 \t\t\t\n      DUP2 \t\t\t\n      MSTORE \t\t\t\n      PUSH 20\t\t\t\n      DUP2 \t\t\t\n      ADD \t\t\t\n      DUP5 \t\t\t\n      DUP5 \t\t\t\n      DUP5 \t\t\t\n      ADD \t\t\t\n      GT \t\t\t\n      ISZERO \t\t\t\n      PUSH [tag] 347\t\t\t\n      JUMPI \t\t\t\n      PUSH [tag] 348\t\t\t\n      PUSH [tag] 179\t\t\t\n      JUMP \t\t\t\n    tag 348\t\t\t\n      JUMPDEST \t\t\t\n    tag 347\t\t\t\n      JUMPDEST \t\t\t\n      PUSH [tag] 349\t\t\t\n      DUP5 \t\t\t\n      DUP3 \t\t\t\n      DUP6 \t\t\t\n      PUSH [tag] 184\t\t\t\n      JUMP \t\t\t\n    tag 349\t\t\t\n      JUMPDEST \t\t\t\n      POP \t\t\t\n      SWAP4 \t\t\t\n      SWAP3 \t\t\t\n      POP \t\t\t\n      POP \t\t\t\n      POP \t\t\t\n      JUMP \t\t\t\n    tag 186\t\t\t\n      JUMPDEST \t\t\t\n      PUSH 0\t\t\t\n      DUP3 \t\t\t\n      PUSH 1F\t\t\t\n      DUP4 \t\t\t\n      ADD \t\t\t\n      SLT \t\t\t\n      PUSH [tag] 351\t\t\t\n      JUMPI \t\t\t\n      PUSH [tag] 352\t\t\t\n      PUSH [tag] 178\t\t\t\n      JUMP \t\t\t\n    tag 352\t\t\t\n      JUMPDEST \t\t\t\n    tag 351\t\t\t\n      JUMPDEST \t\t\t\n      DUP2 \t\t\t\n      CALLDATALOAD \t\t\t\n      PUSH [tag] 353\t\t\t\n      DUP5 \t\t\t\n      DUP3 \t\t\t\n      PUSH 20\t\t\t\n      DUP7 \t\t\t\n      ADD \t\t\t\n      PUSH [tag] 185\t\t\t\n      JUMP \t\t\t\n    tag 353\t\t\t\n      JUMPDEST \t\t\t\n      SWAP2 \t\t\t\n      POP \t\t\t\n      POP \t\t\t\n      SWAP3 \t\t\t\n      SWAP2 \t\t\t\n      POP \t\t\t\n      POP \t\t\t\n      JUMP \t\t\t\n    tag 34\t\t\t\n      JUMPDEST \t\t\t\n      PUSH 0\t\t\t\n      DUP1 \t\t\t\n      PUSH 0\t\t\t\n      DUP1 \t\t\t\n      PUSH 80\t\t\t\n      DUP6 \t\t\t\n      DUP8 \t\t\t\n      SUB \t\t\t\n      SLT \t\t\t\n      ISZERO \t\t\t\n      PUSH [tag] 355\t\t\t\n      JUMPI \t\t\t\n      PUSH [tag] 356\t\t\t\n      PUSH [tag] 168\t\t\t\n      JUMP \t\t\t\n    tag 356\t\t\t\n      JUMPDEST \t\t\t\n    tag 355\t\t\t\n      JUMPDEST \t\t\t\n      PUSH 0\t\t\t\n      DUP6 \t\t\t\n      ADD \t\t\t\n      CALLDATALOAD \t\t\t\n      PUSH FFFFFFFFFFFFFFFF\t\t\t\n      DUP2 \t\t\t\n      GT \t\t\t\n      ISZERO \t\t\t\n      PUSH [tag] 357\t\t\t\n      JUMPI \t\t\t\n      PUSH [tag] 358\t\t\t\n      PUSH [tag] 169\t\t\t\n      JUMP \t\t\t\n    tag 358\t\t\t\n      JUMPDEST \t\t\t\n    tag 357\t\t\t\n      JUMPDEST \t\t\t\n      PUSH [tag] 359\t\t\t\n      DUP8 \t\t\t\n      DUP3 \t\t\t\n      DUP9 \t\t\t\n      ADD \t\t\t\n      PUSH [tag] 186\t\t\t\n      JUMP \t\t\t\n    tag 359\t\t\t\n      JUMPDEST \t\t\t\n      SWAP5 \t\t\t\n      POP \t\t\t\n      POP \t\t\t\n      PUSH 20\t\t\t\n      DUP6 \t\t\t\n      ADD \t\t\t\n      CALLDATALOAD \t\t\t\n      PUSH FFFFFFFFFFFFFFFF\t\t\t\n      DUP2 \t\t\t\n      GT \t\t\t\n      ISZERO \t\t\t\n      PUSH [tag] 360\t\t\t\n      JUMPI \t\t\t\n      PUSH [tag] 361\t\t\t\n      PUSH [tag] 169\t\t\t\n      JUMP \t\t\t\n    tag 361\t\t\t\n      JUMPDEST \t\t\t\n    tag 360\t\t\t\n      JUMPDEST \t\t\t\n      PUSH [tag] 362\t\t\t\n      DUP8 \t\t\t\n      DUP3 \t\t\t\n      DUP9 \t\t\t\n      ADD \t\t\t\n      PUSH [tag] 186\t\t\t\n      JUMP \t\t\t\n    tag 362\t\t\t\n      JUMPDEST \t\t\t\n      SWAP4 \t\t\t\n      POP \t\t\t\n      POP \t\t\t\n      PUSH 40\t\t\t\n      DUP6 \t\t\t\n      ADD \t\t\t\n      CALLDATALOAD \t\t\t\n      PUSH FFFFFFFFFFFFFFFF\t\t\t\n      DUP2 \t\t\t\n      GT \t\t\t\n      ISZERO \t\t\t\n      PUSH [tag] 363\t\t\t\n      JUMPI \t\t\t\n      PUSH [tag] 364\t\t\t\n      PUSH [tag] 169\t\t\t\n      JUMP \t\t\t\n    tag 364\t\t\t\n      JUMPDEST \t\t\t\n    tag 363\t\t\t\n      JUMPDEST \t\t\t\n      PUSH [tag] 365\t\t\t\n      DUP8 \t\t\t\n      DUP3 \t\t\t\n      DUP9 \t\t\t\n      ADD \t\t\t\n      PUSH [tag] 186\t\t\t\n      JUMP \t\t\t\n    tag 365\t\t\t\n      JUMPDEST \t\t\t\n      SWAP3 \t\t\t\n      POP \t\t\t\n      POP \t\t\t\n      PUSH 60\t\t\t\n      PUSH [tag] 366\t\t\t\n      DUP8 \t\t\t\n      DUP3 \t\t\t\n      DUP9 \t\t\t\n      ADD \t\t\t\n      PUSH [tag] 171\t\t\t\n      JUMP \t\t\t\n    tag 366\t\t\t\n      JUMPDEST \t\t\t\n      SWAP2 \t\t\t\n      POP \t\t\t\n      POP \t\t\t\n      SWAP3 \t\t\t\n      SWAP6 \t\t\t\n      SWAP2 \t\t\t\n      SWAP5 \t\t\t\n      POP \t\t\t\n      SWAP3 \t\t\t\n      POP \t\t\t\n      JUMP \t\t\t\n    tag 187\t\t\t\n      JUMPDEST \t\t\t\n      PUSH 4E487B7100000000000000000000000000000000000000000000000000000000\t\t\t\n      PUSH 0\t\t\t\n      MSTORE \t\t\t\n      PUSH 22\t\t\t\n      PUSH 4\t\t\t\n      MSTORE \t\t\t\n      PUSH 24\t\t\t\n      PUSH 0\t\t\t\n      REVERT \t\t\t\n    tag 44\t\t\t\n      JUMPDEST \t\t\t\n      PUSH 0\t\t\t\n      PUSH 2\t\t\t\n      DUP3 \t\t\t\n      DIV \t\t\t\n      SWAP1 \t\t\t\n      POP \t\t\t\n      PUSH 1\t\t\t\n      DUP3 \t\t\t\n      AND \t\t\t\n      DUP1 \t\t\t\n      PUSH [tag] 369\t\t\t\n      JUMPI \t\t\t\n      PUSH 7F\t\t\t\n      DUP3 \t\t\t\n      AND \t\t\t\n      SWAP2 \t\t\t\n      POP \t\t\t\n    tag 369\t\t\t\n      JUMPDEST \t\t\t\n      PUSH 20\t\t\t\n      DUP3 \t\t\t\n      LT \t\t\t\n      DUP2 \t\t\t\n      SUB \t\t\t\n      PUSH [tag] 370\t\t\t\n      JUMPI \t\t\t\n      PUSH [tag] 371\t\t\t\n      PUSH [tag] 187\t\t\t\n      JUMP \t\t\t\n    tag 371\t\t\t\n      JUMPDEST \t\t\t\n    tag 370\t\t\t\n      JUMPDEST \t\t\t\n      POP \t\t\t\n      SWAP2 \t\t\t\n      SWAP1 \t\t\t\n      POP \t\t\t\n      JUMP \t\t\t\n    tag 188\t\t\t\n      JUMPDEST \t\t\t\n      PUSH 4974656D20494420646F6573206E6F7420657869737400000000000000000000\t\t\t\n      PUSH 0\t\t\t\n      DUP3 \t\t\t\n      ADD \t\t\t\n      MSTORE \t\t\t\n      POP \t\t\t\n      JUMP \t\t\t\n    tag 189\t\t\t\n      JUMPDEST \t\t\t\n      PUSH 0\t\t\t\n      PUSH [tag] 374\t\t\t\n      PUSH 16\t\t\t\n      DUP4 \t\t\t\n      PUSH [tag] 173\t\t\t\n      JUMP \t\t\t\n    tag 374\t\t\t\n      JUMPDEST \t\t\t\n      SWAP2 \t\t\t\n      POP \t\t\t\n      PUSH [tag] 375\t\t\t\n      DUP3 \t\t\t\n      PUSH [tag] 188\t\t\t\n      JUMP \t\t\t\n    tag 375\t\t\t\n      JUMPDEST \t\t\t\n      PUSH 20\t\t\t\n      DUP3 \t\t\t\n      ADD \t\t\t\n      SWAP1 \t\t\t\n      POP \t\t\t\n      SWAP2 \t\t\t\n      SWAP1 \t\t\t\n      POP \t\t\t\n      JUMP \t\t\t\n    tag 81\t\t\t\n      JUMPDEST \t\t\t\n      PUSH 0\t\t\t\n      PUSH 20\t\t\t\n      DUP3 \t\t\t\n      ADD \t\t\t\n      SWAP1 \t\t\t\n      POP \t\t\t\n      DUP2 \t\t\t\n      DUP2 \t\t\t\n      SUB \t\t\t\n      PUSH 0\t\t\t\n      DUP4 \t\t\t\n      ADD \t\t\t\n      MSTORE \t\t\t\n      PUSH [tag] 377\t\t\t\n      DUP2 \t\t\t\n      PUSH [tag] 189\t\t\t\n      JUMP \t\t\t\n    tag 377\t\t\t\n      JUMPDEST \t\t\t\n      SWAP1 \t\t\t\n      POP \t\t\t\n      SWAP2 \t\t\t\n      SWAP1 \t\t\t\n      POP \t\t\t\n      JUMP \t\t\t\n    tag 84\t\t\t\n      JUMPDEST \t\t\t\n      PUSH 4E487B7100000000000000000000000000000000000000000000000000000000\t\t\t\n      PUSH 0\t\t\t\n      MSTORE \t\t\t\n      PUSH 32\t\t\t\n      PUSH 4\t\t\t\n      MSTORE \t\t\t\n      PUSH 24\t\t\t\n      PUSH 0\t\t\t\n      REVERT \t\t\t\n    tag 190\t\t\t\n      JUMPDEST \t\t\t\n      PUSH 5072696365206D7573742062652067726561746572207468616E207A65726F00\t\t\t\n      PUSH 0\t\t\t\n      DUP3 \t\t\t\n      ADD \t\t\t\n      MSTORE \t\t\t\n      POP \t\t\t\n      JUMP \t\t\t\n    tag 191\t\t\t\n      JUMPDEST \t\t\t\n      PUSH 0\t\t\t\n      PUSH [tag] 381\t\t\t\n      PUSH 1F\t\t\t\n      DUP4 \t\t\t\n      PUSH [tag] 173\t\t\t\n      JUMP \t\t\t\n    tag 381\t\t\t\n      JUMPDEST \t\t\t\n      SWAP2 \t\t\t\n      POP \t\t\t\n      PUSH [tag] 382\t\t\t\n      DUP3 \t\t\t\n      PUSH [tag] 190\t\t\t\n      JUMP \t\t\t\n    tag 382\t\t\t\n      JUMPDEST \t\t\t\n      PUSH 20\t\t\t\n      DUP3 \t\t\t\n      ADD \t\t\t\n      SWAP1 \t\t\t\n      POP \t\t\t\n      SWAP2 \t\t\t\n      SWAP1 \t\t\t\n      POP \t\t\t\n      JUMP \t\t\t\n    tag 104\t\t\t\n      JUMPDEST \t\t\t\n      PUSH 0\t\t\t\n      PUSH 20\t\t\t\n      DUP3 \t\t\t\n      ADD \t\t\t\n      SWAP1 \t\t\t\n      POP \t\t\t\n      DUP2 \t\t\t\n      DUP2 \t\t\t\n      SUB \t\t\t\n      PUSH 0\t\t\t\n      DUP4 \t\t\t\n      ADD \t\t\t\n      MSTORE \t\t\t\n      PUSH [tag] 384\t\t\t\n      DUP2 \t\t\t\n      PUSH [tag] 191\t\t\t\n      JUMP \t\t\t\n    tag 384\t\t\t\n      JUMPDEST \t\t\t\n      SWAP1 \t\t\t\n      POP \t\t\t\n      SWAP2 \t\t\t\n      SWAP1 \t\t\t\n      POP \t\t\t\n      JUMP \t\t\t\n    tag 192\t\t\t\n      JUMPDEST \t\t\t\n      PUSH 0\t\t\t\n      DUP2 \t\t\t\n      SWAP1 \t\t\t\n      POP \t\t\t\n      DUP2 \t\t\t\n      PUSH 0\t\t\t\n      MSTORE \t\t\t\n      PUSH 20\t\t\t\n      PUSH 0\t\t\t\n      KECCAK256 \t\t\t\n      SWAP1 \t\t\t\n      POP \t\t\t\n      SWAP2 \t\t\t\n      SWAP1 \t\t\t\n      POP \t\t\t\n      JUMP \t\t\t\n    tag 193\t\t\t\n      JUMPDEST \t\t\t\n      PUSH 0\t\t\t\n      PUSH 20\t\t\t\n      PUSH 1F\t\t\t\n      DUP4 \t\t\t\n      ADD \t\t\t\n      DIV \t\t\t\n      SWAP1 \t\t\t\n      POP \t\t\t\n      SWAP2 \t\t\t\n      SWAP1 \t\t\t\n      POP \t\t\t\n      JUMP \t\t\t\n    tag 194\t\t\t\n      JUMPDEST \t\t\t\n      PUSH 0\t\t\t\n      DUP3 \t\t\t\n      DUP3 \t\t\t\n      SHL \t\t\t\n      SWAP1 \t\t\t\n      POP \t\t\t\n      SWAP3 \t\t\t\n      SWAP2 \t\t\t\n      POP \t\t\t\n      POP \t\t\t\n      JUMP \t\t\t\n    tag 195\t\t\t\n      JUMPDEST \t\t\t\n      PUSH 0\t\t\t\n      PUSH 8\t\t\t\n      DUP4 \t\t\t\n      MUL \t\t\t\n      PUSH [tag] 389\t\t\t\n      PUSH FFFFFFFFFFFFFFFFFFFFFFFFFFFFFFFFFFFFFFFFFFFFFFFFFFFFFFFFFFFFFFFF\t\t\t\n      DUP3 \t\t\t\n      PUSH [tag] 194\t\t\t\n      JUMP \t\t\t\n    tag 389\t\t\t\n      JUMPDEST \t\t\t\n      PUSH [tag] 390\t\t\t\n      DUP7 \t\t\t\n      DUP4 \t\t\t\n      PUSH [tag] 194\t\t\t\n      JUMP \t\t\t\n    tag 390\t\t\t\n      JUMPDEST \t\t\t\n      SWAP6 \t\t\t\n      POP \t\t\t\n      DUP1 \t\t\t\n      NOT \t\t\t\n      DUP5 \t\t\t\n      AND \t\t\t\n      SWAP4 \t\t\t\n      POP \t\t\t\n      DUP1 \t\t\t\n      DUP7 \t\t\t\n      AND \t\t\t\n      DUP5 \t\t\t\n      OR \t\t\t\n      SWAP3 \t\t\t\n      POP \t\t\t\n      POP \t\t\t\n      POP \t\t\t\n      SWAP4 \t\t\t\n      SWAP3 \t\t\t\n      POP \t\t\t\n      POP \t\t\t\n      POP \t\t\t\n      JUMP \t\t\t\n    tag 196\t\t\t\n      JUMPDEST \t\t\t\n      PUSH 0\t\t\t\n      DUP2 \t\t\t\n      SWAP1 \t\t\t\n      POP \t\t\t\n      SWAP2 \t\t\t\n      SWAP1 \t\t\t\n      POP \t\t\t\n      JUMP \t\t\t\n    tag 197\t\t\t\n      JUMPDEST \t\t\t\n      PUSH 0\t\t\t\n      PUSH [tag] 393\t\t\t\n      PUSH [tag] 394\t\t\t\n      PUSH [tag] 395\t\t\t\n      DUP5 \t\t\t\n      PUSH [tag] 148\t\t\t\n      JUMP \t\t\t\n    tag 395\t\t\t\n      JUMPDEST \t\t\t\n      PUSH [tag] 196\t\t\t\n      JUMP \t\t\t\n    tag 394\t\t\t\n      JUMPDEST \t\t\t\n      PUSH [tag] 148\t\t\t\n      JUMP \t\t\t\n    tag 393\t\t\t\n      JUMPDEST \t\t\t\n      SWAP1 \t\t\t\n      POP \t\t\t\n      SWAP2 \t\t\t\n      SWAP1 \t\t\t\n      POP \t\t\t\n      JUMP \t\t\t\n    tag 198\t\t\t\n      JUMPDEST \t\t\t\n      PUSH 0\t\t\t\n      DUP2 \t\t\t\n      SWAP1 \t\t\t\n      POP \t\t\t\n      SWAP2 \t\t\t\n      SWAP1 \t\t\t\n      POP \t\t\t\n      JUMP \t\t\t\n    tag 199\t\t\t\n      JUMPDEST \t\t\t\n      PUSH [tag] 398\t\t\t\n      DUP4 \t\t\t\n      PUSH [tag] 197\t\t\t\n      JUMP \t\t\t\n    tag 398\t\t\t\n      JUMPDEST \t\t\t\n      PUSH [tag] 399\t\t\t\n      PUSH [tag] 400\t\t\t\n      DUP3 \t\t\t\n      PUSH [tag] 198\t\t\t\n      JUMP \t\t\t\n    tag 400\t\t\t\n      JUMPDEST \t\t\t\n      DUP5 \t\t\t\n      DUP5 \t\t\t\n      SLOAD \t\t\t\n      PUSH [tag] 195\t\t\t\n      JUMP \t\t\t\n    tag 399\t\t\t\n      JUMPDEST \t\t\t\n      DUP3 \t\t\t\n      SSTORE \t\t\t\n      POP \t\t\t\n      POP \t\t\t\n      POP \t\t\t\n      POP \t\t\t\n      JUMP \t\t\t\n    tag 200\t\t\t\n      JUMPDEST \t\t\t\n      PUSH 0\t\t\t\n      SWAP1 \t\t\t\n      JUMP \t\t\t\n    tag 201\t\t\t\n      JUMPDEST \t\t\t\n      PUSH [tag] 403\t\t\t\n      PUSH [tag] 200\t\t\t\n      JUMP \t\t\t\n    tag 403\t\t\t\n      JUMPDEST \t\t\t\n      PUSH [tag] 404\t\t\t\n      DUP2 \t\t\t\n      DUP5 \t\t\t\n      DUP5 \t\t\t\n      PUSH [tag] 199\t\t\t\n      JUMP \t\t\t\n    tag 404\t\t\t\n      JUMPDEST \t\t\t\n      POP \t\t\t\n      POP \t\t\t\n      POP \t\t\t\n      JUMP \t\t\t\n    tag 202\t\t\t\n      JUMPDEST \t\t\t\n    tag 406\t\t\t\n      JUMPDEST \t\t\t\n      DUP2 \t\t\t\n      DUP2 \t\t\t\n      LT \t\t\t\n      ISZERO \t\t\t\n      PUSH [tag] 408\t\t\t\n      JUMPI \t\t\t\n      PUSH [tag] 409\t\t\t\n      PUSH 0\t\t\t\n      DUP3 \t\t\t\n      PUSH [tag] 201\t\t\t\n      JUMP \t\t\t\n    tag 409\t\t\t\n      JUMPDEST \t\t\t\n      PUSH 1\t\t\t\n      DUP2 \t\t\t\n      ADD \t\t\t\n      SWAP1 \t\t\t\n      POP \t\t\t\n      PUSH [tag] 406\t\t\t\n      JUMP \t\t\t\n    tag 408\t\t\t\n      JUMPDEST \t\t\t\n      POP \t\t\t\n      POP \t\t\t\n      JUMP \t\t\t\n    tag 203\t\t\t\n      JUMPDEST \t\t\t\n      PUSH 1F\t\t\t\n      DUP3 \t\t\t\n      GT \t\t\t\n      ISZERO \t\t\t\n      PUSH [tag] 411\t\t\t\n      JUMPI \t\t\t\n      PUSH [tag] 412\t\t\t\n      DUP2 \t\t\t\n      PUSH [tag] 192\t\t\t\n      JUMP \t\t\t\n    tag 412\t\t\t\n      JUMPDEST \t\t\t\n      PUSH [tag] 413\t\t\t\n      DUP5 \t\t\t\n      PUSH [tag] 193\t\t\t\n      JUMP \t\t\t\n    tag 413\t\t\t\n      JUMPDEST \t\t\t\n      DUP2 \t\t\t\n      ADD \t\t\t\n      PUSH 20\t\t\t\n      DUP6 \t\t\t\n      LT \t\t\t\n      ISZERO \t\t\t\n      PUSH [tag] 414\t\t\t\n      JUMPI \t\t\t\n      DUP2 \t\t\t\n      SWAP1 \t\t\t\n      POP \t\t\t\n    tag 414\t\t\t\n      JUMPDEST \t\t\t\n      PUSH [tag] 415\t\t\t\n      PUSH [tag] 416\t\t\t\n      DUP6 \t\t\t\n      PUSH [tag] 193\t\t\t\n      JUMP \t\t\t\n    tag 416\t\t\t\n      JUMPDEST \t\t\t\n      DUP4 \t\t\t\n      ADD \t\t\t\n      DUP3 \t\t\t\n      PUSH [tag] 202\t\t\t\n      JUMP \t\t\t\n    tag 415\t\t\t\n      JUMPDEST \t\t\t\n      POP \t\t\t\n      POP \t\t\t\n    tag 411\t\t\t\n      JUMPDEST \t\t\t\n      POP \t\t\t\n      POP \t\t\t\n      POP \t\t\t\n      JUMP \t\t\t\n    tag 204\t\t\t\n      JUMPDEST \t\t\t\n      PUSH 0\t\t\t\n      DUP3 \t\t\t\n      DUP3 \t\t\t\n      SHR \t\t\t\n      SWAP1 \t\t\t\n      POP \t\t\t\n      SWAP3 \t\t\t\n      SWAP2 \t\t\t\n      POP \t\t\t\n      POP \t\t\t\n      JUMP \t\t\t\n    tag 205\t\t\t\n      JUMPDEST \t\t\t\n      PUSH 0\t\t\t\n      PUSH [tag] 419\t\t\t\n      PUSH 0\t\t\t\n      NOT \t\t\t\n      DUP5 \t\t\t\n      PUSH 8\t\t\t\n      MUL \t\t\t\n      PUSH [tag] 204\t\t\t\n      JUMP \t\t\t\n    tag 419\t\t\t\n      JUMPDEST \t\t\t\n      NOT \t\t\t\n      DUP1 \t\t\t\n      DUP4 \t\t\t\n      AND \t\t\t\n      SWAP2 \t\t\t\n      POP \t\t\t\n      POP \t\t\t\n      SWAP3 \t\t\t\n      SWAP2 \t\t\t\n      POP \t\t\t\n      POP \t\t\t\n      JUMP \t\t\t\n    tag 206\t\t\t\n      JUMPDEST \t\t\t\n      PUSH 0\t\t\t\n      PUSH [tag] 421\t\t\t\n      DUP4 \t\t\t\n      DUP4 \t\t\t\n      PUSH [tag] 205\t\t\t\n      JUMP \t\t\t\n    tag 421\t\t\t\n      JUMPDEST \t\t\t\n      SWAP2 \t\t\t\n      POP \t\t\t\n      DUP3 \t\t\t\n      PUSH 2\t\t\t\n      MUL \t\t\t\n      DUP3 \t\t\t\n      OR \t\t\t\n      SWAP1 \t\t\t\n      POP \t\t\t\n      SWAP3 \t\t\t\n      SWAP2 \t\t\t\n      POP \t\t\t\n      POP \t\t\t\n      JUMP \t\t\t\n    tag 107\t\t\t\n      JUMPDEST \t\t\t\n      PUSH [tag] 423\t\t\t\n      DUP3 \t\t\t\n      PUSH [tag] 153\t\t\t\n      JUMP \t\t\t\n    tag 423\t\t\t\n      JUMPDEST \t\t\t\n      PUSH FFFFFFFFFFFFFFFF\t\t\t\n      DUP2 \t\t\t\n      GT \t\t\t\n      ISZERO \t\t\t\n      PUSH [tag] 424\t\t\t\n      JUMPI \t\t\t\n      PUSH [tag] 425\t\t\t\n      PUSH [tag] 180\t\t\t\n      JUMP \t\t\t\n    tag 425\t\t\t\n      JUMPDEST \t\t\t\n    tag 424\t\t\t\n      JUMPDEST \t\t\t\n      PUSH [tag] 426\t\t\t\n      DUP3 \t\t\t\n      SLOAD \t\t\t\n      PUSH [tag] 44\t\t\t\n      JUMP \t\t\t\n    tag 426\t\t\t\n      JUMPDEST \t\t\t\n      PUSH [tag] 427\t\t\t\n      DUP3 \t\t\t\n      DUP3 \t\t\t\n      DUP6 \t\t\t\n      PUSH [tag] 203\t\t\t\n      JUMP \t\t\t\n    tag 427\t\t\t\n      JUMPDEST \t\t\t\n      PUSH 0\t\t\t\n      PUSH 20\t\t\t\n      SWAP1 \t\t\t\n      POP \t\t\t\n      PUSH 1F\t\t\t\n      DUP4 \t\t\t\n      GT \t\t\t\n      PUSH 1\t\t\t\n      DUP2 \t\t\t\n      EQ \t\t\t\n      PUSH [tag] 429\t\t\t\n      JUMPI \t\t\t\n      PUSH 0\t\t\t\n      DUP5 \t\t\t\n      ISZERO \t\t\t\n      PUSH [tag] 430\t\t\t\n      JUMPI \t\t\t\n      DUP3 \t\t\t\n      DUP8 \t\t\t\n      ADD \t\t\t\n      MLOAD \t\t\t\n      SWAP1 \t\t\t\n      POP \t\t\t\n    tag 430\t\t\t\n      JUMPDEST \t\t\t\n      PUSH [tag] 431\t\t\t\n      DUP6 \t\t\t\n      DUP3 \t\t\t\n      PUSH [tag] 206\t\t\t\n      JUMP \t\t\t\n    tag 431\t\t\t\n      JUMPDEST \t\t\t\n      DUP7 \t\t\t\n      SSTORE \t\t\t\n      POP \t\t\t\n      PUSH [tag] 428\t\t\t\n      JUMP \t\t\t\n    tag 429\t\t\t\n      JUMPDEST \t\t\t\n      PUSH 1F\t\t\t\n      NOT \t\t\t\n      DUP5 \t\t\t\n      AND \t\t\t\n      PUSH [tag] 432\t\t\t\n      DUP7 \t\t\t\n      PUSH [tag] 192\t\t\t\n      JUMP \t\t\t\n    tag 432\t\t\t\n      JUMPDEST \t\t\t\n      PUSH 0\t\t\t\n    tag 433\t\t\t\n      JUMPDEST \t\t\t\n      DUP3 \t\t\t\n      DUP2 \t\t\t\n      LT \t\t\t\n      ISZERO \t\t\t\n      PUSH [tag] 435\t\t\t\n      JUMPI \t\t\t\n      DUP5 \t\t\t\n      DUP10 \t\t\t\n      ADD \t\t\t\n      MLOAD \t\t\t\n      DUP3 \t\t\t\n      SSTORE \t\t\t\n      PUSH 1\t\t\t\n      DUP3 \t\t\t\n      ADD \t\t\t\n      SWAP2 \t\t\t\n      POP \t\t\t\n      PUSH 20\t\t\t\n      DUP6 \t\t\t\n      ADD \t\t\t\n      SWAP5 \t\t\t\n      POP \t\t\t\n      PUSH 20\t\t\t\n      DUP2 \t\t\t\n      ADD \t\t\t\n      SWAP1 \t\t\t\n      POP \t\t\t\n      PUSH [tag] 433\t\t\t\n      JUMP \t\t\t\n    tag 435\t\t\t\n      JUMPDEST \t\t\t\n      DUP7 \t\t\t\n      DUP4 \t\t\t\n      LT \t\t\t\n      ISZERO \t\t\t\n      PUSH [tag] 436\t\t\t\n      JUMPI \t\t\t\n      DUP5 \t\t\t\n      DUP10 \t\t\t\n      ADD \t\t\t\n      MLOAD \t\t\t\n      PUSH [tag] 437\t\t\t\n      PUSH 1F\t\t\t\n      DUP10 \t\t\t\n      AND \t\t\t\n      DUP3 \t\t\t\n      PUSH [tag] 205\t\t\t\n      JUMP \t\t\t\n    tag 437\t\t\t\n      JUMPDEST \t\t\t\n      DUP4 \t\t\t\n      SSTORE \t\t\t\n      POP \t\t\t\n    tag 436\t\t\t\n      JUMPDEST \t\t\t\n      PUSH 1\t\t\t\n      PUSH 2\t\t\t\n      DUP9 \t\t\t\n      MUL \t\t\t\n      ADD \t\t\t\n      DUP9 \t\t\t\n      SSTORE \t\t\t\n      POP \t\t\t\n      POP \t\t\t\n      POP \t\t\t\n    tag 428\t\t\t\n      JUMPDEST \t\t\t\n      POP \t\t\t\n      POP \t\t\t\n      POP \t\t\t\n      POP \t\t\t\n      POP \t\t\t\n      POP \t\t\t\n      JUMP \t\t\t\n    tag 207\t\t\t\n      JUMPDEST \t\t\t\n      PUSH 0\t\t\t\n      DUP2 \t\t\t\n      SWAP1 \t\t\t\n      POP \t\t\t\n      SWAP2 \t\t\t\n      SWAP1 \t\t\t\n      POP \t\t\t\n      JUMP \t\t\t\n    tag 208\t\t\t\n      JUMPDEST \t\t\t\n      PUSH [tag] 440\t\t\t\n      PUSH [tag] 441\t\t\t\n      DUP3 \t\t\t\n      PUSH [tag] 148\t\t\t\n      JUMP \t\t\t\n    tag 441\t\t\t\n      JUMPDEST \t\t\t\n      PUSH [tag] 207\t\t\t\n      JUMP \t\t\t\n    tag 440\t\t\t\n      JUMPDEST \t\t\t\n      DUP3 \t\t\t\n      MSTORE \t\t\t\n      POP \t\t\t\n      POP \t\t\t\n      JUMP \t\t\t\n    tag 209\t\t\t\n      JUMPDEST \t\t\t\n      PUSH 0\t\t\t\n      PUSH [tag] 443\t\t\t\n      DUP3 \t\t\t\n      PUSH [tag] 150\t\t\t\n      JUMP \t\t\t\n    tag 443\t\t\t\n      JUMPDEST \t\t\t\n      SWAP1 \t\t\t\n      POP \t\t\t\n      SWAP2 \t\t\t\n      SWAP1 \t\t\t\n      POP \t\t\t\n      JUMP \t\t\t\n    tag 210\t\t\t\n      JUMPDEST \t\t\t\n      PUSH 0\t\t\t\n      DUP2 \t\t\t\n      PUSH 60\t\t\t\n      SHL \t\t\t\n      SWAP1 \t\t\t\n      POP \t\t\t\n      SWAP2 \t\t\t\n      SWAP1 \t\t\t\n      POP \t\t\t\n      JUMP \t\t\t\n    tag 211\t\t\t\n      JUMPDEST \t\t\t\n      PUSH 0\t\t\t\n      PUSH [tag] 446\t\t\t\n      DUP3 \t\t\t\n      PUSH [tag] 210\t\t\t\n      JUMP \t\t\t\n    tag 446\t\t\t\n      JUMPDEST \t\t\t\n      SWAP1 \t\t\t\n      POP \t\t\t\n      SWAP2 \t\t\t\n      SWAP1 \t\t\t\n      POP \t\t\t\n      JUMP \t\t\t\n    tag 212\t\t\t\n      JUMPDEST \t\t\t\n      PUSH 0\t\t\t\n      PUSH [tag] 448\t\t\t\n      DUP3 \t\t\t\n      PUSH [tag] 211\t\t\t\n      JUMP \t\t\t\n    tag 448\t\t\t\n      JUMPDEST \t\t\t\n      SWAP1 \t\t\t\n      POP \t\t\t\n      SWAP2 \t\t\t\n      SWAP1 \t\t\t\n      POP \t\t\t\n      JUMP \t\t\t\n    tag 213\t\t\t\n      JUMPDEST \t\t\t\n      PUSH [tag] 450\t\t\t\n      PUSH [tag] 451\t\t\t\n      DUP3 \t\t\t\n      PUSH [tag] 209\t\t\t\n      JUMP \t\t\t\n    tag 451\t\t\t\n      JUMPDEST \t\t\t\n      PUSH [tag] 212\t\t\t\n      JUMP \t\t\t\n    tag 450\t\t\t\n      JUMPDEST \t\t\t\n      DUP3 \t\t\t\n      MSTORE \t\t\t\n      POP \t\t\t\n      POP \t\t\t\n      JUMP \t\t\t\n    tag 214\t\t\t\n      JUMPDEST \t\t\t\n      PUSH 0\t\t\t\n      DUP2 \t\t\t\n      SWAP1 \t\t\t\n      POP \t\t\t\n      SWAP3 \t\t\t\n      SWAP2 \t\t\t\n      POP \t\t\t\n      POP \t\t\t\n      JUMP \t\t\t\n    tag 215\t\t\t\n      JUMPDEST \t\t\t\n      PUSH 0\t\t\t\n      PUSH [tag] 454\t\t\t\n      DUP3 \t\t\t\n      PUSH [tag] 153\t\t\t\n      JUMP \t\t\t\n    tag 454\t\t\t\n      JUMPDEST \t\t\t\n      PUSH [tag] 455\t\t\t\n      DUP2 \t\t\t\n      DUP6 \t\t\t\n      PUSH [tag] 214\t\t\t\n      JUMP \t\t\t\n    tag 455\t\t\t\n      JUMPDEST \t\t\t\n      SWAP4 \t\t\t\n      POP \t\t\t\n      PUSH [tag] 456\t\t\t\n      DUP2 \t\t\t\n      DUP6 \t\t\t\n      PUSH 20\t\t\t\n      DUP7 \t\t\t\n      ADD \t\t\t\n      PUSH [tag] 155\t\t\t\n      JUMP \t\t\t\n    tag 456\t\t\t\n      JUMPDEST \t\t\t\n      DUP1 \t\t\t\n      DUP5 \t\t\t\n      ADD \t\t\t\n      SWAP2 \t\t\t\n      POP \t\t\t\n      POP \t\t\t\n      SWAP3 \t\t\t\n      SWAP2 \t\t\t\n      POP \t\t\t\n      POP \t\t\t\n      JUMP \t\t\t\n    tag 111\t\t\t\n      JUMPDEST \t\t\t\n      PUSH 0\t\t\t\n      PUSH [tag] 458\t\t\t\n      DUP3 \t\t\t\n      DUP8 \t\t\t\n      PUSH [tag] 208\t\t\t\n      JUMP \t\t\t\n    tag 458\t\t\t\n      JUMPDEST \t\t\t\n      PUSH 20\t\t\t\n      DUP3 \t\t\t\n      ADD \t\t\t\n      SWAP2 \t\t\t\n      POP \t\t\t\n      PUSH [tag] 459\t\t\t\n      DUP3 \t\t\t\n      DUP7 \t\t\t\n      PUSH [tag] 213\t\t\t\n      JUMP \t\t\t\n    tag 459\t\t\t\n      JUMPDEST \t\t\t\n      PUSH 14\t\t\t\n      DUP3 \t\t\t\n      ADD \t\t\t\n      SWAP2 \t\t\t\n      POP \t\t\t\n      PUSH [tag] 460\t\t\t\n      DUP3 \t\t\t\n      DUP6 \t\t\t\n      PUSH [tag] 215\t\t\t\n      JUMP \t\t\t\n    tag 460\t\t\t\n      JUMPDEST \t\t\t\n      SWAP2 \t\t\t\n      POP \t\t\t\n      PUSH [tag] 461\t\t\t\n      DUP3 \t\t\t\n      DUP5 \t\t\t\n      PUSH [tag] 208\t\t\t\n      JUMP \t\t\t\n    tag 461\t\t\t\n      JUMPDEST \t\t\t\n      PUSH 20\t\t\t\n      DUP3 \t\t\t\n      ADD \t\t\t\n      SWAP2 \t\t\t\n      POP \t\t\t\n      DUP2 \t\t\t\n      SWAP1 \t\t\t\n      POP \t\t\t\n      SWAP6 \t\t\t\n      SWAP5 \t\t\t\n      POP \t\t\t\n      POP \t\t\t\n      POP \t\t\t\n      POP \t\t\t\n      POP \t\t\t\n      JUMP \t\t\t\n    tag 116\t\t\t\n      JUMPDEST \t\t\t\n      PUSH 0\t\t\t\n      PUSH 80\t\t\t\n      DUP3 \t\t\t\n      ADD \t\t\t\n      SWAP1 \t\t\t\n      POP \t\t\t\n      DUP2 \t\t\t\n      DUP2 \t\t\t\n      SUB \t\t\t\n      PUSH 0\t\t\t\n      DUP4 \t\t\t\n      ADD \t\t\t\n      MSTORE \t\t\t\n      PUSH [tag] 463\t\t\t\n      DUP2 \t\t\t\n      DUP8 \t\t\t\n      PUSH [tag] 174\t\t\t\n      JUMP \t\t\t\n    tag 463\t\t\t\n      JUMPDEST \t\t\t\n      SWAP1 \t\t\t\n      POP \t\t\t\n      DUP2 \t\t\t\n      DUP2 \t\t\t\n      SUB \t\t\t\n      PUSH 20\t\t\t\n      DUP4 \t\t\t\n      ADD \t\t\t\n      MSTORE \t\t\t\n      PUSH [tag] 464\t\t\t\n      DUP2 \t\t\t\n      DUP7 \t\t\t\n      PUSH [tag] 174\t\t\t\n      JUMP \t\t\t\n    tag 464\t\t\t\n      JUMPDEST \t\t\t\n      SWAP1 \t\t\t\n      POP \t\t\t\n      PUSH [tag] 465\t\t\t\n      PUSH 40\t\t\t\n      DUP4 \t\t\t\n      ADD \t\t\t\n      DUP6 \t\t\t\n      PUSH [tag] 166\t\t\t\n      JUMP \t\t\t\n    tag 465\t\t\t\n      JUMPDEST \t\t\t\n      PUSH [tag] 466\t\t\t\n      PUSH 60\t\t\t\n      DUP4 \t\t\t\n      ADD \t\t\t\n      DUP5 \t\t\t\n      PUSH [tag] 176\t\t\t\n      JUMP \t\t\t\n    tag 466\t\t\t\n      JUMPDEST \t\t\t\n      SWAP6 \t\t\t\n      SWAP5 \t\t\t\n      POP \t\t\t\n      POP \t\t\t\n      POP \t\t\t\n      POP \t\t\t\n      POP \t\t\t\n      JUMP \t\t\t\n    tag 216\t\t\t\n      JUMPDEST \t\t\t\n      PUSH 4E487B7100000000000000000000000000000000000000000000000000000000\t\t\t\n      PUSH 0\t\t\t\n      MSTORE \t\t\t\n      PUSH 11\t\t\t\n      PUSH 4\t\t\t\n      MSTORE \t\t\t\n      PUSH 24\t\t\t\n      PUSH 0\t\t\t\n      REVERT \t\t\t\n    tag 118\t\t\t\n      JUMPDEST \t\t\t\n      PUSH 0\t\t\t\n      PUSH [tag] 469\t\t\t\n      DUP3 \t\t\t\n      PUSH [tag] 148\t\t\t\n      JUMP \t\t\t\n    tag 469\t\t\t\n      JUMPDEST \t\t\t\n      SWAP2 \t\t\t\n      POP \t\t\t\n      PUSH FFFFFFFFFFFFFFFFFFFFFFFFFFFFFFFFFFFFFFFFFFFFFFFFFFFFFFFFFFFFFFFF\t\t\t\n      DUP3 \t\t\t\n      SUB \t\t\t\n      PUSH [tag] 470\t\t\t\n      JUMPI \t\t\t\n      PUSH [tag] 471\t\t\t\n      PUSH [tag] 216\t\t\t\n      JUMP \t\t\t\n    tag 471\t\t\t\n      JUMPDEST \t\t\t\n    tag 470\t\t\t\n      JUMPDEST \t\t\t\n      PUSH 1\t\t\t\n      DUP3 \t\t\t\n      ADD \t\t\t\n      SWAP1 \t\t\t\n      POP \t\t\t\n      SWAP2 \t\t\t\n      SWAP1 \t\t\t\n      POP \t\t\t\n      JUMP \t\t\t\n    tag 217\t\t\t\n      JUMPDEST \t\t\t\n      PUSH 506C65617365207375626D6974207468652061736B696E672070726963652069\t\t\t\n      PUSH 0\t\t\t\n      DUP3 \t\t\t\n      ADD \t\t\t\n      MSTORE \t\t\t\n      PUSH 6E206F7264657220746F20636F6D706C65746520746865207075726368617365\t\t\t\n      PUSH 20\t\t\t\n      DUP3 \t\t\t\n      ADD \t\t\t\n      MSTORE \t\t\t\n      POP \t\t\t\n      JUMP \t\t\t\n    tag 218\t\t\t\n      JUMPDEST \t\t\t\n      PUSH 0\t\t\t\n      PUSH [tag] 474\t\t\t\n      PUSH 40\t\t\t\n      DUP4 \t\t\t\n      PUSH [tag] 173\t\t\t\n      JUMP \t\t\t\n    tag 474\t\t\t\n      JUMPDEST \t\t\t\n      SWAP2 \t\t\t\n      POP \t\t\t\n      PUSH [tag] 475\t\t\t\n      DUP3 \t\t\t\n      PUSH [tag] 217\t\t\t\n      JUMP \t\t\t\n    tag 475\t\t\t\n      JUMPDEST \t\t\t\n      PUSH 40\t\t\t\n      DUP3 \t\t\t\n      ADD \t\t\t\n      SWAP1 \t\t\t\n      POP \t\t\t\n      SWAP2 \t\t\t\n      SWAP1 \t\t\t\n      POP \t\t\t\n      JUMP \t\t\t\n    tag 127\t\t\t\n      JUMPDEST \t\t\t\n      PUSH 0\t\t\t\n      PUSH 20\t\t\t\n      DUP3 \t\t\t\n      ADD \t\t\t\n      SWAP1 \t\t\t\n      POP \t\t\t\n      DUP2 \t\t\t\n      DUP2 \t\t\t\n      SUB \t\t\t\n      PUSH 0\t\t\t\n      DUP4 \t\t\t\n      ADD \t\t\t\n      MSTORE \t\t\t\n      PUSH [tag] 477\t\t\t\n      DUP2 \t\t\t\n      PUSH [tag] 218\t\t\t\n      JUMP \t\t\t\n    tag 477\t\t\t\n      JUMPDEST \t\t\t\n      SWAP1 \t\t\t\n      POP \t\t\t\n      SWAP2 \t\t\t\n      SWAP1 \t\t\t\n      POP \t\t\t\n      JUMP \t\t\t\n    tag 219\t\t\t\n      JUMPDEST \t\t\t\n      PUSH 54686973206974656D2068617320616C7265616479206265656E20736F6C6400\t\t\t\n      PUSH 0\t\t\t\n      DUP3 \t\t\t\n      ADD \t\t\t\n      MSTORE \t\t\t\n      POP \t\t\t\n      JUMP \t\t\t\n    tag 220\t\t\t\n      JUMPDEST \t\t\t\n      PUSH 0\t\t\t\n      PUSH [tag] 480\t\t\t\n      PUSH 1F\t\t\t\n      DUP4 \t\t\t\n      PUSH [tag] 173\t\t\t\n      JUMP \t\t\t\n    tag 480\t\t\t\n      JUMPDEST \t\t\t\n      SWAP2 \t\t\t\n      POP \t\t\t\n      PUSH [tag] 481\t\t\t\n      DUP3 \t\t\t\n      PUSH [tag] 219\t\t\t\n      JUMP \t\t\t\n    tag 481\t\t\t\n      JUMPDEST \t\t\t\n      PUSH 20\t\t\t\n      DUP3 \t\t\t\n      ADD \t\t\t\n      SWAP1 \t\t\t\n      POP \t\t\t\n      SWAP2 \t\t\t\n      SWAP1 \t\t\t\n      POP \t\t\t\n      JUMP \t\t\t\n    tag 130\t\t\t\n      JUMPDEST \t\t\t\n      PUSH 0\t\t\t\n      PUSH 20\t\t\t\n      DUP3 \t\t\t\n      ADD \t\t\t\n      SWAP1 \t\t\t\n      POP \t\t\t\n      DUP2 \t\t\t\n      DUP2 \t\t\t\n      SUB \t\t\t\n      PUSH 0\t\t\t\n      DUP4 \t\t\t\n      ADD \t\t\t\n      MSTORE \t\t\t\n      PUSH [tag] 483\t\t\t\n      DUP2 \t\t\t\n      PUSH [tag] 220\t\t\t\n      JUMP \t\t\t\n    tag 483\t\t\t\n      JUMPDEST \t\t\t\n      SWAP1 \t\t\t\n      POP \t\t\t\n      SWAP2 \t\t\t\n      SWAP1 \t\t\t\n      POP \t\t\t\n      JUMP \t\t\t\n    tag 221\t\t\t\n      JUMPDEST \t\t\t\n      PUSH 4F776E65722063616E6E6F7420627579207468656972206F776E206974656D00\t\t\t\n      PUSH 0\t\t\t\n      DUP3 \t\t\t\n      ADD \t\t\t\n      MSTORE \t\t\t\n      POP \t\t\t\n      JUMP \t\t\t\n    tag 222\t\t\t\n      JUMPDEST \t\t\t\n      PUSH 0\t\t\t\n      PUSH [tag] 486\t\t\t\n      PUSH 1F\t\t\t\n      DUP4 \t\t\t\n      PUSH [tag] 173\t\t\t\n      JUMP \t\t\t\n    tag 486\t\t\t\n      JUMPDEST \t\t\t\n      SWAP2 \t\t\t\n      POP \t\t\t\n      PUSH [tag] 487\t\t\t\n      DUP3 \t\t\t\n      PUSH [tag] 221\t\t\t\n      JUMP \t\t\t\n    tag 487\t\t\t\n      JUMPDEST \t\t\t\n      PUSH 20\t\t\t\n      DUP3 \t\t\t\n      ADD \t\t\t\n      SWAP1 \t\t\t\n      POP \t\t\t\n      SWAP2 \t\t\t\n      SWAP1 \t\t\t\n      POP \t\t\t\n      JUMP \t\t\t\n    tag 133\t\t\t\n      JUMPDEST \t\t\t\n      PUSH 0\t\t\t\n      PUSH 20\t\t\t\n      DUP3 \t\t\t\n      ADD \t\t\t\n      SWAP1 \t\t\t\n      POP \t\t\t\n      DUP2 \t\t\t\n      DUP2 \t\t\t\n      SUB \t\t\t\n      PUSH 0\t\t\t\n      DUP4 \t\t\t\n      ADD \t\t\t\n      MSTORE \t\t\t\n      PUSH [tag] 489\t\t\t\n      DUP2 \t\t\t\n      PUSH [tag] 222\t\t\t\n      JUMP \t\t\t\n    tag 489\t\t\t\n      JUMPDEST \t\t\t\n      SWAP1 \t\t\t\n      POP \t\t\t\n      SWAP2 \t\t\t\n      SWAP1 \t\t\t\n      POP \t\t\t\n      JUMP \t\t\t\n    tag 223\t\t\t\n      JUMPDEST \t\t\t\n      PUSH 0\t\t\t\n      DUP2 \t\t\t\n      SWAP1 \t\t\t\n      POP \t\t\t\n      SWAP3 \t\t\t\n      SWAP2 \t\t\t\n      POP \t\t\t\n      POP \t\t\t\n      JUMP \t\t\t\n    tag 224\t\t\t\n      JUMPDEST \t\t\t\n      POP \t\t\t\n      JUMP \t\t\t\n    tag 225\t\t\t\n      JUMPDEST \t\t\t\n      PUSH 0\t\t\t\n      PUSH [tag] 493\t\t\t\n      PUSH 0\t\t\t\n      DUP4 \t\t\t\n      PUSH [tag] 223\t\t\t\n      JUMP \t\t\t\n    tag 493\t\t\t\n      JUMPDEST \t\t\t\n      SWAP2 \t\t\t\n      POP \t\t\t\n      PUSH [tag] 494\t\t\t\n      DUP3 \t\t\t\n      PUSH [tag] 224\t\t\t\n      JUMP \t\t\t\n    tag 494\t\t\t\n      JUMPDEST \t\t\t\n      PUSH 0\t\t\t\n      DUP3 \t\t\t\n      ADD \t\t\t\n      SWAP1 \t\t\t\n      POP \t\t\t\n      SWAP2 \t\t\t\n      SWAP1 \t\t\t\n      POP \t\t\t\n      JUMP \t\t\t\n    tag 135\t\t\t\n      JUMPDEST \t\t\t\n      PUSH 0\t\t\t\n      PUSH [tag] 496\t\t\t\n      DUP3 \t\t\t\n      PUSH [tag] 225\t\t\t\n      JUMP \t\t\t\n    tag 496\t\t\t\n      JUMPDEST \t\t\t\n      SWAP2 \t\t\t\n      POP \t\t\t\n      DUP2 \t\t\t\n      SWAP1 \t\t\t\n      POP \t\t\t\n      SWAP2 \t\t\t\n      SWAP1 \t\t\t\n      POP \t\t\t\n      JUMP \t\t\t\n    tag 226\t\t\t\n      JUMPDEST \t\t\t\n      PUSH 4661696C656420746F2073656E64204574686572000000000000000000000000\t\t\t\n      PUSH 0\t\t\t\n      DUP3 \t\t\t\n      ADD \t\t\t\n      MSTORE \t\t\t\n      POP \t\t\t\n      JUMP \t\t\t\n    tag 227\t\t\t\n      JUMPDEST \t\t\t\n      PUSH 0\t\t\t\n      PUSH [tag] 499\t\t\t\n      PUSH 14\t\t\t\n      DUP4 \t\t\t\n      PUSH [tag] 173\t\t\t\n      JUMP \t\t\t\n    tag 499\t\t\t\n      JUMPDEST \t\t\t\n      SWAP2 \t\t\t\n      POP \t\t\t\n      PUSH [tag] 500\t\t\t\n      DUP3 \t\t\t\n      PUSH [tag] 226\t\t\t\n      JUMP \t\t\t\n    tag 500\t\t\t\n      JUMPDEST \t\t\t\n      PUSH 20\t\t\t\n      DUP3 \t\t\t\n      ADD \t\t\t\n      SWAP1 \t\t\t\n      POP \t\t\t\n      SWAP2 \t\t\t\n      SWAP1 \t\t\t\n      POP \t\t\t\n      JUMP \t\t\t\n    tag 141\t\t\t\n      JUMPDEST \t\t\t\n      PUSH 0\t\t\t\n      PUSH 20\t\t\t\n      DUP3 \t\t\t\n      ADD \t\t\t\n      SWAP1 \t\t\t\n      POP \t\t\t\n      DUP2 \t\t\t\n      DUP2 \t\t\t\n      SUB \t\t\t\n      PUSH 0\t\t\t\n      DUP4 \t\t\t\n      ADD \t\t\t\n      MSTORE \t\t\t\n      PUSH [tag] 502\t\t\t\n      DUP2 \t\t\t\n      PUSH [tag] 227\t\t\t\n      JUMP \t\t\t\n    tag 502\t\t\t\n      JUMPDEST \t\t\t\n      SWAP1 \t\t\t\n      POP \t\t\t\n      SWAP2 \t\t\t\n      SWAP1 \t\t\t\n      POP \t\t\t\n      JUMP \t\t\t\n    tag 144\t\t\t\n      JUMPDEST \t\t\t\n      PUSH 0\t\t\t\n      PUSH 40\t\t\t\n      DUP3 \t\t\t\n      ADD \t\t\t\n      SWAP1 \t\t\t\n      POP \t\t\t\n      PUSH [tag] 504\t\t\t\n      PUSH 0\t\t\t\n      DUP4 \t\t\t\n      ADD \t\t\t\n      DUP6 \t\t\t\n      PUSH [tag] 166\t\t\t\n      JUMP \t\t\t\n    tag 504\t\t\t\n      JUMPDEST \t\t\t\n      PUSH [tag] 505\t\t\t\n      PUSH 20\t\t\t\n      DUP4 \t\t\t\n      ADD \t\t\t\n      DUP5 \t\t\t\n      PUSH [tag] 166\t\t\t\n      JUMP \t\t\t\n    tag 505\t\t\t\n      JUMPDEST \t\t\t\n      SWAP4 \t\t\t\n      SWAP3 \t\t\t\n      POP \t\t\t\n      POP \t\t\t\n      POP \t\t\t\n      JUMP \t\t\t\n    .data\n"
}